{
  "contractName": "MintUniqonToken",
  "abi": [
    {
      "inputs": [],
      "stateMutability": "nonpayable",
      "type": "constructor"
    },
    {
      "anonymous": false,
      "inputs": [
        {
          "indexed": true,
          "internalType": "address",
          "name": "owner",
          "type": "address"
        },
        {
          "indexed": true,
          "internalType": "address",
          "name": "approved",
          "type": "address"
        },
        {
          "indexed": true,
          "internalType": "uint256",
          "name": "tokenId",
          "type": "uint256"
        }
      ],
      "name": "Approval",
      "type": "event"
    },
    {
      "anonymous": false,
      "inputs": [
        {
          "indexed": true,
          "internalType": "address",
          "name": "owner",
          "type": "address"
        },
        {
          "indexed": true,
          "internalType": "address",
          "name": "operator",
          "type": "address"
        },
        {
          "indexed": false,
          "internalType": "bool",
          "name": "approved",
          "type": "bool"
        }
      ],
      "name": "ApprovalForAll",
      "type": "event"
    },
    {
      "anonymous": false,
      "inputs": [
        {
          "indexed": true,
          "internalType": "address",
          "name": "from",
          "type": "address"
        },
        {
          "indexed": true,
          "internalType": "address",
          "name": "to",
          "type": "address"
        },
        {
          "indexed": true,
          "internalType": "uint256",
          "name": "tokenId",
          "type": "uint256"
        }
      ],
      "name": "Transfer",
      "type": "event"
    },
    {
      "anonymous": false,
      "inputs": [
        {
          "indexed": true,
          "internalType": "string",
          "name": "tokenURI",
          "type": "string"
        }
      ],
      "name": "showTokenURI",
      "type": "event"
    },
    {
      "inputs": [
        {
          "internalType": "address",
          "name": "to",
          "type": "address"
        },
        {
          "internalType": "uint256",
          "name": "tokenId",
          "type": "uint256"
        }
      ],
      "name": "approve",
      "outputs": [],
      "stateMutability": "nonpayable",
      "type": "function"
    },
    {
      "inputs": [
        {
          "internalType": "address",
          "name": "owner",
          "type": "address"
        }
      ],
      "name": "balanceOf",
      "outputs": [
        {
          "internalType": "uint256",
          "name": "",
          "type": "uint256"
        }
      ],
      "stateMutability": "view",
      "type": "function"
    },
    {
      "inputs": [],
      "name": "erc20Contract",
      "outputs": [
        {
          "internalType": "contract IERC20",
          "name": "",
          "type": "address"
        }
      ],
      "stateMutability": "view",
      "type": "function"
    },
    {
      "inputs": [
        {
          "internalType": "uint256",
          "name": "tokenId",
          "type": "uint256"
        }
      ],
      "name": "getApproved",
      "outputs": [
        {
          "internalType": "address",
          "name": "",
          "type": "address"
        }
      ],
      "stateMutability": "view",
      "type": "function"
    },
    {
      "inputs": [
        {
          "internalType": "address",
          "name": "owner",
          "type": "address"
        },
        {
          "internalType": "address",
          "name": "operator",
          "type": "address"
        }
      ],
      "name": "isApprovedForAll",
      "outputs": [
        {
          "internalType": "bool",
          "name": "",
          "type": "bool"
        }
      ],
      "stateMutability": "view",
      "type": "function"
    },
    {
      "inputs": [],
      "name": "name",
      "outputs": [
        {
          "internalType": "string",
          "name": "",
          "type": "string"
        }
      ],
      "stateMutability": "view",
      "type": "function"
    },
    {
      "inputs": [
        {
          "internalType": "uint256",
          "name": "",
          "type": "uint256"
        }
      ],
      "name": "onSaleUniqonToken",
      "outputs": [
        {
          "internalType": "uint256",
          "name": "",
          "type": "uint256"
        }
      ],
      "stateMutability": "view",
      "type": "function"
    },
    {
      "inputs": [
        {
          "internalType": "uint256",
          "name": "tokenId",
          "type": "uint256"
        }
      ],
      "name": "ownerOf",
      "outputs": [
        {
          "internalType": "address",
          "name": "",
          "type": "address"
        }
      ],
      "stateMutability": "view",
      "type": "function"
    },
    {
      "inputs": [
        {
          "internalType": "address",
          "name": "from",
          "type": "address"
        },
        {
          "internalType": "address",
          "name": "to",
          "type": "address"
        },
        {
          "internalType": "uint256",
          "name": "tokenId",
          "type": "uint256"
        }
      ],
      "name": "safeTransferFrom",
      "outputs": [],
      "stateMutability": "nonpayable",
      "type": "function"
    },
    {
      "inputs": [
        {
          "internalType": "address",
          "name": "from",
          "type": "address"
        },
        {
          "internalType": "address",
          "name": "to",
          "type": "address"
        },
        {
          "internalType": "uint256",
          "name": "tokenId",
          "type": "uint256"
        },
        {
          "internalType": "bytes",
          "name": "data",
          "type": "bytes"
        }
      ],
      "name": "safeTransferFrom",
      "outputs": [],
      "stateMutability": "nonpayable",
      "type": "function"
    },
    {
      "inputs": [
        {
          "internalType": "address",
          "name": "operator",
          "type": "address"
        },
        {
          "internalType": "bool",
          "name": "approved",
          "type": "bool"
        }
      ],
      "name": "setApprovalForAll",
      "outputs": [],
      "stateMutability": "nonpayable",
      "type": "function"
    },
    {
      "inputs": [
        {
          "internalType": "bytes4",
          "name": "interfaceId",
          "type": "bytes4"
        }
      ],
      "name": "supportsInterface",
      "outputs": [
        {
          "internalType": "bool",
          "name": "",
          "type": "bool"
        }
      ],
      "stateMutability": "view",
      "type": "function"
    },
    {
      "inputs": [],
      "name": "symbol",
      "outputs": [
        {
          "internalType": "string",
          "name": "",
          "type": "string"
        }
      ],
      "stateMutability": "view",
      "type": "function"
    },
    {
      "inputs": [
        {
          "internalType": "uint256",
          "name": "index",
          "type": "uint256"
        }
      ],
      "name": "tokenByIndex",
      "outputs": [
        {
          "internalType": "uint256",
          "name": "",
          "type": "uint256"
        }
      ],
      "stateMutability": "view",
      "type": "function"
    },
    {
      "inputs": [
        {
          "internalType": "address",
          "name": "owner",
          "type": "address"
        },
        {
          "internalType": "uint256",
          "name": "index",
          "type": "uint256"
        }
      ],
      "name": "tokenOfOwnerByIndex",
      "outputs": [
        {
          "internalType": "uint256",
          "name": "",
          "type": "uint256"
        }
      ],
      "stateMutability": "view",
      "type": "function"
    },
    {
      "inputs": [],
      "name": "totalSupply",
      "outputs": [
        {
          "internalType": "uint256",
          "name": "",
          "type": "uint256"
        }
      ],
      "stateMutability": "view",
      "type": "function"
    },
    {
      "inputs": [
        {
          "internalType": "address",
          "name": "from",
          "type": "address"
        },
        {
          "internalType": "address",
          "name": "to",
          "type": "address"
        },
        {
          "internalType": "uint256",
          "name": "tokenId",
          "type": "uint256"
        }
      ],
      "name": "transferFrom",
      "outputs": [],
      "stateMutability": "nonpayable",
      "type": "function"
    },
    {
      "inputs": [
        {
          "internalType": "uint256",
          "name": "",
          "type": "uint256"
        }
      ],
      "name": "uniqonTokenPrices",
      "outputs": [
        {
          "internalType": "uint256",
          "name": "",
          "type": "uint256"
        }
      ],
      "stateMutability": "view",
      "type": "function"
    },
    {
      "inputs": [],
      "name": "current",
      "outputs": [
        {
          "internalType": "uint256",
          "name": "",
          "type": "uint256"
        }
      ],
      "stateMutability": "view",
      "type": "function"
    },
    {
      "inputs": [
        {
          "internalType": "uint256",
          "name": "tokenId",
          "type": "uint256"
        }
      ],
      "name": "tokenURI",
      "outputs": [
        {
          "internalType": "string",
          "name": "",
          "type": "string"
        }
      ],
      "stateMutability": "view",
      "type": "function"
    },
    {
      "inputs": [
        {
          "internalType": "uint256",
          "name": "_uniqonTokenId",
          "type": "uint256"
        },
        {
          "internalType": "uint256",
          "name": "_price",
          "type": "uint256"
        }
      ],
      "name": "setForSaleUniqonToken",
      "outputs": [],
      "stateMutability": "nonpayable",
      "type": "function"
    },
    {
      "inputs": [
        {
          "internalType": "address",
          "name": "to",
          "type": "address"
        },
        {
          "internalType": "string",
          "name": "_tokenURI",
          "type": "string"
        },
        {
          "internalType": "uint256",
          "name": "repeat",
          "type": "uint256"
        },
        {
          "internalType": "uint256",
          "name": "price",
          "type": "uint256"
        }
      ],
      "name": "create",
      "outputs": [
        {
          "internalType": "uint256",
          "name": "",
          "type": "uint256"
        }
      ],
      "stateMutability": "nonpayable",
      "type": "function"
    },
    {
      "inputs": [
        {
          "internalType": "address",
          "name": "owner",
          "type": "address"
        }
      ],
      "name": "getOwnedTokens",
      "outputs": [
        {
          "internalType": "string[]",
          "name": "",
          "type": "string[]"
        }
      ],
      "stateMutability": "view",
      "type": "function"
    },
    {
      "inputs": [
        {
          "internalType": "uint256",
          "name": "_uniqonTokenId",
          "type": "uint256"
        }
      ],
      "name": "getTokenPrice",
      "outputs": [
        {
          "internalType": "uint256",
          "name": "",
          "type": "uint256"
        }
      ],
      "stateMutability": "view",
      "type": "function"
    },
    {
      "inputs": [],
      "name": "getOnSaleUniqonToken",
      "outputs": [
        {
          "internalType": "uint256[]",
          "name": "",
          "type": "uint256[]"
        }
      ],
      "stateMutability": "view",
      "type": "function"
    },
    {
      "inputs": [],
      "name": "getSSFBalance",
      "outputs": [
        {
          "internalType": "uint256",
          "name": "",
          "type": "uint256"
        }
      ],
      "stateMutability": "view",
      "type": "function"
    },
    {
      "inputs": [],
      "name": "transferSSF",
      "outputs": [],
      "stateMutability": "payable",
      "type": "function"
    },
    {
      "inputs": [
        {
          "internalType": "uint256",
          "name": "_uniqonTokenId",
          "type": "uint256"
        }
      ],
      "name": "purchaseUniqonToken",
      "outputs": [],
      "stateMutability": "payable",
      "type": "function"
    }
  ],
  "bytecode": "0x60806040523480156200001157600080fd5b506040518060400160405280600b81526020017f556e69712e6f6e2d4e46540000000000000000000000000000000000000000008152506040518060400160405280600481526020017f554e46540000000000000000000000000000000000000000000000000000000081525081600090805190602001906200009692919062000115565b508060019080519060200190620000af92919062000115565b5050506000600a81905550730c54e456ce9e4501d2c43c38796ce3f06846c966600e60006101000a81548173ffffffffffffffffffffffffffffffffffffffff021916908373ffffffffffffffffffffffffffffffffffffffff1602179055506200022a565b8280546200012390620001f4565b90600052602060002090601f01602090048101928262000147576000855562000193565b82601f106200016257805160ff191683800117855562000193565b8280016001018555821562000193579182015b828111156200019257825182559160200191906001019062000175565b5b509050620001a29190620001a6565b5090565b5b80821115620001c1576000816000905550600101620001a7565b5090565b7f4e487b7100000000000000000000000000000000000000000000000000000000600052602260045260246000fd5b600060028204905060018216806200020d57607f821691505b60208210811415620002245762000223620001c5565b5b50919050565b614329806200023a6000396000f3fe6080604052600436106101b75760003560e01c80637febd05c116100ec578063c457fb371161008a578063d49cf7f011610064578063d49cf7f01461063e578063d9d6165514610667578063da566a6f146106a4578063e985e9c5146106e1576101b7565b8063c457fb37146105a8578063c87b56dd146105e5578063d2a6c2a314610622576101b7565b80639fa6a6e3116100c65780639fa6a6e314610500578063a22cb4651461052b578063a8f6c91314610554578063b88d4fde1461057f576101b7565b80637febd05c1461047f57806390ae1b41146104aa57806395d89b41146104d5576101b7565b806323b872dd116101595780634f6ccce7116101335780634f6ccce71461038b5780636352211e146103c857806370a082311461040557806375c7c9a714610442576101b7565b806323b872dd146102fc5780632f745c591461032557806342842e0e14610362576101b7565b8063095ea7b311610195578063095ea7b31461026157806318160ddd1461028a5780631d3402af146102b55780631f2a0aca146102f2576101b7565b806301ffc9a7146101bc57806306fdde03146101f9578063081812fc14610224575b600080fd5b3480156101c857600080fd5b506101e360048036038101906101de9190612a16565b61071e565b6040516101f09190612a5e565b60405180910390f35b34801561020557600080fd5b5061020e610798565b60405161021b9190612b12565b60405180910390f35b34801561023057600080fd5b5061024b60048036038101906102469190612b6a565b61082a565b6040516102589190612bd8565b60405180910390f35b34801561026d57600080fd5b5061028860048036038101906102839190612c1f565b610870565b005b34801561029657600080fd5b5061029f610988565b6040516102ac9190612c6e565b60405180910390f35b3480156102c157600080fd5b506102dc60048036038101906102d79190612b6a565b610995565b6040516102e99190612c6e565b60405180910390f35b6102fa6109ad565b005b34801561030857600080fd5b50610323600480360381019061031e9190612c89565b610b83565b005b34801561033157600080fd5b5061034c60048036038101906103479190612c1f565b610be3565b6040516103599190612c6e565b60405180910390f35b34801561036e57600080fd5b5061038960048036038101906103849190612c89565b610c88565b005b34801561039757600080fd5b506103b260048036038101906103ad9190612b6a565b610ca8565b6040516103bf9190612c6e565b60405180910390f35b3480156103d457600080fd5b506103ef60048036038101906103ea9190612b6a565b610d19565b6040516103fc9190612bd8565b60405180910390f35b34801561041157600080fd5b5061042c60048036038101906104279190612cdc565b610da0565b6040516104399190612c6e565b60405180910390f35b34801561044e57600080fd5b5061046960048036038101906104649190612b6a565b610e58565b6040516104769190612c6e565b60405180910390f35b34801561048b57600080fd5b50610494610e7c565b6040516104a19190612c6e565b60405180910390f35b3480156104b657600080fd5b506104bf610f1f565b6040516104cc9190612dc7565b60405180910390f35b3480156104e157600080fd5b506104ea610f77565b6040516104f79190612b12565b60405180910390f35b34801561050c57600080fd5b50610515611009565b6040516105229190612c6e565b60405180910390f35b34801561053757600080fd5b50610552600480360381019061054d9190612e15565b611013565b005b34801561056057600080fd5b50610569611029565b6040516105769190612eb4565b60405180910390f35b34801561058b57600080fd5b506105a660048036038101906105a19190613004565b61104f565b005b3480156105b457600080fd5b506105cf60048036038101906105ca9190612b6a565b6110b1565b6040516105dc9190612c6e565b60405180910390f35b3480156105f157600080fd5b5061060c60048036038101906106079190612b6a565b6110ce565b6040516106199190612b12565b60405180910390f35b61063c60048036038101906106379190612b6a565b611173565b005b34801561064a57600080fd5b5061066560048036038101906106609190613087565b6114ea565b005b34801561067357600080fd5b5061068e60048036038101906106899190612cdc565b61168d565b60405161069b91906131d3565b60405180910390f35b3480156106b057600080fd5b506106cb60048036038101906106c69190613296565b6117cf565b6040516106d89190612c6e565b60405180910390f35b3480156106ed57600080fd5b5061070860048036038101906107039190613319565b611870565b6040516107159190612a5e565b60405180910390f35b60007f780e9d63000000000000000000000000000000000000000000000000000000007bffffffffffffffffffffffffffffffffffffffffffffffffffffffff1916827bffffffffffffffffffffffffffffffffffffffffffffffffffffffff19161480610791575061079082611904565b5b9050919050565b6060600080546107a790613388565b80601f01602080910402602001604051908101604052809291908181526020018280546107d390613388565b80156108205780601f106107f557610100808354040283529160200191610820565b820191906000526020600020905b81548152906001019060200180831161080357829003601f168201915b5050505050905090565b6000610835826119e6565b6004600083815260200190815260200160002060009054906101000a900473ffffffffffffffffffffffffffffffffffffffff169050919050565b600061087b82610d19565b90508073ffffffffffffffffffffffffffffffffffffffff168373ffffffffffffffffffffffffffffffffffffffff1614156108ec576040517f08c379a00000000000000000000000000000000000000000000000000000000081526004016108e39061342c565b60405180910390fd5b8073ffffffffffffffffffffffffffffffffffffffff1661090b611a31565b73ffffffffffffffffffffffffffffffffffffffff16148061093a575061093981610934611a31565b611870565b5b610979576040517f08c379a0000000000000000000000000000000000000000000000000000000008152600401610970906134be565b60405180910390fd5b6109838383611a39565b505050565b6000600880549050905090565b600c6020528060005260406000206000915090505481565b600e60009054906101000a900473ffffffffffffffffffffffffffffffffffffffff1673ffffffffffffffffffffffffffffffffffffffff1663095ea7b3336109f4610e7c565b6040518363ffffffff1660e01b8152600401610a119291906134de565b6020604051808303816000875af1158015610a30573d6000803e3d6000fd5b505050506040513d601f19601f82011682018060405250810190610a54919061351c565b610a93576040517f08c379a0000000000000000000000000000000000000000000000000000000008152600401610a8a90613595565b60405180910390fd5b6000610a9d610e7c565b11610add576040517f08c379a0000000000000000000000000000000000000000000000000000000008152600401610ad490613601565b60405180910390fd5b600e60009054906101000a900473ffffffffffffffffffffffffffffffffffffffff1673ffffffffffffffffffffffffffffffffffffffff166323b872dd333060016040518463ffffffff1660e01b8152600401610b3d9392919061365c565b6020604051808303816000875af1158015610b5c573d6000803e3d6000fd5b505050506040513d601f19601f82011682018060405250810190610b80919061351c565b50565b610b94610b8e611a31565b82611af2565b610bd3576040517f08c379a0000000000000000000000000000000000000000000000000000000008152600401610bca90613705565b60405180910390fd5b610bde838383611b87565b505050565b6000610bee83610da0565b8210610c2f576040517f08c379a0000000000000000000000000000000000000000000000000000000008152600401610c2690613797565b60405180910390fd5b600660008473ffffffffffffffffffffffffffffffffffffffff1673ffffffffffffffffffffffffffffffffffffffff168152602001908152602001600020600083815260200190815260200160002054905092915050565b610ca38383836040518060200160405280600081525061104f565b505050565b6000610cb2610988565b8210610cf3576040517f08c379a0000000000000000000000000000000000000000000000000000000008152600401610cea90613829565b60405180910390fd5b60088281548110610d0757610d06613849565b5b90600052602060002001549050919050565b600080610d2583611e7d565b9050600073ffffffffffffffffffffffffffffffffffffffff168173ffffffffffffffffffffffffffffffffffffffff161415610d97576040517f08c379a0000000000000000000000000000000000000000000000000000000008152600401610d8e906138c4565b60405180910390fd5b80915050919050565b60008073ffffffffffffffffffffffffffffffffffffffff168273ffffffffffffffffffffffffffffffffffffffff161415610e11576040517f08c379a0000000000000000000000000000000000000000000000000000000008152600401610e0890613956565b60405180910390fd5b600360008373ffffffffffffffffffffffffffffffffffffffff1673ffffffffffffffffffffffffffffffffffffffff168152602001908152602001600020549050919050565b600d8181548110610e6857600080fd5b906000526020600020016000915090505481565b6000600e60009054906101000a900473ffffffffffffffffffffffffffffffffffffffff1673ffffffffffffffffffffffffffffffffffffffff166370a08231336040518263ffffffff1660e01b8152600401610ed99190612bd8565b602060405180830381865afa158015610ef6573d6000803e3d6000fd5b505050506040513d601f19601f82011682018060405250810190610f1a919061398b565b905090565b6060600d805480602002602001604051908101604052809291908181526020018280548015610f6d57602002820191906000526020600020905b815481526020019060010190808311610f59575b5050505050905090565b606060018054610f8690613388565b80601f0160208091040260200160405190810160405280929190818152602001828054610fb290613388565b8015610fff5780601f10610fd457610100808354040283529160200191610fff565b820191906000526020600020905b815481529060010190602001808311610fe257829003601f168201915b5050505050905090565b6000600a54905090565b61102561101e611a31565b8383611eba565b5050565b600e60009054906101000a900473ffffffffffffffffffffffffffffffffffffffff1681565b61106061105a611a31565b83611af2565b61109f576040517f08c379a000000000000000000000000000000000000000000000000000000000815260040161109690613705565b60405180910390fd5b6110ab84848484612027565b50505050565b6000600c6000838152602001908152602001600020549050919050565b6060600b600083815260200190815260200160002080546110ee90613388565b80601f016020809104026020016040519081016040528092919081815260200182805461111a90613388565b80156111675780601f1061113c57610100808354040283529160200191611167565b820191906000526020600020905b81548152906001019060200180831161114a57829003601f168201915b50505050509050919050565b6000600c6000838152602001908152602001600020549050600061119683610d19565b9050600082116111db576040517f08c379a00000000000000000000000000000000000000000000000000000000081526004016111d290613a04565b60405180910390fd5b3482111561121e576040517f08c379a000000000000000000000000000000000000000000000000000000000815260040161121590613a70565b60405180910390fd5b3373ffffffffffffffffffffffffffffffffffffffff168173ffffffffffffffffffffffffffffffffffffffff16141561128d576040517f08c379a000000000000000000000000000000000000000000000000000000000815260040161128490613adc565b60405180910390fd5b600e60009054906101000a900473ffffffffffffffffffffffffffffffffffffffff1673ffffffffffffffffffffffffffffffffffffffff166323b872dd3383856040518463ffffffff1660e01b81526004016112ec93929190613afc565b6020604051808303816000875af115801561130b573d6000803e3d6000fd5b505050506040513d601f19601f8201168201806040525081019061132f919061351c565b503073ffffffffffffffffffffffffffffffffffffffff166342842e0e8233866040518463ffffffff1660e01b815260040161136d93929190613afc565b600060405180830381600087803b15801561138757600080fd5b505af115801561139b573d6000803e3d6000fd5b505050506000600c60008581526020019081526020016000208190555060005b600d80549050811015611490576000600c6000600d84815481106113e2576113e1613849565b5b9060005260206000200154815260200190815260200160002054141561147d57600d6001600d805490506114169190613b62565b8154811061142757611426613849565b5b9060005260206000200154600d828154811061144657611445613849565b5b9060005260206000200181905550600d80548061146657611465613b96565b5b600190038181906000526020600020016000905590555b808061148890613bc5565b9150506113bb565b50600b60008481526020019081526020016000206040516114b19190613cad565b60405180910390207f8374ecad8a176051b66b72440a707a05f42fa30cd0434b8568454e0e8d877cec60405160405180910390a2505050565b60006114f583610d19565b90503373ffffffffffffffffffffffffffffffffffffffff168173ffffffffffffffffffffffffffffffffffffffff1614611565576040517f08c379a000000000000000000000000000000000000000000000000000000000815260040161155c90613d10565b60405180910390fd5b600082116115a8576040517f08c379a000000000000000000000000000000000000000000000000000000000815260040161159f90613d7c565b60405180910390fd5b6000600c600085815260200190815260200160002054146115fe576040517f08c379a00000000000000000000000000000000000000000000000000000000081526004016115f590613e0e565b60405180910390fd5b6116088130611870565b611647576040517f08c379a000000000000000000000000000000000000000000000000000000000815260040161163e90613ea0565b60405180910390fd5b81600c600085815260200190815260200160002081905550600d839080600181540180825580915050600190039060005260206000200160009091909190915055505050565b6060600061169a83610da0565b905060008167ffffffffffffffff8111156116b8576116b7612ed9565b5b6040519080825280602002602001820160405280156116e65781602001602082028036833780820191505090505b50905060008267ffffffffffffffff81111561170557611704612ed9565b5b60405190808252806020026020018201604052801561173857816020015b60608152602001906001900390816117235790505b50905060005b838110156117c3576117508682610be3565b83828151811061176357611762613849565b5b60200260200101818152505061179283828151811061178557611784613849565b5b60200260200101516110ce565b8282815181106117a5576117a4613849565b5b602002602001018190525080806117bb90613bc5565b91505061173e565b50809350505050919050565b60006117dc306001611013565b60005b838110156118625784600b60006001600a546117fb9190613ec0565b8152602001908152602001600020908051906020019061181c929190612907565b506001600a60008282546118309190613ec0565b9250508190555061184386600a54612083565b61184f600a54846114ea565b808061185a90613bc5565b9150506117df565b50600a549050949350505050565b6000600560008473ffffffffffffffffffffffffffffffffffffffff1673ffffffffffffffffffffffffffffffffffffffff16815260200190815260200160002060008373ffffffffffffffffffffffffffffffffffffffff1673ffffffffffffffffffffffffffffffffffffffff16815260200190815260200160002060009054906101000a900460ff16905092915050565b60007f80ac58cd000000000000000000000000000000000000000000000000000000007bffffffffffffffffffffffffffffffffffffffffffffffffffffffff1916827bffffffffffffffffffffffffffffffffffffffffffffffffffffffff191614806119cf57507f5b5e139f000000000000000000000000000000000000000000000000000000007bffffffffffffffffffffffffffffffffffffffffffffffffffffffff1916827bffffffffffffffffffffffffffffffffffffffffffffffffffffffff1916145b806119df57506119de8261229d565b5b9050919050565b6119ef81612307565b611a2e576040517f08c379a0000000000000000000000000000000000000000000000000000000008152600401611a25906138c4565b60405180910390fd5b50565b600033905090565b816004600083815260200190815260200160002060006101000a81548173ffffffffffffffffffffffffffffffffffffffff021916908373ffffffffffffffffffffffffffffffffffffffff160217905550808273ffffffffffffffffffffffffffffffffffffffff16611aac83610d19565b73ffffffffffffffffffffffffffffffffffffffff167f8c5be1e5ebec7d5bd14f71427d1e84f3dd0314c0f7b2291e5b200ac8c7c3b92560405160405180910390a45050565b600080611afe83610d19565b90508073ffffffffffffffffffffffffffffffffffffffff168473ffffffffffffffffffffffffffffffffffffffff161480611b405750611b3f8185611870565b5b80611b7e57508373ffffffffffffffffffffffffffffffffffffffff16611b668461082a565b73ffffffffffffffffffffffffffffffffffffffff16145b91505092915050565b8273ffffffffffffffffffffffffffffffffffffffff16611ba782610d19565b73ffffffffffffffffffffffffffffffffffffffff1614611bfd576040517f08c379a0000000000000000000000000000000000000000000000000000000008152600401611bf490613f88565b60405180910390fd5b600073ffffffffffffffffffffffffffffffffffffffff168273ffffffffffffffffffffffffffffffffffffffff161415611c6d576040517f08c379a0000000000000000000000000000000000000000000000000000000008152600401611c649061401a565b60405180910390fd5b611c78838383612348565b8273ffffffffffffffffffffffffffffffffffffffff16611c9882610d19565b73ffffffffffffffffffffffffffffffffffffffff1614611cee576040517f08c379a0000000000000000000000000000000000000000000000000000000008152600401611ce590613f88565b60405180910390fd5b6004600082815260200190815260200160002060006101000a81549073ffffffffffffffffffffffffffffffffffffffff02191690556001600360008573ffffffffffffffffffffffffffffffffffffffff1673ffffffffffffffffffffffffffffffffffffffff168152602001908152602001600020600082825403925050819055506001600360008473ffffffffffffffffffffffffffffffffffffffff1673ffffffffffffffffffffffffffffffffffffffff16815260200190815260200160002060008282540192505081905550816002600083815260200190815260200160002060006101000a81548173ffffffffffffffffffffffffffffffffffffffff021916908373ffffffffffffffffffffffffffffffffffffffff160217905550808273ffffffffffffffffffffffffffffffffffffffff168473ffffffffffffffffffffffffffffffffffffffff167fddf252ad1be2c89b69c2b068fc378daa952ba7f163c4a11628f55a4df523b3ef60405160405180910390a4611e7883838361245c565b505050565b60006002600083815260200190815260200160002060009054906101000a900473ffffffffffffffffffffffffffffffffffffffff169050919050565b8173ffffffffffffffffffffffffffffffffffffffff168373ffffffffffffffffffffffffffffffffffffffff161415611f29576040517f08c379a0000000000000000000000000000000000000000000000000000000008152600401611f2090614086565b60405180910390fd5b80600560008573ffffffffffffffffffffffffffffffffffffffff1673ffffffffffffffffffffffffffffffffffffffff16815260200190815260200160002060008473ffffffffffffffffffffffffffffffffffffffff1673ffffffffffffffffffffffffffffffffffffffff16815260200190815260200160002060006101000a81548160ff0219169083151502179055508173ffffffffffffffffffffffffffffffffffffffff168373ffffffffffffffffffffffffffffffffffffffff167f17307eab39ab6107e8899845ad3d59bd9653f200f220920489ca2b5937696c318360405161201a9190612a5e565b60405180910390a3505050565b612032848484611b87565b61203e84848484612461565b61207d576040517f08c379a000000000000000000000000000000000000000000000000000000000815260040161207490614118565b60405180910390fd5b50505050565b600073ffffffffffffffffffffffffffffffffffffffff168273ffffffffffffffffffffffffffffffffffffffff1614156120f3576040517f08c379a00000000000000000000000000000000000000000000000000000000081526004016120ea90614184565b60405180910390fd5b6120fc81612307565b1561213c576040517f08c379a0000000000000000000000000000000000000000000000000000000008152600401612133906141f0565b60405180910390fd5b61214860008383612348565b61215181612307565b15612191576040517f08c379a0000000000000000000000000000000000000000000000000000000008152600401612188906141f0565b60405180910390fd5b6001600360008473ffffffffffffffffffffffffffffffffffffffff1673ffffffffffffffffffffffffffffffffffffffff16815260200190815260200160002060008282540192505081905550816002600083815260200190815260200160002060006101000a81548173ffffffffffffffffffffffffffffffffffffffff021916908373ffffffffffffffffffffffffffffffffffffffff160217905550808273ffffffffffffffffffffffffffffffffffffffff16600073ffffffffffffffffffffffffffffffffffffffff167fddf252ad1be2c89b69c2b068fc378daa952ba7f163c4a11628f55a4df523b3ef60405160405180910390a46122996000838361245c565b5050565b60007f01ffc9a7000000000000000000000000000000000000000000000000000000007bffffffffffffffffffffffffffffffffffffffffffffffffffffffff1916827bffffffffffffffffffffffffffffffffffffffffffffffffffffffff1916149050919050565b60008073ffffffffffffffffffffffffffffffffffffffff1661232983611e7d565b73ffffffffffffffffffffffffffffffffffffffff1614159050919050565b6123538383836125e9565b600073ffffffffffffffffffffffffffffffffffffffff168373ffffffffffffffffffffffffffffffffffffffff16141561239657612391816125ee565b6123d5565b8173ffffffffffffffffffffffffffffffffffffffff168373ffffffffffffffffffffffffffffffffffffffff16146123d4576123d38382612637565b5b5b600073ffffffffffffffffffffffffffffffffffffffff168273ffffffffffffffffffffffffffffffffffffffff16141561241857612413816127a4565b612457565b8273ffffffffffffffffffffffffffffffffffffffff168273ffffffffffffffffffffffffffffffffffffffff1614612456576124558282612875565b5b5b505050565b505050565b60006124828473ffffffffffffffffffffffffffffffffffffffff166128f4565b156125dc578373ffffffffffffffffffffffffffffffffffffffff1663150b7a026124ab611a31565b8786866040518563ffffffff1660e01b81526004016124cd9493929190614265565b6020604051808303816000875af192505050801561250957506040513d601f19601f8201168201806040525081019061250691906142c6565b60015b61258c573d8060008114612539576040519150601f19603f3d011682016040523d82523d6000602084013e61253e565b606091505b50600081511415612584576040517f08c379a000000000000000000000000000000000000000000000000000000000815260040161257b90614118565b60405180910390fd5b805181602001fd5b63150b7a0260e01b7bffffffffffffffffffffffffffffffffffffffffffffffffffffffff1916817bffffffffffffffffffffffffffffffffffffffffffffffffffffffff1916149150506125e1565b600190505b949350505050565b505050565b6008805490506009600083815260200190815260200160002081905550600881908060018154018082558091505060019003906000526020600020016000909190919091505550565b6000600161264484610da0565b61264e9190613b62565b9050600060076000848152602001908152602001600020549050818114612733576000600660008673ffffffffffffffffffffffffffffffffffffffff1673ffffffffffffffffffffffffffffffffffffffff168152602001908152602001600020600084815260200190815260200160002054905080600660008773ffffffffffffffffffffffffffffffffffffffff1673ffffffffffffffffffffffffffffffffffffffff168152602001908152602001600020600084815260200190815260200160002081905550816007600083815260200190815260200160002081905550505b6007600084815260200190815260200160002060009055600660008573ffffffffffffffffffffffffffffffffffffffff1673ffffffffffffffffffffffffffffffffffffffff16815260200190815260200160002060008381526020019081526020016000206000905550505050565b600060016008805490506127b89190613b62565b90506000600960008481526020019081526020016000205490506000600883815481106127e8576127e7613849565b5b90600052602060002001549050806008838154811061280a57612809613849565b5b90600052602060002001819055508160096000838152602001908152602001600020819055506009600085815260200190815260200160002060009055600880548061285957612858613b96565b5b6001900381819060005260206000200160009055905550505050565b600061288083610da0565b905081600660008573ffffffffffffffffffffffffffffffffffffffff1673ffffffffffffffffffffffffffffffffffffffff168152602001908152602001600020600083815260200190815260200160002081905550806007600084815260200190815260200160002081905550505050565b600080823b905060008111915050919050565b82805461291390613388565b90600052602060002090601f016020900481019282612935576000855561297c565b82601f1061294e57805160ff191683800117855561297c565b8280016001018555821561297c579182015b8281111561297b578251825591602001919060010190612960565b5b509050612989919061298d565b5090565b5b808211156129a657600081600090555060010161298e565b5090565b6000604051905090565b600080fd5b600080fd5b60007fffffffff0000000000000000000000000000000000000000000000000000000082169050919050565b6129f3816129be565b81146129fe57600080fd5b50565b600081359050612a10816129ea565b92915050565b600060208284031215612a2c57612a2b6129b4565b5b6000612a3a84828501612a01565b91505092915050565b60008115159050919050565b612a5881612a43565b82525050565b6000602082019050612a736000830184612a4f565b92915050565b600081519050919050565b600082825260208201905092915050565b60005b83811015612ab3578082015181840152602081019050612a98565b83811115612ac2576000848401525b50505050565b6000601f19601f8301169050919050565b6000612ae482612a79565b612aee8185612a84565b9350612afe818560208601612a95565b612b0781612ac8565b840191505092915050565b60006020820190508181036000830152612b2c8184612ad9565b905092915050565b6000819050919050565b612b4781612b34565b8114612b5257600080fd5b50565b600081359050612b6481612b3e565b92915050565b600060208284031215612b8057612b7f6129b4565b5b6000612b8e84828501612b55565b91505092915050565b600073ffffffffffffffffffffffffffffffffffffffff82169050919050565b6000612bc282612b97565b9050919050565b612bd281612bb7565b82525050565b6000602082019050612bed6000830184612bc9565b92915050565b612bfc81612bb7565b8114612c0757600080fd5b50565b600081359050612c1981612bf3565b92915050565b60008060408385031215612c3657612c356129b4565b5b6000612c4485828601612c0a565b9250506020612c5585828601612b55565b9150509250929050565b612c6881612b34565b82525050565b6000602082019050612c836000830184612c5f565b92915050565b600080600060608486031215612ca257612ca16129b4565b5b6000612cb086828701612c0a565b9350506020612cc186828701612c0a565b9250506040612cd286828701612b55565b9150509250925092565b600060208284031215612cf257612cf16129b4565b5b6000612d0084828501612c0a565b91505092915050565b600081519050919050565b600082825260208201905092915050565b6000819050602082019050919050565b612d3e81612b34565b82525050565b6000612d508383612d35565b60208301905092915050565b6000602082019050919050565b6000612d7482612d09565b612d7e8185612d14565b9350612d8983612d25565b8060005b83811015612dba578151612da18882612d44565b9750612dac83612d5c565b925050600181019050612d8d565b5085935050505092915050565b60006020820190508181036000830152612de18184612d69565b905092915050565b612df281612a43565b8114612dfd57600080fd5b50565b600081359050612e0f81612de9565b92915050565b60008060408385031215612e2c57612e2b6129b4565b5b6000612e3a85828601612c0a565b9250506020612e4b85828601612e00565b9150509250929050565b6000819050919050565b6000612e7a612e75612e7084612b97565b612e55565b612b97565b9050919050565b6000612e8c82612e5f565b9050919050565b6000612e9e82612e81565b9050919050565b612eae81612e93565b82525050565b6000602082019050612ec96000830184612ea5565b92915050565b600080fd5b600080fd5b7f4e487b7100000000000000000000000000000000000000000000000000000000600052604160045260246000fd5b612f1182612ac8565b810181811067ffffffffffffffff82111715612f3057612f2f612ed9565b5b80604052505050565b6000612f436129aa565b9050612f4f8282612f08565b919050565b600067ffffffffffffffff821115612f6f57612f6e612ed9565b5b612f7882612ac8565b9050602081019050919050565b82818337600083830152505050565b6000612fa7612fa284612f54565b612f39565b905082815260208101848484011115612fc357612fc2612ed4565b5b612fce848285612f85565b509392505050565b600082601f830112612feb57612fea612ecf565b5b8135612ffb848260208601612f94565b91505092915050565b6000806000806080858703121561301e5761301d6129b4565b5b600061302c87828801612c0a565b945050602061303d87828801612c0a565b935050604061304e87828801612b55565b925050606085013567ffffffffffffffff81111561306f5761306e6129b9565b5b61307b87828801612fd6565b91505092959194509250565b6000806040838503121561309e5761309d6129b4565b5b60006130ac85828601612b55565b92505060206130bd85828601612b55565b9150509250929050565b600081519050919050565b600082825260208201905092915050565b6000819050602082019050919050565b600082825260208201905092915050565b600061310f82612a79565b61311981856130f3565b9350613129818560208601612a95565b61313281612ac8565b840191505092915050565b60006131498383613104565b905092915050565b6000602082019050919050565b6000613169826130c7565b61317381856130d2565b935083602082028501613185856130e3565b8060005b858110156131c157848403895281516131a2858261313d565b94506131ad83613151565b925060208a01995050600181019050613189565b50829750879550505050505092915050565b600060208201905081810360008301526131ed818461315e565b905092915050565b600067ffffffffffffffff8211156132105761320f612ed9565b5b61321982612ac8565b9050602081019050919050565b6000613239613234846131f5565b612f39565b90508281526020810184848401111561325557613254612ed4565b5b613260848285612f85565b509392505050565b600082601f83011261327d5761327c612ecf565b5b813561328d848260208601613226565b91505092915050565b600080600080608085870312156132b0576132af6129b4565b5b60006132be87828801612c0a565b945050602085013567ffffffffffffffff8111156132df576132de6129b9565b5b6132eb87828801613268565b93505060406132fc87828801612b55565b925050606061330d87828801612b55565b91505092959194509250565b600080604083850312156133305761332f6129b4565b5b600061333e85828601612c0a565b925050602061334f85828601612c0a565b9150509250929050565b7f4e487b7100000000000000000000000000000000000000000000000000000000600052602260045260246000fd5b600060028204905060018216806133a057607f821691505b602082108114156133b4576133b3613359565b5b50919050565b7f4552433732313a20617070726f76616c20746f2063757272656e74206f776e6560008201527f7200000000000000000000000000000000000000000000000000000000000000602082015250565b6000613416602183612a84565b9150613421826133ba565b604082019050919050565b6000602082019050818103600083015261344581613409565b9050919050565b7f4552433732313a20617070726f76652063616c6c6572206973206e6f7420746f60008201527f6b656e206f776e6572206f7220617070726f76656420666f7220616c6c000000602082015250565b60006134a8603d83612a84565b91506134b38261344c565b604082019050919050565b600060208201905081810360008301526134d78161349b565b9050919050565b60006040820190506134f36000830185612bc9565b6135006020830184612c5f565b9392505050565b60008151905061351681612de9565b92915050565b600060208284031215613532576135316129b4565b5b600061354084828501613507565b91505092915050565b7f61646472657373206661696c0000000000000000000000000000000000000000600082015250565b600061357f600c83612a84565b915061358a82613549565b602082019050919050565b600060208201905081810360008301526135ae81613572565b9050919050565b7f63616c6c657220686173206e6f206d6f6e657900000000000000000000000000600082015250565b60006135eb601383612a84565b91506135f6826135b5565b602082019050919050565b6000602082019050818103600083015261361a816135de565b9050919050565b6000819050919050565b600061364661364161363c84613621565b612e55565b612b34565b9050919050565b6136568161362b565b82525050565b60006060820190506136716000830186612bc9565b61367e6020830185612bc9565b61368b604083018461364d565b949350505050565b7f4552433732313a2063616c6c6572206973206e6f7420746f6b656e206f776e6560008201527f72206f7220617070726f76656400000000000000000000000000000000000000602082015250565b60006136ef602d83612a84565b91506136fa82613693565b604082019050919050565b6000602082019050818103600083015261371e816136e2565b9050919050565b7f455243373231456e756d657261626c653a206f776e657220696e646578206f7560008201527f74206f6620626f756e6473000000000000000000000000000000000000000000602082015250565b6000613781602b83612a84565b915061378c82613725565b604082019050919050565b600060208201905081810360008301526137b081613774565b9050919050565b7f455243373231456e756d657261626c653a20676c6f62616c20696e646578206f60008201527f7574206f6620626f756e64730000000000000000000000000000000000000000602082015250565b6000613813602c83612a84565b915061381e826137b7565b604082019050919050565b6000602082019050818103600083015261384281613806565b9050919050565b7f4e487b7100000000000000000000000000000000000000000000000000000000600052603260045260246000fd5b7f4552433732313a20696e76616c696420746f6b656e2049440000000000000000600082015250565b60006138ae601883612a84565b91506138b982613878565b602082019050919050565b600060208201905081810360008301526138dd816138a1565b9050919050565b7f4552433732313a2061646472657373207a65726f206973206e6f74206120766160008201527f6c6964206f776e65720000000000000000000000000000000000000000000000602082015250565b6000613940602983612a84565b915061394b826138e4565b604082019050919050565b6000602082019050818103600083015261396f81613933565b9050919050565b60008151905061398581612b3e565b92915050565b6000602082840312156139a1576139a06129b4565b5b60006139af84828501613976565b91505092915050565b7f5468697320756e69716f6e20746f6b656e206e6f742073616c652e0000000000600082015250565b60006139ee601b83612a84565b91506139f9826139b8565b602082019050919050565b60006020820190508181036000830152613a1d816139e1565b9050919050565b7f43616c6c65722073656e74206c6f776572207468616e2070726963652e000000600082015250565b6000613a5a601d83612a84565b9150613a6582613a24565b602082019050919050565b60006020820190508181036000830152613a8981613a4d565b9050919050565b7f43616c6c657220697320756e69716f6e20746f6b656e206f776e65722e000000600082015250565b6000613ac6601d83612a84565b9150613ad182613a90565b602082019050919050565b60006020820190508181036000830152613af581613ab9565b9050919050565b6000606082019050613b116000830186612bc9565b613b1e6020830185612bc9565b613b2b6040830184612c5f565b949350505050565b7f4e487b7100000000000000000000000000000000000000000000000000000000600052601160045260246000fd5b6000613b6d82612b34565b9150613b7883612b34565b925082821015613b8b57613b8a613b33565b5b828203905092915050565b7f4e487b7100000000000000000000000000000000000000000000000000000000600052603160045260246000fd5b6000613bd082612b34565b91507fffffffffffffffffffffffffffffffffffffffffffffffffffffffffffffffff821415613c0357613c02613b33565b5b600182019050919050565b600081905092915050565b60008190508160005260206000209050919050565b60008154613c3b81613388565b613c458186613c0e565b94506001821660008114613c605760018114613c7157613ca4565b60ff19831686528186019350613ca4565b613c7a85613c19565b60005b83811015613c9c57815481890152600182019150602081019050613c7d565b838801955050505b50505092915050565b6000613cb98284613c2e565b915081905092915050565b7f43616c6c6572206973206e6f7420756e69716f6e546f6b656e206f776e65722e600082015250565b6000613cfa602083612a84565b9150613d0582613cc4565b602082019050919050565b60006020820190508181036000830152613d2981613ced565b9050919050565b7f5072696365206973207a65726f206973206c6f7765722e000000000000000000600082015250565b6000613d66601783612a84565b9150613d7182613d30565b602082019050919050565b60006020820190508181036000830152613d9581613d59565b9050919050565b7f5468697320756e69716f6e20746f6b656e20697320616c7265616479206f6e2060008201527f73616c652e000000000000000000000000000000000000000000000000000000602082015250565b6000613df8602583612a84565b9150613e0382613d9c565b604082019050919050565b60006020820190508181036000830152613e2781613deb565b9050919050565b7f556e69716f6e20746f6b656e206f776e657220646964206e6f7420617070726f60008201527f766520746f6b656e2e0000000000000000000000000000000000000000000000602082015250565b6000613e8a602983612a84565b9150613e9582613e2e565b604082019050919050565b60006020820190508181036000830152613eb981613e7d565b9050919050565b6000613ecb82612b34565b9150613ed683612b34565b9250827fffffffffffffffffffffffffffffffffffffffffffffffffffffffffffffffff03821115613f0b57613f0a613b33565b5b828201905092915050565b7f4552433732313a207472616e736665722066726f6d20696e636f72726563742060008201527f6f776e6572000000000000000000000000000000000000000000000000000000602082015250565b6000613f72602583612a84565b9150613f7d82613f16565b604082019050919050565b60006020820190508181036000830152613fa181613f65565b9050919050565b7f4552433732313a207472616e7366657220746f20746865207a65726f2061646460008201527f7265737300000000000000000000000000000000000000000000000000000000602082015250565b6000614004602483612a84565b915061400f82613fa8565b604082019050919050565b6000602082019050818103600083015261403381613ff7565b9050919050565b7f4552433732313a20617070726f766520746f2063616c6c657200000000000000600082015250565b6000614070601983612a84565b915061407b8261403a565b602082019050919050565b6000602082019050818103600083015261409f81614063565b9050919050565b7f4552433732313a207472616e7366657220746f206e6f6e20455243373231526560008201527f63656976657220696d706c656d656e7465720000000000000000000000000000602082015250565b6000614102603283612a84565b915061410d826140a6565b604082019050919050565b60006020820190508181036000830152614131816140f5565b9050919050565b7f4552433732313a206d696e7420746f20746865207a65726f2061646472657373600082015250565b600061416e602083612a84565b915061417982614138565b602082019050919050565b6000602082019050818103600083015261419d81614161565b9050919050565b7f4552433732313a20746f6b656e20616c7265616479206d696e74656400000000600082015250565b60006141da601c83612a84565b91506141e5826141a4565b602082019050919050565b60006020820190508181036000830152614209816141cd565b9050919050565b600081519050919050565b600082825260208201905092915050565b600061423782614210565b614241818561421b565b9350614251818560208601612a95565b61425a81612ac8565b840191505092915050565b600060808201905061427a6000830187612bc9565b6142876020830186612bc9565b6142946040830185612c5f565b81810360608301526142a6818461422c565b905095945050505050565b6000815190506142c0816129ea565b92915050565b6000602082840312156142dc576142db6129b4565b5b60006142ea848285016142b1565b9150509291505056fea26469706673582212203d0f8ea7f4e196ac861337ea2bd399d35d9093099f85fa2938b1b65f6497c55864736f6c634300080a0033",
  "immutableReferences": {},
  "source": "// SPDX-License-Identifier: MIT\r\npragma solidity ^0.8.4;\r\n\r\nimport \"./token/ERC721/extensions/ERC721Enumerable.sol\";\r\nimport \"./token/ERC20/ERC20.sol\";\r\n\r\n/**\r\n * PJT  -  2) NFT Creator \r\n *         .\r\n */\r\ncontract MintUniqonToken is ERC721Enumerable{\r\n\r\n    uint256 private _tokenIds;\r\n    mapping(uint256 => string) tokenURIs;\r\n    mapping(uint256 => uint256) public uniqonTokenPrices;\r\n    uint256[] public onSaleUniqonToken;\r\n    IERC20 public erc20Contract;\r\n    \r\n    event showTokenURI(string indexed tokenURI);\r\n\r\n    constructor() ERC721(\"Uniq.on-NFT\", \"UNFT\") {\r\n        _tokenIds = 0;\r\n        erc20Contract = IERC20(0x0c54E456CE9E4501D2c43C38796ce3F06846C966);\r\n    }\r\n\r\n    function current() public view returns (uint256) {\r\n        return _tokenIds;\r\n    }\r\n\r\n    function tokenURI(uint256 tokenId) public view override returns (string memory) {\r\n        return tokenURIs[tokenId];\r\n    }\r\n\r\n    // function setApprovalForAllSale(address saleFactolyAddress) public {\r\n    //     ERC721.setApprovalForAll(saleFactolyAddress, true);\r\n    // }\r\n\r\n    function setForSaleUniqonToken(uint256 _uniqonTokenId, uint256 _price)\r\n        public\r\n    {\r\n        address uniqonTokenOwner = ownerOf(_uniqonTokenId);\r\n        require(\r\n            uniqonTokenOwner == msg.sender,\r\n            \"Caller is not uniqonToken owner.\"\r\n        );\r\n        require(_price > 0, \"Price is zero is lower.\");\r\n        require(\r\n            uniqonTokenPrices[_uniqonTokenId] == 0,\r\n            \"This uniqon token is already on sale.\"\r\n        );\r\n        require(\r\n            isApprovedForAll(uniqonTokenOwner, address(this)),\r\n            \"Uniqon token owner did not approve token.\"\r\n        );\r\n\r\n        //  prices \r\n        uniqonTokenPrices[_uniqonTokenId] = _price;\r\n\r\n        //      \r\n        onSaleUniqonToken.push(_uniqonTokenId);\r\n    }\r\n\r\n    function create(address to, string memory _tokenURI, uint repeat, uint price) public returns (uint256) {\r\n        // uint256 tokenId = current() + 1;\r\n        // tokenURIs[tokenId] = _tokenURI;\r\n        // _tokenIds = tokenId;\r\n        // _tokenIds = totalSupply() + 1;\r\n\r\n        setApprovalForAll(address(this), true);\r\n\r\n        for(uint i=0; i<repeat; i++){\r\n            tokenURIs[_tokenIds+1] = _tokenURI;\r\n            _tokenIds += 1;\r\n            _mint(to, _tokenIds);\r\n            setForSaleUniqonToken(_tokenIds, price);\r\n        }\r\n\r\n\r\n        // emit createNFT(_tokenIds+1, to); // block  + print \r\n        return _tokenIds;\r\n    }\r\n\r\n    function getOwnedTokens(address owner) public view returns (string[] memory) {\r\n        uint256 tokenCount = balanceOf(owner);\r\n\r\n        uint256[] memory tokens = new uint[](tokenCount);\r\n        string[] memory tokensURI = new string[](tokenCount);\r\n        for(uint i=0; i<tokenCount; i++){\r\n            tokens[i] = (tokenOfOwnerByIndex(owner, i));\r\n            tokensURI[i] = tokenURI(tokens[i]);\r\n        }\r\n        return tokensURI;\r\n    }\r\n\r\n    function getTokenPrice(uint256 _uniqonTokenId) public view returns (uint256) {\r\n        return uniqonTokenPrices[_uniqonTokenId];\r\n    }\r\n\r\n    function getOnSaleUniqonToken() public view returns (uint256[] memory) {\r\n        return onSaleUniqonToken;\r\n    }\r\n\r\n    function getSSFBalance() public view returns (uint256) {\r\n        return erc20Contract.balanceOf(msg.sender);\r\n    }\r\n\r\n    function transferSSF() public payable {\r\n        require(erc20Contract.approve(msg.sender, getSSFBalance()), \"address fail\");\r\n        require(getSSFBalance() > 0, \"caller has no money\");\r\n        \r\n        // address uniqonTokenOwner = ownerOf(1);\r\n\r\n        erc20Contract.transferFrom(msg.sender, address(this), 1);\r\n        // erc20Contract.transfer(0x5Ca94806f7440E2D235120115bBb77873952e819, 1);\r\n    }\r\n\r\n    function purchaseUniqonToken(uint256 _uniqonTokenId) public payable {\r\n        uint256 price = uniqonTokenPrices[_uniqonTokenId];\r\n        address uniqonTokenOwner = ownerOf(_uniqonTokenId);\r\n\r\n        require(price > 0, \"This uniqon token not sale.\");\r\n        require(price <= msg.value, \"Caller sent lower than price.\");\r\n        require(\r\n            uniqonTokenOwner != msg.sender,\r\n            \"Caller is uniqon token owner.\"\r\n        );\r\n\r\n        // payable(uniqonTokenOwner).transfer(msg.value);\r\n        erc20Contract.transferFrom(msg.sender, uniqonTokenOwner, price);\r\n        IERC721(address(this)).safeTransferFrom(uniqonTokenOwner, msg.sender, _uniqonTokenId);\r\n\r\n        uniqonTokenPrices[_uniqonTokenId] = 0;\r\n\r\n        for (uint256 i = 0; i < onSaleUniqonToken.length; i++) {\r\n            if (uniqonTokenPrices[onSaleUniqonToken[i]] == 0) {\r\n                onSaleUniqonToken[i] = onSaleUniqonToken[\r\n                    onSaleUniqonToken.length - 1\r\n                ];\r\n                onSaleUniqonToken.pop();\r\n            }\r\n        }\r\n        \r\n        emit showTokenURI(tokenURIs[_uniqonTokenId]); // block  + print \r\n    }\r\n}",
  "sourcePath": "C:\\SSAFY\\S07P22A507\\smart-contracts\\contracts\\MintUniqonToken.sol",
  "compiler": {
    "name": "solc",
    "version": "0.8.10+commit.fc410830.Emscripten.clang"
  },
  "schemaVersion": "3.4.9",
  "updatedAt": "2022-09-28T07:28:48.410Z",
  "devdoc": {
    "kind": "dev",
    "methods": {
      "approve(address,uint256)": {
        "details": "See {IERC721-approve}."
      },
      "balanceOf(address)": {
        "details": "See {IERC721-balanceOf}."
      },
      "getApproved(uint256)": {
        "details": "See {IERC721-getApproved}."
      },
      "isApprovedForAll(address,address)": {
        "details": "See {IERC721-isApprovedForAll}."
      },
      "name()": {
        "details": "See {IERC721Metadata-name}."
      },
      "ownerOf(uint256)": {
        "details": "See {IERC721-ownerOf}."
      },
      "safeTransferFrom(address,address,uint256)": {
        "details": "See {IERC721-safeTransferFrom}."
      },
      "safeTransferFrom(address,address,uint256,bytes)": {
        "details": "See {IERC721-safeTransferFrom}."
      },
      "setApprovalForAll(address,bool)": {
        "details": "See {IERC721-setApprovalForAll}."
      },
      "supportsInterface(bytes4)": {
        "details": "See {IERC165-supportsInterface}."
      },
      "symbol()": {
        "details": "See {IERC721Metadata-symbol}."
      },
      "tokenByIndex(uint256)": {
        "details": "See {IERC721Enumerable-tokenByIndex}."
      },
      "tokenOfOwnerByIndex(address,uint256)": {
        "details": "See {IERC721Enumerable-tokenOfOwnerByIndex}."
      },
      "tokenURI(uint256)": {
        "details": "See {IERC721Metadata-tokenURI}."
      },
      "totalSupply()": {
        "details": "See {IERC721Enumerable-totalSupply}."
      },
      "transferFrom(address,address,uint256)": {
        "details": "See {IERC721-transferFrom}."
      }
    },
    "version": 1
  },
  "userdoc": {
    "kind": "user",
    "methods": {},
    "notice": "PJT  -  2) NFT Creator          .",
    "version": 1
  }
}