{
  "contractName": "MintUniqonToken",
  "abi": [
    {
      "inputs": [],
      "stateMutability": "nonpayable",
      "type": "constructor"
    },
    {
      "anonymous": false,
      "inputs": [
        {
          "indexed": true,
          "internalType": "address",
          "name": "owner",
          "type": "address"
        },
        {
          "indexed": true,
          "internalType": "address",
          "name": "approved",
          "type": "address"
        },
        {
          "indexed": true,
          "internalType": "uint256",
          "name": "tokenId",
          "type": "uint256"
        }
      ],
      "name": "Approval",
      "type": "event"
    },
    {
      "anonymous": false,
      "inputs": [
        {
          "indexed": true,
          "internalType": "address",
          "name": "owner",
          "type": "address"
        },
        {
          "indexed": true,
          "internalType": "address",
          "name": "operator",
          "type": "address"
        },
        {
          "indexed": false,
          "internalType": "bool",
          "name": "approved",
          "type": "bool"
        }
      ],
      "name": "ApprovalForAll",
      "type": "event"
    },
    {
      "anonymous": false,
      "inputs": [
        {
          "indexed": true,
          "internalType": "address",
          "name": "from",
          "type": "address"
        },
        {
          "indexed": true,
          "internalType": "address",
          "name": "to",
          "type": "address"
        },
        {
          "indexed": true,
          "internalType": "uint256",
          "name": "tokenId",
          "type": "uint256"
        }
      ],
      "name": "Transfer",
      "type": "event"
    },
    {
      "anonymous": false,
      "inputs": [
        {
          "indexed": true,
          "internalType": "string",
          "name": "tokenURI",
          "type": "string"
        }
      ],
      "name": "showTokenURI",
      "type": "event"
    },
    {
      "inputs": [
        {
          "internalType": "address",
          "name": "to",
          "type": "address"
        },
        {
          "internalType": "uint256",
          "name": "tokenId",
          "type": "uint256"
        }
      ],
      "name": "approve",
      "outputs": [],
      "stateMutability": "nonpayable",
      "type": "function"
    },
    {
      "inputs": [
        {
          "internalType": "address",
          "name": "owner",
          "type": "address"
        }
      ],
      "name": "balanceOf",
      "outputs": [
        {
          "internalType": "uint256",
          "name": "",
          "type": "uint256"
        }
      ],
      "stateMutability": "view",
      "type": "function"
    },
    {
      "inputs": [],
      "name": "erc20Contract",
      "outputs": [
        {
          "internalType": "contract SSF",
          "name": "",
          "type": "address"
        }
      ],
      "stateMutability": "view",
      "type": "function"
    },
    {
      "inputs": [
        {
          "internalType": "uint256",
          "name": "tokenId",
          "type": "uint256"
        }
      ],
      "name": "getApproved",
      "outputs": [
        {
          "internalType": "address",
          "name": "",
          "type": "address"
        }
      ],
      "stateMutability": "view",
      "type": "function"
    },
    {
      "inputs": [
        {
          "internalType": "address",
          "name": "owner",
          "type": "address"
        },
        {
          "internalType": "address",
          "name": "operator",
          "type": "address"
        }
      ],
      "name": "isApprovedForAll",
      "outputs": [
        {
          "internalType": "bool",
          "name": "",
          "type": "bool"
        }
      ],
      "stateMutability": "view",
      "type": "function"
    },
    {
      "inputs": [],
      "name": "name",
      "outputs": [
        {
          "internalType": "string",
          "name": "",
          "type": "string"
        }
      ],
      "stateMutability": "view",
      "type": "function"
    },
    {
      "inputs": [
        {
          "internalType": "uint256",
          "name": "",
          "type": "uint256"
        }
      ],
      "name": "onSaleUniqonToken",
      "outputs": [
        {
          "internalType": "uint256",
          "name": "",
          "type": "uint256"
        }
      ],
      "stateMutability": "view",
      "type": "function"
    },
    {
      "inputs": [
        {
          "internalType": "uint256",
          "name": "tokenId",
          "type": "uint256"
        }
      ],
      "name": "ownerOf",
      "outputs": [
        {
          "internalType": "address",
          "name": "",
          "type": "address"
        }
      ],
      "stateMutability": "view",
      "type": "function"
    },
    {
      "inputs": [
        {
          "internalType": "address",
          "name": "from",
          "type": "address"
        },
        {
          "internalType": "address",
          "name": "to",
          "type": "address"
        },
        {
          "internalType": "uint256",
          "name": "tokenId",
          "type": "uint256"
        }
      ],
      "name": "safeTransferFrom",
      "outputs": [],
      "stateMutability": "nonpayable",
      "type": "function"
    },
    {
      "inputs": [
        {
          "internalType": "address",
          "name": "from",
          "type": "address"
        },
        {
          "internalType": "address",
          "name": "to",
          "type": "address"
        },
        {
          "internalType": "uint256",
          "name": "tokenId",
          "type": "uint256"
        },
        {
          "internalType": "bytes",
          "name": "data",
          "type": "bytes"
        }
      ],
      "name": "safeTransferFrom",
      "outputs": [],
      "stateMutability": "nonpayable",
      "type": "function"
    },
    {
      "inputs": [
        {
          "internalType": "address",
          "name": "operator",
          "type": "address"
        },
        {
          "internalType": "bool",
          "name": "approved",
          "type": "bool"
        }
      ],
      "name": "setApprovalForAll",
      "outputs": [],
      "stateMutability": "nonpayable",
      "type": "function"
    },
    {
      "inputs": [
        {
          "internalType": "bytes4",
          "name": "interfaceId",
          "type": "bytes4"
        }
      ],
      "name": "supportsInterface",
      "outputs": [
        {
          "internalType": "bool",
          "name": "",
          "type": "bool"
        }
      ],
      "stateMutability": "view",
      "type": "function"
    },
    {
      "inputs": [],
      "name": "symbol",
      "outputs": [
        {
          "internalType": "string",
          "name": "",
          "type": "string"
        }
      ],
      "stateMutability": "view",
      "type": "function"
    },
    {
      "inputs": [
        {
          "internalType": "uint256",
          "name": "index",
          "type": "uint256"
        }
      ],
      "name": "tokenByIndex",
      "outputs": [
        {
          "internalType": "uint256",
          "name": "",
          "type": "uint256"
        }
      ],
      "stateMutability": "view",
      "type": "function"
    },
    {
      "inputs": [
        {
          "internalType": "address",
          "name": "owner",
          "type": "address"
        },
        {
          "internalType": "uint256",
          "name": "index",
          "type": "uint256"
        }
      ],
      "name": "tokenOfOwnerByIndex",
      "outputs": [
        {
          "internalType": "uint256",
          "name": "",
          "type": "uint256"
        }
      ],
      "stateMutability": "view",
      "type": "function"
    },
    {
      "inputs": [],
      "name": "totalSupply",
      "outputs": [
        {
          "internalType": "uint256",
          "name": "",
          "type": "uint256"
        }
      ],
      "stateMutability": "view",
      "type": "function"
    },
    {
      "inputs": [
        {
          "internalType": "address",
          "name": "from",
          "type": "address"
        },
        {
          "internalType": "address",
          "name": "to",
          "type": "address"
        },
        {
          "internalType": "uint256",
          "name": "tokenId",
          "type": "uint256"
        }
      ],
      "name": "transferFrom",
      "outputs": [],
      "stateMutability": "nonpayable",
      "type": "function"
    },
    {
      "inputs": [
        {
          "internalType": "uint256",
          "name": "",
          "type": "uint256"
        }
      ],
      "name": "uniqonTokenPrices",
      "outputs": [
        {
          "internalType": "uint256",
          "name": "",
          "type": "uint256"
        }
      ],
      "stateMutability": "view",
      "type": "function"
    },
    {
      "inputs": [],
      "name": "current",
      "outputs": [
        {
          "internalType": "uint256",
          "name": "",
          "type": "uint256"
        }
      ],
      "stateMutability": "view",
      "type": "function"
    },
    {
      "inputs": [
        {
          "internalType": "uint256",
          "name": "tokenId",
          "type": "uint256"
        }
      ],
      "name": "tokenURI",
      "outputs": [
        {
          "internalType": "string",
          "name": "",
          "type": "string"
        }
      ],
      "stateMutability": "view",
      "type": "function"
    },
    {
      "inputs": [
        {
          "internalType": "uint256",
          "name": "_uniqonTokenId",
          "type": "uint256"
        },
        {
          "internalType": "uint256",
          "name": "_price",
          "type": "uint256"
        }
      ],
      "name": "setForSaleUniqonToken",
      "outputs": [],
      "stateMutability": "nonpayable",
      "type": "function"
    },
    {
      "inputs": [
        {
          "internalType": "address",
          "name": "to",
          "type": "address"
        },
        {
          "internalType": "string",
          "name": "_tokenURI",
          "type": "string"
        },
        {
          "internalType": "uint256",
          "name": "repeat",
          "type": "uint256"
        },
        {
          "internalType": "uint256",
          "name": "price",
          "type": "uint256"
        }
      ],
      "name": "create",
      "outputs": [
        {
          "internalType": "uint256",
          "name": "",
          "type": "uint256"
        }
      ],
      "stateMutability": "nonpayable",
      "type": "function"
    },
    {
      "inputs": [
        {
          "internalType": "address",
          "name": "owner",
          "type": "address"
        }
      ],
      "name": "getOwnedTokens",
      "outputs": [
        {
          "internalType": "string[]",
          "name": "",
          "type": "string[]"
        }
      ],
      "stateMutability": "view",
      "type": "function"
    },
    {
      "inputs": [
        {
          "internalType": "uint256",
          "name": "_uniqonTokenId",
          "type": "uint256"
        }
      ],
      "name": "getTokenPrice",
      "outputs": [
        {
          "internalType": "uint256",
          "name": "",
          "type": "uint256"
        }
      ],
      "stateMutability": "view",
      "type": "function"
    },
    {
      "inputs": [],
      "name": "getOnSaleUniqonToken",
      "outputs": [
        {
          "internalType": "uint256[]",
          "name": "",
          "type": "uint256[]"
        }
      ],
      "stateMutability": "view",
      "type": "function"
    },
    {
      "inputs": [],
      "name": "getUniqonTBalance",
      "outputs": [
        {
          "internalType": "uint256",
          "name": "",
          "type": "uint256"
        }
      ],
      "stateMutability": "view",
      "type": "function"
    },
    {
      "inputs": [],
      "name": "getUniqonTtotalSupply",
      "outputs": [
        {
          "internalType": "uint256",
          "name": "",
          "type": "uint256"
        }
      ],
      "stateMutability": "view",
      "type": "function"
    },
    {
      "inputs": [
        {
          "internalType": "uint256",
          "name": "_uniqonTokenId",
          "type": "uint256"
        }
      ],
      "name": "purchaseUniqonToken",
      "outputs": [],
      "stateMutability": "nonpayable",
      "type": "function"
    }
  ],
  "bytecode": "0x60806040523480156200001157600080fd5b506040518060400160405280600b81526020017f556e69712e6f6e2d4e46540000000000000000000000000000000000000000008152506040518060400160405280600481526020017f554e4654000000000000000000000000000000000000000000000000000000008152508160009080519060200190620000969291906200010d565b508060019080519060200190620000af9291906200010d565b50505073b39d41fe05d0cc6271513a47c89ac829f88952bf600e60006101000a81548173ffffffffffffffffffffffffffffffffffffffff021916908373ffffffffffffffffffffffffffffffffffffffff16021790555062000222565b8280546200011b90620001ec565b90600052602060002090601f0160209004810192826200013f57600085556200018b565b82601f106200015a57805160ff19168380011785556200018b565b828001600101855582156200018b579182015b828111156200018a5782518255916020019190600101906200016d565b5b5090506200019a91906200019e565b5090565b5b80821115620001b95760008160009055506001016200019f565b5090565b7f4e487b7100000000000000000000000000000000000000000000000000000000600052602260045260246000fd5b600060028204905060018216806200020557607f821691505b602082108114156200021c576200021b620001bd565b5b50919050565b6145bc80620002326000396000f3fe608060405234801561001057600080fd5b50600436106101c45760003560e01c806390ae1b41116100f9578063c457fb3711610097578063d49cf7f011610071578063d49cf7f014610541578063d9d616551461055d578063da566a6f1461058d578063e985e9c5146105bd576101c4565b8063c457fb37146104c5578063c87b56dd146104f5578063d2a6c2a314610525576101c4565b80639fa6a6e3116100d35780639fa6a6e314610451578063a22cb4651461046f578063a8f6c9131461048b578063b88d4fde146104a9576101c4565b806390ae1b41146103f7578063947dd7201461041557806395d89b4114610433576101c4565b806323b872dd116101665780634f6ccce7116101405780634f6ccce7146103375780636352211e1461036757806370a082311461039757806375c7c9a7146103c7576101c4565b806323b872dd146102cf5780632f745c59146102eb57806342842e0e1461031b576101c4565b8063095ea7b3116101a2578063095ea7b31461024757806317a687b61461026357806318160ddd146102815780631d3402af1461029f576101c4565b806301ffc9a7146101c957806306fdde03146101f9578063081812fc14610217575b600080fd5b6101e360048036038101906101de9190612bce565b6105ed565b6040516101f09190612c16565b60405180910390f35b610201610667565b60405161020e9190612cca565b60405180910390f35b610231600480360381019061022c9190612d22565b6106f9565b60405161023e9190612d90565b60405180910390f35b610261600480360381019061025c9190612dd7565b61073f565b005b61026b610857565b6040516102789190612e26565b60405180910390f35b6102896108fa565b6040516102969190612e26565b60405180910390f35b6102b960048036038101906102b49190612d22565b610907565b6040516102c69190612e26565b60405180910390f35b6102e960048036038101906102e49190612e41565b61091f565b005b61030560048036038101906103009190612dd7565b61097f565b6040516103129190612e26565b60405180910390f35b61033560048036038101906103309190612e41565b610a24565b005b610351600480360381019061034c9190612d22565b610a44565b60405161035e9190612e26565b60405180910390f35b610381600480360381019061037c9190612d22565b610ab5565b60405161038e9190612d90565b60405180910390f35b6103b160048036038101906103ac9190612e94565b610b3c565b6040516103be9190612e26565b60405180910390f35b6103e160048036038101906103dc9190612d22565b610bf4565b6040516103ee9190612e26565b60405180910390f35b6103ff610c18565b60405161040c9190612f7f565b60405180910390f35b61041d610c70565b60405161042a9190612e26565b60405180910390f35b61043b610d08565b6040516104489190612cca565b60405180910390f35b610459610d9a565b6040516104669190612e26565b60405180910390f35b61048960048036038101906104849190612fcd565b610da4565b005b610493610dba565b6040516104a0919061306c565b60405180910390f35b6104c360048036038101906104be91906131bc565b610de0565b005b6104df60048036038101906104da9190612d22565b610e42565b6040516104ec9190612e26565b60405180910390f35b61050f600480360381019061050a9190612d22565b610e5f565b60405161051c9190612cca565b60405180910390f35b61053f600480360381019061053a9190612d22565b610f04565b005b61055b6004803603810190610556919061323f565b6116a2565b005b61057760048036038101906105729190612e94565b611845565b604051610584919061338b565b60405180910390f35b6105a760048036038101906105a2919061344e565b611987565b6040516105b49190612e26565b60405180910390f35b6105d760048036038101906105d291906134d1565b611a28565b6040516105e49190612c16565b60405180910390f35b60007f780e9d63000000000000000000000000000000000000000000000000000000007bffffffffffffffffffffffffffffffffffffffffffffffffffffffff1916827bffffffffffffffffffffffffffffffffffffffffffffffffffffffff19161480610660575061065f82611abc565b5b9050919050565b60606000805461067690613540565b80601f01602080910402602001604051908101604052809291908181526020018280546106a290613540565b80156106ef5780601f106106c4576101008083540402835291602001916106ef565b820191906000526020600020905b8154815290600101906020018083116106d257829003601f168201915b5050505050905090565b600061070482611b9e565b6004600083815260200190815260200160002060009054906101000a900473ffffffffffffffffffffffffffffffffffffffff169050919050565b600061074a82610ab5565b90508073ffffffffffffffffffffffffffffffffffffffff168373ffffffffffffffffffffffffffffffffffffffff1614156107bb576040517f08c379a00000000000000000000000000000000000000000000000000000000081526004016107b2906135e4565b60405180910390fd5b8073ffffffffffffffffffffffffffffffffffffffff166107da611be9565b73ffffffffffffffffffffffffffffffffffffffff161480610809575061080881610803611be9565b611a28565b5b610848576040517f08c379a000000000000000000000000000000000000000000000000000000000815260040161083f90613676565b60405180910390fd5b6108528383611bf1565b505050565b6000600e60009054906101000a900473ffffffffffffffffffffffffffffffffffffffff1673ffffffffffffffffffffffffffffffffffffffff166370a08231336040518263ffffffff1660e01b81526004016108b49190612d90565b602060405180830381865afa1580156108d1573d6000803e3d6000fd5b505050506040513d601f19601f820116820180604052508101906108f591906136ab565b905090565b6000600880549050905090565b600c6020528060005260406000206000915090505481565b61093061092a611be9565b82611caa565b61096f576040517f08c379a00000000000000000000000000000000000000000000000000000000081526004016109669061374a565b60405180910390fd5b61097a838383611d3f565b505050565b600061098a83610b3c565b82106109cb576040517f08c379a00000000000000000000000000000000000000000000000000000000081526004016109c2906137dc565b60405180910390fd5b600660008473ffffffffffffffffffffffffffffffffffffffff1673ffffffffffffffffffffffffffffffffffffffff168152602001908152602001600020600083815260200190815260200160002054905092915050565b610a3f83838360405180602001604052806000815250610de0565b505050565b6000610a4e6108fa565b8210610a8f576040517f08c379a0000000000000000000000000000000000000000000000000000000008152600401610a869061386e565b60405180910390fd5b60088281548110610aa357610aa261388e565b5b90600052602060002001549050919050565b600080610ac183612035565b9050600073ffffffffffffffffffffffffffffffffffffffff168173ffffffffffffffffffffffffffffffffffffffff161415610b33576040517f08c379a0000000000000000000000000000000000000000000000000000000008152600401610b2a90613909565b60405180910390fd5b80915050919050565b60008073ffffffffffffffffffffffffffffffffffffffff168273ffffffffffffffffffffffffffffffffffffffff161415610bad576040517f08c379a0000000000000000000000000000000000000000000000000000000008152600401610ba49061399b565b60405180910390fd5b600360008373ffffffffffffffffffffffffffffffffffffffff1673ffffffffffffffffffffffffffffffffffffffff168152602001908152602001600020549050919050565b600d8181548110610c0457600080fd5b906000526020600020016000915090505481565b6060600d805480602002602001604051908101604052809291908181526020018280548015610c6657602002820191906000526020600020905b815481526020019060010190808311610c52575b5050505050905090565b6000600e60009054906101000a900473ffffffffffffffffffffffffffffffffffffffff1673ffffffffffffffffffffffffffffffffffffffff166318160ddd6040518163ffffffff1660e01b8152600401602060405180830381865afa158015610cdf573d6000803e3d6000fd5b505050506040513d601f19601f82011682018060405250810190610d0391906136ab565b905090565b606060018054610d1790613540565b80601f0160208091040260200160405190810160405280929190818152602001828054610d4390613540565b8015610d905780601f10610d6557610100808354040283529160200191610d90565b820191906000526020600020905b815481529060010190602001808311610d7357829003601f168201915b5050505050905090565b6000600a54905090565b610db6610daf611be9565b8383612072565b5050565b600e60009054906101000a900473ffffffffffffffffffffffffffffffffffffffff1681565b610df1610deb611be9565b83611caa565b610e30576040517f08c379a0000000000000000000000000000000000000000000000000000000008152600401610e279061374a565b60405180910390fd5b610e3c848484846121df565b50505050565b6000600c6000838152602001908152602001600020549050919050565b6060600b60008381526020019081526020016000208054610e7f90613540565b80601f0160208091040260200160405190810160405280929190818152602001828054610eab90613540565b8015610ef85780601f10610ecd57610100808354040283529160200191610ef8565b820191906000526020600020905b815481529060010190602001808311610edb57829003601f168201915b50505050509050919050565b60003390506000600c60008481526020019081526020016000205490506000610f2c84610ab5565b905060008211610f71576040517f08c379a0000000000000000000000000000000000000000000000000000000008152600401610f6890613a07565b60405180910390fd5b3373ffffffffffffffffffffffffffffffffffffffff168173ffffffffffffffffffffffffffffffffffffffff161415610fe0576040517f08c379a0000000000000000000000000000000000000000000000000000000008152600401610fd790613a73565b60405180910390fd5b600e60009054906101000a900473ffffffffffffffffffffffffffffffffffffffff1673ffffffffffffffffffffffffffffffffffffffff1663095ea7b330600e60009054906101000a900473ffffffffffffffffffffffffffffffffffffffff1673ffffffffffffffffffffffffffffffffffffffff166370a08231876040518263ffffffff1660e01b815260040161107a9190612d90565b602060405180830381865afa158015611097573d6000803e3d6000fd5b505050506040513d601f19601f820116820180604052508101906110bb91906136ab565b6040518363ffffffff1660e01b81526004016110d8929190613a93565b6020604051808303816000875af11580156110f7573d6000803e3d6000fd5b505050506040513d601f19601f8201168201806040525081019061111b9190613ad1565b61115a576040517f08c379a000000000000000000000000000000000000000000000000000000000815260040161115190613b4a565b60405180910390fd5b600e60009054906101000a900473ffffffffffffffffffffffffffffffffffffffff1673ffffffffffffffffffffffffffffffffffffffff1663095ea7b384846040518363ffffffff1660e01b81526004016111b7929190613a93565b6020604051808303816000875af11580156111d6573d6000803e3d6000fd5b505050506040513d601f19601f820116820180604052508101906111fa9190613ad1565b611239576040517f08c379a000000000000000000000000000000000000000000000000000000000815260040161123090613bb6565b60405180910390fd5b6000600e60009054906101000a900473ffffffffffffffffffffffffffffffffffffffff1673ffffffffffffffffffffffffffffffffffffffff1663dd62ed3e85306040518363ffffffff1660e01b8152600401611298929190613bd6565b602060405180830381865afa1580156112b5573d6000803e3d6000fd5b505050506040513d601f19601f820116820180604052508101906112d991906136ab565b141561131a576040517f08c379a000000000000000000000000000000000000000000000000000000000815260040161131190613c71565b60405180910390fd5b81600e60009054906101000a900473ffffffffffffffffffffffffffffffffffffffff1673ffffffffffffffffffffffffffffffffffffffff1663dd62ed3e85306040518363ffffffff1660e01b8152600401611378929190613bd6565b602060405180830381865afa158015611395573d6000803e3d6000fd5b505050506040513d601f19601f820116820180604052508101906113b991906136ab565b10156113fa576040517f08c379a00000000000000000000000000000000000000000000000000000000081526004016113f190613d03565b60405180910390fd5b6000611404610857565b11611444576040517f08c379a000000000000000000000000000000000000000000000000000000000815260040161143b90613d6f565b60405180910390fd5b600e60009054906101000a900473ffffffffffffffffffffffffffffffffffffffff1673ffffffffffffffffffffffffffffffffffffffff166323b872dd8483856040518463ffffffff1660e01b81526004016114a393929190613d8f565b6020604051808303816000875af11580156114c2573d6000803e3d6000fd5b505050506040513d601f19601f820116820180604052508101906114e69190613ad1565b503073ffffffffffffffffffffffffffffffffffffffff166342842e0e8285876040518463ffffffff1660e01b815260040161152493929190613d8f565b600060405180830381600087803b15801561153e57600080fd5b505af1158015611552573d6000803e3d6000fd5b505050506000600c60008681526020019081526020016000208190555060005b600d80549050811015611647576000600c6000600d84815481106115995761159861388e565b5b9060005260206000200154815260200190815260200160002054141561163457600d6001600d805490506115cd9190613df5565b815481106115de576115dd61388e565b5b9060005260206000200154600d82815481106115fd576115fc61388e565b5b9060005260206000200181905550600d80548061161d5761161c613e29565b5b600190038181906000526020600020016000905590555b808061163f90613e58565b915050611572565b50600b60008581526020019081526020016000206040516116689190613f40565b60405180910390207f8374ecad8a176051b66b72440a707a05f42fa30cd0434b8568454e0e8d877cec60405160405180910390a250505050565b60006116ad83610ab5565b90503373ffffffffffffffffffffffffffffffffffffffff168173ffffffffffffffffffffffffffffffffffffffff161461171d576040517f08c379a000000000000000000000000000000000000000000000000000000000815260040161171490613fa3565b60405180910390fd5b60008211611760576040517f08c379a00000000000000000000000000000000000000000000000000000000081526004016117579061400f565b60405180910390fd5b6000600c600085815260200190815260200160002054146117b6576040517f08c379a00000000000000000000000000000000000000000000000000000000081526004016117ad906140a1565b60405180910390fd5b6117c08130611a28565b6117ff576040517f08c379a00000000000000000000000000000000000000000000000000000000081526004016117f690614133565b60405180910390fd5b81600c600085815260200190815260200160002081905550600d839080600181540180825580915050600190039060005260206000200160009091909190915055505050565b6060600061185283610b3c565b905060008167ffffffffffffffff8111156118705761186f613091565b5b60405190808252806020026020018201604052801561189e5781602001602082028036833780820191505090505b50905060008267ffffffffffffffff8111156118bd576118bc613091565b5b6040519080825280602002602001820160405280156118f057816020015b60608152602001906001900390816118db5790505b50905060005b8381101561197b57611908868261097f565b83828151811061191b5761191a61388e565b5b60200260200101818152505061194a83828151811061193d5761193c61388e565b5b6020026020010151610e5f565b82828151811061195d5761195c61388e565b5b6020026020010181905250808061197390613e58565b9150506118f6565b50809350505050919050565b6000611994306001610da4565b60005b83811015611a1a5784600b60006001600a546119b39190614153565b815260200190815260200160002090805190602001906119d4929190612abf565b506001600a60008282546119e89190614153565b925050819055506119fb86600a5461223b565b611a07600a54846116a2565b8080611a1290613e58565b915050611997565b50600a549050949350505050565b6000600560008473ffffffffffffffffffffffffffffffffffffffff1673ffffffffffffffffffffffffffffffffffffffff16815260200190815260200160002060008373ffffffffffffffffffffffffffffffffffffffff1673ffffffffffffffffffffffffffffffffffffffff16815260200190815260200160002060009054906101000a900460ff16905092915050565b60007f80ac58cd000000000000000000000000000000000000000000000000000000007bffffffffffffffffffffffffffffffffffffffffffffffffffffffff1916827bffffffffffffffffffffffffffffffffffffffffffffffffffffffff19161480611b8757507f5b5e139f000000000000000000000000000000000000000000000000000000007bffffffffffffffffffffffffffffffffffffffffffffffffffffffff1916827bffffffffffffffffffffffffffffffffffffffffffffffffffffffff1916145b80611b975750611b9682612455565b5b9050919050565b611ba7816124bf565b611be6576040517f08c379a0000000000000000000000000000000000000000000000000000000008152600401611bdd90613909565b60405180910390fd5b50565b600033905090565b816004600083815260200190815260200160002060006101000a81548173ffffffffffffffffffffffffffffffffffffffff021916908373ffffffffffffffffffffffffffffffffffffffff160217905550808273ffffffffffffffffffffffffffffffffffffffff16611c6483610ab5565b73ffffffffffffffffffffffffffffffffffffffff167f8c5be1e5ebec7d5bd14f71427d1e84f3dd0314c0f7b2291e5b200ac8c7c3b92560405160405180910390a45050565b600080611cb683610ab5565b90508073ffffffffffffffffffffffffffffffffffffffff168473ffffffffffffffffffffffffffffffffffffffff161480611cf85750611cf78185611a28565b5b80611d3657508373ffffffffffffffffffffffffffffffffffffffff16611d1e846106f9565b73ffffffffffffffffffffffffffffffffffffffff16145b91505092915050565b8273ffffffffffffffffffffffffffffffffffffffff16611d5f82610ab5565b73ffffffffffffffffffffffffffffffffffffffff1614611db5576040517f08c379a0000000000000000000000000000000000000000000000000000000008152600401611dac9061421b565b60405180910390fd5b600073ffffffffffffffffffffffffffffffffffffffff168273ffffffffffffffffffffffffffffffffffffffff161415611e25576040517f08c379a0000000000000000000000000000000000000000000000000000000008152600401611e1c906142ad565b60405180910390fd5b611e30838383612500565b8273ffffffffffffffffffffffffffffffffffffffff16611e5082610ab5565b73ffffffffffffffffffffffffffffffffffffffff1614611ea6576040517f08c379a0000000000000000000000000000000000000000000000000000000008152600401611e9d9061421b565b60405180910390fd5b6004600082815260200190815260200160002060006101000a81549073ffffffffffffffffffffffffffffffffffffffff02191690556001600360008573ffffffffffffffffffffffffffffffffffffffff1673ffffffffffffffffffffffffffffffffffffffff168152602001908152602001600020600082825403925050819055506001600360008473ffffffffffffffffffffffffffffffffffffffff1673ffffffffffffffffffffffffffffffffffffffff16815260200190815260200160002060008282540192505081905550816002600083815260200190815260200160002060006101000a81548173ffffffffffffffffffffffffffffffffffffffff021916908373ffffffffffffffffffffffffffffffffffffffff160217905550808273ffffffffffffffffffffffffffffffffffffffff168473ffffffffffffffffffffffffffffffffffffffff167fddf252ad1be2c89b69c2b068fc378daa952ba7f163c4a11628f55a4df523b3ef60405160405180910390a4612030838383612614565b505050565b60006002600083815260200190815260200160002060009054906101000a900473ffffffffffffffffffffffffffffffffffffffff169050919050565b8173ffffffffffffffffffffffffffffffffffffffff168373ffffffffffffffffffffffffffffffffffffffff1614156120e1576040517f08c379a00000000000000000000000000000000000000000000000000000000081526004016120d890614319565b60405180910390fd5b80600560008573ffffffffffffffffffffffffffffffffffffffff1673ffffffffffffffffffffffffffffffffffffffff16815260200190815260200160002060008473ffffffffffffffffffffffffffffffffffffffff1673ffffffffffffffffffffffffffffffffffffffff16815260200190815260200160002060006101000a81548160ff0219169083151502179055508173ffffffffffffffffffffffffffffffffffffffff168373ffffffffffffffffffffffffffffffffffffffff167f17307eab39ab6107e8899845ad3d59bd9653f200f220920489ca2b5937696c31836040516121d29190612c16565b60405180910390a3505050565b6121ea848484611d3f565b6121f684848484612619565b612235576040517f08c379a000000000000000000000000000000000000000000000000000000000815260040161222c906143ab565b60405180910390fd5b50505050565b600073ffffffffffffffffffffffffffffffffffffffff168273ffffffffffffffffffffffffffffffffffffffff1614156122ab576040517f08c379a00000000000000000000000000000000000000000000000000000000081526004016122a290614417565b60405180910390fd5b6122b4816124bf565b156122f4576040517f08c379a00000000000000000000000000000000000000000000000000000000081526004016122eb90614483565b60405180910390fd5b61230060008383612500565b612309816124bf565b15612349576040517f08c379a000000000000000000000000000000000000000000000000000000000815260040161234090614483565b60405180910390fd5b6001600360008473ffffffffffffffffffffffffffffffffffffffff1673ffffffffffffffffffffffffffffffffffffffff16815260200190815260200160002060008282540192505081905550816002600083815260200190815260200160002060006101000a81548173ffffffffffffffffffffffffffffffffffffffff021916908373ffffffffffffffffffffffffffffffffffffffff160217905550808273ffffffffffffffffffffffffffffffffffffffff16600073ffffffffffffffffffffffffffffffffffffffff167fddf252ad1be2c89b69c2b068fc378daa952ba7f163c4a11628f55a4df523b3ef60405160405180910390a461245160008383612614565b5050565b60007f01ffc9a7000000000000000000000000000000000000000000000000000000007bffffffffffffffffffffffffffffffffffffffffffffffffffffffff1916827bffffffffffffffffffffffffffffffffffffffffffffffffffffffff1916149050919050565b60008073ffffffffffffffffffffffffffffffffffffffff166124e183612035565b73ffffffffffffffffffffffffffffffffffffffff1614159050919050565b61250b8383836127a1565b600073ffffffffffffffffffffffffffffffffffffffff168373ffffffffffffffffffffffffffffffffffffffff16141561254e57612549816127a6565b61258d565b8173ffffffffffffffffffffffffffffffffffffffff168373ffffffffffffffffffffffffffffffffffffffff161461258c5761258b83826127ef565b5b5b600073ffffffffffffffffffffffffffffffffffffffff168273ffffffffffffffffffffffffffffffffffffffff1614156125d0576125cb8161295c565b61260f565b8273ffffffffffffffffffffffffffffffffffffffff168273ffffffffffffffffffffffffffffffffffffffff161461260e5761260d8282612a2d565b5b5b505050565b505050565b600061263a8473ffffffffffffffffffffffffffffffffffffffff16612aac565b15612794578373ffffffffffffffffffffffffffffffffffffffff1663150b7a02612663611be9565b8786866040518563ffffffff1660e01b815260040161268594939291906144f8565b6020604051808303816000875af19250505080156126c157506040513d601f19601f820116820180604052508101906126be9190614559565b60015b612744573d80600081146126f1576040519150601f19603f3d011682016040523d82523d6000602084013e6126f6565b606091505b5060008151141561273c576040517f08c379a0000000000000000000000000000000000000000000000000000000008152600401612733906143ab565b60405180910390fd5b805181602001fd5b63150b7a0260e01b7bffffffffffffffffffffffffffffffffffffffffffffffffffffffff1916817bffffffffffffffffffffffffffffffffffffffffffffffffffffffff191614915050612799565b600190505b949350505050565b505050565b6008805490506009600083815260200190815260200160002081905550600881908060018154018082558091505060019003906000526020600020016000909190919091505550565b600060016127fc84610b3c565b6128069190613df5565b90506000600760008481526020019081526020016000205490508181146128eb576000600660008673ffffffffffffffffffffffffffffffffffffffff1673ffffffffffffffffffffffffffffffffffffffff168152602001908152602001600020600084815260200190815260200160002054905080600660008773ffffffffffffffffffffffffffffffffffffffff1673ffffffffffffffffffffffffffffffffffffffff168152602001908152602001600020600084815260200190815260200160002081905550816007600083815260200190815260200160002081905550505b6007600084815260200190815260200160002060009055600660008573ffffffffffffffffffffffffffffffffffffffff1673ffffffffffffffffffffffffffffffffffffffff16815260200190815260200160002060008381526020019081526020016000206000905550505050565b600060016008805490506129709190613df5565b90506000600960008481526020019081526020016000205490506000600883815481106129a05761299f61388e565b5b9060005260206000200154905080600883815481106129c2576129c161388e565b5b906000526020600020018190555081600960008381526020019081526020016000208190555060096000858152602001908152602001600020600090556008805480612a1157612a10613e29565b5b6001900381819060005260206000200160009055905550505050565b6000612a3883610b3c565b905081600660008573ffffffffffffffffffffffffffffffffffffffff1673ffffffffffffffffffffffffffffffffffffffff168152602001908152602001600020600083815260200190815260200160002081905550806007600084815260200190815260200160002081905550505050565b600080823b905060008111915050919050565b828054612acb90613540565b90600052602060002090601f016020900481019282612aed5760008555612b34565b82601f10612b0657805160ff1916838001178555612b34565b82800160010185558215612b34579182015b82811115612b33578251825591602001919060010190612b18565b5b509050612b419190612b45565b5090565b5b80821115612b5e576000816000905550600101612b46565b5090565b6000604051905090565b600080fd5b600080fd5b60007fffffffff0000000000000000000000000000000000000000000000000000000082169050919050565b612bab81612b76565b8114612bb657600080fd5b50565b600081359050612bc881612ba2565b92915050565b600060208284031215612be457612be3612b6c565b5b6000612bf284828501612bb9565b91505092915050565b60008115159050919050565b612c1081612bfb565b82525050565b6000602082019050612c2b6000830184612c07565b92915050565b600081519050919050565b600082825260208201905092915050565b60005b83811015612c6b578082015181840152602081019050612c50565b83811115612c7a576000848401525b50505050565b6000601f19601f8301169050919050565b6000612c9c82612c31565b612ca68185612c3c565b9350612cb6818560208601612c4d565b612cbf81612c80565b840191505092915050565b60006020820190508181036000830152612ce48184612c91565b905092915050565b6000819050919050565b612cff81612cec565b8114612d0a57600080fd5b50565b600081359050612d1c81612cf6565b92915050565b600060208284031215612d3857612d37612b6c565b5b6000612d4684828501612d0d565b91505092915050565b600073ffffffffffffffffffffffffffffffffffffffff82169050919050565b6000612d7a82612d4f565b9050919050565b612d8a81612d6f565b82525050565b6000602082019050612da56000830184612d81565b92915050565b612db481612d6f565b8114612dbf57600080fd5b50565b600081359050612dd181612dab565b92915050565b60008060408385031215612dee57612ded612b6c565b5b6000612dfc85828601612dc2565b9250506020612e0d85828601612d0d565b9150509250929050565b612e2081612cec565b82525050565b6000602082019050612e3b6000830184612e17565b92915050565b600080600060608486031215612e5a57612e59612b6c565b5b6000612e6886828701612dc2565b9350506020612e7986828701612dc2565b9250506040612e8a86828701612d0d565b9150509250925092565b600060208284031215612eaa57612ea9612b6c565b5b6000612eb884828501612dc2565b91505092915050565b600081519050919050565b600082825260208201905092915050565b6000819050602082019050919050565b612ef681612cec565b82525050565b6000612f088383612eed565b60208301905092915050565b6000602082019050919050565b6000612f2c82612ec1565b612f368185612ecc565b9350612f4183612edd565b8060005b83811015612f72578151612f598882612efc565b9750612f6483612f14565b925050600181019050612f45565b5085935050505092915050565b60006020820190508181036000830152612f998184612f21565b905092915050565b612faa81612bfb565b8114612fb557600080fd5b50565b600081359050612fc781612fa1565b92915050565b60008060408385031215612fe457612fe3612b6c565b5b6000612ff285828601612dc2565b925050602061300385828601612fb8565b9150509250929050565b6000819050919050565b600061303261302d61302884612d4f565b61300d565b612d4f565b9050919050565b600061304482613017565b9050919050565b600061305682613039565b9050919050565b6130668161304b565b82525050565b6000602082019050613081600083018461305d565b92915050565b600080fd5b600080fd5b7f4e487b7100000000000000000000000000000000000000000000000000000000600052604160045260246000fd5b6130c982612c80565b810181811067ffffffffffffffff821117156130e8576130e7613091565b5b80604052505050565b60006130fb612b62565b905061310782826130c0565b919050565b600067ffffffffffffffff82111561312757613126613091565b5b61313082612c80565b9050602081019050919050565b82818337600083830152505050565b600061315f61315a8461310c565b6130f1565b90508281526020810184848401111561317b5761317a61308c565b5b61318684828561313d565b509392505050565b600082601f8301126131a3576131a2613087565b5b81356131b384826020860161314c565b91505092915050565b600080600080608085870312156131d6576131d5612b6c565b5b60006131e487828801612dc2565b94505060206131f587828801612dc2565b935050604061320687828801612d0d565b925050606085013567ffffffffffffffff81111561322757613226612b71565b5b6132338782880161318e565b91505092959194509250565b6000806040838503121561325657613255612b6c565b5b600061326485828601612d0d565b925050602061327585828601612d0d565b9150509250929050565b600081519050919050565b600082825260208201905092915050565b6000819050602082019050919050565b600082825260208201905092915050565b60006132c782612c31565b6132d181856132ab565b93506132e1818560208601612c4d565b6132ea81612c80565b840191505092915050565b600061330183836132bc565b905092915050565b6000602082019050919050565b60006133218261327f565b61332b818561328a565b93508360208202850161333d8561329b565b8060005b85811015613379578484038952815161335a85826132f5565b945061336583613309565b925060208a01995050600181019050613341565b50829750879550505050505092915050565b600060208201905081810360008301526133a58184613316565b905092915050565b600067ffffffffffffffff8211156133c8576133c7613091565b5b6133d182612c80565b9050602081019050919050565b60006133f16133ec846133ad565b6130f1565b90508281526020810184848401111561340d5761340c61308c565b5b61341884828561313d565b509392505050565b600082601f83011261343557613434613087565b5b81356134458482602086016133de565b91505092915050565b6000806000806080858703121561346857613467612b6c565b5b600061347687828801612dc2565b945050602085013567ffffffffffffffff81111561349757613496612b71565b5b6134a387828801613420565b93505060406134b487828801612d0d565b92505060606134c587828801612d0d565b91505092959194509250565b600080604083850312156134e8576134e7612b6c565b5b60006134f685828601612dc2565b925050602061350785828601612dc2565b9150509250929050565b7f4e487b7100000000000000000000000000000000000000000000000000000000600052602260045260246000fd5b6000600282049050600182168061355857607f821691505b6020821081141561356c5761356b613511565b5b50919050565b7f4552433732313a20617070726f76616c20746f2063757272656e74206f776e6560008201527f7200000000000000000000000000000000000000000000000000000000000000602082015250565b60006135ce602183612c3c565b91506135d982613572565b604082019050919050565b600060208201905081810360008301526135fd816135c1565b9050919050565b7f4552433732313a20617070726f76652063616c6c6572206973206e6f7420746f60008201527f6b656e206f776e6572206f7220617070726f76656420666f7220616c6c000000602082015250565b6000613660603d83612c3c565b915061366b82613604565b604082019050919050565b6000602082019050818103600083015261368f81613653565b9050919050565b6000815190506136a581612cf6565b92915050565b6000602082840312156136c1576136c0612b6c565b5b60006136cf84828501613696565b91505092915050565b7f4552433732313a2063616c6c6572206973206e6f7420746f6b656e206f776e6560008201527f72206f7220617070726f76656400000000000000000000000000000000000000602082015250565b6000613734602d83612c3c565b915061373f826136d8565b604082019050919050565b6000602082019050818103600083015261376381613727565b9050919050565b7f455243373231456e756d657261626c653a206f776e657220696e646578206f7560008201527f74206f6620626f756e6473000000000000000000000000000000000000000000602082015250565b60006137c6602b83612c3c565b91506137d18261376a565b604082019050919050565b600060208201905081810360008301526137f5816137b9565b9050919050565b7f455243373231456e756d657261626c653a20676c6f62616c20696e646578206f60008201527f7574206f6620626f756e64730000000000000000000000000000000000000000602082015250565b6000613858602c83612c3c565b9150613863826137fc565b604082019050919050565b600060208201905081810360008301526138878161384b565b9050919050565b7f4e487b7100000000000000000000000000000000000000000000000000000000600052603260045260246000fd5b7f4552433732313a20696e76616c696420746f6b656e2049440000000000000000600082015250565b60006138f3601883612c3c565b91506138fe826138bd565b602082019050919050565b60006020820190508181036000830152613922816138e6565b9050919050565b7f4552433732313a2061646472657373207a65726f206973206e6f74206120766160008201527f6c6964206f776e65720000000000000000000000000000000000000000000000602082015250565b6000613985602983612c3c565b915061399082613929565b604082019050919050565b600060208201905081810360008301526139b481613978565b9050919050565b7f5468697320756e69716f6e20746f6b656e206e6f742073616c652e0000000000600082015250565b60006139f1601b83612c3c565b91506139fc826139bb565b602082019050919050565b60006020820190508181036000830152613a20816139e4565b9050919050565b7f43616c6c657220697320756e69716f6e20746f6b656e206f776e65722e000000600082015250565b6000613a5d601d83612c3c565b9150613a6882613a27565b602082019050919050565b60006020820190508181036000830152613a8c81613a50565b9050919050565b6000604082019050613aa86000830185612d81565b613ab56020830184612e17565b9392505050565b600081519050613acb81612fa1565b92915050565b600060208284031215613ae757613ae6612b6c565b5b6000613af584828501613abc565b91505092915050565b7f61646472657373206661696c0000000000000000000000000000000000000000600082015250565b6000613b34600c83612c3c565b9150613b3f82613afe565b602082019050919050565b60006020820190508181036000830152613b6381613b27565b9050919050565b7f6d73672e73656e646572206661696c0000000000000000000000000000000000600082015250565b6000613ba0600f83612c3c565b9150613bab82613b6a565b602082019050919050565b60006020820190508181036000830152613bcf81613b93565b9050919050565b6000604082019050613beb6000830185612d81565b613bf86020830184612d81565b9392505050565b7f627579657220646964206e6f7420617070726f7665207468697320636f6e747260008201527f6163740000000000000000000000000000000000000000000000000000000000602082015250565b6000613c5b602383612c3c565b9150613c6682613bff565b604082019050919050565b60006020820190508181036000830152613c8a81613c4e565b9050919050565b7f63616c6c657220617070726f7665206c65737320616d6f756e74206f6620746f60008201527f6b656e0000000000000000000000000000000000000000000000000000000000602082015250565b6000613ced602383612c3c565b9150613cf882613c91565b604082019050919050565b60006020820190508181036000830152613d1c81613ce0565b9050919050565b7f63616c6c657220686173206e6f206d6f6e657900000000000000000000000000600082015250565b6000613d59601383612c3c565b9150613d6482613d23565b602082019050919050565b60006020820190508181036000830152613d8881613d4c565b9050919050565b6000606082019050613da46000830186612d81565b613db16020830185612d81565b613dbe6040830184612e17565b949350505050565b7f4e487b7100000000000000000000000000000000000000000000000000000000600052601160045260246000fd5b6000613e0082612cec565b9150613e0b83612cec565b925082821015613e1e57613e1d613dc6565b5b828203905092915050565b7f4e487b7100000000000000000000000000000000000000000000000000000000600052603160045260246000fd5b6000613e6382612cec565b91507fffffffffffffffffffffffffffffffffffffffffffffffffffffffffffffffff821415613e9657613e95613dc6565b5b600182019050919050565b600081905092915050565b60008190508160005260206000209050919050565b60008154613ece81613540565b613ed88186613ea1565b94506001821660008114613ef35760018114613f0457613f37565b60ff19831686528186019350613f37565b613f0d85613eac565b60005b83811015613f2f57815481890152600182019150602081019050613f10565b838801955050505b50505092915050565b6000613f4c8284613ec1565b915081905092915050565b7f43616c6c6572206973206e6f7420756e69716f6e546f6b656e206f776e65722e600082015250565b6000613f8d602083612c3c565b9150613f9882613f57565b602082019050919050565b60006020820190508181036000830152613fbc81613f80565b9050919050565b7f5072696365206973207a65726f206973206c6f7765722e000000000000000000600082015250565b6000613ff9601783612c3c565b915061400482613fc3565b602082019050919050565b6000602082019050818103600083015261402881613fec565b9050919050565b7f5468697320756e69716f6e20746f6b656e20697320616c7265616479206f6e2060008201527f73616c652e000000000000000000000000000000000000000000000000000000602082015250565b600061408b602583612c3c565b91506140968261402f565b604082019050919050565b600060208201905081810360008301526140ba8161407e565b9050919050565b7f556e69716f6e20746f6b656e206f776e657220646964206e6f7420617070726f60008201527f766520746f6b656e2e0000000000000000000000000000000000000000000000602082015250565b600061411d602983612c3c565b9150614128826140c1565b604082019050919050565b6000602082019050818103600083015261414c81614110565b9050919050565b600061415e82612cec565b915061416983612cec565b9250827fffffffffffffffffffffffffffffffffffffffffffffffffffffffffffffffff0382111561419e5761419d613dc6565b5b828201905092915050565b7f4552433732313a207472616e736665722066726f6d20696e636f72726563742060008201527f6f776e6572000000000000000000000000000000000000000000000000000000602082015250565b6000614205602583612c3c565b9150614210826141a9565b604082019050919050565b60006020820190508181036000830152614234816141f8565b9050919050565b7f4552433732313a207472616e7366657220746f20746865207a65726f2061646460008201527f7265737300000000000000000000000000000000000000000000000000000000602082015250565b6000614297602483612c3c565b91506142a28261423b565b604082019050919050565b600060208201905081810360008301526142c68161428a565b9050919050565b7f4552433732313a20617070726f766520746f2063616c6c657200000000000000600082015250565b6000614303601983612c3c565b915061430e826142cd565b602082019050919050565b60006020820190508181036000830152614332816142f6565b9050919050565b7f4552433732313a207472616e7366657220746f206e6f6e20455243373231526560008201527f63656976657220696d706c656d656e7465720000000000000000000000000000602082015250565b6000614395603283612c3c565b91506143a082614339565b604082019050919050565b600060208201905081810360008301526143c481614388565b9050919050565b7f4552433732313a206d696e7420746f20746865207a65726f2061646472657373600082015250565b6000614401602083612c3c565b915061440c826143cb565b602082019050919050565b60006020820190508181036000830152614430816143f4565b9050919050565b7f4552433732313a20746f6b656e20616c7265616479206d696e74656400000000600082015250565b600061446d601c83612c3c565b915061447882614437565b602082019050919050565b6000602082019050818103600083015261449c81614460565b9050919050565b600081519050919050565b600082825260208201905092915050565b60006144ca826144a3565b6144d481856144ae565b93506144e4818560208601612c4d565b6144ed81612c80565b840191505092915050565b600060808201905061450d6000830187612d81565b61451a6020830186612d81565b6145276040830185612e17565b818103606083015261453981846144bf565b905095945050505050565b60008151905061455381612ba2565b92915050565b60006020828403121561456f5761456e612b6c565b5b600061457d84828501614544565b9150509291505056fea264697066735822122013fd85b53516e1193870812f7a23520af8052af627e0a7dc29acffbd23adac2364736f6c634300080a0033",
  "immutableReferences": {},
  "source": "// SPDX-License-Identifier: MIT\r\npragma solidity ^0.8.4;\r\n\r\nimport \"./token/ERC721/extensions/ERC721Enumerable.sol\";\r\nimport \"./token/ERC20/ERC20.sol\";\r\nimport \"./SSF.sol\";\r\n\r\n/**\r\n * PJT  -  2) NFT Creator \r\n *         .\r\n */\r\ncontract MintUniqonToken is ERC721Enumerable{\r\n\r\n    uint256 private _tokenIds;\r\n    mapping(uint256 => string) tokenURIs;\r\n    mapping(uint256 => uint256) public uniqonTokenPrices;\r\n    uint256[] public onSaleUniqonToken;\r\n    SSF public erc20Contract;\r\n    \r\n    event showTokenURI(string indexed tokenURI);\r\n\r\n    constructor() ERC721(\"Uniq.on-NFT\", \"UNFT\") {\r\n        erc20Contract = SSF(0xB39D41Fe05d0cC6271513A47C89aC829f88952bF);\r\n    }\r\n\r\n    function current() public view returns (uint256) {\r\n        return _tokenIds;\r\n    }\r\n\r\n    function tokenURI(uint256 tokenId) public view override returns (string memory) {\r\n        return tokenURIs[tokenId];\r\n    }\r\n\r\n    function setForSaleUniqonToken(uint256 _uniqonTokenId, uint256 _price)\r\n        public\r\n    {\r\n        address uniqonTokenOwner = ownerOf(_uniqonTokenId);\r\n        require(\r\n            uniqonTokenOwner == msg.sender,\r\n            \"Caller is not uniqonToken owner.\"\r\n        );\r\n        require(_price > 0, \"Price is zero is lower.\");\r\n        require(\r\n            uniqonTokenPrices[_uniqonTokenId] == 0,\r\n            \"This uniqon token is already on sale.\"\r\n        );\r\n        require(\r\n            isApprovedForAll(uniqonTokenOwner, address(this)),\r\n            \"Uniqon token owner did not approve token.\"\r\n        );\r\n\r\n        //  prices \r\n        uniqonTokenPrices[_uniqonTokenId] = _price;\r\n\r\n        //      \r\n        onSaleUniqonToken.push(_uniqonTokenId);\r\n    }\r\n\r\n    // NFT Minting\r\n    function create(address to, string memory _tokenURI, uint repeat, uint price) public returns (uint256) {\r\n\r\n        //  contract  NFT   \r\n        setApprovalForAll(address(this), true);\r\n\r\n        //    Minting\r\n        for(uint i=0; i<repeat; i++){\r\n            tokenURIs[_tokenIds+1] = _tokenURI;\r\n            _tokenIds += 1;\r\n            _mint(to, _tokenIds);\r\n            setForSaleUniqonToken(_tokenIds, price);\r\n        }\r\n\r\n        return _tokenIds;\r\n    }\r\n\r\n    function getOwnedTokens(address owner) public view returns (string[] memory) {\r\n        uint256 tokenCount = balanceOf(owner);\r\n\r\n        uint256[] memory tokens = new uint[](tokenCount);\r\n        string[] memory tokensURI = new string[](tokenCount);\r\n        for(uint i=0; i<tokenCount; i++){\r\n            tokens[i] = (tokenOfOwnerByIndex(owner, i));\r\n            tokensURI[i] = tokenURI(tokens[i]);\r\n        }\r\n        return tokensURI;\r\n    }\r\n\r\n    function getTokenPrice(uint256 _uniqonTokenId) public view returns (uint256) {\r\n        return uniqonTokenPrices[_uniqonTokenId];\r\n    }\r\n\r\n    function getOnSaleUniqonToken() public view returns (uint256[] memory) {\r\n        return onSaleUniqonToken;\r\n    }\r\n\r\n    function getUniqonTBalance() public view returns (uint256) {\r\n        return erc20Contract.balanceOf(msg.sender);\r\n    }\r\n    \r\n    function getUniqonTtotalSupply() public view returns (uint256) {\r\n        return erc20Contract.totalSupply();\r\n    }\r\n\r\n    // NFT \r\n    function purchaseUniqonToken(uint256 _uniqonTokenId) public {\r\n        address buyer = msg.sender;\r\n        uint256 price = uniqonTokenPrices[_uniqonTokenId];\r\n        address uniqonTokenOwner = ownerOf(_uniqonTokenId);\r\n\r\n        require(price > 0, \"This uniqon token not sale.\");\r\n        require(\r\n            uniqonTokenOwner != msg.sender,\r\n            \"Caller is uniqon token owner.\"\r\n        );\r\n\r\n\r\n        require(erc20Contract.approve(address(this), erc20Contract.balanceOf(buyer)), \"address fail\");\r\n        require(erc20Contract.approve(buyer, price), \"msg.sender fail\");\r\n        require(erc20Contract.allowance(buyer, address(this)) != 0, \"buyer did not approve this contract\");\r\n        require(erc20Contract.allowance(buyer, address(this)) >= price, \"caller approve less amount of token\");\r\n        require(getUniqonTBalance() > 0, \"caller has no money\");\r\n        erc20Contract.transferFrom(buyer, uniqonTokenOwner, price);\r\n        IERC721(address(this)).safeTransferFrom(uniqonTokenOwner, buyer, _uniqonTokenId);\r\n\r\n        uniqonTokenPrices[_uniqonTokenId] = 0;\r\n\r\n        for (uint256 i = 0; i < onSaleUniqonToken.length; i++) {\r\n            if (uniqonTokenPrices[onSaleUniqonToken[i]] == 0) {\r\n                onSaleUniqonToken[i] = onSaleUniqonToken[\r\n                    onSaleUniqonToken.length - 1\r\n                ];\r\n                onSaleUniqonToken.pop();\r\n            }\r\n        }\r\n        \r\n        emit showTokenURI(tokenURIs[_uniqonTokenId]); // block  + print \r\n    }\r\n}",
  "sourcePath": "C:\\SSAFY\\S07P22A507\\smart-contracts\\contracts\\MintUniqonToken.sol",
  "compiler": {
    "name": "solc",
    "version": "0.8.10+commit.fc410830.Emscripten.clang"
  },
  "schemaVersion": "3.4.9",
  "updatedAt": "2022-09-29T05:51:38.824Z",
  "devdoc": {
    "kind": "dev",
    "methods": {
      "approve(address,uint256)": {
        "details": "See {IERC721-approve}."
      },
      "balanceOf(address)": {
        "details": "See {IERC721-balanceOf}."
      },
      "getApproved(uint256)": {
        "details": "See {IERC721-getApproved}."
      },
      "isApprovedForAll(address,address)": {
        "details": "See {IERC721-isApprovedForAll}."
      },
      "name()": {
        "details": "See {IERC721Metadata-name}."
      },
      "ownerOf(uint256)": {
        "details": "See {IERC721-ownerOf}."
      },
      "safeTransferFrom(address,address,uint256)": {
        "details": "See {IERC721-safeTransferFrom}."
      },
      "safeTransferFrom(address,address,uint256,bytes)": {
        "details": "See {IERC721-safeTransferFrom}."
      },
      "setApprovalForAll(address,bool)": {
        "details": "See {IERC721-setApprovalForAll}."
      },
      "supportsInterface(bytes4)": {
        "details": "See {IERC165-supportsInterface}."
      },
      "symbol()": {
        "details": "See {IERC721Metadata-symbol}."
      },
      "tokenByIndex(uint256)": {
        "details": "See {IERC721Enumerable-tokenByIndex}."
      },
      "tokenOfOwnerByIndex(address,uint256)": {
        "details": "See {IERC721Enumerable-tokenOfOwnerByIndex}."
      },
      "tokenURI(uint256)": {
        "details": "See {IERC721Metadata-tokenURI}."
      },
      "totalSupply()": {
        "details": "See {IERC721Enumerable-totalSupply}."
      },
      "transferFrom(address,address,uint256)": {
        "details": "See {IERC721-transferFrom}."
      }
    },
    "version": 1
  },
  "userdoc": {
    "kind": "user",
    "methods": {},
    "notice": "PJT  -  2) NFT Creator          .",
    "version": 1
  }
}