{
	"contracts/SsafyNFT.sol": {
		"SsafyNFT": {
			"abi": [
				{
					"inputs": [],
					"stateMutability": "nonpayable",
					"type": "constructor"
				},
				{
					"anonymous": false,
					"inputs": [
						{
							"indexed": true,
							"internalType": "address",
							"name": "owner",
							"type": "address"
						},
						{
							"indexed": true,
							"internalType": "address",
							"name": "approved",
							"type": "address"
						},
						{
							"indexed": true,
							"internalType": "uint256",
							"name": "tokenId",
							"type": "uint256"
						}
					],
					"name": "Approval",
					"type": "event"
				},
				{
					"anonymous": false,
					"inputs": [
						{
							"indexed": true,
							"internalType": "address",
							"name": "owner",
							"type": "address"
						},
						{
							"indexed": true,
							"internalType": "address",
							"name": "operator",
							"type": "address"
						},
						{
							"indexed": false,
							"internalType": "bool",
							"name": "approved",
							"type": "bool"
						}
					],
					"name": "ApprovalForAll",
					"type": "event"
				},
				{
					"anonymous": false,
					"inputs": [
						{
							"indexed": true,
							"internalType": "address",
							"name": "from",
							"type": "address"
						},
						{
							"indexed": true,
							"internalType": "address",
							"name": "to",
							"type": "address"
						},
						{
							"indexed": true,
							"internalType": "uint256",
							"name": "tokenId",
							"type": "uint256"
						}
					],
					"name": "Transfer",
					"type": "event"
				},
				{
					"anonymous": false,
					"inputs": [
						{
							"indexed": true,
							"internalType": "uint256",
							"name": "_tokenId",
							"type": "uint256"
						},
						{
							"indexed": true,
							"internalType": "address",
							"name": "_owner",
							"type": "address"
						}
					],
					"name": "createNFT",
					"type": "event"
				},
				{
					"inputs": [
						{
							"internalType": "address",
							"name": "to",
							"type": "address"
						},
						{
							"internalType": "uint256",
							"name": "tokenId",
							"type": "uint256"
						}
					],
					"name": "approve",
					"outputs": [],
					"stateMutability": "nonpayable",
					"type": "function"
				},
				{
					"inputs": [
						{
							"internalType": "address",
							"name": "owner",
							"type": "address"
						}
					],
					"name": "balanceOf",
					"outputs": [
						{
							"internalType": "uint256",
							"name": "",
							"type": "uint256"
						}
					],
					"stateMutability": "view",
					"type": "function"
				},
				{
					"inputs": [
						{
							"internalType": "address",
							"name": "to",
							"type": "address"
						},
						{
							"internalType": "string",
							"name": "_tokenURI",
							"type": "string"
						}
					],
					"name": "create",
					"outputs": [
						{
							"internalType": "uint256",
							"name": "",
							"type": "uint256"
						}
					],
					"stateMutability": "nonpayable",
					"type": "function"
				},
				{
					"inputs": [],
					"name": "current",
					"outputs": [
						{
							"internalType": "uint256",
							"name": "",
							"type": "uint256"
						}
					],
					"stateMutability": "view",
					"type": "function"
				},
				{
					"inputs": [
						{
							"internalType": "uint256",
							"name": "tokenId",
							"type": "uint256"
						}
					],
					"name": "getApproved",
					"outputs": [
						{
							"internalType": "address",
							"name": "",
							"type": "address"
						}
					],
					"stateMutability": "view",
					"type": "function"
				},
				{
					"inputs": [
						{
							"internalType": "address",
							"name": "owner",
							"type": "address"
						},
						{
							"internalType": "address",
							"name": "operator",
							"type": "address"
						}
					],
					"name": "isApprovedForAll",
					"outputs": [
						{
							"internalType": "bool",
							"name": "",
							"type": "bool"
						}
					],
					"stateMutability": "view",
					"type": "function"
				},
				{
					"inputs": [],
					"name": "name",
					"outputs": [
						{
							"internalType": "string",
							"name": "",
							"type": "string"
						}
					],
					"stateMutability": "view",
					"type": "function"
				},
				{
					"inputs": [
						{
							"internalType": "uint256",
							"name": "tokenId",
							"type": "uint256"
						}
					],
					"name": "ownerOf",
					"outputs": [
						{
							"internalType": "address",
							"name": "",
							"type": "address"
						}
					],
					"stateMutability": "view",
					"type": "function"
				},
				{
					"inputs": [
						{
							"internalType": "address",
							"name": "from",
							"type": "address"
						},
						{
							"internalType": "address",
							"name": "to",
							"type": "address"
						},
						{
							"internalType": "uint256",
							"name": "tokenId",
							"type": "uint256"
						}
					],
					"name": "safeTransferFrom",
					"outputs": [],
					"stateMutability": "nonpayable",
					"type": "function"
				},
				{
					"inputs": [
						{
							"internalType": "address",
							"name": "from",
							"type": "address"
						},
						{
							"internalType": "address",
							"name": "to",
							"type": "address"
						},
						{
							"internalType": "uint256",
							"name": "tokenId",
							"type": "uint256"
						},
						{
							"internalType": "bytes",
							"name": "data",
							"type": "bytes"
						}
					],
					"name": "safeTransferFrom",
					"outputs": [],
					"stateMutability": "nonpayable",
					"type": "function"
				},
				{
					"inputs": [
						{
							"internalType": "address",
							"name": "operator",
							"type": "address"
						},
						{
							"internalType": "bool",
							"name": "approved",
							"type": "bool"
						}
					],
					"name": "setApprovalForAll",
					"outputs": [],
					"stateMutability": "nonpayable",
					"type": "function"
				},
				{
					"inputs": [
						{
							"internalType": "bytes4",
							"name": "interfaceId",
							"type": "bytes4"
						}
					],
					"name": "supportsInterface",
					"outputs": [
						{
							"internalType": "bool",
							"name": "",
							"type": "bool"
						}
					],
					"stateMutability": "view",
					"type": "function"
				},
				{
					"inputs": [],
					"name": "symbol",
					"outputs": [
						{
							"internalType": "string",
							"name": "",
							"type": "string"
						}
					],
					"stateMutability": "view",
					"type": "function"
				},
				{
					"inputs": [
						{
							"internalType": "uint256",
							"name": "tokenId",
							"type": "uint256"
						}
					],
					"name": "tokenURI",
					"outputs": [
						{
							"internalType": "string",
							"name": "",
							"type": "string"
						}
					],
					"stateMutability": "view",
					"type": "function"
				},
				{
					"inputs": [
						{
							"internalType": "address",
							"name": "from",
							"type": "address"
						},
						{
							"internalType": "address",
							"name": "to",
							"type": "address"
						},
						{
							"internalType": "uint256",
							"name": "tokenId",
							"type": "uint256"
						}
					],
					"name": "transferFrom",
					"outputs": [],
					"stateMutability": "nonpayable",
					"type": "function"
				}
			],
			"devdoc": {
				"kind": "dev",
				"methods": {
					"approve(address,uint256)": {
						"details": "See {IERC721-approve}."
					},
					"balanceOf(address)": {
						"details": "See {IERC721-balanceOf}."
					},
					"getApproved(uint256)": {
						"details": "See {IERC721-getApproved}."
					},
					"isApprovedForAll(address,address)": {
						"details": "See {IERC721-isApprovedForAll}."
					},
					"name()": {
						"details": "See {IERC721Metadata-name}."
					},
					"ownerOf(uint256)": {
						"details": "See {IERC721-ownerOf}."
					},
					"safeTransferFrom(address,address,uint256)": {
						"details": "See {IERC721-safeTransferFrom}."
					},
					"safeTransferFrom(address,address,uint256,bytes)": {
						"details": "See {IERC721-safeTransferFrom}."
					},
					"setApprovalForAll(address,bool)": {
						"details": "See {IERC721-setApprovalForAll}."
					},
					"supportsInterface(bytes4)": {
						"details": "See {IERC165-supportsInterface}."
					},
					"symbol()": {
						"details": "See {IERC721Metadata-symbol}."
					},
					"tokenURI(uint256)": {
						"details": "See {IERC721Metadata-tokenURI}."
					},
					"transferFrom(address,address,uint256)": {
						"details": "See {IERC721-transferFrom}."
					}
				},
				"version": 1
			},
			"evm": {
				"assembly": "    /* \"contracts/SsafyNFT.sol\":244:1155  contract SsafyNFT is ERC721{\r... */\n  mstore(0x40, 0x80)\n    /* \"contracts/SsafyNFT.sol\":431:544  constructor() ERC721(\"Uniq.on-NFT\", \"UNFT\") {\r... */\n  callvalue\n  dup1\n  iszero\n  tag_1\n  jumpi\n  0x00\n  dup1\n  revert\ntag_1:\n  pop\n    /* \"contracts/token/ERC721/ERC721.sol\":1433:1620  constructor(string memory name_, string memory symbol_) {\r... */\n  mload(0x40)\n  dup1\n  0x40\n  add\n  0x40\n  mstore\n  dup1\n  0x0b\n  dup2\n  mstore\n  0x20\n  add\n  0x556e69712e6f6e2d4e4654000000000000000000000000000000000000000000\n  dup2\n  mstore\n  pop\n  mload(0x40)\n  dup1\n  0x40\n  add\n  0x40\n  mstore\n  dup1\n  0x04\n  dup2\n  mstore\n  0x20\n  add\n  0x554e465400000000000000000000000000000000000000000000000000000000\n  dup2\n  mstore\n  pop\n    /* \"contracts/token/ERC721/ERC721.sol\":1508:1513  name_ */\n  dup2\n    /* \"contracts/token/ERC721/ERC721.sol\":1500:1505  _name */\n  0x00\n    /* \"contracts/token/ERC721/ERC721.sol\":1500:1513  _name = name_ */\n  swap1\n  dup1\n  mload\n  swap1\n  0x20\n  add\n  swap1\n  tag_5\n  swap3\n  swap2\n  swap1\n  tag_6\n  jump\t// in\ntag_5:\n  pop\n    /* \"contracts/token/ERC721/ERC721.sol\":1534:1541  symbol_ */\n  dup1\n    /* \"contracts/token/ERC721/ERC721.sol\":1524:1531  _symbol */\n  0x01\n    /* \"contracts/token/ERC721/ERC721.sol\":1524:1541  _symbol = symbol_ */\n  swap1\n  dup1\n  mload\n  swap1\n  0x20\n  add\n  swap1\n  tag_7\n  swap3\n  swap2\n  swap1\n  tag_6\n  jump\t// in\ntag_7:\n  pop\n    /* \"contracts/token/ERC721/ERC721.sol\":1433:1620  constructor(string memory name_, string memory symbol_) {\r... */\n  pop\n  pop\n    /* \"contracts/SsafyNFT.sol\":498:499  0 */\n  0x00\n    /* \"contracts/SsafyNFT.sol\":486:495  _tokenIds */\n  0x06\n    /* \"contracts/SsafyNFT.sol\":486:499  _tokenIds = 0 */\n  dup2\n  swap1\n  sstore\n  pop\n    /* \"contracts/SsafyNFT.sol\":244:1155  contract SsafyNFT is ERC721{\r... */\n  jump(tag_9)\ntag_6:\n  dup3\n  dup1\n  sload\n  tag_10\n  swap1\n  tag_11\n  jump\t// in\ntag_10:\n  swap1\n  0x00\n  mstore\n  keccak256(0x00, 0x20)\n  swap1\n  0x1f\n  add\n  0x20\n  swap1\n  div\n  dup2\n  add\n  swap3\n  dup3\n  tag_13\n  jumpi\n  0x00\n  dup6\n  sstore\n  jump(tag_12)\ntag_13:\n  dup3\n  0x1f\n  lt\n  tag_14\n  jumpi\n  dup1\n  mload\n  not(0xff)\n  and\n  dup4\n  dup1\n  add\n  or\n  dup6\n  sstore\n  jump(tag_12)\ntag_14:\n  dup3\n  dup1\n  add\n  0x01\n  add\n  dup6\n  sstore\n  dup3\n  iszero\n  tag_12\n  jumpi\n  swap2\n  dup3\n  add\ntag_15:\n  dup3\n  dup2\n  gt\n  iszero\n  tag_16\n  jumpi\n  dup3\n  mload\n  dup3\n  sstore\n  swap2\n  0x20\n  add\n  swap2\n  swap1\n  0x01\n  add\n  swap1\n  jump(tag_15)\ntag_16:\ntag_12:\n  pop\n  swap1\n  pop\n  tag_17\n  swap2\n  swap1\n  tag_18\n  jump\t// in\ntag_17:\n  pop\n  swap1\n  jump\t// out\ntag_18:\ntag_19:\n  dup1\n  dup3\n  gt\n  iszero\n  tag_20\n  jumpi\n  0x00\n  dup2\n  0x00\n  swap1\n  sstore\n  pop\n  0x01\n  add\n  jump(tag_19)\ntag_20:\n  pop\n  swap1\n  jump\t// out\n    /* \"#utility.yul\":7:327   */\ntag_11:\n    /* \"#utility.yul\":51:57   */\n  0x00\n    /* \"#utility.yul\":88:89   */\n  0x02\n    /* \"#utility.yul\":82:86   */\n  dup3\n    /* \"#utility.yul\":78:90   */\n  div\n    /* \"#utility.yul\":68:90   */\n  swap1\n  pop\n    /* \"#utility.yul\":135:136   */\n  0x01\n    /* \"#utility.yul\":129:133   */\n  dup3\n    /* \"#utility.yul\":125:137   */\n  and\n    /* \"#utility.yul\":156:174   */\n  dup1\n    /* \"#utility.yul\":146:227   */\n  tag_23\n  jumpi\n    /* \"#utility.yul\":212:216   */\n  0x7f\n    /* \"#utility.yul\":204:210   */\n  dup3\n    /* \"#utility.yul\":200:217   */\n  and\n    /* \"#utility.yul\":190:217   */\n  swap2\n  pop\n    /* \"#utility.yul\":146:227   */\ntag_23:\n    /* \"#utility.yul\":274:276   */\n  0x20\n    /* \"#utility.yul\":266:272   */\n  dup3\n    /* \"#utility.yul\":263:277   */\n  lt\n    /* \"#utility.yul\":243:261   */\n  dup2\n    /* \"#utility.yul\":240:278   */\n  eq\n    /* \"#utility.yul\":237:321   */\n  iszero\n  tag_24\n  jumpi\n    /* \"#utility.yul\":293:311   */\n  tag_25\n  tag_26\n  jump\t// in\ntag_25:\n    /* \"#utility.yul\":237:321   */\ntag_24:\n    /* \"#utility.yul\":58:327   */\n  pop\n    /* \"#utility.yul\":7:327   */\n  swap2\n  swap1\n  pop\n  jump\t// out\n    /* \"#utility.yul\":333:513   */\ntag_26:\n    /* \"#utility.yul\":381:458   */\n  0x4e487b7100000000000000000000000000000000000000000000000000000000\n    /* \"#utility.yul\":378:379   */\n  0x00\n    /* \"#utility.yul\":371:459   */\n  mstore\n    /* \"#utility.yul\":478:482   */\n  0x22\n    /* \"#utility.yul\":475:476   */\n  0x04\n    /* \"#utility.yul\":468:483   */\n  mstore\n    /* \"#utility.yul\":502:506   */\n  0x24\n    /* \"#utility.yul\":499:500   */\n  0x00\n    /* \"#utility.yul\":492:507   */\n  revert\n    /* \"contracts/SsafyNFT.sol\":244:1155  contract SsafyNFT is ERC721{\r... */\ntag_9:\n  dataSize(sub_0)\n  dup1\n  dataOffset(sub_0)\n  0x00\n  codecopy\n  0x00\n  return\nstop\n\nsub_0: assembly {\n        /* \"contracts/SsafyNFT.sol\":244:1155  contract SsafyNFT is ERC721{\r... */\n      mstore(0x40, 0x80)\n      callvalue\n      dup1\n      iszero\n      tag_1\n      jumpi\n      0x00\n      dup1\n      revert\n    tag_1:\n      pop\n      jumpi(tag_2, lt(calldatasize, 0x04))\n      shr(0xe0, calldataload(0x00))\n      dup1\n      0x70a08231\n      gt\n      tag_18\n      jumpi\n      dup1\n      0xa22cb465\n      gt\n      tag_19\n      jumpi\n      dup1\n      0xa22cb465\n      eq\n      tag_14\n      jumpi\n      dup1\n      0xb88d4fde\n      eq\n      tag_15\n      jumpi\n      dup1\n      0xc87b56dd\n      eq\n      tag_16\n      jumpi\n      dup1\n      0xe985e9c5\n      eq\n      tag_17\n      jumpi\n      jump(tag_2)\n    tag_19:\n      dup1\n      0x70a08231\n      eq\n      tag_10\n      jumpi\n      dup1\n      0x95d89b41\n      eq\n      tag_11\n      jumpi\n      dup1\n      0x9fa6a6e3\n      eq\n      tag_12\n      jumpi\n      dup1\n      0xa15ab08d\n      eq\n      tag_13\n      jumpi\n      jump(tag_2)\n    tag_18:\n      dup1\n      0x095ea7b3\n      gt\n      tag_20\n      jumpi\n      dup1\n      0x095ea7b3\n      eq\n      tag_6\n      jumpi\n      dup1\n      0x23b872dd\n      eq\n      tag_7\n      jumpi\n      dup1\n      0x42842e0e\n      eq\n      tag_8\n      jumpi\n      dup1\n      0x6352211e\n      eq\n      tag_9\n      jumpi\n      jump(tag_2)\n    tag_20:\n      dup1\n      0x01ffc9a7\n      eq\n      tag_3\n      jumpi\n      dup1\n      0x06fdde03\n      eq\n      tag_4\n      jumpi\n      dup1\n      0x081812fc\n      eq\n      tag_5\n      jumpi\n    tag_2:\n      0x00\n      dup1\n      revert\n        /* \"contracts/token/ERC721/ERC721.sol\":1692:1997  function supportsInterface(bytes4 interfaceId) public view virtual override(ERC165, IERC165) returns (bool) {\r... */\n    tag_3:\n      tag_21\n      0x04\n      dup1\n      calldatasize\n      sub\n      dup2\n      add\n      swap1\n      tag_22\n      swap2\n      swap1\n      tag_23\n      jump\t// in\n    tag_22:\n      tag_24\n      jump\t// in\n    tag_21:\n      mload(0x40)\n      tag_25\n      swap2\n      swap1\n      tag_26\n      jump\t// in\n    tag_25:\n      mload(0x40)\n      dup1\n      swap2\n      sub\n      swap1\n      return\n        /* \"contracts/token/ERC721/ERC721.sol\":2620:2720  function name() public view virtual override returns (string memory) {\r... */\n    tag_4:\n      tag_27\n      tag_28\n      jump\t// in\n    tag_27:\n      mload(0x40)\n      tag_29\n      swap2\n      swap1\n      tag_30\n      jump\t// in\n    tag_29:\n      mload(0x40)\n      dup1\n      swap2\n      sub\n      swap1\n      return\n        /* \"contracts/token/ERC721/ERC721.sol\":4132:4303  function getApproved(uint256 tokenId) public view virtual override returns (address) {\r... */\n    tag_5:\n      tag_31\n      0x04\n      dup1\n      calldatasize\n      sub\n      dup2\n      add\n      swap1\n      tag_32\n      swap2\n      swap1\n      tag_33\n      jump\t// in\n    tag_32:\n      tag_34\n      jump\t// in\n    tag_31:\n      mload(0x40)\n      tag_35\n      swap2\n      swap1\n      tag_36\n      jump\t// in\n    tag_35:\n      mload(0x40)\n      dup1\n      swap2\n      sub\n      swap1\n      return\n        /* \"contracts/token/ERC721/ERC721.sol\":3650:4066  function approve(address to, uint256 tokenId) public virtual override {\r... */\n    tag_6:\n      tag_37\n      0x04\n      dup1\n      calldatasize\n      sub\n      dup2\n      add\n      swap1\n      tag_38\n      swap2\n      swap1\n      tag_39\n      jump\t// in\n    tag_38:\n      tag_40\n      jump\t// in\n    tag_37:\n      stop\n        /* \"contracts/token/ERC721/ERC721.sol\":4832:5167  function transferFrom(\r... */\n    tag_7:\n      tag_41\n      0x04\n      dup1\n      calldatasize\n      sub\n      dup2\n      add\n      swap1\n      tag_42\n      swap2\n      swap1\n      tag_43\n      jump\t// in\n    tag_42:\n      tag_44\n      jump\t// in\n    tag_41:\n      stop\n        /* \"contracts/token/ERC721/ERC721.sol\":5238:5423  function safeTransferFrom(\r... */\n    tag_8:\n      tag_45\n      0x04\n      dup1\n      calldatasize\n      sub\n      dup2\n      add\n      swap1\n      tag_46\n      swap2\n      swap1\n      tag_43\n      jump\t// in\n    tag_46:\n      tag_47\n      jump\t// in\n    tag_45:\n      stop\n        /* \"contracts/token/ERC721/ERC721.sol\":2330:2553  function ownerOf(uint256 tokenId) public view virtual override returns (address) {\r... */\n    tag_9:\n      tag_48\n      0x04\n      dup1\n      calldatasize\n      sub\n      dup2\n      add\n      swap1\n      tag_49\n      swap2\n      swap1\n      tag_33\n      jump\t// in\n    tag_49:\n      tag_50\n      jump\t// in\n    tag_48:\n      mload(0x40)\n      tag_51\n      swap2\n      swap1\n      tag_36\n      jump\t// in\n    tag_51:\n      mload(0x40)\n      dup1\n      swap2\n      sub\n      swap1\n      return\n        /* \"contracts/token/ERC721/ERC721.sol\":2061:2268  function balanceOf(address owner) public view virtual override returns (uint256) {\r... */\n    tag_10:\n      tag_52\n      0x04\n      dup1\n      calldatasize\n      sub\n      dup2\n      add\n      swap1\n      tag_53\n      swap2\n      swap1\n      tag_54\n      jump\t// in\n    tag_53:\n      tag_55\n      jump\t// in\n    tag_52:\n      mload(0x40)\n      tag_56\n      swap2\n      swap1\n      tag_57\n      jump\t// in\n    tag_56:\n      mload(0x40)\n      dup1\n      swap2\n      sub\n      swap1\n      return\n        /* \"contracts/token/ERC721/ERC721.sol\":2789:2893  function symbol() public view virtual override returns (string memory) {\r... */\n    tag_11:\n      tag_58\n      tag_59\n      jump\t// in\n    tag_58:\n      mload(0x40)\n      tag_60\n      swap2\n      swap1\n      tag_30\n      jump\t// in\n    tag_60:\n      mload(0x40)\n      dup1\n      swap2\n      sub\n      swap1\n      return\n        /* \"contracts/SsafyNFT.sol\":552:636  function current() public view returns (uint256) {\r... */\n    tag_12:\n      tag_61\n      tag_62\n      jump\t// in\n    tag_61:\n      mload(0x40)\n      tag_63\n      swap2\n      swap1\n      tag_57\n      jump\t// in\n    tag_63:\n      mload(0x40)\n      dup1\n      swap2\n      sub\n      swap1\n      return\n        /* \"contracts/SsafyNFT.sol\":776:1152  function create(address to, string memory _tokenURI) public returns (uint256) {\r... */\n    tag_13:\n      tag_64\n      0x04\n      dup1\n      calldatasize\n      sub\n      dup2\n      add\n      swap1\n      tag_65\n      swap2\n      swap1\n      tag_66\n      jump\t// in\n    tag_65:\n      tag_67\n      jump\t// in\n    tag_64:\n      mload(0x40)\n      tag_68\n      swap2\n      swap1\n      tag_57\n      jump\t// in\n    tag_68:\n      mload(0x40)\n      dup1\n      swap2\n      sub\n      swap1\n      return\n        /* \"contracts/token/ERC721/ERC721.sol\":4375:4530  function setApprovalForAll(address operator, bool approved) public virtual override {\r... */\n    tag_14:\n      tag_69\n      0x04\n      dup1\n      calldatasize\n      sub\n      dup2\n      add\n      swap1\n      tag_70\n      swap2\n      swap1\n      tag_71\n      jump\t// in\n    tag_70:\n      tag_72\n      jump\t// in\n    tag_69:\n      stop\n        /* \"contracts/token/ERC721/ERC721.sol\":5494:5816  function safeTransferFrom(\r... */\n    tag_15:\n      tag_73\n      0x04\n      dup1\n      calldatasize\n      sub\n      dup2\n      add\n      swap1\n      tag_74\n      swap2\n      swap1\n      tag_75\n      jump\t// in\n    tag_74:\n      tag_76\n      jump\t// in\n    tag_73:\n      stop\n        /* \"contracts/SsafyNFT.sol\":644:768  function tokenURI(uint256 tokenId) public view override returns (string memory) {\r... */\n    tag_16:\n      tag_77\n      0x04\n      dup1\n      calldatasize\n      sub\n      dup2\n      add\n      swap1\n      tag_78\n      swap2\n      swap1\n      tag_33\n      jump\t// in\n    tag_78:\n      tag_79\n      jump\t// in\n    tag_77:\n      mload(0x40)\n      tag_80\n      swap2\n      swap1\n      tag_30\n      jump\t// in\n    tag_80:\n      mload(0x40)\n      dup1\n      swap2\n      sub\n      swap1\n      return\n        /* \"contracts/token/ERC721/ERC721.sol\":4601:4765  function isApprovedForAll(address owner, address operator) public view virtual override returns (bool) {\r... */\n    tag_17:\n      tag_81\n      0x04\n      dup1\n      calldatasize\n      sub\n      dup2\n      add\n      swap1\n      tag_82\n      swap2\n      swap1\n      tag_83\n      jump\t// in\n    tag_82:\n      tag_84\n      jump\t// in\n    tag_81:\n      mload(0x40)\n      tag_85\n      swap2\n      swap1\n      tag_26\n      jump\t// in\n    tag_85:\n      mload(0x40)\n      dup1\n      swap2\n      sub\n      swap1\n      return\n        /* \"contracts/token/ERC721/ERC721.sol\":1692:1997  function supportsInterface(bytes4 interfaceId) public view virtual override(ERC165, IERC165) returns (bool) {\r... */\n    tag_24:\n        /* \"contracts/token/ERC721/ERC721.sol\":1794:1798  bool */\n      0x00\n        /* \"contracts/token/ERC721/ERC721.sol\":1846:1871  type(IERC721).interfaceId */\n      0x80ac58cd00000000000000000000000000000000000000000000000000000000\n        /* \"contracts/token/ERC721/ERC721.sol\":1831:1871  interfaceId == type(IERC721).interfaceId */\n      not(0xffffffffffffffffffffffffffffffffffffffffffffffffffffffff)\n      and\n        /* \"contracts/token/ERC721/ERC721.sol\":1831:1842  interfaceId */\n      dup3\n        /* \"contracts/token/ERC721/ERC721.sol\":1831:1871  interfaceId == type(IERC721).interfaceId */\n      not(0xffffffffffffffffffffffffffffffffffffffffffffffffffffffff)\n      and\n      eq\n        /* \"contracts/token/ERC721/ERC721.sol\":1831:1936  interfaceId == type(IERC721).interfaceId ||\r... */\n      dup1\n      tag_87\n      jumpi\n      pop\n        /* \"contracts/token/ERC721/ERC721.sol\":1903:1936  type(IERC721Metadata).interfaceId */\n      0x5b5e139f00000000000000000000000000000000000000000000000000000000\n        /* \"contracts/token/ERC721/ERC721.sol\":1888:1936  interfaceId == type(IERC721Metadata).interfaceId */\n      not(0xffffffffffffffffffffffffffffffffffffffffffffffffffffffff)\n      and\n        /* \"contracts/token/ERC721/ERC721.sol\":1888:1899  interfaceId */\n      dup3\n        /* \"contracts/token/ERC721/ERC721.sol\":1888:1936  interfaceId == type(IERC721Metadata).interfaceId */\n      not(0xffffffffffffffffffffffffffffffffffffffffffffffffffffffff)\n      and\n      eq\n        /* \"contracts/token/ERC721/ERC721.sol\":1831:1936  interfaceId == type(IERC721).interfaceId ||\r... */\n    tag_87:\n        /* \"contracts/token/ERC721/ERC721.sol\":1831:1989  interfaceId == type(IERC721).interfaceId ||\r... */\n      dup1\n      tag_88\n      jumpi\n      pop\n        /* \"contracts/token/ERC721/ERC721.sol\":1953:1989  super.supportsInterface(interfaceId) */\n      tag_89\n        /* \"contracts/token/ERC721/ERC721.sol\":1977:1988  interfaceId */\n      dup3\n        /* \"contracts/token/ERC721/ERC721.sol\":1953:1976  super.supportsInterface */\n      tag_90\n        /* \"contracts/token/ERC721/ERC721.sol\":1953:1989  super.supportsInterface(interfaceId) */\n      jump\t// in\n    tag_89:\n        /* \"contracts/token/ERC721/ERC721.sol\":1831:1989  interfaceId == type(IERC721).interfaceId ||\r... */\n    tag_88:\n        /* \"contracts/token/ERC721/ERC721.sol\":1811:1989  return\r... */\n      swap1\n      pop\n        /* \"contracts/token/ERC721/ERC721.sol\":1692:1997  function supportsInterface(bytes4 interfaceId) public view virtual override(ERC165, IERC165) returns (bool) {\r... */\n      swap2\n      swap1\n      pop\n      jump\t// out\n        /* \"contracts/token/ERC721/ERC721.sol\":2620:2720  function name() public view virtual override returns (string memory) {\r... */\n    tag_28:\n        /* \"contracts/token/ERC721/ERC721.sol\":2674:2687  string memory */\n      0x60\n        /* \"contracts/token/ERC721/ERC721.sol\":2707:2712  _name */\n      0x00\n        /* \"contracts/token/ERC721/ERC721.sol\":2700:2712  return _name */\n      dup1\n      sload\n      tag_92\n      swap1\n      tag_93\n      jump\t// in\n    tag_92:\n      dup1\n      0x1f\n      add\n      0x20\n      dup1\n      swap2\n      div\n      mul\n      0x20\n      add\n      mload(0x40)\n      swap1\n      dup2\n      add\n      0x40\n      mstore\n      dup1\n      swap3\n      swap2\n      swap1\n      dup2\n      dup2\n      mstore\n      0x20\n      add\n      dup3\n      dup1\n      sload\n      tag_94\n      swap1\n      tag_93\n      jump\t// in\n    tag_94:\n      dup1\n      iszero\n      tag_95\n      jumpi\n      dup1\n      0x1f\n      lt\n      tag_96\n      jumpi\n      0x0100\n      dup1\n      dup4\n      sload\n      div\n      mul\n      dup4\n      mstore\n      swap2\n      0x20\n      add\n      swap2\n      jump(tag_95)\n    tag_96:\n      dup3\n      add\n      swap2\n      swap1\n      0x00\n      mstore\n      keccak256(0x00, 0x20)\n      swap1\n    tag_97:\n      dup2\n      sload\n      dup2\n      mstore\n      swap1\n      0x01\n      add\n      swap1\n      0x20\n      add\n      dup1\n      dup4\n      gt\n      tag_97\n      jumpi\n      dup3\n      swap1\n      sub\n      0x1f\n      and\n      dup3\n      add\n      swap2\n    tag_95:\n      pop\n      pop\n      pop\n      pop\n      pop\n      swap1\n      pop\n        /* \"contracts/token/ERC721/ERC721.sol\":2620:2720  function name() public view virtual override returns (string memory) {\r... */\n      swap1\n      jump\t// out\n        /* \"contracts/token/ERC721/ERC721.sol\":4132:4303  function getApproved(uint256 tokenId) public view virtual override returns (address) {\r... */\n    tag_34:\n        /* \"contracts/token/ERC721/ERC721.sol\":4208:4215  address */\n      0x00\n        /* \"contracts/token/ERC721/ERC721.sol\":4228:4251  _requireMinted(tokenId) */\n      tag_99\n        /* \"contracts/token/ERC721/ERC721.sol\":4243:4250  tokenId */\n      dup3\n        /* \"contracts/token/ERC721/ERC721.sol\":4228:4242  _requireMinted */\n      tag_100\n        /* \"contracts/token/ERC721/ERC721.sol\":4228:4251  _requireMinted(tokenId) */\n      jump\t// in\n    tag_99:\n        /* \"contracts/token/ERC721/ERC721.sol\":4271:4286  _tokenApprovals */\n      0x04\n        /* \"contracts/token/ERC721/ERC721.sol\":4271:4295  _tokenApprovals[tokenId] */\n      0x00\n        /* \"contracts/token/ERC721/ERC721.sol\":4287:4294  tokenId */\n      dup4\n        /* \"contracts/token/ERC721/ERC721.sol\":4271:4295  _tokenApprovals[tokenId] */\n      dup2\n      mstore\n      0x20\n      add\n      swap1\n      dup2\n      mstore\n      0x20\n      add\n      0x00\n      keccak256\n      0x00\n      swap1\n      sload\n      swap1\n      0x0100\n      exp\n      swap1\n      div\n      0xffffffffffffffffffffffffffffffffffffffff\n      and\n        /* \"contracts/token/ERC721/ERC721.sol\":4264:4295  return _tokenApprovals[tokenId] */\n      swap1\n      pop\n        /* \"contracts/token/ERC721/ERC721.sol\":4132:4303  function getApproved(uint256 tokenId) public view virtual override returns (address) {\r... */\n      swap2\n      swap1\n      pop\n      jump\t// out\n        /* \"contracts/token/ERC721/ERC721.sol\":3650:4066  function approve(address to, uint256 tokenId) public virtual override {\r... */\n    tag_40:\n        /* \"contracts/token/ERC721/ERC721.sol\":3731:3744  address owner */\n      0x00\n        /* \"contracts/token/ERC721/ERC721.sol\":3747:3770  ERC721.ownerOf(tokenId) */\n      tag_102\n        /* \"contracts/token/ERC721/ERC721.sol\":3762:3769  tokenId */\n      dup3\n        /* \"contracts/token/ERC721/ERC721.sol\":3747:3761  ERC721.ownerOf */\n      tag_50\n        /* \"contracts/token/ERC721/ERC721.sol\":3747:3770  ERC721.ownerOf(tokenId) */\n      jump\t// in\n    tag_102:\n        /* \"contracts/token/ERC721/ERC721.sol\":3731:3770  address owner = ERC721.ownerOf(tokenId) */\n      swap1\n      pop\n        /* \"contracts/token/ERC721/ERC721.sol\":3795:3800  owner */\n      dup1\n        /* \"contracts/token/ERC721/ERC721.sol\":3789:3800  to != owner */\n      0xffffffffffffffffffffffffffffffffffffffff\n      and\n        /* \"contracts/token/ERC721/ERC721.sol\":3789:3791  to */\n      dup4\n        /* \"contracts/token/ERC721/ERC721.sol\":3789:3800  to != owner */\n      0xffffffffffffffffffffffffffffffffffffffff\n      and\n      eq\n      iszero\n        /* \"contracts/token/ERC721/ERC721.sol\":3781:3838  require(to != owner, \"ERC721: approval to current owner\") */\n      tag_103\n      jumpi\n      mload(0x40)\n      0x08c379a000000000000000000000000000000000000000000000000000000000\n      dup2\n      mstore\n      0x04\n      add\n      tag_104\n      swap1\n      tag_105\n      jump\t// in\n    tag_104:\n      mload(0x40)\n      dup1\n      swap2\n      sub\n      swap1\n      revert\n    tag_103:\n        /* \"contracts/token/ERC721/ERC721.sol\":3889:3894  owner */\n      dup1\n        /* \"contracts/token/ERC721/ERC721.sol\":3873:3894  _msgSender() == owner */\n      0xffffffffffffffffffffffffffffffffffffffff\n      and\n        /* \"contracts/token/ERC721/ERC721.sol\":3873:3885  _msgSender() */\n      tag_106\n        /* \"contracts/token/ERC721/ERC721.sol\":3873:3883  _msgSender */\n      tag_107\n        /* \"contracts/token/ERC721/ERC721.sol\":3873:3885  _msgSender() */\n      jump\t// in\n    tag_106:\n        /* \"contracts/token/ERC721/ERC721.sol\":3873:3894  _msgSender() == owner */\n      0xffffffffffffffffffffffffffffffffffffffff\n      and\n      eq\n        /* \"contracts/token/ERC721/ERC721.sol\":3873:3935  _msgSender() == owner || isApprovedForAll(owner, _msgSender()) */\n      dup1\n      tag_108\n      jumpi\n      pop\n        /* \"contracts/token/ERC721/ERC721.sol\":3898:3935  isApprovedForAll(owner, _msgSender()) */\n      tag_109\n        /* \"contracts/token/ERC721/ERC721.sol\":3915:3920  owner */\n      dup2\n        /* \"contracts/token/ERC721/ERC721.sol\":3922:3934  _msgSender() */\n      tag_110\n        /* \"contracts/token/ERC721/ERC721.sol\":3922:3932  _msgSender */\n      tag_107\n        /* \"contracts/token/ERC721/ERC721.sol\":3922:3934  _msgSender() */\n      jump\t// in\n    tag_110:\n        /* \"contracts/token/ERC721/ERC721.sol\":3898:3914  isApprovedForAll */\n      tag_84\n        /* \"contracts/token/ERC721/ERC721.sol\":3898:3935  isApprovedForAll(owner, _msgSender()) */\n      jump\t// in\n    tag_109:\n        /* \"contracts/token/ERC721/ERC721.sol\":3873:3935  _msgSender() == owner || isApprovedForAll(owner, _msgSender()) */\n    tag_108:\n        /* \"contracts/token/ERC721/ERC721.sol\":3851:4024  require(\r... */\n      tag_111\n      jumpi\n      mload(0x40)\n      0x08c379a000000000000000000000000000000000000000000000000000000000\n      dup2\n      mstore\n      0x04\n      add\n      tag_112\n      swap1\n      tag_113\n      jump\t// in\n    tag_112:\n      mload(0x40)\n      dup1\n      swap2\n      sub\n      swap1\n      revert\n    tag_111:\n        /* \"contracts/token/ERC721/ERC721.sol\":4037:4058  _approve(to, tokenId) */\n      tag_114\n        /* \"contracts/token/ERC721/ERC721.sol\":4046:4048  to */\n      dup4\n        /* \"contracts/token/ERC721/ERC721.sol\":4050:4057  tokenId */\n      dup4\n        /* \"contracts/token/ERC721/ERC721.sol\":4037:4045  _approve */\n      tag_115\n        /* \"contracts/token/ERC721/ERC721.sol\":4037:4058  _approve(to, tokenId) */\n      jump\t// in\n    tag_114:\n        /* \"contracts/token/ERC721/ERC721.sol\":3720:4066  {\r... */\n      pop\n        /* \"contracts/token/ERC721/ERC721.sol\":3650:4066  function approve(address to, uint256 tokenId) public virtual override {\r... */\n      pop\n      pop\n      jump\t// out\n        /* \"contracts/token/ERC721/ERC721.sol\":4832:5167  function transferFrom(\r... */\n    tag_44:\n        /* \"contracts/token/ERC721/ERC721.sol\":5027:5068  _isApprovedOrOwner(_msgSender(), tokenId) */\n      tag_117\n        /* \"contracts/token/ERC721/ERC721.sol\":5046:5058  _msgSender() */\n      tag_118\n        /* \"contracts/token/ERC721/ERC721.sol\":5046:5056  _msgSender */\n      tag_107\n        /* \"contracts/token/ERC721/ERC721.sol\":5046:5058  _msgSender() */\n      jump\t// in\n    tag_118:\n        /* \"contracts/token/ERC721/ERC721.sol\":5060:5067  tokenId */\n      dup3\n        /* \"contracts/token/ERC721/ERC721.sol\":5027:5045  _isApprovedOrOwner */\n      tag_119\n        /* \"contracts/token/ERC721/ERC721.sol\":5027:5068  _isApprovedOrOwner(_msgSender(), tokenId) */\n      jump\t// in\n    tag_117:\n        /* \"contracts/token/ERC721/ERC721.sol\":5019:5118  require(_isApprovedOrOwner(_msgSender(), tokenId), \"ERC721: caller is not token owner or approved\") */\n      tag_120\n      jumpi\n      mload(0x40)\n      0x08c379a000000000000000000000000000000000000000000000000000000000\n      dup2\n      mstore\n      0x04\n      add\n      tag_121\n      swap1\n      tag_122\n      jump\t// in\n    tag_121:\n      mload(0x40)\n      dup1\n      swap2\n      sub\n      swap1\n      revert\n    tag_120:\n        /* \"contracts/token/ERC721/ERC721.sol\":5131:5159  _transfer(from, to, tokenId) */\n      tag_123\n        /* \"contracts/token/ERC721/ERC721.sol\":5141:5145  from */\n      dup4\n        /* \"contracts/token/ERC721/ERC721.sol\":5147:5149  to */\n      dup4\n        /* \"contracts/token/ERC721/ERC721.sol\":5151:5158  tokenId */\n      dup4\n        /* \"contracts/token/ERC721/ERC721.sol\":5131:5140  _transfer */\n      tag_124\n        /* \"contracts/token/ERC721/ERC721.sol\":5131:5159  _transfer(from, to, tokenId) */\n      jump\t// in\n    tag_123:\n        /* \"contracts/token/ERC721/ERC721.sol\":4832:5167  function transferFrom(\r... */\n      pop\n      pop\n      pop\n      jump\t// out\n        /* \"contracts/token/ERC721/ERC721.sol\":5238:5423  function safeTransferFrom(\r... */\n    tag_47:\n        /* \"contracts/token/ERC721/ERC721.sol\":5376:5415  safeTransferFrom(from, to, tokenId, \"\") */\n      tag_126\n        /* \"contracts/token/ERC721/ERC721.sol\":5393:5397  from */\n      dup4\n        /* \"contracts/token/ERC721/ERC721.sol\":5399:5401  to */\n      dup4\n        /* \"contracts/token/ERC721/ERC721.sol\":5403:5410  tokenId */\n      dup4\n        /* \"contracts/token/ERC721/ERC721.sol\":5376:5415  safeTransferFrom(from, to, tokenId, \"\") */\n      mload(0x40)\n      dup1\n      0x20\n      add\n      0x40\n      mstore\n      dup1\n      0x00\n      dup2\n      mstore\n      pop\n        /* \"contracts/token/ERC721/ERC721.sol\":5376:5392  safeTransferFrom */\n      tag_76\n        /* \"contracts/token/ERC721/ERC721.sol\":5376:5415  safeTransferFrom(from, to, tokenId, \"\") */\n      jump\t// in\n    tag_126:\n        /* \"contracts/token/ERC721/ERC721.sol\":5238:5423  function safeTransferFrom(\r... */\n      pop\n      pop\n      pop\n      jump\t// out\n        /* \"contracts/token/ERC721/ERC721.sol\":2330:2553  function ownerOf(uint256 tokenId) public view virtual override returns (address) {\r... */\n    tag_50:\n        /* \"contracts/token/ERC721/ERC721.sol\":2402:2409  address */\n      0x00\n        /* \"contracts/token/ERC721/ERC721.sol\":2422:2435  address owner */\n      dup1\n        /* \"contracts/token/ERC721/ERC721.sol\":2438:2455  _ownerOf(tokenId) */\n      tag_128\n        /* \"contracts/token/ERC721/ERC721.sol\":2447:2454  tokenId */\n      dup4\n        /* \"contracts/token/ERC721/ERC721.sol\":2438:2446  _ownerOf */\n      tag_129\n        /* \"contracts/token/ERC721/ERC721.sol\":2438:2455  _ownerOf(tokenId) */\n      jump\t// in\n    tag_128:\n        /* \"contracts/token/ERC721/ERC721.sol\":2422:2455  address owner = _ownerOf(tokenId) */\n      swap1\n      pop\n        /* \"contracts/token/ERC721/ERC721.sol\":2491:2492  0 */\n      0x00\n        /* \"contracts/token/ERC721/ERC721.sol\":2474:2493  owner != address(0) */\n      0xffffffffffffffffffffffffffffffffffffffff\n      and\n        /* \"contracts/token/ERC721/ERC721.sol\":2474:2479  owner */\n      dup2\n        /* \"contracts/token/ERC721/ERC721.sol\":2474:2493  owner != address(0) */\n      0xffffffffffffffffffffffffffffffffffffffff\n      and\n      eq\n      iszero\n        /* \"contracts/token/ERC721/ERC721.sol\":2466:2522  require(owner != address(0), \"ERC721: invalid token ID\") */\n      tag_130\n      jumpi\n      mload(0x40)\n      0x08c379a000000000000000000000000000000000000000000000000000000000\n      dup2\n      mstore\n      0x04\n      add\n      tag_131\n      swap1\n      tag_132\n      jump\t// in\n    tag_131:\n      mload(0x40)\n      dup1\n      swap2\n      sub\n      swap1\n      revert\n    tag_130:\n        /* \"contracts/token/ERC721/ERC721.sol\":2540:2545  owner */\n      dup1\n        /* \"contracts/token/ERC721/ERC721.sol\":2533:2545  return owner */\n      swap2\n      pop\n      pop\n        /* \"contracts/token/ERC721/ERC721.sol\":2330:2553  function ownerOf(uint256 tokenId) public view virtual override returns (address) {\r... */\n      swap2\n      swap1\n      pop\n      jump\t// out\n        /* \"contracts/token/ERC721/ERC721.sol\":2061:2268  function balanceOf(address owner) public view virtual override returns (uint256) {\r... */\n    tag_55:\n        /* \"contracts/token/ERC721/ERC721.sol\":2133:2140  uint256 */\n      0x00\n        /* \"contracts/token/ERC721/ERC721.sol\":2178:2179  0 */\n      dup1\n        /* \"contracts/token/ERC721/ERC721.sol\":2161:2180  owner != address(0) */\n      0xffffffffffffffffffffffffffffffffffffffff\n      and\n        /* \"contracts/token/ERC721/ERC721.sol\":2161:2166  owner */\n      dup3\n        /* \"contracts/token/ERC721/ERC721.sol\":2161:2180  owner != address(0) */\n      0xffffffffffffffffffffffffffffffffffffffff\n      and\n      eq\n      iszero\n        /* \"contracts/token/ERC721/ERC721.sol\":2153:2226  require(owner != address(0), \"ERC721: address zero is not a valid owner\") */\n      tag_134\n      jumpi\n      mload(0x40)\n      0x08c379a000000000000000000000000000000000000000000000000000000000\n      dup2\n      mstore\n      0x04\n      add\n      tag_135\n      swap1\n      tag_136\n      jump\t// in\n    tag_135:\n      mload(0x40)\n      dup1\n      swap2\n      sub\n      swap1\n      revert\n    tag_134:\n        /* \"contracts/token/ERC721/ERC721.sol\":2244:2253  _balances */\n      0x03\n        /* \"contracts/token/ERC721/ERC721.sol\":2244:2260  _balances[owner] */\n      0x00\n        /* \"contracts/token/ERC721/ERC721.sol\":2254:2259  owner */\n      dup4\n        /* \"contracts/token/ERC721/ERC721.sol\":2244:2260  _balances[owner] */\n      0xffffffffffffffffffffffffffffffffffffffff\n      and\n      0xffffffffffffffffffffffffffffffffffffffff\n      and\n      dup2\n      mstore\n      0x20\n      add\n      swap1\n      dup2\n      mstore\n      0x20\n      add\n      0x00\n      keccak256\n      sload\n        /* \"contracts/token/ERC721/ERC721.sol\":2237:2260  return _balances[owner] */\n      swap1\n      pop\n        /* \"contracts/token/ERC721/ERC721.sol\":2061:2268  function balanceOf(address owner) public view virtual override returns (uint256) {\r... */\n      swap2\n      swap1\n      pop\n      jump\t// out\n        /* \"contracts/token/ERC721/ERC721.sol\":2789:2893  function symbol() public view virtual override returns (string memory) {\r... */\n    tag_59:\n        /* \"contracts/token/ERC721/ERC721.sol\":2845:2858  string memory */\n      0x60\n        /* \"contracts/token/ERC721/ERC721.sol\":2878:2885  _symbol */\n      0x01\n        /* \"contracts/token/ERC721/ERC721.sol\":2871:2885  return _symbol */\n      dup1\n      sload\n      tag_138\n      swap1\n      tag_93\n      jump\t// in\n    tag_138:\n      dup1\n      0x1f\n      add\n      0x20\n      dup1\n      swap2\n      div\n      mul\n      0x20\n      add\n      mload(0x40)\n      swap1\n      dup2\n      add\n      0x40\n      mstore\n      dup1\n      swap3\n      swap2\n      swap1\n      dup2\n      dup2\n      mstore\n      0x20\n      add\n      dup3\n      dup1\n      sload\n      tag_139\n      swap1\n      tag_93\n      jump\t// in\n    tag_139:\n      dup1\n      iszero\n      tag_140\n      jumpi\n      dup1\n      0x1f\n      lt\n      tag_141\n      jumpi\n      0x0100\n      dup1\n      dup4\n      sload\n      div\n      mul\n      dup4\n      mstore\n      swap2\n      0x20\n      add\n      swap2\n      jump(tag_140)\n    tag_141:\n      dup3\n      add\n      swap2\n      swap1\n      0x00\n      mstore\n      keccak256(0x00, 0x20)\n      swap1\n    tag_142:\n      dup2\n      sload\n      dup2\n      mstore\n      swap1\n      0x01\n      add\n      swap1\n      0x20\n      add\n      dup1\n      dup4\n      gt\n      tag_142\n      jumpi\n      dup3\n      swap1\n      sub\n      0x1f\n      and\n      dup3\n      add\n      swap2\n    tag_140:\n      pop\n      pop\n      pop\n      pop\n      pop\n      swap1\n      pop\n        /* \"contracts/token/ERC721/ERC721.sol\":2789:2893  function symbol() public view virtual override returns (string memory) {\r... */\n      swap1\n      jump\t// out\n        /* \"contracts/SsafyNFT.sol\":552:636  function current() public view returns (uint256) {\r... */\n    tag_62:\n        /* \"contracts/SsafyNFT.sol\":592:599  uint256 */\n      0x00\n        /* \"contracts/SsafyNFT.sol\":619:628  _tokenIds */\n      sload(0x06)\n        /* \"contracts/SsafyNFT.sol\":612:628  return _tokenIds */\n      swap1\n      pop\n        /* \"contracts/SsafyNFT.sol\":552:636  function current() public view returns (uint256) {\r... */\n      swap1\n      jump\t// out\n        /* \"contracts/SsafyNFT.sol\":776:1152  function create(address to, string memory _tokenURI) public returns (uint256) {\r... */\n    tag_67:\n        /* \"contracts/SsafyNFT.sol\":845:852  uint256 */\n      0x00\n        /* \"contracts/SsafyNFT.sol\":865:880  uint256 tokenId */\n      dup1\n        /* \"contracts/SsafyNFT.sol\":895:896  1 */\n      0x01\n        /* \"contracts/SsafyNFT.sol\":883:892  current() */\n      tag_145\n        /* \"contracts/SsafyNFT.sol\":883:890  current */\n      tag_62\n        /* \"contracts/SsafyNFT.sol\":883:892  current() */\n      jump\t// in\n    tag_145:\n        /* \"contracts/SsafyNFT.sol\":883:896  current() + 1 */\n      tag_146\n      swap2\n      swap1\n      tag_147\n      jump\t// in\n    tag_146:\n        /* \"contracts/SsafyNFT.sol\":865:896  uint256 tokenId = current() + 1 */\n      swap1\n      pop\n        /* \"contracts/SsafyNFT.sol\":967:974  tokenId */\n      dup1\n        /* \"contracts/SsafyNFT.sol\":955:964  _tokenIds */\n      0x06\n        /* \"contracts/SsafyNFT.sol\":955:974  _tokenIds = tokenId */\n      dup2\n      swap1\n      sstore\n      pop\n        /* \"contracts/SsafyNFT.sol\":1013:1033  _mint(to, _tokenIds) */\n      tag_148\n        /* \"contracts/SsafyNFT.sol\":1019:1021  to */\n      dup5\n        /* \"contracts/SsafyNFT.sol\":1023:1032  _tokenIds */\n      sload(0x06)\n        /* \"contracts/SsafyNFT.sol\":1013:1018  _mint */\n      tag_149\n        /* \"contracts/SsafyNFT.sol\":1013:1033  _mint(to, _tokenIds) */\n      jump\t// in\n    tag_148:\n        /* \"contracts/SsafyNFT.sol\":854:1152  {\r... */\n      pop\n        /* \"contracts/SsafyNFT.sol\":776:1152  function create(address to, string memory _tokenURI) public returns (uint256) {\r... */\n      swap3\n      swap2\n      pop\n      pop\n      jump\t// out\n        /* \"contracts/token/ERC721/ERC721.sol\":4375:4530  function setApprovalForAll(address operator, bool approved) public virtual override {\r... */\n    tag_72:\n        /* \"contracts/token/ERC721/ERC721.sol\":4470:4522  _setApprovalForAll(_msgSender(), operator, approved) */\n      tag_151\n        /* \"contracts/token/ERC721/ERC721.sol\":4489:4501  _msgSender() */\n      tag_152\n        /* \"contracts/token/ERC721/ERC721.sol\":4489:4499  _msgSender */\n      tag_107\n        /* \"contracts/token/ERC721/ERC721.sol\":4489:4501  _msgSender() */\n      jump\t// in\n    tag_152:\n        /* \"contracts/token/ERC721/ERC721.sol\":4503:4511  operator */\n      dup4\n        /* \"contracts/token/ERC721/ERC721.sol\":4513:4521  approved */\n      dup4\n        /* \"contracts/token/ERC721/ERC721.sol\":4470:4488  _setApprovalForAll */\n      tag_153\n        /* \"contracts/token/ERC721/ERC721.sol\":4470:4522  _setApprovalForAll(_msgSender(), operator, approved) */\n      jump\t// in\n    tag_151:\n        /* \"contracts/token/ERC721/ERC721.sol\":4375:4530  function setApprovalForAll(address operator, bool approved) public virtual override {\r... */\n      pop\n      pop\n      jump\t// out\n        /* \"contracts/token/ERC721/ERC721.sol\":5494:5816  function safeTransferFrom(\r... */\n    tag_76:\n        /* \"contracts/token/ERC721/ERC721.sol\":5668:5709  _isApprovedOrOwner(_msgSender(), tokenId) */\n      tag_155\n        /* \"contracts/token/ERC721/ERC721.sol\":5687:5699  _msgSender() */\n      tag_156\n        /* \"contracts/token/ERC721/ERC721.sol\":5687:5697  _msgSender */\n      tag_107\n        /* \"contracts/token/ERC721/ERC721.sol\":5687:5699  _msgSender() */\n      jump\t// in\n    tag_156:\n        /* \"contracts/token/ERC721/ERC721.sol\":5701:5708  tokenId */\n      dup4\n        /* \"contracts/token/ERC721/ERC721.sol\":5668:5686  _isApprovedOrOwner */\n      tag_119\n        /* \"contracts/token/ERC721/ERC721.sol\":5668:5709  _isApprovedOrOwner(_msgSender(), tokenId) */\n      jump\t// in\n    tag_155:\n        /* \"contracts/token/ERC721/ERC721.sol\":5660:5759  require(_isApprovedOrOwner(_msgSender(), tokenId), \"ERC721: caller is not token owner or approved\") */\n      tag_157\n      jumpi\n      mload(0x40)\n      0x08c379a000000000000000000000000000000000000000000000000000000000\n      dup2\n      mstore\n      0x04\n      add\n      tag_158\n      swap1\n      tag_122\n      jump\t// in\n    tag_158:\n      mload(0x40)\n      dup1\n      swap2\n      sub\n      swap1\n      revert\n    tag_157:\n        /* \"contracts/token/ERC721/ERC721.sol\":5770:5808  _safeTransfer(from, to, tokenId, data) */\n      tag_159\n        /* \"contracts/token/ERC721/ERC721.sol\":5784:5788  from */\n      dup5\n        /* \"contracts/token/ERC721/ERC721.sol\":5790:5792  to */\n      dup5\n        /* \"contracts/token/ERC721/ERC721.sol\":5794:5801  tokenId */\n      dup5\n        /* \"contracts/token/ERC721/ERC721.sol\":5803:5807  data */\n      dup5\n        /* \"contracts/token/ERC721/ERC721.sol\":5770:5783  _safeTransfer */\n      tag_160\n        /* \"contracts/token/ERC721/ERC721.sol\":5770:5808  _safeTransfer(from, to, tokenId, data) */\n      jump\t// in\n    tag_159:\n        /* \"contracts/token/ERC721/ERC721.sol\":5494:5816  function safeTransferFrom(\r... */\n      pop\n      pop\n      pop\n      pop\n      jump\t// out\n        /* \"contracts/SsafyNFT.sol\":644:768  function tokenURI(uint256 tokenId) public view override returns (string memory) {\r... */\n    tag_79:\n        /* \"contracts/SsafyNFT.sol\":709:722  string memory */\n      0x60\n        /* \"contracts/SsafyNFT.sol\":742:751  tokenURIs */\n      0x07\n        /* \"contracts/SsafyNFT.sol\":742:760  tokenURIs[tokenId] */\n      0x00\n        /* \"contracts/SsafyNFT.sol\":752:759  tokenId */\n      dup4\n        /* \"contracts/SsafyNFT.sol\":742:760  tokenURIs[tokenId] */\n      dup2\n      mstore\n      0x20\n      add\n      swap1\n      dup2\n      mstore\n      0x20\n      add\n      0x00\n      keccak256\n        /* \"contracts/SsafyNFT.sol\":735:760  return tokenURIs[tokenId] */\n      dup1\n      sload\n      tag_162\n      swap1\n      tag_93\n      jump\t// in\n    tag_162:\n      dup1\n      0x1f\n      add\n      0x20\n      dup1\n      swap2\n      div\n      mul\n      0x20\n      add\n      mload(0x40)\n      swap1\n      dup2\n      add\n      0x40\n      mstore\n      dup1\n      swap3\n      swap2\n      swap1\n      dup2\n      dup2\n      mstore\n      0x20\n      add\n      dup3\n      dup1\n      sload\n      tag_163\n      swap1\n      tag_93\n      jump\t// in\n    tag_163:\n      dup1\n      iszero\n      tag_164\n      jumpi\n      dup1\n      0x1f\n      lt\n      tag_165\n      jumpi\n      0x0100\n      dup1\n      dup4\n      sload\n      div\n      mul\n      dup4\n      mstore\n      swap2\n      0x20\n      add\n      swap2\n      jump(tag_164)\n    tag_165:\n      dup3\n      add\n      swap2\n      swap1\n      0x00\n      mstore\n      keccak256(0x00, 0x20)\n      swap1\n    tag_166:\n      dup2\n      sload\n      dup2\n      mstore\n      swap1\n      0x01\n      add\n      swap1\n      0x20\n      add\n      dup1\n      dup4\n      gt\n      tag_166\n      jumpi\n      dup3\n      swap1\n      sub\n      0x1f\n      and\n      dup3\n      add\n      swap2\n    tag_164:\n      pop\n      pop\n      pop\n      pop\n      pop\n      swap1\n      pop\n        /* \"contracts/SsafyNFT.sol\":644:768  function tokenURI(uint256 tokenId) public view override returns (string memory) {\r... */\n      swap2\n      swap1\n      pop\n      jump\t// out\n        /* \"contracts/token/ERC721/ERC721.sol\":4601:4765  function isApprovedForAll(address owner, address operator) public view virtual override returns (bool) {\r... */\n    tag_84:\n        /* \"contracts/token/ERC721/ERC721.sol\":4698:4702  bool */\n      0x00\n        /* \"contracts/token/ERC721/ERC721.sol\":4722:4740  _operatorApprovals */\n      0x05\n        /* \"contracts/token/ERC721/ERC721.sol\":4722:4747  _operatorApprovals[owner] */\n      0x00\n        /* \"contracts/token/ERC721/ERC721.sol\":4741:4746  owner */\n      dup5\n        /* \"contracts/token/ERC721/ERC721.sol\":4722:4747  _operatorApprovals[owner] */\n      0xffffffffffffffffffffffffffffffffffffffff\n      and\n      0xffffffffffffffffffffffffffffffffffffffff\n      and\n      dup2\n      mstore\n      0x20\n      add\n      swap1\n      dup2\n      mstore\n      0x20\n      add\n      0x00\n      keccak256\n        /* \"contracts/token/ERC721/ERC721.sol\":4722:4757  _operatorApprovals[owner][operator] */\n      0x00\n        /* \"contracts/token/ERC721/ERC721.sol\":4748:4756  operator */\n      dup4\n        /* \"contracts/token/ERC721/ERC721.sol\":4722:4757  _operatorApprovals[owner][operator] */\n      0xffffffffffffffffffffffffffffffffffffffff\n      and\n      0xffffffffffffffffffffffffffffffffffffffff\n      and\n      dup2\n      mstore\n      0x20\n      add\n      swap1\n      dup2\n      mstore\n      0x20\n      add\n      0x00\n      keccak256\n      0x00\n      swap1\n      sload\n      swap1\n      0x0100\n      exp\n      swap1\n      div\n      0xff\n      and\n        /* \"contracts/token/ERC721/ERC721.sol\":4715:4757  return _operatorApprovals[owner][operator] */\n      swap1\n      pop\n        /* \"contracts/token/ERC721/ERC721.sol\":4601:4765  function isApprovedForAll(address owner, address operator) public view virtual override returns (bool) {\r... */\n      swap3\n      swap2\n      pop\n      pop\n      jump\t// out\n        /* \"contracts/utils/introspection/ERC165.sol\":854:1011  function supportsInterface(bytes4 interfaceId) public view virtual override returns (bool) {\r... */\n    tag_90:\n        /* \"contracts/utils/introspection/ERC165.sol\":939:943  bool */\n      0x00\n        /* \"contracts/utils/introspection/ERC165.sol\":978:1003  type(IERC165).interfaceId */\n      0x01ffc9a700000000000000000000000000000000000000000000000000000000\n        /* \"contracts/utils/introspection/ERC165.sol\":963:1003  interfaceId == type(IERC165).interfaceId */\n      not(0xffffffffffffffffffffffffffffffffffffffffffffffffffffffff)\n      and\n        /* \"contracts/utils/introspection/ERC165.sol\":963:974  interfaceId */\n      dup3\n        /* \"contracts/utils/introspection/ERC165.sol\":963:1003  interfaceId == type(IERC165).interfaceId */\n      not(0xffffffffffffffffffffffffffffffffffffffffffffffffffffffff)\n      and\n      eq\n        /* \"contracts/utils/introspection/ERC165.sol\":956:1003  return interfaceId == type(IERC165).interfaceId */\n      swap1\n      pop\n        /* \"contracts/utils/introspection/ERC165.sol\":854:1011  function supportsInterface(bytes4 interfaceId) public view virtual override returns (bool) {\r... */\n      swap2\n      swap1\n      pop\n      jump\t// out\n        /* \"contracts/token/ERC721/ERC721.sol\":13933:14068  function _requireMinted(uint256 tokenId) internal view virtual {\r... */\n    tag_100:\n        /* \"contracts/token/ERC721/ERC721.sol\":14015:14031  _exists(tokenId) */\n      tag_170\n        /* \"contracts/token/ERC721/ERC721.sol\":14023:14030  tokenId */\n      dup2\n        /* \"contracts/token/ERC721/ERC721.sol\":14015:14022  _exists */\n      tag_171\n        /* \"contracts/token/ERC721/ERC721.sol\":14015:14031  _exists(tokenId) */\n      jump\t// in\n    tag_170:\n        /* \"contracts/token/ERC721/ERC721.sol\":14007:14060  require(_exists(tokenId), \"ERC721: invalid token ID\") */\n      tag_172\n      jumpi\n      mload(0x40)\n      0x08c379a000000000000000000000000000000000000000000000000000000000\n      dup2\n      mstore\n      0x04\n      add\n      tag_173\n      swap1\n      tag_132\n      jump\t// in\n    tag_173:\n      mload(0x40)\n      dup1\n      swap2\n      sub\n      swap1\n      revert\n    tag_172:\n        /* \"contracts/token/ERC721/ERC721.sol\":13933:14068  function _requireMinted(uint256 tokenId) internal view virtual {\r... */\n      pop\n      jump\t// out\n        /* \"contracts/utils/Context.sol\":656:754  function _msgSender() internal view virtual returns (address) {\r... */\n    tag_107:\n        /* \"contracts/utils/Context.sol\":709:716  address */\n      0x00\n        /* \"contracts/utils/Context.sol\":736:746  msg.sender */\n      caller\n        /* \"contracts/utils/Context.sol\":729:746  return msg.sender */\n      swap1\n      pop\n        /* \"contracts/utils/Context.sol\":656:754  function _msgSender() internal view virtual returns (address) {\r... */\n      swap1\n      jump\t// out\n        /* \"contracts/token/ERC721/ERC721.sol\":13212:13386  function _approve(address to, uint256 tokenId) internal virtual {\r... */\n    tag_115:\n        /* \"contracts/token/ERC721/ERC721.sol\":13314:13316  to */\n      dup2\n        /* \"contracts/token/ERC721/ERC721.sol\":13287:13302  _tokenApprovals */\n      0x04\n        /* \"contracts/token/ERC721/ERC721.sol\":13287:13311  _tokenApprovals[tokenId] */\n      0x00\n        /* \"contracts/token/ERC721/ERC721.sol\":13303:13310  tokenId */\n      dup4\n        /* \"contracts/token/ERC721/ERC721.sol\":13287:13311  _tokenApprovals[tokenId] */\n      dup2\n      mstore\n      0x20\n      add\n      swap1\n      dup2\n      mstore\n      0x20\n      add\n      0x00\n      keccak256\n      0x00\n        /* \"contracts/token/ERC721/ERC721.sol\":13287:13316  _tokenApprovals[tokenId] = to */\n      0x0100\n      exp\n      dup2\n      sload\n      dup2\n      0xffffffffffffffffffffffffffffffffffffffff\n      mul\n      not\n      and\n      swap1\n      dup4\n      0xffffffffffffffffffffffffffffffffffffffff\n      and\n      mul\n      or\n      swap1\n      sstore\n      pop\n        /* \"contracts/token/ERC721/ERC721.sol\":13370:13377  tokenId */\n      dup1\n        /* \"contracts/token/ERC721/ERC721.sol\":13366:13368  to */\n      dup3\n        /* \"contracts/token/ERC721/ERC721.sol\":13332:13378  Approval(ERC721.ownerOf(tokenId), to, tokenId) */\n      0xffffffffffffffffffffffffffffffffffffffff\n      and\n        /* \"contracts/token/ERC721/ERC721.sol\":13341:13364  ERC721.ownerOf(tokenId) */\n      tag_176\n        /* \"contracts/token/ERC721/ERC721.sol\":13356:13363  tokenId */\n      dup4\n        /* \"contracts/token/ERC721/ERC721.sol\":13341:13355  ERC721.ownerOf */\n      tag_50\n        /* \"contracts/token/ERC721/ERC721.sol\":13341:13364  ERC721.ownerOf(tokenId) */\n      jump\t// in\n    tag_176:\n        /* \"contracts/token/ERC721/ERC721.sol\":13332:13378  Approval(ERC721.ownerOf(tokenId), to, tokenId) */\n      0xffffffffffffffffffffffffffffffffffffffff\n      and\n      0x8c5be1e5ebec7d5bd14f71427d1e84f3dd0314c0f7b2291e5b200ac8c7c3b925\n      mload(0x40)\n      mload(0x40)\n      dup1\n      swap2\n      sub\n      swap1\n      log4\n        /* \"contracts/token/ERC721/ERC721.sol\":13212:13386  function _approve(address to, uint256 tokenId) internal virtual {\r... */\n      pop\n      pop\n      jump\t// out\n        /* \"contracts/token/ERC721/ERC721.sol\":7849:8113  function _isApprovedOrOwner(address spender, uint256 tokenId) internal view virtual returns (bool) {\r... */\n    tag_119:\n        /* \"contracts/token/ERC721/ERC721.sol\":7942:7946  bool */\n      0x00\n        /* \"contracts/token/ERC721/ERC721.sol\":7959:7972  address owner */\n      dup1\n        /* \"contracts/token/ERC721/ERC721.sol\":7975:7998  ERC721.ownerOf(tokenId) */\n      tag_178\n        /* \"contracts/token/ERC721/ERC721.sol\":7990:7997  tokenId */\n      dup4\n        /* \"contracts/token/ERC721/ERC721.sol\":7975:7989  ERC721.ownerOf */\n      tag_50\n        /* \"contracts/token/ERC721/ERC721.sol\":7975:7998  ERC721.ownerOf(tokenId) */\n      jump\t// in\n    tag_178:\n        /* \"contracts/token/ERC721/ERC721.sol\":7959:7998  address owner = ERC721.ownerOf(tokenId) */\n      swap1\n      pop\n        /* \"contracts/token/ERC721/ERC721.sol\":8028:8033  owner */\n      dup1\n        /* \"contracts/token/ERC721/ERC721.sol\":8017:8033  spender == owner */\n      0xffffffffffffffffffffffffffffffffffffffff\n      and\n        /* \"contracts/token/ERC721/ERC721.sol\":8017:8024  spender */\n      dup5\n        /* \"contracts/token/ERC721/ERC721.sol\":8017:8033  spender == owner */\n      0xffffffffffffffffffffffffffffffffffffffff\n      and\n      eq\n        /* \"contracts/token/ERC721/ERC721.sol\":8017:8069  spender == owner || isApprovedForAll(owner, spender) */\n      dup1\n      tag_179\n      jumpi\n      pop\n        /* \"contracts/token/ERC721/ERC721.sol\":8037:8069  isApprovedForAll(owner, spender) */\n      tag_180\n        /* \"contracts/token/ERC721/ERC721.sol\":8054:8059  owner */\n      dup2\n        /* \"contracts/token/ERC721/ERC721.sol\":8061:8068  spender */\n      dup6\n        /* \"contracts/token/ERC721/ERC721.sol\":8037:8053  isApprovedForAll */\n      tag_84\n        /* \"contracts/token/ERC721/ERC721.sol\":8037:8069  isApprovedForAll(owner, spender) */\n      jump\t// in\n    tag_180:\n        /* \"contracts/token/ERC721/ERC721.sol\":8017:8069  spender == owner || isApprovedForAll(owner, spender) */\n    tag_179:\n        /* \"contracts/token/ERC721/ERC721.sol\":8017:8104  spender == owner || isApprovedForAll(owner, spender) || getApproved(tokenId) == spender */\n      dup1\n      tag_181\n      jumpi\n      pop\n        /* \"contracts/token/ERC721/ERC721.sol\":8097:8104  spender */\n      dup4\n        /* \"contracts/token/ERC721/ERC721.sol\":8073:8104  getApproved(tokenId) == spender */\n      0xffffffffffffffffffffffffffffffffffffffff\n      and\n        /* \"contracts/token/ERC721/ERC721.sol\":8073:8093  getApproved(tokenId) */\n      tag_182\n        /* \"contracts/token/ERC721/ERC721.sol\":8085:8092  tokenId */\n      dup5\n        /* \"contracts/token/ERC721/ERC721.sol\":8073:8084  getApproved */\n      tag_34\n        /* \"contracts/token/ERC721/ERC721.sol\":8073:8093  getApproved(tokenId) */\n      jump\t// in\n    tag_182:\n        /* \"contracts/token/ERC721/ERC721.sol\":8073:8104  getApproved(tokenId) == spender */\n      0xffffffffffffffffffffffffffffffffffffffff\n      and\n      eq\n        /* \"contracts/token/ERC721/ERC721.sol\":8017:8104  spender == owner || isApprovedForAll(owner, spender) || getApproved(tokenId) == spender */\n    tag_181:\n        /* \"contracts/token/ERC721/ERC721.sol\":8009:8105  return (spender == owner || isApprovedForAll(owner, spender) || getApproved(tokenId) == spender) */\n      swap2\n      pop\n      pop\n        /* \"contracts/token/ERC721/ERC721.sol\":7849:8113  function _isApprovedOrOwner(address spender, uint256 tokenId) internal view virtual returns (bool) {\r... */\n      swap3\n      swap2\n      pop\n      pop\n      jump\t// out\n        /* \"contracts/token/ERC721/ERC721.sol\":11836:13093  function _transfer(\r... */\n    tag_124:\n        /* \"contracts/token/ERC721/ERC721.sol\":11995:11999  from */\n      dup3\n        /* \"contracts/token/ERC721/ERC721.sol\":11968:11999  ERC721.ownerOf(tokenId) == from */\n      0xffffffffffffffffffffffffffffffffffffffff\n      and\n        /* \"contracts/token/ERC721/ERC721.sol\":11968:11991  ERC721.ownerOf(tokenId) */\n      tag_184\n        /* \"contracts/token/ERC721/ERC721.sol\":11983:11990  tokenId */\n      dup3\n        /* \"contracts/token/ERC721/ERC721.sol\":11968:11982  ERC721.ownerOf */\n      tag_50\n        /* \"contracts/token/ERC721/ERC721.sol\":11968:11991  ERC721.ownerOf(tokenId) */\n      jump\t// in\n    tag_184:\n        /* \"contracts/token/ERC721/ERC721.sol\":11968:11999  ERC721.ownerOf(tokenId) == from */\n      0xffffffffffffffffffffffffffffffffffffffff\n      and\n      eq\n        /* \"contracts/token/ERC721/ERC721.sol\":11960:12041  require(ERC721.ownerOf(tokenId) == from, \"ERC721: transfer from incorrect owner\") */\n      tag_185\n      jumpi\n      mload(0x40)\n      0x08c379a000000000000000000000000000000000000000000000000000000000\n      dup2\n      mstore\n      0x04\n      add\n      tag_186\n      swap1\n      tag_187\n      jump\t// in\n    tag_186:\n      mload(0x40)\n      dup1\n      swap2\n      sub\n      swap1\n      revert\n    tag_185:\n        /* \"contracts/token/ERC721/ERC721.sol\":12074:12075  0 */\n      0x00\n        /* \"contracts/token/ERC721/ERC721.sol\":12060:12076  to != address(0) */\n      0xffffffffffffffffffffffffffffffffffffffff\n      and\n        /* \"contracts/token/ERC721/ERC721.sol\":12060:12062  to */\n      dup3\n        /* \"contracts/token/ERC721/ERC721.sol\":12060:12076  to != address(0) */\n      0xffffffffffffffffffffffffffffffffffffffff\n      and\n      eq\n      iszero\n        /* \"contracts/token/ERC721/ERC721.sol\":12052:12117  require(to != address(0), \"ERC721: transfer to the zero address\") */\n      tag_188\n      jumpi\n      mload(0x40)\n      0x08c379a000000000000000000000000000000000000000000000000000000000\n      dup2\n      mstore\n      0x04\n      add\n      tag_189\n      swap1\n      tag_190\n      jump\t// in\n    tag_189:\n      mload(0x40)\n      dup1\n      swap2\n      sub\n      swap1\n      revert\n    tag_188:\n        /* \"contracts/token/ERC721/ERC721.sol\":12130:12169  _beforeTokenTransfer(from, to, tokenId) */\n      tag_191\n        /* \"contracts/token/ERC721/ERC721.sol\":12151:12155  from */\n      dup4\n        /* \"contracts/token/ERC721/ERC721.sol\":12157:12159  to */\n      dup4\n        /* \"contracts/token/ERC721/ERC721.sol\":12161:12168  tokenId */\n      dup4\n        /* \"contracts/token/ERC721/ERC721.sol\":12130:12150  _beforeTokenTransfer */\n      tag_192\n        /* \"contracts/token/ERC721/ERC721.sol\":12130:12169  _beforeTokenTransfer(from, to, tokenId) */\n      jump\t// in\n    tag_191:\n        /* \"contracts/token/ERC721/ERC721.sol\":12299:12303  from */\n      dup3\n        /* \"contracts/token/ERC721/ERC721.sol\":12272:12303  ERC721.ownerOf(tokenId) == from */\n      0xffffffffffffffffffffffffffffffffffffffff\n      and\n        /* \"contracts/token/ERC721/ERC721.sol\":12272:12295  ERC721.ownerOf(tokenId) */\n      tag_193\n        /* \"contracts/token/ERC721/ERC721.sol\":12287:12294  tokenId */\n      dup3\n        /* \"contracts/token/ERC721/ERC721.sol\":12272:12286  ERC721.ownerOf */\n      tag_50\n        /* \"contracts/token/ERC721/ERC721.sol\":12272:12295  ERC721.ownerOf(tokenId) */\n      jump\t// in\n    tag_193:\n        /* \"contracts/token/ERC721/ERC721.sol\":12272:12303  ERC721.ownerOf(tokenId) == from */\n      0xffffffffffffffffffffffffffffffffffffffff\n      and\n      eq\n        /* \"contracts/token/ERC721/ERC721.sol\":12264:12345  require(ERC721.ownerOf(tokenId) == from, \"ERC721: transfer from incorrect owner\") */\n      tag_194\n      jumpi\n      mload(0x40)\n      0x08c379a000000000000000000000000000000000000000000000000000000000\n      dup2\n      mstore\n      0x04\n      add\n      tag_195\n      swap1\n      tag_187\n      jump\t// in\n    tag_195:\n      mload(0x40)\n      dup1\n      swap2\n      sub\n      swap1\n      revert\n    tag_194:\n        /* \"contracts/token/ERC721/ERC721.sol\":12417:12432  _tokenApprovals */\n      0x04\n        /* \"contracts/token/ERC721/ERC721.sol\":12417:12441  _tokenApprovals[tokenId] */\n      0x00\n        /* \"contracts/token/ERC721/ERC721.sol\":12433:12440  tokenId */\n      dup3\n        /* \"contracts/token/ERC721/ERC721.sol\":12417:12441  _tokenApprovals[tokenId] */\n      dup2\n      mstore\n      0x20\n      add\n      swap1\n      dup2\n      mstore\n      0x20\n      add\n      0x00\n      keccak256\n      0x00\n        /* \"contracts/token/ERC721/ERC721.sol\":12410:12441  delete _tokenApprovals[tokenId] */\n      0x0100\n      exp\n      dup2\n      sload\n      swap1\n      0xffffffffffffffffffffffffffffffffffffffff\n      mul\n      not\n      and\n      swap1\n      sstore\n        /* \"contracts/token/ERC721/ERC721.sol\":12912:12913  1 */\n      0x01\n        /* \"contracts/token/ERC721/ERC721.sol\":12893:12902  _balances */\n      0x03\n        /* \"contracts/token/ERC721/ERC721.sol\":12893:12908  _balances[from] */\n      0x00\n        /* \"contracts/token/ERC721/ERC721.sol\":12903:12907  from */\n      dup6\n        /* \"contracts/token/ERC721/ERC721.sol\":12893:12908  _balances[from] */\n      0xffffffffffffffffffffffffffffffffffffffff\n      and\n      0xffffffffffffffffffffffffffffffffffffffff\n      and\n      dup2\n      mstore\n      0x20\n      add\n      swap1\n      dup2\n      mstore\n      0x20\n      add\n      0x00\n      keccak256\n      0x00\n        /* \"contracts/token/ERC721/ERC721.sol\":12893:12913  _balances[from] -= 1 */\n      dup3\n      dup3\n      sload\n      sub\n      swap3\n      pop\n      pop\n      dup2\n      swap1\n      sstore\n      pop\n        /* \"contracts/token/ERC721/ERC721.sol\":12945:12946  1 */\n      0x01\n        /* \"contracts/token/ERC721/ERC721.sol\":12928:12937  _balances */\n      0x03\n        /* \"contracts/token/ERC721/ERC721.sol\":12928:12941  _balances[to] */\n      0x00\n        /* \"contracts/token/ERC721/ERC721.sol\":12938:12940  to */\n      dup5\n        /* \"contracts/token/ERC721/ERC721.sol\":12928:12941  _balances[to] */\n      0xffffffffffffffffffffffffffffffffffffffff\n      and\n      0xffffffffffffffffffffffffffffffffffffffff\n      and\n      dup2\n      mstore\n      0x20\n      add\n      swap1\n      dup2\n      mstore\n      0x20\n      add\n      0x00\n      keccak256\n      0x00\n        /* \"contracts/token/ERC721/ERC721.sol\":12928:12946  _balances[to] += 1 */\n      dup3\n      dup3\n      sload\n      add\n      swap3\n      pop\n      pop\n      dup2\n      swap1\n      sstore\n      pop\n        /* \"contracts/token/ERC721/ERC721.sol\":12987:12989  to */\n      dup2\n        /* \"contracts/token/ERC721/ERC721.sol\":12968:12975  _owners */\n      0x02\n        /* \"contracts/token/ERC721/ERC721.sol\":12968:12984  _owners[tokenId] */\n      0x00\n        /* \"contracts/token/ERC721/ERC721.sol\":12976:12983  tokenId */\n      dup4\n        /* \"contracts/token/ERC721/ERC721.sol\":12968:12984  _owners[tokenId] */\n      dup2\n      mstore\n      0x20\n      add\n      swap1\n      dup2\n      mstore\n      0x20\n      add\n      0x00\n      keccak256\n      0x00\n        /* \"contracts/token/ERC721/ERC721.sol\":12968:12989  _owners[tokenId] = to */\n      0x0100\n      exp\n      dup2\n      sload\n      dup2\n      0xffffffffffffffffffffffffffffffffffffffff\n      mul\n      not\n      and\n      swap1\n      dup4\n      0xffffffffffffffffffffffffffffffffffffffff\n      and\n      mul\n      or\n      swap1\n      sstore\n      pop\n        /* \"contracts/token/ERC721/ERC721.sol\":13026:13033  tokenId */\n      dup1\n        /* \"contracts/token/ERC721/ERC721.sol\":13022:13024  to */\n      dup3\n        /* \"contracts/token/ERC721/ERC721.sol\":13007:13034  Transfer(from, to, tokenId) */\n      0xffffffffffffffffffffffffffffffffffffffff\n      and\n        /* \"contracts/token/ERC721/ERC721.sol\":13016:13020  from */\n      dup5\n        /* \"contracts/token/ERC721/ERC721.sol\":13007:13034  Transfer(from, to, tokenId) */\n      0xffffffffffffffffffffffffffffffffffffffff\n      and\n      0xddf252ad1be2c89b69c2b068fc378daa952ba7f163c4a11628f55a4df523b3ef\n      mload(0x40)\n      mload(0x40)\n      dup1\n      swap2\n      sub\n      swap1\n      log4\n        /* \"contracts/token/ERC721/ERC721.sol\":13047:13085  _afterTokenTransfer(from, to, tokenId) */\n      tag_196\n        /* \"contracts/token/ERC721/ERC721.sol\":13067:13071  from */\n      dup4\n        /* \"contracts/token/ERC721/ERC721.sol\":13073:13075  to */\n      dup4\n        /* \"contracts/token/ERC721/ERC721.sol\":13077:13084  tokenId */\n      dup4\n        /* \"contracts/token/ERC721/ERC721.sol\":13047:13066  _afterTokenTransfer */\n      tag_197\n        /* \"contracts/token/ERC721/ERC721.sol\":13047:13085  _afterTokenTransfer(from, to, tokenId) */\n      jump\t// in\n    tag_196:\n        /* \"contracts/token/ERC721/ERC721.sol\":11836:13093  function _transfer(\r... */\n      pop\n      pop\n      pop\n      jump\t// out\n        /* \"contracts/token/ERC721/ERC721.sol\":7124:7241  function _ownerOf(uint256 tokenId) internal view virtual returns (address) {\r... */\n    tag_129:\n        /* \"contracts/token/ERC721/ERC721.sol\":7190:7197  address */\n      0x00\n        /* \"contracts/token/ERC721/ERC721.sol\":7217:7224  _owners */\n      0x02\n        /* \"contracts/token/ERC721/ERC721.sol\":7217:7233  _owners[tokenId] */\n      0x00\n        /* \"contracts/token/ERC721/ERC721.sol\":7225:7232  tokenId */\n      dup4\n        /* \"contracts/token/ERC721/ERC721.sol\":7217:7233  _owners[tokenId] */\n      dup2\n      mstore\n      0x20\n      add\n      swap1\n      dup2\n      mstore\n      0x20\n      add\n      0x00\n      keccak256\n      0x00\n      swap1\n      sload\n      swap1\n      0x0100\n      exp\n      swap1\n      div\n      0xffffffffffffffffffffffffffffffffffffffff\n      and\n        /* \"contracts/token/ERC721/ERC721.sol\":7210:7233  return _owners[tokenId] */\n      swap1\n      pop\n        /* \"contracts/token/ERC721/ERC721.sol\":7124:7241  function _ownerOf(uint256 tokenId) internal view virtual returns (address) {\r... */\n      swap2\n      swap1\n      pop\n      jump\t// out\n        /* \"contracts/token/ERC721/ERC721.sol\":9447:10383  function _mint(address to, uint256 tokenId) internal virtual {\r... */\n    tag_149:\n        /* \"contracts/token/ERC721/ERC721.sol\":9541:9542  0 */\n      0x00\n        /* \"contracts/token/ERC721/ERC721.sol\":9527:9543  to != address(0) */\n      0xffffffffffffffffffffffffffffffffffffffff\n      and\n        /* \"contracts/token/ERC721/ERC721.sol\":9527:9529  to */\n      dup3\n        /* \"contracts/token/ERC721/ERC721.sol\":9527:9543  to != address(0) */\n      0xffffffffffffffffffffffffffffffffffffffff\n      and\n      eq\n      iszero\n        /* \"contracts/token/ERC721/ERC721.sol\":9519:9580  require(to != address(0), \"ERC721: mint to the zero address\") */\n      tag_200\n      jumpi\n      mload(0x40)\n      0x08c379a000000000000000000000000000000000000000000000000000000000\n      dup2\n      mstore\n      0x04\n      add\n      tag_201\n      swap1\n      tag_202\n      jump\t// in\n    tag_201:\n      mload(0x40)\n      dup1\n      swap2\n      sub\n      swap1\n      revert\n    tag_200:\n        /* \"contracts/token/ERC721/ERC721.sol\":9600:9616  _exists(tokenId) */\n      tag_203\n        /* \"contracts/token/ERC721/ERC721.sol\":9608:9615  tokenId */\n      dup2\n        /* \"contracts/token/ERC721/ERC721.sol\":9600:9607  _exists */\n      tag_171\n        /* \"contracts/token/ERC721/ERC721.sol\":9600:9616  _exists(tokenId) */\n      jump\t// in\n    tag_203:\n        /* \"contracts/token/ERC721/ERC721.sol\":9599:9616  !_exists(tokenId) */\n      iszero\n        /* \"contracts/token/ERC721/ERC721.sol\":9591:9649  require(!_exists(tokenId), \"ERC721: token already minted\") */\n      tag_204\n      jumpi\n      mload(0x40)\n      0x08c379a000000000000000000000000000000000000000000000000000000000\n      dup2\n      mstore\n      0x04\n      add\n      tag_205\n      swap1\n      tag_206\n      jump\t// in\n    tag_205:\n      mload(0x40)\n      dup1\n      swap2\n      sub\n      swap1\n      revert\n    tag_204:\n        /* \"contracts/token/ERC721/ERC721.sol\":9662:9707  _beforeTokenTransfer(address(0), to, tokenId) */\n      tag_207\n        /* \"contracts/token/ERC721/ERC721.sol\":9691:9692  0 */\n      0x00\n        /* \"contracts/token/ERC721/ERC721.sol\":9695:9697  to */\n      dup4\n        /* \"contracts/token/ERC721/ERC721.sol\":9699:9706  tokenId */\n      dup4\n        /* \"contracts/token/ERC721/ERC721.sol\":9662:9682  _beforeTokenTransfer */\n      tag_192\n        /* \"contracts/token/ERC721/ERC721.sol\":9662:9707  _beforeTokenTransfer(address(0), to, tokenId) */\n      jump\t// in\n    tag_207:\n        /* \"contracts/token/ERC721/ERC721.sol\":9806:9822  _exists(tokenId) */\n      tag_208\n        /* \"contracts/token/ERC721/ERC721.sol\":9814:9821  tokenId */\n      dup2\n        /* \"contracts/token/ERC721/ERC721.sol\":9806:9813  _exists */\n      tag_171\n        /* \"contracts/token/ERC721/ERC721.sol\":9806:9822  _exists(tokenId) */\n      jump\t// in\n    tag_208:\n        /* \"contracts/token/ERC721/ERC721.sol\":9805:9822  !_exists(tokenId) */\n      iszero\n        /* \"contracts/token/ERC721/ERC721.sol\":9797:9855  require(!_exists(tokenId), \"ERC721: token already minted\") */\n      tag_209\n      jumpi\n      mload(0x40)\n      0x08c379a000000000000000000000000000000000000000000000000000000000\n      dup2\n      mstore\n      0x04\n      add\n      tag_210\n      swap1\n      tag_206\n      jump\t// in\n    tag_210:\n      mload(0x40)\n      dup1\n      swap2\n      sub\n      swap1\n      revert\n    tag_209:\n        /* \"contracts/token/ERC721/ERC721.sol\":10221:10222  1 */\n      0x01\n        /* \"contracts/token/ERC721/ERC721.sol\":10204:10213  _balances */\n      0x03\n        /* \"contracts/token/ERC721/ERC721.sol\":10204:10217  _balances[to] */\n      0x00\n        /* \"contracts/token/ERC721/ERC721.sol\":10214:10216  to */\n      dup5\n        /* \"contracts/token/ERC721/ERC721.sol\":10204:10217  _balances[to] */\n      0xffffffffffffffffffffffffffffffffffffffff\n      and\n      0xffffffffffffffffffffffffffffffffffffffff\n      and\n      dup2\n      mstore\n      0x20\n      add\n      swap1\n      dup2\n      mstore\n      0x20\n      add\n      0x00\n      keccak256\n      0x00\n        /* \"contracts/token/ERC721/ERC721.sol\":10204:10222  _balances[to] += 1 */\n      dup3\n      dup3\n      sload\n      add\n      swap3\n      pop\n      pop\n      dup2\n      swap1\n      sstore\n      pop\n        /* \"contracts/token/ERC721/ERC721.sol\":10265:10267  to */\n      dup2\n        /* \"contracts/token/ERC721/ERC721.sol\":10246:10253  _owners */\n      0x02\n        /* \"contracts/token/ERC721/ERC721.sol\":10246:10262  _owners[tokenId] */\n      0x00\n        /* \"contracts/token/ERC721/ERC721.sol\":10254:10261  tokenId */\n      dup4\n        /* \"contracts/token/ERC721/ERC721.sol\":10246:10262  _owners[tokenId] */\n      dup2\n      mstore\n      0x20\n      add\n      swap1\n      dup2\n      mstore\n      0x20\n      add\n      0x00\n      keccak256\n      0x00\n        /* \"contracts/token/ERC721/ERC721.sol\":10246:10267  _owners[tokenId] = to */\n      0x0100\n      exp\n      dup2\n      sload\n      dup2\n      0xffffffffffffffffffffffffffffffffffffffff\n      mul\n      not\n      and\n      swap1\n      dup4\n      0xffffffffffffffffffffffffffffffffffffffff\n      and\n      mul\n      or\n      swap1\n      sstore\n      pop\n        /* \"contracts/token/ERC721/ERC721.sol\":10310:10317  tokenId */\n      dup1\n        /* \"contracts/token/ERC721/ERC721.sol\":10306:10308  to */\n      dup3\n        /* \"contracts/token/ERC721/ERC721.sol\":10285:10318  Transfer(address(0), to, tokenId) */\n      0xffffffffffffffffffffffffffffffffffffffff\n      and\n        /* \"contracts/token/ERC721/ERC721.sol\":10302:10303  0 */\n      0x00\n        /* \"contracts/token/ERC721/ERC721.sol\":10285:10318  Transfer(address(0), to, tokenId) */\n      0xffffffffffffffffffffffffffffffffffffffff\n      and\n      0xddf252ad1be2c89b69c2b068fc378daa952ba7f163c4a11628f55a4df523b3ef\n      mload(0x40)\n      mload(0x40)\n      dup1\n      swap2\n      sub\n      swap1\n      log4\n        /* \"contracts/token/ERC721/ERC721.sol\":10331:10375  _afterTokenTransfer(address(0), to, tokenId) */\n      tag_211\n        /* \"contracts/token/ERC721/ERC721.sol\":10359:10360  0 */\n      0x00\n        /* \"contracts/token/ERC721/ERC721.sol\":10363:10365  to */\n      dup4\n        /* \"contracts/token/ERC721/ERC721.sol\":10367:10374  tokenId */\n      dup4\n        /* \"contracts/token/ERC721/ERC721.sol\":10331:10350  _afterTokenTransfer */\n      tag_197\n        /* \"contracts/token/ERC721/ERC721.sol\":10331:10375  _afterTokenTransfer(address(0), to, tokenId) */\n      jump\t// in\n    tag_211:\n        /* \"contracts/token/ERC721/ERC721.sol\":9447:10383  function _mint(address to, uint256 tokenId) internal virtual {\r... */\n      pop\n      pop\n      jump\t// out\n        /* \"contracts/token/ERC721/ERC721.sol\":13529:13844  function _setApprovalForAll(\r... */\n    tag_153:\n        /* \"contracts/token/ERC721/ERC721.sol\":13684:13692  operator */\n      dup2\n        /* \"contracts/token/ERC721/ERC721.sol\":13675:13692  owner != operator */\n      0xffffffffffffffffffffffffffffffffffffffff\n      and\n        /* \"contracts/token/ERC721/ERC721.sol\":13675:13680  owner */\n      dup4\n        /* \"contracts/token/ERC721/ERC721.sol\":13675:13692  owner != operator */\n      0xffffffffffffffffffffffffffffffffffffffff\n      and\n      eq\n      iszero\n        /* \"contracts/token/ERC721/ERC721.sol\":13667:13722  require(owner != operator, \"ERC721: approve to caller\") */\n      tag_213\n      jumpi\n      mload(0x40)\n      0x08c379a000000000000000000000000000000000000000000000000000000000\n      dup2\n      mstore\n      0x04\n      add\n      tag_214\n      swap1\n      tag_215\n      jump\t// in\n    tag_214:\n      mload(0x40)\n      dup1\n      swap2\n      sub\n      swap1\n      revert\n    tag_213:\n        /* \"contracts/token/ERC721/ERC721.sol\":13771:13779  approved */\n      dup1\n        /* \"contracts/token/ERC721/ERC721.sol\":13733:13751  _operatorApprovals */\n      0x05\n        /* \"contracts/token/ERC721/ERC721.sol\":13733:13758  _operatorApprovals[owner] */\n      0x00\n        /* \"contracts/token/ERC721/ERC721.sol\":13752:13757  owner */\n      dup6\n        /* \"contracts/token/ERC721/ERC721.sol\":13733:13758  _operatorApprovals[owner] */\n      0xffffffffffffffffffffffffffffffffffffffff\n      and\n      0xffffffffffffffffffffffffffffffffffffffff\n      and\n      dup2\n      mstore\n      0x20\n      add\n      swap1\n      dup2\n      mstore\n      0x20\n      add\n      0x00\n      keccak256\n        /* \"contracts/token/ERC721/ERC721.sol\":13733:13768  _operatorApprovals[owner][operator] */\n      0x00\n        /* \"contracts/token/ERC721/ERC721.sol\":13759:13767  operator */\n      dup5\n        /* \"contracts/token/ERC721/ERC721.sol\":13733:13768  _operatorApprovals[owner][operator] */\n      0xffffffffffffffffffffffffffffffffffffffff\n      and\n      0xffffffffffffffffffffffffffffffffffffffff\n      and\n      dup2\n      mstore\n      0x20\n      add\n      swap1\n      dup2\n      mstore\n      0x20\n      add\n      0x00\n      keccak256\n      0x00\n        /* \"contracts/token/ERC721/ERC721.sol\":13733:13779  _operatorApprovals[owner][operator] = approved */\n      0x0100\n      exp\n      dup2\n      sload\n      dup2\n      0xff\n      mul\n      not\n      and\n      swap1\n      dup4\n      iszero\n      iszero\n      mul\n      or\n      swap1\n      sstore\n      pop\n        /* \"contracts/token/ERC721/ERC721.sol\":13817:13825  operator */\n      dup2\n        /* \"contracts/token/ERC721/ERC721.sol\":13795:13836  ApprovalForAll(owner, operator, approved) */\n      0xffffffffffffffffffffffffffffffffffffffff\n      and\n        /* \"contracts/token/ERC721/ERC721.sol\":13810:13815  owner */\n      dup4\n        /* \"contracts/token/ERC721/ERC721.sol\":13795:13836  ApprovalForAll(owner, operator, approved) */\n      0xffffffffffffffffffffffffffffffffffffffff\n      and\n      0x17307eab39ab6107e8899845ad3d59bd9653f200f220920489ca2b5937696c31\n        /* \"contracts/token/ERC721/ERC721.sol\":13827:13835  approved */\n      dup4\n        /* \"contracts/token/ERC721/ERC721.sol\":13795:13836  ApprovalForAll(owner, operator, approved) */\n      mload(0x40)\n      tag_216\n      swap2\n      swap1\n      tag_26\n      jump\t// in\n    tag_216:\n      mload(0x40)\n      dup1\n      swap2\n      sub\n      swap1\n      log3\n        /* \"contracts/token/ERC721/ERC721.sol\":13529:13844  function _setApprovalForAll(\r... */\n      pop\n      pop\n      pop\n      jump\t// out\n        /* \"contracts/token/ERC721/ERC721.sol\":6697:7010  function _safeTransfer(\r... */\n    tag_160:\n        /* \"contracts/token/ERC721/ERC721.sol\":6853:6881  _transfer(from, to, tokenId) */\n      tag_218\n        /* \"contracts/token/ERC721/ERC721.sol\":6863:6867  from */\n      dup5\n        /* \"contracts/token/ERC721/ERC721.sol\":6869:6871  to */\n      dup5\n        /* \"contracts/token/ERC721/ERC721.sol\":6873:6880  tokenId */\n      dup5\n        /* \"contracts/token/ERC721/ERC721.sol\":6853:6862  _transfer */\n      tag_124\n        /* \"contracts/token/ERC721/ERC721.sol\":6853:6881  _transfer(from, to, tokenId) */\n      jump\t// in\n    tag_218:\n        /* \"contracts/token/ERC721/ERC721.sol\":6900:6947  _checkOnERC721Received(from, to, tokenId, data) */\n      tag_219\n        /* \"contracts/token/ERC721/ERC721.sol\":6923:6927  from */\n      dup5\n        /* \"contracts/token/ERC721/ERC721.sol\":6929:6931  to */\n      dup5\n        /* \"contracts/token/ERC721/ERC721.sol\":6933:6940  tokenId */\n      dup5\n        /* \"contracts/token/ERC721/ERC721.sol\":6942:6946  data */\n      dup5\n        /* \"contracts/token/ERC721/ERC721.sol\":6900:6922  _checkOnERC721Received */\n      tag_220\n        /* \"contracts/token/ERC721/ERC721.sol\":6900:6947  _checkOnERC721Received(from, to, tokenId, data) */\n      jump\t// in\n    tag_219:\n        /* \"contracts/token/ERC721/ERC721.sol\":6892:7002  require(_checkOnERC721Received(from, to, tokenId, data), \"ERC721: transfer to non ERC721Receiver implementer\") */\n      tag_221\n      jumpi\n      mload(0x40)\n      0x08c379a000000000000000000000000000000000000000000000000000000000\n      dup2\n      mstore\n      0x04\n      add\n      tag_222\n      swap1\n      tag_223\n      jump\t// in\n    tag_222:\n      mload(0x40)\n      dup1\n      swap2\n      sub\n      swap1\n      revert\n    tag_221:\n        /* \"contracts/token/ERC721/ERC721.sol\":6697:7010  function _safeTransfer(\r... */\n      pop\n      pop\n      pop\n      pop\n      jump\t// out\n        /* \"contracts/token/ERC721/ERC721.sol\":7554:7682  function _exists(uint256 tokenId) internal view virtual returns (bool) {\r... */\n    tag_171:\n        /* \"contracts/token/ERC721/ERC721.sol\":7619:7623  bool */\n      0x00\n        /* \"contracts/token/ERC721/ERC721.sol\":7672:7673  0 */\n      dup1\n        /* \"contracts/token/ERC721/ERC721.sol\":7643:7674  _ownerOf(tokenId) != address(0) */\n      0xffffffffffffffffffffffffffffffffffffffff\n      and\n        /* \"contracts/token/ERC721/ERC721.sol\":7643:7660  _ownerOf(tokenId) */\n      tag_225\n        /* \"contracts/token/ERC721/ERC721.sol\":7652:7659  tokenId */\n      dup4\n        /* \"contracts/token/ERC721/ERC721.sol\":7643:7651  _ownerOf */\n      tag_129\n        /* \"contracts/token/ERC721/ERC721.sol\":7643:7660  _ownerOf(tokenId) */\n      jump\t// in\n    tag_225:\n        /* \"contracts/token/ERC721/ERC721.sol\":7643:7674  _ownerOf(tokenId) != address(0) */\n      0xffffffffffffffffffffffffffffffffffffffff\n      and\n      eq\n      iszero\n        /* \"contracts/token/ERC721/ERC721.sol\":7636:7674  return _ownerOf(tokenId) != address(0) */\n      swap1\n      pop\n        /* \"contracts/token/ERC721/ERC721.sol\":7554:7682  function _exists(uint256 tokenId) internal view virtual returns (bool) {\r... */\n      swap2\n      swap1\n      pop\n      jump\t// out\n        /* \"contracts/token/ERC721/ERC721.sol\":16105:16231  function _beforeTokenTransfer(\r... */\n    tag_192:\n      pop\n      pop\n      pop\n      jump\t// out\n        /* \"contracts/token/ERC721/ERC721.sol\":16663:16788  function _afterTokenTransfer(\r... */\n    tag_197:\n      pop\n      pop\n      pop\n      jump\t// out\n        /* \"contracts/token/ERC721/ERC721.sol\":14632:15485  function _checkOnERC721Received(\r... */\n    tag_220:\n        /* \"contracts/token/ERC721/ERC721.sol\":14786:14790  bool */\n      0x00\n        /* \"contracts/token/ERC721/ERC721.sol\":14807:14822  to.isContract() */\n      tag_229\n        /* \"contracts/token/ERC721/ERC721.sol\":14807:14809  to */\n      dup5\n        /* \"contracts/token/ERC721/ERC721.sol\":14807:14820  to.isContract */\n      0xffffffffffffffffffffffffffffffffffffffff\n      and\n      tag_230\n        /* \"contracts/token/ERC721/ERC721.sol\":14807:14822  to.isContract() */\n      jump\t// in\n    tag_229:\n        /* \"contracts/token/ERC721/ERC721.sol\":14803:15478  if (to.isContract()) {\r... */\n      iszero\n      tag_231\n      jumpi\n        /* \"contracts/token/ERC721/ERC721.sol\":14859:14861  to */\n      dup4\n        /* \"contracts/token/ERC721/ERC721.sol\":14843:14879  IERC721Receiver(to).onERC721Received */\n      0xffffffffffffffffffffffffffffffffffffffff\n      and\n      0x150b7a02\n        /* \"contracts/token/ERC721/ERC721.sol\":14880:14892  _msgSender() */\n      tag_232\n        /* \"contracts/token/ERC721/ERC721.sol\":14880:14890  _msgSender */\n      tag_107\n        /* \"contracts/token/ERC721/ERC721.sol\":14880:14892  _msgSender() */\n      jump\t// in\n    tag_232:\n        /* \"contracts/token/ERC721/ERC721.sol\":14894:14898  from */\n      dup8\n        /* \"contracts/token/ERC721/ERC721.sol\":14900:14907  tokenId */\n      dup7\n        /* \"contracts/token/ERC721/ERC721.sol\":14909:14913  data */\n      dup7\n        /* \"contracts/token/ERC721/ERC721.sol\":14843:14914  IERC721Receiver(to).onERC721Received(_msgSender(), from, tokenId, data) */\n      mload(0x40)\n      dup6\n      0xffffffff\n      and\n      0xe0\n      shl\n      dup2\n      mstore\n      0x04\n      add\n      tag_233\n      swap5\n      swap4\n      swap3\n      swap2\n      swap1\n      tag_234\n      jump\t// in\n    tag_233:\n      0x20\n      mload(0x40)\n      dup1\n      dup4\n      sub\n      dup2\n      0x00\n      dup8\n      dup1\n      extcodesize\n      iszero\n      dup1\n      iszero\n      tag_235\n      jumpi\n      0x00\n      dup1\n      revert\n    tag_235:\n      pop\n      gas\n      call\n      swap3\n      pop\n      pop\n      pop\n      dup1\n      iszero\n      tag_236\n      jumpi\n      pop\n      mload(0x40)\n      returndatasize\n      not(0x1f)\n      0x1f\n      dup3\n      add\n      and\n      dup3\n      add\n      dup1\n      0x40\n      mstore\n      pop\n      dup2\n      add\n      swap1\n      tag_237\n      swap2\n      swap1\n      tag_238\n      jump\t// in\n    tag_237:\n      0x01\n    tag_236:\n        /* \"contracts/token/ERC721/ERC721.sol\":14839:15423  try IERC721Receiver(to).onERC721Received(_msgSender(), from, tokenId, data) returns (bytes4 retval) {\r... */\n      tag_239\n      jumpi\n      returndatasize\n      dup1\n      0x00\n      dup2\n      eq\n      tag_244\n      jumpi\n      mload(0x40)\n      swap2\n      pop\n      and(add(returndatasize, 0x3f), not(0x1f))\n      dup3\n      add\n      0x40\n      mstore\n      returndatasize\n      dup3\n      mstore\n      returndatasize\n      0x00\n      0x20\n      dup5\n      add\n      returndatacopy\n      jump(tag_243)\n    tag_244:\n      0x60\n      swap2\n      pop\n    tag_243:\n      pop\n        /* \"contracts/token/ERC721/ERC721.sol\":15101:15102  0 */\n      0x00\n        /* \"contracts/token/ERC721/ERC721.sol\":15084:15090  reason */\n      dup2\n        /* \"contracts/token/ERC721/ERC721.sol\":15084:15097  reason.length */\n      mload\n        /* \"contracts/token/ERC721/ERC721.sol\":15084:15102  reason.length == 0 */\n      eq\n        /* \"contracts/token/ERC721/ERC721.sol\":15080:15408  if (reason.length == 0) {\r... */\n      iszero\n      tag_245\n      jumpi\n        /* \"contracts/token/ERC721/ERC721.sol\":15127:15187  revert(\"ERC721: transfer to non ERC721Receiver implementer\") */\n      mload(0x40)\n      0x08c379a000000000000000000000000000000000000000000000000000000000\n      dup2\n      mstore\n      0x04\n      add\n      tag_246\n      swap1\n      tag_223\n      jump\t// in\n    tag_246:\n      mload(0x40)\n      dup1\n      swap2\n      sub\n      swap1\n      revert\n        /* \"contracts/token/ERC721/ERC721.sol\":15080:15408  if (reason.length == 0) {\r... */\n    tag_245:\n        /* \"contracts/token/ERC721/ERC721.sol\":15358:15364  reason */\n      dup1\n        /* \"contracts/token/ERC721/ERC721.sol\":15352:15365  mload(reason) */\n      mload\n        /* \"contracts/token/ERC721/ERC721.sol\":15343:15349  reason */\n      dup2\n        /* \"contracts/token/ERC721/ERC721.sol\":15339:15341  32 */\n      0x20\n        /* \"contracts/token/ERC721/ERC721.sol\":15335:15350  add(32, reason) */\n      add\n        /* \"contracts/token/ERC721/ERC721.sol\":15328:15366  revert(add(32, reason), mload(reason)) */\n      revert\n        /* \"contracts/token/ERC721/ERC721.sol\":14839:15423  try IERC721Receiver(to).onERC721Received(_msgSender(), from, tokenId, data) returns (bytes4 retval) {\r... */\n    tag_239:\n        /* \"contracts/token/ERC721/ERC721.sol\":14975:15016  IERC721Receiver.onERC721Received.selector */\n      shl(0xe0, 0x150b7a02)\n        /* \"contracts/token/ERC721/ERC721.sol\":14965:15016  retval == IERC721Receiver.onERC721Received.selector */\n      not(0xffffffffffffffffffffffffffffffffffffffffffffffffffffffff)\n      and\n        /* \"contracts/token/ERC721/ERC721.sol\":14965:14971  retval */\n      dup2\n        /* \"contracts/token/ERC721/ERC721.sol\":14965:15016  retval == IERC721Receiver.onERC721Received.selector */\n      not(0xffffffffffffffffffffffffffffffffffffffffffffffffffffffff)\n      and\n      eq\n        /* \"contracts/token/ERC721/ERC721.sol\":14958:15016  return retval == IERC721Receiver.onERC721Received.selector */\n      swap2\n      pop\n      pop\n      jump(tag_228)\n        /* \"contracts/token/ERC721/ERC721.sol\":14803:15478  if (to.isContract()) {\r... */\n    tag_231:\n        /* \"contracts/token/ERC721/ERC721.sol\":15462:15466  true */\n      0x01\n        /* \"contracts/token/ERC721/ERC721.sol\":15455:15466  return true */\n      swap1\n      pop\n        /* \"contracts/token/ERC721/ERC721.sol\":14632:15485  function _checkOnERC721Received(\r... */\n    tag_228:\n      swap5\n      swap4\n      pop\n      pop\n      pop\n      pop\n      jump\t// out\n        /* \"contracts/utils/Address.sol\":797:1184  function isContract(address account) internal view returns (bool) {\r... */\n    tag_230:\n        /* \"contracts/utils/Address.sol\":857:861  bool */\n      0x00\n        /* \"contracts/utils/Address.sol\":1065:1077  uint256 size */\n      dup1\n        /* \"contracts/utils/Address.sol\":1132:1139  account */\n      dup3\n        /* \"contracts/utils/Address.sol\":1120:1140  extcodesize(account) */\n      extcodesize\n        /* \"contracts/utils/Address.sol\":1112:1140  size := extcodesize(account) */\n      swap1\n      pop\n        /* \"contracts/utils/Address.sol\":1175:1176  0 */\n      0x00\n        /* \"contracts/utils/Address.sol\":1168:1172  size */\n      dup2\n        /* \"contracts/utils/Address.sol\":1168:1176  size > 0 */\n      gt\n        /* \"contracts/utils/Address.sol\":1161:1176  return size > 0 */\n      swap2\n      pop\n      pop\n        /* \"contracts/utils/Address.sol\":797:1184  function isContract(address account) internal view returns (bool) {\r... */\n      swap2\n      swap1\n      pop\n      jump\t// out\n        /* \"#utility.yul\":7:417   */\n    tag_252:\n        /* \"#utility.yul\":84:89   */\n      0x00\n        /* \"#utility.yul\":109:174   */\n      tag_254\n        /* \"#utility.yul\":125:173   */\n      tag_255\n        /* \"#utility.yul\":166:172   */\n      dup5\n        /* \"#utility.yul\":125:173   */\n      tag_256\n      jump\t// in\n    tag_255:\n        /* \"#utility.yul\":109:174   */\n      tag_257\n      jump\t// in\n    tag_254:\n        /* \"#utility.yul\":100:174   */\n      swap1\n      pop\n        /* \"#utility.yul\":197:203   */\n      dup3\n        /* \"#utility.yul\":190:195   */\n      dup2\n        /* \"#utility.yul\":183:204   */\n      mstore\n        /* \"#utility.yul\":235:239   */\n      0x20\n        /* \"#utility.yul\":228:233   */\n      dup2\n        /* \"#utility.yul\":224:240   */\n      add\n        /* \"#utility.yul\":273:276   */\n      dup5\n        /* \"#utility.yul\":264:270   */\n      dup5\n        /* \"#utility.yul\":259:262   */\n      dup5\n        /* \"#utility.yul\":255:271   */\n      add\n        /* \"#utility.yul\":252:277   */\n      gt\n        /* \"#utility.yul\":249:361   */\n      iszero\n      tag_258\n      jumpi\n        /* \"#utility.yul\":280:359   */\n      tag_259\n      tag_260\n      jump\t// in\n    tag_259:\n        /* \"#utility.yul\":249:361   */\n    tag_258:\n        /* \"#utility.yul\":370:411   */\n      tag_261\n        /* \"#utility.yul\":404:410   */\n      dup5\n        /* \"#utility.yul\":399:402   */\n      dup3\n        /* \"#utility.yul\":394:397   */\n      dup6\n        /* \"#utility.yul\":370:411   */\n      tag_262\n      jump\t// in\n    tag_261:\n        /* \"#utility.yul\":90:417   */\n      pop\n        /* \"#utility.yul\":7:417   */\n      swap4\n      swap3\n      pop\n      pop\n      pop\n      jump\t// out\n        /* \"#utility.yul\":423:835   */\n    tag_263:\n        /* \"#utility.yul\":501:506   */\n      0x00\n        /* \"#utility.yul\":526:592   */\n      tag_265\n        /* \"#utility.yul\":542:591   */\n      tag_266\n        /* \"#utility.yul\":584:590   */\n      dup5\n        /* \"#utility.yul\":542:591   */\n      tag_267\n      jump\t// in\n    tag_266:\n        /* \"#utility.yul\":526:592   */\n      tag_257\n      jump\t// in\n    tag_265:\n        /* \"#utility.yul\":517:592   */\n      swap1\n      pop\n        /* \"#utility.yul\":615:621   */\n      dup3\n        /* \"#utility.yul\":608:613   */\n      dup2\n        /* \"#utility.yul\":601:622   */\n      mstore\n        /* \"#utility.yul\":653:657   */\n      0x20\n        /* \"#utility.yul\":646:651   */\n      dup2\n        /* \"#utility.yul\":642:658   */\n      add\n        /* \"#utility.yul\":691:694   */\n      dup5\n        /* \"#utility.yul\":682:688   */\n      dup5\n        /* \"#utility.yul\":677:680   */\n      dup5\n        /* \"#utility.yul\":673:689   */\n      add\n        /* \"#utility.yul\":670:695   */\n      gt\n        /* \"#utility.yul\":667:779   */\n      iszero\n      tag_268\n      jumpi\n        /* \"#utility.yul\":698:777   */\n      tag_269\n      tag_260\n      jump\t// in\n    tag_269:\n        /* \"#utility.yul\":667:779   */\n    tag_268:\n        /* \"#utility.yul\":788:829   */\n      tag_270\n        /* \"#utility.yul\":822:828   */\n      dup5\n        /* \"#utility.yul\":817:820   */\n      dup3\n        /* \"#utility.yul\":812:815   */\n      dup6\n        /* \"#utility.yul\":788:829   */\n      tag_262\n      jump\t// in\n    tag_270:\n        /* \"#utility.yul\":507:835   */\n      pop\n        /* \"#utility.yul\":423:835   */\n      swap4\n      swap3\n      pop\n      pop\n      pop\n      jump\t// out\n        /* \"#utility.yul\":841:980   */\n    tag_271:\n        /* \"#utility.yul\":887:892   */\n      0x00\n        /* \"#utility.yul\":925:931   */\n      dup2\n        /* \"#utility.yul\":912:932   */\n      calldataload\n        /* \"#utility.yul\":903:932   */\n      swap1\n      pop\n        /* \"#utility.yul\":941:974   */\n      tag_273\n        /* \"#utility.yul\":968:973   */\n      dup2\n        /* \"#utility.yul\":941:974   */\n      tag_274\n      jump\t// in\n    tag_273:\n        /* \"#utility.yul\":841:980   */\n      swap3\n      swap2\n      pop\n      pop\n      jump\t// out\n        /* \"#utility.yul\":986:1119   */\n    tag_275:\n        /* \"#utility.yul\":1029:1034   */\n      0x00\n        /* \"#utility.yul\":1067:1073   */\n      dup2\n        /* \"#utility.yul\":1054:1074   */\n      calldataload\n        /* \"#utility.yul\":1045:1074   */\n      swap1\n      pop\n        /* \"#utility.yul\":1083:1113   */\n      tag_277\n        /* \"#utility.yul\":1107:1112   */\n      dup2\n        /* \"#utility.yul\":1083:1113   */\n      tag_278\n      jump\t// in\n    tag_277:\n        /* \"#utility.yul\":986:1119   */\n      swap3\n      swap2\n      pop\n      pop\n      jump\t// out\n        /* \"#utility.yul\":1125:1262   */\n    tag_279:\n        /* \"#utility.yul\":1170:1175   */\n      0x00\n        /* \"#utility.yul\":1208:1214   */\n      dup2\n        /* \"#utility.yul\":1195:1215   */\n      calldataload\n        /* \"#utility.yul\":1186:1215   */\n      swap1\n      pop\n        /* \"#utility.yul\":1224:1256   */\n      tag_281\n        /* \"#utility.yul\":1250:1255   */\n      dup2\n        /* \"#utility.yul\":1224:1256   */\n      tag_282\n      jump\t// in\n    tag_281:\n        /* \"#utility.yul\":1125:1262   */\n      swap3\n      swap2\n      pop\n      pop\n      jump\t// out\n        /* \"#utility.yul\":1268:1409   */\n    tag_283:\n        /* \"#utility.yul\":1324:1329   */\n      0x00\n        /* \"#utility.yul\":1355:1361   */\n      dup2\n        /* \"#utility.yul\":1349:1362   */\n      mload\n        /* \"#utility.yul\":1340:1362   */\n      swap1\n      pop\n        /* \"#utility.yul\":1371:1403   */\n      tag_285\n        /* \"#utility.yul\":1397:1402   */\n      dup2\n        /* \"#utility.yul\":1371:1403   */\n      tag_282\n      jump\t// in\n    tag_285:\n        /* \"#utility.yul\":1268:1409   */\n      swap3\n      swap2\n      pop\n      pop\n      jump\t// out\n        /* \"#utility.yul\":1428:1766   */\n    tag_286:\n        /* \"#utility.yul\":1483:1488   */\n      0x00\n        /* \"#utility.yul\":1532:1535   */\n      dup3\n        /* \"#utility.yul\":1525:1529   */\n      0x1f\n        /* \"#utility.yul\":1517:1523   */\n      dup4\n        /* \"#utility.yul\":1513:1530   */\n      add\n        /* \"#utility.yul\":1509:1536   */\n      slt\n        /* \"#utility.yul\":1499:1621   */\n      tag_288\n      jumpi\n        /* \"#utility.yul\":1540:1619   */\n      tag_289\n      tag_290\n      jump\t// in\n    tag_289:\n        /* \"#utility.yul\":1499:1621   */\n    tag_288:\n        /* \"#utility.yul\":1657:1663   */\n      dup2\n        /* \"#utility.yul\":1644:1664   */\n      calldataload\n        /* \"#utility.yul\":1682:1760   */\n      tag_291\n        /* \"#utility.yul\":1756:1759   */\n      dup5\n        /* \"#utility.yul\":1748:1754   */\n      dup3\n        /* \"#utility.yul\":1741:1745   */\n      0x20\n        /* \"#utility.yul\":1733:1739   */\n      dup7\n        /* \"#utility.yul\":1729:1746   */\n      add\n        /* \"#utility.yul\":1682:1760   */\n      tag_252\n      jump\t// in\n    tag_291:\n        /* \"#utility.yul\":1673:1760   */\n      swap2\n      pop\n        /* \"#utility.yul\":1489:1766   */\n      pop\n        /* \"#utility.yul\":1428:1766   */\n      swap3\n      swap2\n      pop\n      pop\n      jump\t// out\n        /* \"#utility.yul\":1786:2126   */\n    tag_292:\n        /* \"#utility.yul\":1842:1847   */\n      0x00\n        /* \"#utility.yul\":1891:1894   */\n      dup3\n        /* \"#utility.yul\":1884:1888   */\n      0x1f\n        /* \"#utility.yul\":1876:1882   */\n      dup4\n        /* \"#utility.yul\":1872:1889   */\n      add\n        /* \"#utility.yul\":1868:1895   */\n      slt\n        /* \"#utility.yul\":1858:1980   */\n      tag_294\n      jumpi\n        /* \"#utility.yul\":1899:1978   */\n      tag_295\n      tag_290\n      jump\t// in\n    tag_295:\n        /* \"#utility.yul\":1858:1980   */\n    tag_294:\n        /* \"#utility.yul\":2016:2022   */\n      dup2\n        /* \"#utility.yul\":2003:2023   */\n      calldataload\n        /* \"#utility.yul\":2041:2120   */\n      tag_296\n        /* \"#utility.yul\":2116:2119   */\n      dup5\n        /* \"#utility.yul\":2108:2114   */\n      dup3\n        /* \"#utility.yul\":2101:2105   */\n      0x20\n        /* \"#utility.yul\":2093:2099   */\n      dup7\n        /* \"#utility.yul\":2089:2106   */\n      add\n        /* \"#utility.yul\":2041:2120   */\n      tag_263\n      jump\t// in\n    tag_296:\n        /* \"#utility.yul\":2032:2120   */\n      swap2\n      pop\n        /* \"#utility.yul\":1848:2126   */\n      pop\n        /* \"#utility.yul\":1786:2126   */\n      swap3\n      swap2\n      pop\n      pop\n      jump\t// out\n        /* \"#utility.yul\":2132:2271   */\n    tag_297:\n        /* \"#utility.yul\":2178:2183   */\n      0x00\n        /* \"#utility.yul\":2216:2222   */\n      dup2\n        /* \"#utility.yul\":2203:2223   */\n      calldataload\n        /* \"#utility.yul\":2194:2223   */\n      swap1\n      pop\n        /* \"#utility.yul\":2232:2265   */\n      tag_299\n        /* \"#utility.yul\":2259:2264   */\n      dup2\n        /* \"#utility.yul\":2232:2265   */\n      tag_300\n      jump\t// in\n    tag_299:\n        /* \"#utility.yul\":2132:2271   */\n      swap3\n      swap2\n      pop\n      pop\n      jump\t// out\n        /* \"#utility.yul\":2277:2606   */\n    tag_54:\n        /* \"#utility.yul\":2336:2342   */\n      0x00\n        /* \"#utility.yul\":2385:2387   */\n      0x20\n        /* \"#utility.yul\":2373:2382   */\n      dup3\n        /* \"#utility.yul\":2364:2371   */\n      dup5\n        /* \"#utility.yul\":2360:2383   */\n      sub\n        /* \"#utility.yul\":2356:2388   */\n      slt\n        /* \"#utility.yul\":2353:2472   */\n      iszero\n      tag_302\n      jumpi\n        /* \"#utility.yul\":2391:2470   */\n      tag_303\n      tag_304\n      jump\t// in\n    tag_303:\n        /* \"#utility.yul\":2353:2472   */\n    tag_302:\n        /* \"#utility.yul\":2511:2512   */\n      0x00\n        /* \"#utility.yul\":2536:2589   */\n      tag_305\n        /* \"#utility.yul\":2581:2588   */\n      dup5\n        /* \"#utility.yul\":2572:2578   */\n      dup3\n        /* \"#utility.yul\":2561:2570   */\n      dup6\n        /* \"#utility.yul\":2557:2579   */\n      add\n        /* \"#utility.yul\":2536:2589   */\n      tag_271\n      jump\t// in\n    tag_305:\n        /* \"#utility.yul\":2526:2589   */\n      swap2\n      pop\n        /* \"#utility.yul\":2482:2599   */\n      pop\n        /* \"#utility.yul\":2277:2606   */\n      swap3\n      swap2\n      pop\n      pop\n      jump\t// out\n        /* \"#utility.yul\":2612:3086   */\n    tag_83:\n        /* \"#utility.yul\":2680:2686   */\n      0x00\n        /* \"#utility.yul\":2688:2694   */\n      dup1\n        /* \"#utility.yul\":2737:2739   */\n      0x40\n        /* \"#utility.yul\":2725:2734   */\n      dup4\n        /* \"#utility.yul\":2716:2723   */\n      dup6\n        /* \"#utility.yul\":2712:2735   */\n      sub\n        /* \"#utility.yul\":2708:2740   */\n      slt\n        /* \"#utility.yul\":2705:2824   */\n      iszero\n      tag_307\n      jumpi\n        /* \"#utility.yul\":2743:2822   */\n      tag_308\n      tag_304\n      jump\t// in\n    tag_308:\n        /* \"#utility.yul\":2705:2824   */\n    tag_307:\n        /* \"#utility.yul\":2863:2864   */\n      0x00\n        /* \"#utility.yul\":2888:2941   */\n      tag_309\n        /* \"#utility.yul\":2933:2940   */\n      dup6\n        /* \"#utility.yul\":2924:2930   */\n      dup3\n        /* \"#utility.yul\":2913:2922   */\n      dup7\n        /* \"#utility.yul\":2909:2931   */\n      add\n        /* \"#utility.yul\":2888:2941   */\n      tag_271\n      jump\t// in\n    tag_309:\n        /* \"#utility.yul\":2878:2941   */\n      swap3\n      pop\n        /* \"#utility.yul\":2834:2951   */\n      pop\n        /* \"#utility.yul\":2990:2992   */\n      0x20\n        /* \"#utility.yul\":3016:3069   */\n      tag_310\n        /* \"#utility.yul\":3061:3068   */\n      dup6\n        /* \"#utility.yul\":3052:3058   */\n      dup3\n        /* \"#utility.yul\":3041:3050   */\n      dup7\n        /* \"#utility.yul\":3037:3059   */\n      add\n        /* \"#utility.yul\":3016:3069   */\n      tag_271\n      jump\t// in\n    tag_310:\n        /* \"#utility.yul\":3006:3069   */\n      swap2\n      pop\n        /* \"#utility.yul\":2961:3079   */\n      pop\n        /* \"#utility.yul\":2612:3086   */\n      swap3\n      pop\n      swap3\n      swap1\n      pop\n      jump\t// out\n        /* \"#utility.yul\":3092:3711   */\n    tag_43:\n        /* \"#utility.yul\":3169:3175   */\n      0x00\n        /* \"#utility.yul\":3177:3183   */\n      dup1\n        /* \"#utility.yul\":3185:3191   */\n      0x00\n        /* \"#utility.yul\":3234:3236   */\n      0x60\n        /* \"#utility.yul\":3222:3231   */\n      dup5\n        /* \"#utility.yul\":3213:3220   */\n      dup7\n        /* \"#utility.yul\":3209:3232   */\n      sub\n        /* \"#utility.yul\":3205:3237   */\n      slt\n        /* \"#utility.yul\":3202:3321   */\n      iszero\n      tag_312\n      jumpi\n        /* \"#utility.yul\":3240:3319   */\n      tag_313\n      tag_304\n      jump\t// in\n    tag_313:\n        /* \"#utility.yul\":3202:3321   */\n    tag_312:\n        /* \"#utility.yul\":3360:3361   */\n      0x00\n        /* \"#utility.yul\":3385:3438   */\n      tag_314\n        /* \"#utility.yul\":3430:3437   */\n      dup7\n        /* \"#utility.yul\":3421:3427   */\n      dup3\n        /* \"#utility.yul\":3410:3419   */\n      dup8\n        /* \"#utility.yul\":3406:3428   */\n      add\n        /* \"#utility.yul\":3385:3438   */\n      tag_271\n      jump\t// in\n    tag_314:\n        /* \"#utility.yul\":3375:3438   */\n      swap4\n      pop\n        /* \"#utility.yul\":3331:3448   */\n      pop\n        /* \"#utility.yul\":3487:3489   */\n      0x20\n        /* \"#utility.yul\":3513:3566   */\n      tag_315\n        /* \"#utility.yul\":3558:3565   */\n      dup7\n        /* \"#utility.yul\":3549:3555   */\n      dup3\n        /* \"#utility.yul\":3538:3547   */\n      dup8\n        /* \"#utility.yul\":3534:3556   */\n      add\n        /* \"#utility.yul\":3513:3566   */\n      tag_271\n      jump\t// in\n    tag_315:\n        /* \"#utility.yul\":3503:3566   */\n      swap3\n      pop\n        /* \"#utility.yul\":3458:3576   */\n      pop\n        /* \"#utility.yul\":3615:3617   */\n      0x40\n        /* \"#utility.yul\":3641:3694   */\n      tag_316\n        /* \"#utility.yul\":3686:3693   */\n      dup7\n        /* \"#utility.yul\":3677:3683   */\n      dup3\n        /* \"#utility.yul\":3666:3675   */\n      dup8\n        /* \"#utility.yul\":3662:3684   */\n      add\n        /* \"#utility.yul\":3641:3694   */\n      tag_297\n      jump\t// in\n    tag_316:\n        /* \"#utility.yul\":3631:3694   */\n      swap2\n      pop\n        /* \"#utility.yul\":3586:3704   */\n      pop\n        /* \"#utility.yul\":3092:3711   */\n      swap3\n      pop\n      swap3\n      pop\n      swap3\n      jump\t// out\n        /* \"#utility.yul\":3717:4660   */\n    tag_75:\n        /* \"#utility.yul\":3812:3818   */\n      0x00\n        /* \"#utility.yul\":3820:3826   */\n      dup1\n        /* \"#utility.yul\":3828:3834   */\n      0x00\n        /* \"#utility.yul\":3836:3842   */\n      dup1\n        /* \"#utility.yul\":3885:3888   */\n      0x80\n        /* \"#utility.yul\":3873:3882   */\n      dup6\n        /* \"#utility.yul\":3864:3871   */\n      dup8\n        /* \"#utility.yul\":3860:3883   */\n      sub\n        /* \"#utility.yul\":3856:3889   */\n      slt\n        /* \"#utility.yul\":3853:3973   */\n      iszero\n      tag_318\n      jumpi\n        /* \"#utility.yul\":3892:3971   */\n      tag_319\n      tag_304\n      jump\t// in\n    tag_319:\n        /* \"#utility.yul\":3853:3973   */\n    tag_318:\n        /* \"#utility.yul\":4012:4013   */\n      0x00\n        /* \"#utility.yul\":4037:4090   */\n      tag_320\n        /* \"#utility.yul\":4082:4089   */\n      dup8\n        /* \"#utility.yul\":4073:4079   */\n      dup3\n        /* \"#utility.yul\":4062:4071   */\n      dup9\n        /* \"#utility.yul\":4058:4080   */\n      add\n        /* \"#utility.yul\":4037:4090   */\n      tag_271\n      jump\t// in\n    tag_320:\n        /* \"#utility.yul\":4027:4090   */\n      swap5\n      pop\n        /* \"#utility.yul\":3983:4100   */\n      pop\n        /* \"#utility.yul\":4139:4141   */\n      0x20\n        /* \"#utility.yul\":4165:4218   */\n      tag_321\n        /* \"#utility.yul\":4210:4217   */\n      dup8\n        /* \"#utility.yul\":4201:4207   */\n      dup3\n        /* \"#utility.yul\":4190:4199   */\n      dup9\n        /* \"#utility.yul\":4186:4208   */\n      add\n        /* \"#utility.yul\":4165:4218   */\n      tag_271\n      jump\t// in\n    tag_321:\n        /* \"#utility.yul\":4155:4218   */\n      swap4\n      pop\n        /* \"#utility.yul\":4110:4228   */\n      pop\n        /* \"#utility.yul\":4267:4269   */\n      0x40\n        /* \"#utility.yul\":4293:4346   */\n      tag_322\n        /* \"#utility.yul\":4338:4345   */\n      dup8\n        /* \"#utility.yul\":4329:4335   */\n      dup3\n        /* \"#utility.yul\":4318:4327   */\n      dup9\n        /* \"#utility.yul\":4314:4336   */\n      add\n        /* \"#utility.yul\":4293:4346   */\n      tag_297\n      jump\t// in\n    tag_322:\n        /* \"#utility.yul\":4283:4346   */\n      swap3\n      pop\n        /* \"#utility.yul\":4238:4356   */\n      pop\n        /* \"#utility.yul\":4423:4425   */\n      0x60\n        /* \"#utility.yul\":4412:4421   */\n      dup6\n        /* \"#utility.yul\":4408:4426   */\n      add\n        /* \"#utility.yul\":4395:4427   */\n      calldataload\n        /* \"#utility.yul\":4454:4472   */\n      0xffffffffffffffff\n        /* \"#utility.yul\":4446:4452   */\n      dup2\n        /* \"#utility.yul\":4443:4473   */\n      gt\n        /* \"#utility.yul\":4440:4557   */\n      iszero\n      tag_323\n      jumpi\n        /* \"#utility.yul\":4476:4555   */\n      tag_324\n      tag_325\n      jump\t// in\n    tag_324:\n        /* \"#utility.yul\":4440:4557   */\n    tag_323:\n        /* \"#utility.yul\":4581:4643   */\n      tag_326\n        /* \"#utility.yul\":4635:4642   */\n      dup8\n        /* \"#utility.yul\":4626:4632   */\n      dup3\n        /* \"#utility.yul\":4615:4624   */\n      dup9\n        /* \"#utility.yul\":4611:4633   */\n      add\n        /* \"#utility.yul\":4581:4643   */\n      tag_286\n      jump\t// in\n    tag_326:\n        /* \"#utility.yul\":4571:4643   */\n      swap2\n      pop\n        /* \"#utility.yul\":4366:4653   */\n      pop\n        /* \"#utility.yul\":3717:4660   */\n      swap3\n      swap6\n      swap2\n      swap5\n      pop\n      swap3\n      pop\n      jump\t// out\n        /* \"#utility.yul\":4666:5134   */\n    tag_71:\n        /* \"#utility.yul\":4731:4737   */\n      0x00\n        /* \"#utility.yul\":4739:4745   */\n      dup1\n        /* \"#utility.yul\":4788:4790   */\n      0x40\n        /* \"#utility.yul\":4776:4785   */\n      dup4\n        /* \"#utility.yul\":4767:4774   */\n      dup6\n        /* \"#utility.yul\":4763:4786   */\n      sub\n        /* \"#utility.yul\":4759:4791   */\n      slt\n        /* \"#utility.yul\":4756:4875   */\n      iszero\n      tag_328\n      jumpi\n        /* \"#utility.yul\":4794:4873   */\n      tag_329\n      tag_304\n      jump\t// in\n    tag_329:\n        /* \"#utility.yul\":4756:4875   */\n    tag_328:\n        /* \"#utility.yul\":4914:4915   */\n      0x00\n        /* \"#utility.yul\":4939:4992   */\n      tag_330\n        /* \"#utility.yul\":4984:4991   */\n      dup6\n        /* \"#utility.yul\":4975:4981   */\n      dup3\n        /* \"#utility.yul\":4964:4973   */\n      dup7\n        /* \"#utility.yul\":4960:4982   */\n      add\n        /* \"#utility.yul\":4939:4992   */\n      tag_271\n      jump\t// in\n    tag_330:\n        /* \"#utility.yul\":4929:4992   */\n      swap3\n      pop\n        /* \"#utility.yul\":4885:5002   */\n      pop\n        /* \"#utility.yul\":5041:5043   */\n      0x20\n        /* \"#utility.yul\":5067:5117   */\n      tag_331\n        /* \"#utility.yul\":5109:5116   */\n      dup6\n        /* \"#utility.yul\":5100:5106   */\n      dup3\n        /* \"#utility.yul\":5089:5098   */\n      dup7\n        /* \"#utility.yul\":5085:5107   */\n      add\n        /* \"#utility.yul\":5067:5117   */\n      tag_275\n      jump\t// in\n    tag_331:\n        /* \"#utility.yul\":5057:5117   */\n      swap2\n      pop\n        /* \"#utility.yul\":5012:5127   */\n      pop\n        /* \"#utility.yul\":4666:5134   */\n      swap3\n      pop\n      swap3\n      swap1\n      pop\n      jump\t// out\n        /* \"#utility.yul\":5140:5794   */\n    tag_66:\n        /* \"#utility.yul\":5218:5224   */\n      0x00\n        /* \"#utility.yul\":5226:5232   */\n      dup1\n        /* \"#utility.yul\":5275:5277   */\n      0x40\n        /* \"#utility.yul\":5263:5272   */\n      dup4\n        /* \"#utility.yul\":5254:5261   */\n      dup6\n        /* \"#utility.yul\":5250:5273   */\n      sub\n        /* \"#utility.yul\":5246:5278   */\n      slt\n        /* \"#utility.yul\":5243:5362   */\n      iszero\n      tag_333\n      jumpi\n        /* \"#utility.yul\":5281:5360   */\n      tag_334\n      tag_304\n      jump\t// in\n    tag_334:\n        /* \"#utility.yul\":5243:5362   */\n    tag_333:\n        /* \"#utility.yul\":5401:5402   */\n      0x00\n        /* \"#utility.yul\":5426:5479   */\n      tag_335\n        /* \"#utility.yul\":5471:5478   */\n      dup6\n        /* \"#utility.yul\":5462:5468   */\n      dup3\n        /* \"#utility.yul\":5451:5460   */\n      dup7\n        /* \"#utility.yul\":5447:5469   */\n      add\n        /* \"#utility.yul\":5426:5479   */\n      tag_271\n      jump\t// in\n    tag_335:\n        /* \"#utility.yul\":5416:5479   */\n      swap3\n      pop\n        /* \"#utility.yul\":5372:5489   */\n      pop\n        /* \"#utility.yul\":5556:5558   */\n      0x20\n        /* \"#utility.yul\":5545:5554   */\n      dup4\n        /* \"#utility.yul\":5541:5559   */\n      add\n        /* \"#utility.yul\":5528:5560   */\n      calldataload\n        /* \"#utility.yul\":5587:5605   */\n      0xffffffffffffffff\n        /* \"#utility.yul\":5579:5585   */\n      dup2\n        /* \"#utility.yul\":5576:5606   */\n      gt\n        /* \"#utility.yul\":5573:5690   */\n      iszero\n      tag_336\n      jumpi\n        /* \"#utility.yul\":5609:5688   */\n      tag_337\n      tag_325\n      jump\t// in\n    tag_337:\n        /* \"#utility.yul\":5573:5690   */\n    tag_336:\n        /* \"#utility.yul\":5714:5777   */\n      tag_338\n        /* \"#utility.yul\":5769:5776   */\n      dup6\n        /* \"#utility.yul\":5760:5766   */\n      dup3\n        /* \"#utility.yul\":5749:5758   */\n      dup7\n        /* \"#utility.yul\":5745:5767   */\n      add\n        /* \"#utility.yul\":5714:5777   */\n      tag_292\n      jump\t// in\n    tag_338:\n        /* \"#utility.yul\":5704:5777   */\n      swap2\n      pop\n        /* \"#utility.yul\":5499:5787   */\n      pop\n        /* \"#utility.yul\":5140:5794   */\n      swap3\n      pop\n      swap3\n      swap1\n      pop\n      jump\t// out\n        /* \"#utility.yul\":5800:6274   */\n    tag_39:\n        /* \"#utility.yul\":5868:5874   */\n      0x00\n        /* \"#utility.yul\":5876:5882   */\n      dup1\n        /* \"#utility.yul\":5925:5927   */\n      0x40\n        /* \"#utility.yul\":5913:5922   */\n      dup4\n        /* \"#utility.yul\":5904:5911   */\n      dup6\n        /* \"#utility.yul\":5900:5923   */\n      sub\n        /* \"#utility.yul\":5896:5928   */\n      slt\n        /* \"#utility.yul\":5893:6012   */\n      iszero\n      tag_340\n      jumpi\n        /* \"#utility.yul\":5931:6010   */\n      tag_341\n      tag_304\n      jump\t// in\n    tag_341:\n        /* \"#utility.yul\":5893:6012   */\n    tag_340:\n        /* \"#utility.yul\":6051:6052   */\n      0x00\n        /* \"#utility.yul\":6076:6129   */\n      tag_342\n        /* \"#utility.yul\":6121:6128   */\n      dup6\n        /* \"#utility.yul\":6112:6118   */\n      dup3\n        /* \"#utility.yul\":6101:6110   */\n      dup7\n        /* \"#utility.yul\":6097:6119   */\n      add\n        /* \"#utility.yul\":6076:6129   */\n      tag_271\n      jump\t// in\n    tag_342:\n        /* \"#utility.yul\":6066:6129   */\n      swap3\n      pop\n        /* \"#utility.yul\":6022:6139   */\n      pop\n        /* \"#utility.yul\":6178:6180   */\n      0x20\n        /* \"#utility.yul\":6204:6257   */\n      tag_343\n        /* \"#utility.yul\":6249:6256   */\n      dup6\n        /* \"#utility.yul\":6240:6246   */\n      dup3\n        /* \"#utility.yul\":6229:6238   */\n      dup7\n        /* \"#utility.yul\":6225:6247   */\n      add\n        /* \"#utility.yul\":6204:6257   */\n      tag_297\n      jump\t// in\n    tag_343:\n        /* \"#utility.yul\":6194:6257   */\n      swap2\n      pop\n        /* \"#utility.yul\":6149:6267   */\n      pop\n        /* \"#utility.yul\":5800:6274   */\n      swap3\n      pop\n      swap3\n      swap1\n      pop\n      jump\t// out\n        /* \"#utility.yul\":6280:6607   */\n    tag_23:\n        /* \"#utility.yul\":6338:6344   */\n      0x00\n        /* \"#utility.yul\":6387:6389   */\n      0x20\n        /* \"#utility.yul\":6375:6384   */\n      dup3\n        /* \"#utility.yul\":6366:6373   */\n      dup5\n        /* \"#utility.yul\":6362:6385   */\n      sub\n        /* \"#utility.yul\":6358:6390   */\n      slt\n        /* \"#utility.yul\":6355:6474   */\n      iszero\n      tag_345\n      jumpi\n        /* \"#utility.yul\":6393:6472   */\n      tag_346\n      tag_304\n      jump\t// in\n    tag_346:\n        /* \"#utility.yul\":6355:6474   */\n    tag_345:\n        /* \"#utility.yul\":6513:6514   */\n      0x00\n        /* \"#utility.yul\":6538:6590   */\n      tag_347\n        /* \"#utility.yul\":6582:6589   */\n      dup5\n        /* \"#utility.yul\":6573:6579   */\n      dup3\n        /* \"#utility.yul\":6562:6571   */\n      dup6\n        /* \"#utility.yul\":6558:6580   */\n      add\n        /* \"#utility.yul\":6538:6590   */\n      tag_279\n      jump\t// in\n    tag_347:\n        /* \"#utility.yul\":6528:6590   */\n      swap2\n      pop\n        /* \"#utility.yul\":6484:6600   */\n      pop\n        /* \"#utility.yul\":6280:6607   */\n      swap3\n      swap2\n      pop\n      pop\n      jump\t// out\n        /* \"#utility.yul\":6613:6962   */\n    tag_238:\n        /* \"#utility.yul\":6682:6688   */\n      0x00\n        /* \"#utility.yul\":6731:6733   */\n      0x20\n        /* \"#utility.yul\":6719:6728   */\n      dup3\n        /* \"#utility.yul\":6710:6717   */\n      dup5\n        /* \"#utility.yul\":6706:6729   */\n      sub\n        /* \"#utility.yul\":6702:6734   */\n      slt\n        /* \"#utility.yul\":6699:6818   */\n      iszero\n      tag_349\n      jumpi\n        /* \"#utility.yul\":6737:6816   */\n      tag_350\n      tag_304\n      jump\t// in\n    tag_350:\n        /* \"#utility.yul\":6699:6818   */\n    tag_349:\n        /* \"#utility.yul\":6857:6858   */\n      0x00\n        /* \"#utility.yul\":6882:6945   */\n      tag_351\n        /* \"#utility.yul\":6937:6944   */\n      dup5\n        /* \"#utility.yul\":6928:6934   */\n      dup3\n        /* \"#utility.yul\":6917:6926   */\n      dup6\n        /* \"#utility.yul\":6913:6935   */\n      add\n        /* \"#utility.yul\":6882:6945   */\n      tag_283\n      jump\t// in\n    tag_351:\n        /* \"#utility.yul\":6872:6945   */\n      swap2\n      pop\n        /* \"#utility.yul\":6828:6955   */\n      pop\n        /* \"#utility.yul\":6613:6962   */\n      swap3\n      swap2\n      pop\n      pop\n      jump\t// out\n        /* \"#utility.yul\":6968:7297   */\n    tag_33:\n        /* \"#utility.yul\":7027:7033   */\n      0x00\n        /* \"#utility.yul\":7076:7078   */\n      0x20\n        /* \"#utility.yul\":7064:7073   */\n      dup3\n        /* \"#utility.yul\":7055:7062   */\n      dup5\n        /* \"#utility.yul\":7051:7074   */\n      sub\n        /* \"#utility.yul\":7047:7079   */\n      slt\n        /* \"#utility.yul\":7044:7163   */\n      iszero\n      tag_353\n      jumpi\n        /* \"#utility.yul\":7082:7161   */\n      tag_354\n      tag_304\n      jump\t// in\n    tag_354:\n        /* \"#utility.yul\":7044:7163   */\n    tag_353:\n        /* \"#utility.yul\":7202:7203   */\n      0x00\n        /* \"#utility.yul\":7227:7280   */\n      tag_355\n        /* \"#utility.yul\":7272:7279   */\n      dup5\n        /* \"#utility.yul\":7263:7269   */\n      dup3\n        /* \"#utility.yul\":7252:7261   */\n      dup6\n        /* \"#utility.yul\":7248:7270   */\n      add\n        /* \"#utility.yul\":7227:7280   */\n      tag_297\n      jump\t// in\n    tag_355:\n        /* \"#utility.yul\":7217:7280   */\n      swap2\n      pop\n        /* \"#utility.yul\":7173:7290   */\n      pop\n        /* \"#utility.yul\":6968:7297   */\n      swap3\n      swap2\n      pop\n      pop\n      jump\t// out\n        /* \"#utility.yul\":7303:7421   */\n    tag_356:\n        /* \"#utility.yul\":7390:7414   */\n      tag_358\n        /* \"#utility.yul\":7408:7413   */\n      dup2\n        /* \"#utility.yul\":7390:7414   */\n      tag_359\n      jump\t// in\n    tag_358:\n        /* \"#utility.yul\":7385:7388   */\n      dup3\n        /* \"#utility.yul\":7378:7415   */\n      mstore\n        /* \"#utility.yul\":7303:7421   */\n      pop\n      pop\n      jump\t// out\n        /* \"#utility.yul\":7427:7536   */\n    tag_360:\n        /* \"#utility.yul\":7508:7529   */\n      tag_362\n        /* \"#utility.yul\":7523:7528   */\n      dup2\n        /* \"#utility.yul\":7508:7529   */\n      tag_363\n      jump\t// in\n    tag_362:\n        /* \"#utility.yul\":7503:7506   */\n      dup3\n        /* \"#utility.yul\":7496:7530   */\n      mstore\n        /* \"#utility.yul\":7427:7536   */\n      pop\n      pop\n      jump\t// out\n        /* \"#utility.yul\":7542:7902   */\n    tag_364:\n        /* \"#utility.yul\":7628:7631   */\n      0x00\n        /* \"#utility.yul\":7656:7694   */\n      tag_366\n        /* \"#utility.yul\":7688:7693   */\n      dup3\n        /* \"#utility.yul\":7656:7694   */\n      tag_367\n      jump\t// in\n    tag_366:\n        /* \"#utility.yul\":7710:7780   */\n      tag_368\n        /* \"#utility.yul\":7773:7779   */\n      dup2\n        /* \"#utility.yul\":7768:7771   */\n      dup6\n        /* \"#utility.yul\":7710:7780   */\n      tag_369\n      jump\t// in\n    tag_368:\n        /* \"#utility.yul\":7703:7780   */\n      swap4\n      pop\n        /* \"#utility.yul\":7789:7841   */\n      tag_370\n        /* \"#utility.yul\":7834:7840   */\n      dup2\n        /* \"#utility.yul\":7829:7832   */\n      dup6\n        /* \"#utility.yul\":7822:7826   */\n      0x20\n        /* \"#utility.yul\":7815:7820   */\n      dup7\n        /* \"#utility.yul\":7811:7827   */\n      add\n        /* \"#utility.yul\":7789:7841   */\n      tag_371\n      jump\t// in\n    tag_370:\n        /* \"#utility.yul\":7866:7895   */\n      tag_372\n        /* \"#utility.yul\":7888:7894   */\n      dup2\n        /* \"#utility.yul\":7866:7895   */\n      tag_373\n      jump\t// in\n    tag_372:\n        /* \"#utility.yul\":7861:7864   */\n      dup5\n        /* \"#utility.yul\":7857:7896   */\n      add\n        /* \"#utility.yul\":7850:7896   */\n      swap2\n      pop\n        /* \"#utility.yul\":7632:7902   */\n      pop\n        /* \"#utility.yul\":7542:7902   */\n      swap3\n      swap2\n      pop\n      pop\n      jump\t// out\n        /* \"#utility.yul\":7908:8272   */\n    tag_374:\n        /* \"#utility.yul\":7996:7999   */\n      0x00\n        /* \"#utility.yul\":8024:8063   */\n      tag_376\n        /* \"#utility.yul\":8057:8062   */\n      dup3\n        /* \"#utility.yul\":8024:8063   */\n      tag_377\n      jump\t// in\n    tag_376:\n        /* \"#utility.yul\":8079:8150   */\n      tag_378\n        /* \"#utility.yul\":8143:8149   */\n      dup2\n        /* \"#utility.yul\":8138:8141   */\n      dup6\n        /* \"#utility.yul\":8079:8150   */\n      tag_379\n      jump\t// in\n    tag_378:\n        /* \"#utility.yul\":8072:8150   */\n      swap4\n      pop\n        /* \"#utility.yul\":8159:8211   */\n      tag_380\n        /* \"#utility.yul\":8204:8210   */\n      dup2\n        /* \"#utility.yul\":8199:8202   */\n      dup6\n        /* \"#utility.yul\":8192:8196   */\n      0x20\n        /* \"#utility.yul\":8185:8190   */\n      dup7\n        /* \"#utility.yul\":8181:8197   */\n      add\n        /* \"#utility.yul\":8159:8211   */\n      tag_371\n      jump\t// in\n    tag_380:\n        /* \"#utility.yul\":8236:8265   */\n      tag_381\n        /* \"#utility.yul\":8258:8264   */\n      dup2\n        /* \"#utility.yul\":8236:8265   */\n      tag_373\n      jump\t// in\n    tag_381:\n        /* \"#utility.yul\":8231:8234   */\n      dup5\n        /* \"#utility.yul\":8227:8266   */\n      add\n        /* \"#utility.yul\":8220:8266   */\n      swap2\n      pop\n        /* \"#utility.yul\":8000:8272   */\n      pop\n        /* \"#utility.yul\":7908:8272   */\n      swap3\n      swap2\n      pop\n      pop\n      jump\t// out\n        /* \"#utility.yul\":8278:8644   */\n    tag_382:\n        /* \"#utility.yul\":8420:8423   */\n      0x00\n        /* \"#utility.yul\":8441:8508   */\n      tag_384\n        /* \"#utility.yul\":8505:8507   */\n      0x2d\n        /* \"#utility.yul\":8500:8503   */\n      dup4\n        /* \"#utility.yul\":8441:8508   */\n      tag_379\n      jump\t// in\n    tag_384:\n        /* \"#utility.yul\":8434:8508   */\n      swap2\n      pop\n        /* \"#utility.yul\":8517:8610   */\n      tag_385\n        /* \"#utility.yul\":8606:8609   */\n      dup3\n        /* \"#utility.yul\":8517:8610   */\n      tag_386\n      jump\t// in\n    tag_385:\n        /* \"#utility.yul\":8635:8637   */\n      0x40\n        /* \"#utility.yul\":8630:8633   */\n      dup3\n        /* \"#utility.yul\":8626:8638   */\n      add\n        /* \"#utility.yul\":8619:8638   */\n      swap1\n      pop\n        /* \"#utility.yul\":8278:8644   */\n      swap2\n      swap1\n      pop\n      jump\t// out\n        /* \"#utility.yul\":8650:9016   */\n    tag_387:\n        /* \"#utility.yul\":8792:8795   */\n      0x00\n        /* \"#utility.yul\":8813:8880   */\n      tag_389\n        /* \"#utility.yul\":8877:8879   */\n      0x32\n        /* \"#utility.yul\":8872:8875   */\n      dup4\n        /* \"#utility.yul\":8813:8880   */\n      tag_379\n      jump\t// in\n    tag_389:\n        /* \"#utility.yul\":8806:8880   */\n      swap2\n      pop\n        /* \"#utility.yul\":8889:8982   */\n      tag_390\n        /* \"#utility.yul\":8978:8981   */\n      dup3\n        /* \"#utility.yul\":8889:8982   */\n      tag_391\n      jump\t// in\n    tag_390:\n        /* \"#utility.yul\":9007:9009   */\n      0x40\n        /* \"#utility.yul\":9002:9005   */\n      dup3\n        /* \"#utility.yul\":8998:9010   */\n      add\n        /* \"#utility.yul\":8991:9010   */\n      swap1\n      pop\n        /* \"#utility.yul\":8650:9016   */\n      swap2\n      swap1\n      pop\n      jump\t// out\n        /* \"#utility.yul\":9022:9388   */\n    tag_392:\n        /* \"#utility.yul\":9164:9167   */\n      0x00\n        /* \"#utility.yul\":9185:9252   */\n      tag_394\n        /* \"#utility.yul\":9249:9251   */\n      0x25\n        /* \"#utility.yul\":9244:9247   */\n      dup4\n        /* \"#utility.yul\":9185:9252   */\n      tag_379\n      jump\t// in\n    tag_394:\n        /* \"#utility.yul\":9178:9252   */\n      swap2\n      pop\n        /* \"#utility.yul\":9261:9354   */\n      tag_395\n        /* \"#utility.yul\":9350:9353   */\n      dup3\n        /* \"#utility.yul\":9261:9354   */\n      tag_396\n      jump\t// in\n    tag_395:\n        /* \"#utility.yul\":9379:9381   */\n      0x40\n        /* \"#utility.yul\":9374:9377   */\n      dup3\n        /* \"#utility.yul\":9370:9382   */\n      add\n        /* \"#utility.yul\":9363:9382   */\n      swap1\n      pop\n        /* \"#utility.yul\":9022:9388   */\n      swap2\n      swap1\n      pop\n      jump\t// out\n        /* \"#utility.yul\":9394:9760   */\n    tag_397:\n        /* \"#utility.yul\":9536:9539   */\n      0x00\n        /* \"#utility.yul\":9557:9624   */\n      tag_399\n        /* \"#utility.yul\":9621:9623   */\n      0x1c\n        /* \"#utility.yul\":9616:9619   */\n      dup4\n        /* \"#utility.yul\":9557:9624   */\n      tag_379\n      jump\t// in\n    tag_399:\n        /* \"#utility.yul\":9550:9624   */\n      swap2\n      pop\n        /* \"#utility.yul\":9633:9726   */\n      tag_400\n        /* \"#utility.yul\":9722:9725   */\n      dup3\n        /* \"#utility.yul\":9633:9726   */\n      tag_401\n      jump\t// in\n    tag_400:\n        /* \"#utility.yul\":9751:9753   */\n      0x20\n        /* \"#utility.yul\":9746:9749   */\n      dup3\n        /* \"#utility.yul\":9742:9754   */\n      add\n        /* \"#utility.yul\":9735:9754   */\n      swap1\n      pop\n        /* \"#utility.yul\":9394:9760   */\n      swap2\n      swap1\n      pop\n      jump\t// out\n        /* \"#utility.yul\":9766:10132   */\n    tag_402:\n        /* \"#utility.yul\":9908:9911   */\n      0x00\n        /* \"#utility.yul\":9929:9996   */\n      tag_404\n        /* \"#utility.yul\":9993:9995   */\n      0x24\n        /* \"#utility.yul\":9988:9991   */\n      dup4\n        /* \"#utility.yul\":9929:9996   */\n      tag_379\n      jump\t// in\n    tag_404:\n        /* \"#utility.yul\":9922:9996   */\n      swap2\n      pop\n        /* \"#utility.yul\":10005:10098   */\n      tag_405\n        /* \"#utility.yul\":10094:10097   */\n      dup3\n        /* \"#utility.yul\":10005:10098   */\n      tag_406\n      jump\t// in\n    tag_405:\n        /* \"#utility.yul\":10123:10125   */\n      0x40\n        /* \"#utility.yul\":10118:10121   */\n      dup3\n        /* \"#utility.yul\":10114:10126   */\n      add\n        /* \"#utility.yul\":10107:10126   */\n      swap1\n      pop\n        /* \"#utility.yul\":9766:10132   */\n      swap2\n      swap1\n      pop\n      jump\t// out\n        /* \"#utility.yul\":10138:10504   */\n    tag_407:\n        /* \"#utility.yul\":10280:10283   */\n      0x00\n        /* \"#utility.yul\":10301:10368   */\n      tag_409\n        /* \"#utility.yul\":10365:10367   */\n      0x19\n        /* \"#utility.yul\":10360:10363   */\n      dup4\n        /* \"#utility.yul\":10301:10368   */\n      tag_379\n      jump\t// in\n    tag_409:\n        /* \"#utility.yul\":10294:10368   */\n      swap2\n      pop\n        /* \"#utility.yul\":10377:10470   */\n      tag_410\n        /* \"#utility.yul\":10466:10469   */\n      dup3\n        /* \"#utility.yul\":10377:10470   */\n      tag_411\n      jump\t// in\n    tag_410:\n        /* \"#utility.yul\":10495:10497   */\n      0x20\n        /* \"#utility.yul\":10490:10493   */\n      dup3\n        /* \"#utility.yul\":10486:10498   */\n      add\n        /* \"#utility.yul\":10479:10498   */\n      swap1\n      pop\n        /* \"#utility.yul\":10138:10504   */\n      swap2\n      swap1\n      pop\n      jump\t// out\n        /* \"#utility.yul\":10510:10876   */\n    tag_412:\n        /* \"#utility.yul\":10652:10655   */\n      0x00\n        /* \"#utility.yul\":10673:10740   */\n      tag_414\n        /* \"#utility.yul\":10737:10739   */\n      0x29\n        /* \"#utility.yul\":10732:10735   */\n      dup4\n        /* \"#utility.yul\":10673:10740   */\n      tag_379\n      jump\t// in\n    tag_414:\n        /* \"#utility.yul\":10666:10740   */\n      swap2\n      pop\n        /* \"#utility.yul\":10749:10842   */\n      tag_415\n        /* \"#utility.yul\":10838:10841   */\n      dup3\n        /* \"#utility.yul\":10749:10842   */\n      tag_416\n      jump\t// in\n    tag_415:\n        /* \"#utility.yul\":10867:10869   */\n      0x40\n        /* \"#utility.yul\":10862:10865   */\n      dup3\n        /* \"#utility.yul\":10858:10870   */\n      add\n        /* \"#utility.yul\":10851:10870   */\n      swap1\n      pop\n        /* \"#utility.yul\":10510:10876   */\n      swap2\n      swap1\n      pop\n      jump\t// out\n        /* \"#utility.yul\":10882:11248   */\n    tag_417:\n        /* \"#utility.yul\":11024:11027   */\n      0x00\n        /* \"#utility.yul\":11045:11112   */\n      tag_419\n        /* \"#utility.yul\":11109:11111   */\n      0x20\n        /* \"#utility.yul\":11104:11107   */\n      dup4\n        /* \"#utility.yul\":11045:11112   */\n      tag_379\n      jump\t// in\n    tag_419:\n        /* \"#utility.yul\":11038:11112   */\n      swap2\n      pop\n        /* \"#utility.yul\":11121:11214   */\n      tag_420\n        /* \"#utility.yul\":11210:11213   */\n      dup3\n        /* \"#utility.yul\":11121:11214   */\n      tag_421\n      jump\t// in\n    tag_420:\n        /* \"#utility.yul\":11239:11241   */\n      0x20\n        /* \"#utility.yul\":11234:11237   */\n      dup3\n        /* \"#utility.yul\":11230:11242   */\n      add\n        /* \"#utility.yul\":11223:11242   */\n      swap1\n      pop\n        /* \"#utility.yul\":10882:11248   */\n      swap2\n      swap1\n      pop\n      jump\t// out\n        /* \"#utility.yul\":11254:11620   */\n    tag_422:\n        /* \"#utility.yul\":11396:11399   */\n      0x00\n        /* \"#utility.yul\":11417:11484   */\n      tag_424\n        /* \"#utility.yul\":11481:11483   */\n      0x18\n        /* \"#utility.yul\":11476:11479   */\n      dup4\n        /* \"#utility.yul\":11417:11484   */\n      tag_379\n      jump\t// in\n    tag_424:\n        /* \"#utility.yul\":11410:11484   */\n      swap2\n      pop\n        /* \"#utility.yul\":11493:11586   */\n      tag_425\n        /* \"#utility.yul\":11582:11585   */\n      dup3\n        /* \"#utility.yul\":11493:11586   */\n      tag_426\n      jump\t// in\n    tag_425:\n        /* \"#utility.yul\":11611:11613   */\n      0x20\n        /* \"#utility.yul\":11606:11609   */\n      dup3\n        /* \"#utility.yul\":11602:11614   */\n      add\n        /* \"#utility.yul\":11595:11614   */\n      swap1\n      pop\n        /* \"#utility.yul\":11254:11620   */\n      swap2\n      swap1\n      pop\n      jump\t// out\n        /* \"#utility.yul\":11626:11992   */\n    tag_427:\n        /* \"#utility.yul\":11768:11771   */\n      0x00\n        /* \"#utility.yul\":11789:11856   */\n      tag_429\n        /* \"#utility.yul\":11853:11855   */\n      0x21\n        /* \"#utility.yul\":11848:11851   */\n      dup4\n        /* \"#utility.yul\":11789:11856   */\n      tag_379\n      jump\t// in\n    tag_429:\n        /* \"#utility.yul\":11782:11856   */\n      swap2\n      pop\n        /* \"#utility.yul\":11865:11958   */\n      tag_430\n        /* \"#utility.yul\":11954:11957   */\n      dup3\n        /* \"#utility.yul\":11865:11958   */\n      tag_431\n      jump\t// in\n    tag_430:\n        /* \"#utility.yul\":11983:11985   */\n      0x40\n        /* \"#utility.yul\":11978:11981   */\n      dup3\n        /* \"#utility.yul\":11974:11986   */\n      add\n        /* \"#utility.yul\":11967:11986   */\n      swap1\n      pop\n        /* \"#utility.yul\":11626:11992   */\n      swap2\n      swap1\n      pop\n      jump\t// out\n        /* \"#utility.yul\":11998:12364   */\n    tag_432:\n        /* \"#utility.yul\":12140:12143   */\n      0x00\n        /* \"#utility.yul\":12161:12228   */\n      tag_434\n        /* \"#utility.yul\":12225:12227   */\n      0x3d\n        /* \"#utility.yul\":12220:12223   */\n      dup4\n        /* \"#utility.yul\":12161:12228   */\n      tag_379\n      jump\t// in\n    tag_434:\n        /* \"#utility.yul\":12154:12228   */\n      swap2\n      pop\n        /* \"#utility.yul\":12237:12330   */\n      tag_435\n        /* \"#utility.yul\":12326:12329   */\n      dup3\n        /* \"#utility.yul\":12237:12330   */\n      tag_436\n      jump\t// in\n    tag_435:\n        /* \"#utility.yul\":12355:12357   */\n      0x40\n        /* \"#utility.yul\":12350:12353   */\n      dup3\n        /* \"#utility.yul\":12346:12358   */\n      add\n        /* \"#utility.yul\":12339:12358   */\n      swap1\n      pop\n        /* \"#utility.yul\":11998:12364   */\n      swap2\n      swap1\n      pop\n      jump\t// out\n        /* \"#utility.yul\":12370:12488   */\n    tag_437:\n        /* \"#utility.yul\":12457:12481   */\n      tag_439\n        /* \"#utility.yul\":12475:12480   */\n      dup2\n        /* \"#utility.yul\":12457:12481   */\n      tag_440\n      jump\t// in\n    tag_439:\n        /* \"#utility.yul\":12452:12455   */\n      dup3\n        /* \"#utility.yul\":12445:12482   */\n      mstore\n        /* \"#utility.yul\":12370:12488   */\n      pop\n      pop\n      jump\t// out\n        /* \"#utility.yul\":12494:12716   */\n    tag_36:\n        /* \"#utility.yul\":12587:12591   */\n      0x00\n        /* \"#utility.yul\":12625:12627   */\n      0x20\n        /* \"#utility.yul\":12614:12623   */\n      dup3\n        /* \"#utility.yul\":12610:12628   */\n      add\n        /* \"#utility.yul\":12602:12628   */\n      swap1\n      pop\n        /* \"#utility.yul\":12638:12709   */\n      tag_442\n        /* \"#utility.yul\":12706:12707   */\n      0x00\n        /* \"#utility.yul\":12695:12704   */\n      dup4\n        /* \"#utility.yul\":12691:12708   */\n      add\n        /* \"#utility.yul\":12682:12688   */\n      dup5\n        /* \"#utility.yul\":12638:12709   */\n      tag_356\n      jump\t// in\n    tag_442:\n        /* \"#utility.yul\":12494:12716   */\n      swap3\n      swap2\n      pop\n      pop\n      jump\t// out\n        /* \"#utility.yul\":12722:13362   */\n    tag_234:\n        /* \"#utility.yul\":12917:12921   */\n      0x00\n        /* \"#utility.yul\":12955:12958   */\n      0x80\n        /* \"#utility.yul\":12944:12953   */\n      dup3\n        /* \"#utility.yul\":12940:12959   */\n      add\n        /* \"#utility.yul\":12932:12959   */\n      swap1\n      pop\n        /* \"#utility.yul\":12969:13040   */\n      tag_444\n        /* \"#utility.yul\":13037:13038   */\n      0x00\n        /* \"#utility.yul\":13026:13035   */\n      dup4\n        /* \"#utility.yul\":13022:13039   */\n      add\n        /* \"#utility.yul\":13013:13019   */\n      dup8\n        /* \"#utility.yul\":12969:13040   */\n      tag_356\n      jump\t// in\n    tag_444:\n        /* \"#utility.yul\":13050:13122   */\n      tag_445\n        /* \"#utility.yul\":13118:13120   */\n      0x20\n        /* \"#utility.yul\":13107:13116   */\n      dup4\n        /* \"#utility.yul\":13103:13121   */\n      add\n        /* \"#utility.yul\":13094:13100   */\n      dup7\n        /* \"#utility.yul\":13050:13122   */\n      tag_356\n      jump\t// in\n    tag_445:\n        /* \"#utility.yul\":13132:13204   */\n      tag_446\n        /* \"#utility.yul\":13200:13202   */\n      0x40\n        /* \"#utility.yul\":13189:13198   */\n      dup4\n        /* \"#utility.yul\":13185:13203   */\n      add\n        /* \"#utility.yul\":13176:13182   */\n      dup6\n        /* \"#utility.yul\":13132:13204   */\n      tag_437\n      jump\t// in\n    tag_446:\n        /* \"#utility.yul\":13251:13260   */\n      dup2\n        /* \"#utility.yul\":13245:13249   */\n      dup2\n        /* \"#utility.yul\":13241:13261   */\n      sub\n        /* \"#utility.yul\":13236:13238   */\n      0x60\n        /* \"#utility.yul\":13225:13234   */\n      dup4\n        /* \"#utility.yul\":13221:13239   */\n      add\n        /* \"#utility.yul\":13214:13262   */\n      mstore\n        /* \"#utility.yul\":13279:13355   */\n      tag_447\n        /* \"#utility.yul\":13350:13354   */\n      dup2\n        /* \"#utility.yul\":13341:13347   */\n      dup5\n        /* \"#utility.yul\":13279:13355   */\n      tag_364\n      jump\t// in\n    tag_447:\n        /* \"#utility.yul\":13271:13355   */\n      swap1\n      pop\n        /* \"#utility.yul\":12722:13362   */\n      swap6\n      swap5\n      pop\n      pop\n      pop\n      pop\n      pop\n      jump\t// out\n        /* \"#utility.yul\":13368:13578   */\n    tag_26:\n        /* \"#utility.yul\":13455:13459   */\n      0x00\n        /* \"#utility.yul\":13493:13495   */\n      0x20\n        /* \"#utility.yul\":13482:13491   */\n      dup3\n        /* \"#utility.yul\":13478:13496   */\n      add\n        /* \"#utility.yul\":13470:13496   */\n      swap1\n      pop\n        /* \"#utility.yul\":13506:13571   */\n      tag_449\n        /* \"#utility.yul\":13568:13569   */\n      0x00\n        /* \"#utility.yul\":13557:13566   */\n      dup4\n        /* \"#utility.yul\":13553:13570   */\n      add\n        /* \"#utility.yul\":13544:13550   */\n      dup5\n        /* \"#utility.yul\":13506:13571   */\n      tag_360\n      jump\t// in\n    tag_449:\n        /* \"#utility.yul\":13368:13578   */\n      swap3\n      swap2\n      pop\n      pop\n      jump\t// out\n        /* \"#utility.yul\":13584:13897   */\n    tag_30:\n        /* \"#utility.yul\":13697:13701   */\n      0x00\n        /* \"#utility.yul\":13735:13737   */\n      0x20\n        /* \"#utility.yul\":13724:13733   */\n      dup3\n        /* \"#utility.yul\":13720:13738   */\n      add\n        /* \"#utility.yul\":13712:13738   */\n      swap1\n      pop\n        /* \"#utility.yul\":13784:13793   */\n      dup2\n        /* \"#utility.yul\":13778:13782   */\n      dup2\n        /* \"#utility.yul\":13774:13794   */\n      sub\n        /* \"#utility.yul\":13770:13771   */\n      0x00\n        /* \"#utility.yul\":13759:13768   */\n      dup4\n        /* \"#utility.yul\":13755:13772   */\n      add\n        /* \"#utility.yul\":13748:13795   */\n      mstore\n        /* \"#utility.yul\":13812:13890   */\n      tag_451\n        /* \"#utility.yul\":13885:13889   */\n      dup2\n        /* \"#utility.yul\":13876:13882   */\n      dup5\n        /* \"#utility.yul\":13812:13890   */\n      tag_374\n      jump\t// in\n    tag_451:\n        /* \"#utility.yul\":13804:13890   */\n      swap1\n      pop\n        /* \"#utility.yul\":13584:13897   */\n      swap3\n      swap2\n      pop\n      pop\n      jump\t// out\n        /* \"#utility.yul\":13903:14322   */\n    tag_122:\n        /* \"#utility.yul\":14069:14073   */\n      0x00\n        /* \"#utility.yul\":14107:14109   */\n      0x20\n        /* \"#utility.yul\":14096:14105   */\n      dup3\n        /* \"#utility.yul\":14092:14110   */\n      add\n        /* \"#utility.yul\":14084:14110   */\n      swap1\n      pop\n        /* \"#utility.yul\":14156:14165   */\n      dup2\n        /* \"#utility.yul\":14150:14154   */\n      dup2\n        /* \"#utility.yul\":14146:14166   */\n      sub\n        /* \"#utility.yul\":14142:14143   */\n      0x00\n        /* \"#utility.yul\":14131:14140   */\n      dup4\n        /* \"#utility.yul\":14127:14144   */\n      add\n        /* \"#utility.yul\":14120:14167   */\n      mstore\n        /* \"#utility.yul\":14184:14315   */\n      tag_453\n        /* \"#utility.yul\":14310:14314   */\n      dup2\n        /* \"#utility.yul\":14184:14315   */\n      tag_382\n      jump\t// in\n    tag_453:\n        /* \"#utility.yul\":14176:14315   */\n      swap1\n      pop\n        /* \"#utility.yul\":13903:14322   */\n      swap2\n      swap1\n      pop\n      jump\t// out\n        /* \"#utility.yul\":14328:14747   */\n    tag_223:\n        /* \"#utility.yul\":14494:14498   */\n      0x00\n        /* \"#utility.yul\":14532:14534   */\n      0x20\n        /* \"#utility.yul\":14521:14530   */\n      dup3\n        /* \"#utility.yul\":14517:14535   */\n      add\n        /* \"#utility.yul\":14509:14535   */\n      swap1\n      pop\n        /* \"#utility.yul\":14581:14590   */\n      dup2\n        /* \"#utility.yul\":14575:14579   */\n      dup2\n        /* \"#utility.yul\":14571:14591   */\n      sub\n        /* \"#utility.yul\":14567:14568   */\n      0x00\n        /* \"#utility.yul\":14556:14565   */\n      dup4\n        /* \"#utility.yul\":14552:14569   */\n      add\n        /* \"#utility.yul\":14545:14592   */\n      mstore\n        /* \"#utility.yul\":14609:14740   */\n      tag_455\n        /* \"#utility.yul\":14735:14739   */\n      dup2\n        /* \"#utility.yul\":14609:14740   */\n      tag_387\n      jump\t// in\n    tag_455:\n        /* \"#utility.yul\":14601:14740   */\n      swap1\n      pop\n        /* \"#utility.yul\":14328:14747   */\n      swap2\n      swap1\n      pop\n      jump\t// out\n        /* \"#utility.yul\":14753:15172   */\n    tag_187:\n        /* \"#utility.yul\":14919:14923   */\n      0x00\n        /* \"#utility.yul\":14957:14959   */\n      0x20\n        /* \"#utility.yul\":14946:14955   */\n      dup3\n        /* \"#utility.yul\":14942:14960   */\n      add\n        /* \"#utility.yul\":14934:14960   */\n      swap1\n      pop\n        /* \"#utility.yul\":15006:15015   */\n      dup2\n        /* \"#utility.yul\":15000:15004   */\n      dup2\n        /* \"#utility.yul\":14996:15016   */\n      sub\n        /* \"#utility.yul\":14992:14993   */\n      0x00\n        /* \"#utility.yul\":14981:14990   */\n      dup4\n        /* \"#utility.yul\":14977:14994   */\n      add\n        /* \"#utility.yul\":14970:15017   */\n      mstore\n        /* \"#utility.yul\":15034:15165   */\n      tag_457\n        /* \"#utility.yul\":15160:15164   */\n      dup2\n        /* \"#utility.yul\":15034:15165   */\n      tag_392\n      jump\t// in\n    tag_457:\n        /* \"#utility.yul\":15026:15165   */\n      swap1\n      pop\n        /* \"#utility.yul\":14753:15172   */\n      swap2\n      swap1\n      pop\n      jump\t// out\n        /* \"#utility.yul\":15178:15597   */\n    tag_206:\n        /* \"#utility.yul\":15344:15348   */\n      0x00\n        /* \"#utility.yul\":15382:15384   */\n      0x20\n        /* \"#utility.yul\":15371:15380   */\n      dup3\n        /* \"#utility.yul\":15367:15385   */\n      add\n        /* \"#utility.yul\":15359:15385   */\n      swap1\n      pop\n        /* \"#utility.yul\":15431:15440   */\n      dup2\n        /* \"#utility.yul\":15425:15429   */\n      dup2\n        /* \"#utility.yul\":15421:15441   */\n      sub\n        /* \"#utility.yul\":15417:15418   */\n      0x00\n        /* \"#utility.yul\":15406:15415   */\n      dup4\n        /* \"#utility.yul\":15402:15419   */\n      add\n        /* \"#utility.yul\":15395:15442   */\n      mstore\n        /* \"#utility.yul\":15459:15590   */\n      tag_459\n        /* \"#utility.yul\":15585:15589   */\n      dup2\n        /* \"#utility.yul\":15459:15590   */\n      tag_397\n      jump\t// in\n    tag_459:\n        /* \"#utility.yul\":15451:15590   */\n      swap1\n      pop\n        /* \"#utility.yul\":15178:15597   */\n      swap2\n      swap1\n      pop\n      jump\t// out\n        /* \"#utility.yul\":15603:16022   */\n    tag_190:\n        /* \"#utility.yul\":15769:15773   */\n      0x00\n        /* \"#utility.yul\":15807:15809   */\n      0x20\n        /* \"#utility.yul\":15796:15805   */\n      dup3\n        /* \"#utility.yul\":15792:15810   */\n      add\n        /* \"#utility.yul\":15784:15810   */\n      swap1\n      pop\n        /* \"#utility.yul\":15856:15865   */\n      dup2\n        /* \"#utility.yul\":15850:15854   */\n      dup2\n        /* \"#utility.yul\":15846:15866   */\n      sub\n        /* \"#utility.yul\":15842:15843   */\n      0x00\n        /* \"#utility.yul\":15831:15840   */\n      dup4\n        /* \"#utility.yul\":15827:15844   */\n      add\n        /* \"#utility.yul\":15820:15867   */\n      mstore\n        /* \"#utility.yul\":15884:16015   */\n      tag_461\n        /* \"#utility.yul\":16010:16014   */\n      dup2\n        /* \"#utility.yul\":15884:16015   */\n      tag_402\n      jump\t// in\n    tag_461:\n        /* \"#utility.yul\":15876:16015   */\n      swap1\n      pop\n        /* \"#utility.yul\":15603:16022   */\n      swap2\n      swap1\n      pop\n      jump\t// out\n        /* \"#utility.yul\":16028:16447   */\n    tag_215:\n        /* \"#utility.yul\":16194:16198   */\n      0x00\n        /* \"#utility.yul\":16232:16234   */\n      0x20\n        /* \"#utility.yul\":16221:16230   */\n      dup3\n        /* \"#utility.yul\":16217:16235   */\n      add\n        /* \"#utility.yul\":16209:16235   */\n      swap1\n      pop\n        /* \"#utility.yul\":16281:16290   */\n      dup2\n        /* \"#utility.yul\":16275:16279   */\n      dup2\n        /* \"#utility.yul\":16271:16291   */\n      sub\n        /* \"#utility.yul\":16267:16268   */\n      0x00\n        /* \"#utility.yul\":16256:16265   */\n      dup4\n        /* \"#utility.yul\":16252:16269   */\n      add\n        /* \"#utility.yul\":16245:16292   */\n      mstore\n        /* \"#utility.yul\":16309:16440   */\n      tag_463\n        /* \"#utility.yul\":16435:16439   */\n      dup2\n        /* \"#utility.yul\":16309:16440   */\n      tag_407\n      jump\t// in\n    tag_463:\n        /* \"#utility.yul\":16301:16440   */\n      swap1\n      pop\n        /* \"#utility.yul\":16028:16447   */\n      swap2\n      swap1\n      pop\n      jump\t// out\n        /* \"#utility.yul\":16453:16872   */\n    tag_136:\n        /* \"#utility.yul\":16619:16623   */\n      0x00\n        /* \"#utility.yul\":16657:16659   */\n      0x20\n        /* \"#utility.yul\":16646:16655   */\n      dup3\n        /* \"#utility.yul\":16642:16660   */\n      add\n        /* \"#utility.yul\":16634:16660   */\n      swap1\n      pop\n        /* \"#utility.yul\":16706:16715   */\n      dup2\n        /* \"#utility.yul\":16700:16704   */\n      dup2\n        /* \"#utility.yul\":16696:16716   */\n      sub\n        /* \"#utility.yul\":16692:16693   */\n      0x00\n        /* \"#utility.yul\":16681:16690   */\n      dup4\n        /* \"#utility.yul\":16677:16694   */\n      add\n        /* \"#utility.yul\":16670:16717   */\n      mstore\n        /* \"#utility.yul\":16734:16865   */\n      tag_465\n        /* \"#utility.yul\":16860:16864   */\n      dup2\n        /* \"#utility.yul\":16734:16865   */\n      tag_412\n      jump\t// in\n    tag_465:\n        /* \"#utility.yul\":16726:16865   */\n      swap1\n      pop\n        /* \"#utility.yul\":16453:16872   */\n      swap2\n      swap1\n      pop\n      jump\t// out\n        /* \"#utility.yul\":16878:17297   */\n    tag_202:\n        /* \"#utility.yul\":17044:17048   */\n      0x00\n        /* \"#utility.yul\":17082:17084   */\n      0x20\n        /* \"#utility.yul\":17071:17080   */\n      dup3\n        /* \"#utility.yul\":17067:17085   */\n      add\n        /* \"#utility.yul\":17059:17085   */\n      swap1\n      pop\n        /* \"#utility.yul\":17131:17140   */\n      dup2\n        /* \"#utility.yul\":17125:17129   */\n      dup2\n        /* \"#utility.yul\":17121:17141   */\n      sub\n        /* \"#utility.yul\":17117:17118   */\n      0x00\n        /* \"#utility.yul\":17106:17115   */\n      dup4\n        /* \"#utility.yul\":17102:17119   */\n      add\n        /* \"#utility.yul\":17095:17142   */\n      mstore\n        /* \"#utility.yul\":17159:17290   */\n      tag_467\n        /* \"#utility.yul\":17285:17289   */\n      dup2\n        /* \"#utility.yul\":17159:17290   */\n      tag_417\n      jump\t// in\n    tag_467:\n        /* \"#utility.yul\":17151:17290   */\n      swap1\n      pop\n        /* \"#utility.yul\":16878:17297   */\n      swap2\n      swap1\n      pop\n      jump\t// out\n        /* \"#utility.yul\":17303:17722   */\n    tag_132:\n        /* \"#utility.yul\":17469:17473   */\n      0x00\n        /* \"#utility.yul\":17507:17509   */\n      0x20\n        /* \"#utility.yul\":17496:17505   */\n      dup3\n        /* \"#utility.yul\":17492:17510   */\n      add\n        /* \"#utility.yul\":17484:17510   */\n      swap1\n      pop\n        /* \"#utility.yul\":17556:17565   */\n      dup2\n        /* \"#utility.yul\":17550:17554   */\n      dup2\n        /* \"#utility.yul\":17546:17566   */\n      sub\n        /* \"#utility.yul\":17542:17543   */\n      0x00\n        /* \"#utility.yul\":17531:17540   */\n      dup4\n        /* \"#utility.yul\":17527:17544   */\n      add\n        /* \"#utility.yul\":17520:17567   */\n      mstore\n        /* \"#utility.yul\":17584:17715   */\n      tag_469\n        /* \"#utility.yul\":17710:17714   */\n      dup2\n        /* \"#utility.yul\":17584:17715   */\n      tag_422\n      jump\t// in\n    tag_469:\n        /* \"#utility.yul\":17576:17715   */\n      swap1\n      pop\n        /* \"#utility.yul\":17303:17722   */\n      swap2\n      swap1\n      pop\n      jump\t// out\n        /* \"#utility.yul\":17728:18147   */\n    tag_105:\n        /* \"#utility.yul\":17894:17898   */\n      0x00\n        /* \"#utility.yul\":17932:17934   */\n      0x20\n        /* \"#utility.yul\":17921:17930   */\n      dup3\n        /* \"#utility.yul\":17917:17935   */\n      add\n        /* \"#utility.yul\":17909:17935   */\n      swap1\n      pop\n        /* \"#utility.yul\":17981:17990   */\n      dup2\n        /* \"#utility.yul\":17975:17979   */\n      dup2\n        /* \"#utility.yul\":17971:17991   */\n      sub\n        /* \"#utility.yul\":17967:17968   */\n      0x00\n        /* \"#utility.yul\":17956:17965   */\n      dup4\n        /* \"#utility.yul\":17952:17969   */\n      add\n        /* \"#utility.yul\":17945:17992   */\n      mstore\n        /* \"#utility.yul\":18009:18140   */\n      tag_471\n        /* \"#utility.yul\":18135:18139   */\n      dup2\n        /* \"#utility.yul\":18009:18140   */\n      tag_427\n      jump\t// in\n    tag_471:\n        /* \"#utility.yul\":18001:18140   */\n      swap1\n      pop\n        /* \"#utility.yul\":17728:18147   */\n      swap2\n      swap1\n      pop\n      jump\t// out\n        /* \"#utility.yul\":18153:18572   */\n    tag_113:\n        /* \"#utility.yul\":18319:18323   */\n      0x00\n        /* \"#utility.yul\":18357:18359   */\n      0x20\n        /* \"#utility.yul\":18346:18355   */\n      dup3\n        /* \"#utility.yul\":18342:18360   */\n      add\n        /* \"#utility.yul\":18334:18360   */\n      swap1\n      pop\n        /* \"#utility.yul\":18406:18415   */\n      dup2\n        /* \"#utility.yul\":18400:18404   */\n      dup2\n        /* \"#utility.yul\":18396:18416   */\n      sub\n        /* \"#utility.yul\":18392:18393   */\n      0x00\n        /* \"#utility.yul\":18381:18390   */\n      dup4\n        /* \"#utility.yul\":18377:18394   */\n      add\n        /* \"#utility.yul\":18370:18417   */\n      mstore\n        /* \"#utility.yul\":18434:18565   */\n      tag_473\n        /* \"#utility.yul\":18560:18564   */\n      dup2\n        /* \"#utility.yul\":18434:18565   */\n      tag_432\n      jump\t// in\n    tag_473:\n        /* \"#utility.yul\":18426:18565   */\n      swap1\n      pop\n        /* \"#utility.yul\":18153:18572   */\n      swap2\n      swap1\n      pop\n      jump\t// out\n        /* \"#utility.yul\":18578:18800   */\n    tag_57:\n        /* \"#utility.yul\":18671:18675   */\n      0x00\n        /* \"#utility.yul\":18709:18711   */\n      0x20\n        /* \"#utility.yul\":18698:18707   */\n      dup3\n        /* \"#utility.yul\":18694:18712   */\n      add\n        /* \"#utility.yul\":18686:18712   */\n      swap1\n      pop\n        /* \"#utility.yul\":18722:18793   */\n      tag_475\n        /* \"#utility.yul\":18790:18791   */\n      0x00\n        /* \"#utility.yul\":18779:18788   */\n      dup4\n        /* \"#utility.yul\":18775:18792   */\n      add\n        /* \"#utility.yul\":18766:18772   */\n      dup5\n        /* \"#utility.yul\":18722:18793   */\n      tag_437\n      jump\t// in\n    tag_475:\n        /* \"#utility.yul\":18578:18800   */\n      swap3\n      swap2\n      pop\n      pop\n      jump\t// out\n        /* \"#utility.yul\":18806:18935   */\n    tag_257:\n        /* \"#utility.yul\":18840:18846   */\n      0x00\n        /* \"#utility.yul\":18867:18887   */\n      tag_477\n      tag_478\n      jump\t// in\n    tag_477:\n        /* \"#utility.yul\":18857:18887   */\n      swap1\n      pop\n        /* \"#utility.yul\":18896:18929   */\n      tag_479\n        /* \"#utility.yul\":18924:18928   */\n      dup3\n        /* \"#utility.yul\":18916:18922   */\n      dup3\n        /* \"#utility.yul\":18896:18929   */\n      tag_480\n      jump\t// in\n    tag_479:\n        /* \"#utility.yul\":18806:18935   */\n      swap2\n      swap1\n      pop\n      jump\t// out\n        /* \"#utility.yul\":18941:19016   */\n    tag_478:\n        /* \"#utility.yul\":18974:18980   */\n      0x00\n        /* \"#utility.yul\":19007:19009   */\n      0x40\n        /* \"#utility.yul\":19001:19010   */\n      mload\n        /* \"#utility.yul\":18991:19010   */\n      swap1\n      pop\n        /* \"#utility.yul\":18941:19016   */\n      swap1\n      jump\t// out\n        /* \"#utility.yul\":19022:19329   */\n    tag_256:\n        /* \"#utility.yul\":19083:19087   */\n      0x00\n        /* \"#utility.yul\":19173:19191   */\n      0xffffffffffffffff\n        /* \"#utility.yul\":19165:19171   */\n      dup3\n        /* \"#utility.yul\":19162:19192   */\n      gt\n        /* \"#utility.yul\":19159:19215   */\n      iszero\n      tag_483\n      jumpi\n        /* \"#utility.yul\":19195:19213   */\n      tag_484\n      tag_485\n      jump\t// in\n    tag_484:\n        /* \"#utility.yul\":19159:19215   */\n    tag_483:\n        /* \"#utility.yul\":19233:19262   */\n      tag_486\n        /* \"#utility.yul\":19255:19261   */\n      dup3\n        /* \"#utility.yul\":19233:19262   */\n      tag_373\n      jump\t// in\n    tag_486:\n        /* \"#utility.yul\":19225:19262   */\n      swap1\n      pop\n        /* \"#utility.yul\":19317:19321   */\n      0x20\n        /* \"#utility.yul\":19311:19315   */\n      dup2\n        /* \"#utility.yul\":19307:19322   */\n      add\n        /* \"#utility.yul\":19299:19322   */\n      swap1\n      pop\n        /* \"#utility.yul\":19022:19329   */\n      swap2\n      swap1\n      pop\n      jump\t// out\n        /* \"#utility.yul\":19335:19643   */\n    tag_267:\n        /* \"#utility.yul\":19397:19401   */\n      0x00\n        /* \"#utility.yul\":19487:19505   */\n      0xffffffffffffffff\n        /* \"#utility.yul\":19479:19485   */\n      dup3\n        /* \"#utility.yul\":19476:19506   */\n      gt\n        /* \"#utility.yul\":19473:19529   */\n      iszero\n      tag_488\n      jumpi\n        /* \"#utility.yul\":19509:19527   */\n      tag_489\n      tag_485\n      jump\t// in\n    tag_489:\n        /* \"#utility.yul\":19473:19529   */\n    tag_488:\n        /* \"#utility.yul\":19547:19576   */\n      tag_490\n        /* \"#utility.yul\":19569:19575   */\n      dup3\n        /* \"#utility.yul\":19547:19576   */\n      tag_373\n      jump\t// in\n    tag_490:\n        /* \"#utility.yul\":19539:19576   */\n      swap1\n      pop\n        /* \"#utility.yul\":19631:19635   */\n      0x20\n        /* \"#utility.yul\":19625:19629   */\n      dup2\n        /* \"#utility.yul\":19621:19636   */\n      add\n        /* \"#utility.yul\":19613:19636   */\n      swap1\n      pop\n        /* \"#utility.yul\":19335:19643   */\n      swap2\n      swap1\n      pop\n      jump\t// out\n        /* \"#utility.yul\":19649:19747   */\n    tag_367:\n        /* \"#utility.yul\":19700:19706   */\n      0x00\n        /* \"#utility.yul\":19734:19739   */\n      dup2\n        /* \"#utility.yul\":19728:19740   */\n      mload\n        /* \"#utility.yul\":19718:19740   */\n      swap1\n      pop\n        /* \"#utility.yul\":19649:19747   */\n      swap2\n      swap1\n      pop\n      jump\t// out\n        /* \"#utility.yul\":19753:19852   */\n    tag_377:\n        /* \"#utility.yul\":19805:19811   */\n      0x00\n        /* \"#utility.yul\":19839:19844   */\n      dup2\n        /* \"#utility.yul\":19833:19845   */\n      mload\n        /* \"#utility.yul\":19823:19845   */\n      swap1\n      pop\n        /* \"#utility.yul\":19753:19852   */\n      swap2\n      swap1\n      pop\n      jump\t// out\n        /* \"#utility.yul\":19858:20026   */\n    tag_369:\n        /* \"#utility.yul\":19941:19952   */\n      0x00\n        /* \"#utility.yul\":19975:19981   */\n      dup3\n        /* \"#utility.yul\":19970:19973   */\n      dup3\n        /* \"#utility.yul\":19963:19982   */\n      mstore\n        /* \"#utility.yul\":20015:20019   */\n      0x20\n        /* \"#utility.yul\":20010:20013   */\n      dup3\n        /* \"#utility.yul\":20006:20020   */\n      add\n        /* \"#utility.yul\":19991:20020   */\n      swap1\n      pop\n        /* \"#utility.yul\":19858:20026   */\n      swap3\n      swap2\n      pop\n      pop\n      jump\t// out\n        /* \"#utility.yul\":20032:20201   */\n    tag_379:\n        /* \"#utility.yul\":20116:20127   */\n      0x00\n        /* \"#utility.yul\":20150:20156   */\n      dup3\n        /* \"#utility.yul\":20145:20148   */\n      dup3\n        /* \"#utility.yul\":20138:20157   */\n      mstore\n        /* \"#utility.yul\":20190:20194   */\n      0x20\n        /* \"#utility.yul\":20185:20188   */\n      dup3\n        /* \"#utility.yul\":20181:20195   */\n      add\n        /* \"#utility.yul\":20166:20195   */\n      swap1\n      pop\n        /* \"#utility.yul\":20032:20201   */\n      swap3\n      swap2\n      pop\n      pop\n      jump\t// out\n        /* \"#utility.yul\":20207:20512   */\n    tag_147:\n        /* \"#utility.yul\":20247:20250   */\n      0x00\n        /* \"#utility.yul\":20266:20286   */\n      tag_496\n        /* \"#utility.yul\":20284:20285   */\n      dup3\n        /* \"#utility.yul\":20266:20286   */\n      tag_440\n      jump\t// in\n    tag_496:\n        /* \"#utility.yul\":20261:20286   */\n      swap2\n      pop\n        /* \"#utility.yul\":20300:20320   */\n      tag_497\n        /* \"#utility.yul\":20318:20319   */\n      dup4\n        /* \"#utility.yul\":20300:20320   */\n      tag_440\n      jump\t// in\n    tag_497:\n        /* \"#utility.yul\":20295:20320   */\n      swap3\n      pop\n        /* \"#utility.yul\":20454:20455   */\n      dup3\n        /* \"#utility.yul\":20386:20452   */\n      0xffffffffffffffffffffffffffffffffffffffffffffffffffffffffffffffff\n        /* \"#utility.yul\":20382:20456   */\n      sub\n        /* \"#utility.yul\":20379:20380   */\n      dup3\n        /* \"#utility.yul\":20376:20457   */\n      gt\n        /* \"#utility.yul\":20373:20480   */\n      iszero\n      tag_498\n      jumpi\n        /* \"#utility.yul\":20460:20478   */\n      tag_499\n      tag_500\n      jump\t// in\n    tag_499:\n        /* \"#utility.yul\":20373:20480   */\n    tag_498:\n        /* \"#utility.yul\":20504:20505   */\n      dup3\n        /* \"#utility.yul\":20501:20502   */\n      dup3\n        /* \"#utility.yul\":20497:20506   */\n      add\n        /* \"#utility.yul\":20490:20506   */\n      swap1\n      pop\n        /* \"#utility.yul\":20207:20512   */\n      swap3\n      swap2\n      pop\n      pop\n      jump\t// out\n        /* \"#utility.yul\":20518:20614   */\n    tag_359:\n        /* \"#utility.yul\":20555:20562   */\n      0x00\n        /* \"#utility.yul\":20584:20608   */\n      tag_502\n        /* \"#utility.yul\":20602:20607   */\n      dup3\n        /* \"#utility.yul\":20584:20608   */\n      tag_503\n      jump\t// in\n    tag_502:\n        /* \"#utility.yul\":20573:20608   */\n      swap1\n      pop\n        /* \"#utility.yul\":20518:20614   */\n      swap2\n      swap1\n      pop\n      jump\t// out\n        /* \"#utility.yul\":20620:20710   */\n    tag_363:\n        /* \"#utility.yul\":20654:20661   */\n      0x00\n        /* \"#utility.yul\":20697:20702   */\n      dup2\n        /* \"#utility.yul\":20690:20703   */\n      iszero\n        /* \"#utility.yul\":20683:20704   */\n      iszero\n        /* \"#utility.yul\":20672:20704   */\n      swap1\n      pop\n        /* \"#utility.yul\":20620:20710   */\n      swap2\n      swap1\n      pop\n      jump\t// out\n        /* \"#utility.yul\":20716:20865   */\n    tag_505:\n        /* \"#utility.yul\":20752:20759   */\n      0x00\n        /* \"#utility.yul\":20792:20858   */\n      0xffffffff00000000000000000000000000000000000000000000000000000000\n        /* \"#utility.yul\":20785:20790   */\n      dup3\n        /* \"#utility.yul\":20781:20859   */\n      and\n        /* \"#utility.yul\":20770:20859   */\n      swap1\n      pop\n        /* \"#utility.yul\":20716:20865   */\n      swap2\n      swap1\n      pop\n      jump\t// out\n        /* \"#utility.yul\":20871:20997   */\n    tag_503:\n        /* \"#utility.yul\":20908:20915   */\n      0x00\n        /* \"#utility.yul\":20948:20990   */\n      0xffffffffffffffffffffffffffffffffffffffff\n        /* \"#utility.yul\":20941:20946   */\n      dup3\n        /* \"#utility.yul\":20937:20991   */\n      and\n        /* \"#utility.yul\":20926:20991   */\n      swap1\n      pop\n        /* \"#utility.yul\":20871:20997   */\n      swap2\n      swap1\n      pop\n      jump\t// out\n        /* \"#utility.yul\":21003:21080   */\n    tag_440:\n        /* \"#utility.yul\":21040:21047   */\n      0x00\n        /* \"#utility.yul\":21069:21074   */\n      dup2\n        /* \"#utility.yul\":21058:21074   */\n      swap1\n      pop\n        /* \"#utility.yul\":21003:21080   */\n      swap2\n      swap1\n      pop\n      jump\t// out\n        /* \"#utility.yul\":21086:21240   */\n    tag_262:\n        /* \"#utility.yul\":21170:21176   */\n      dup3\n        /* \"#utility.yul\":21165:21168   */\n      dup2\n        /* \"#utility.yul\":21160:21163   */\n      dup4\n        /* \"#utility.yul\":21147:21177   */\n      calldatacopy\n        /* \"#utility.yul\":21232:21233   */\n      0x00\n        /* \"#utility.yul\":21223:21229   */\n      dup4\n        /* \"#utility.yul\":21218:21221   */\n      dup4\n        /* \"#utility.yul\":21214:21230   */\n      add\n        /* \"#utility.yul\":21207:21234   */\n      mstore\n        /* \"#utility.yul\":21086:21240   */\n      pop\n      pop\n      pop\n      jump\t// out\n        /* \"#utility.yul\":21246:21553   */\n    tag_371:\n        /* \"#utility.yul\":21314:21315   */\n      0x00\n        /* \"#utility.yul\":21324:21437   */\n    tag_511:\n        /* \"#utility.yul\":21338:21344   */\n      dup4\n        /* \"#utility.yul\":21335:21336   */\n      dup2\n        /* \"#utility.yul\":21332:21345   */\n      lt\n        /* \"#utility.yul\":21324:21437   */\n      iszero\n      tag_513\n      jumpi\n        /* \"#utility.yul\":21423:21424   */\n      dup1\n        /* \"#utility.yul\":21418:21421   */\n      dup3\n        /* \"#utility.yul\":21414:21425   */\n      add\n        /* \"#utility.yul\":21408:21426   */\n      mload\n        /* \"#utility.yul\":21404:21405   */\n      dup2\n        /* \"#utility.yul\":21399:21402   */\n      dup5\n        /* \"#utility.yul\":21395:21406   */\n      add\n        /* \"#utility.yul\":21388:21427   */\n      mstore\n        /* \"#utility.yul\":21360:21362   */\n      0x20\n        /* \"#utility.yul\":21357:21358   */\n      dup2\n        /* \"#utility.yul\":21353:21363   */\n      add\n        /* \"#utility.yul\":21348:21363   */\n      swap1\n      pop\n        /* \"#utility.yul\":21324:21437   */\n      jump(tag_511)\n    tag_513:\n        /* \"#utility.yul\":21455:21461   */\n      dup4\n        /* \"#utility.yul\":21452:21453   */\n      dup2\n        /* \"#utility.yul\":21449:21462   */\n      gt\n        /* \"#utility.yul\":21446:21547   */\n      iszero\n      tag_514\n      jumpi\n        /* \"#utility.yul\":21535:21536   */\n      0x00\n        /* \"#utility.yul\":21526:21532   */\n      dup5\n        /* \"#utility.yul\":21521:21524   */\n      dup5\n        /* \"#utility.yul\":21517:21533   */\n      add\n        /* \"#utility.yul\":21510:21537   */\n      mstore\n        /* \"#utility.yul\":21446:21547   */\n    tag_514:\n        /* \"#utility.yul\":21295:21553   */\n      pop\n        /* \"#utility.yul\":21246:21553   */\n      pop\n      pop\n      pop\n      jump\t// out\n        /* \"#utility.yul\":21559:21879   */\n    tag_93:\n        /* \"#utility.yul\":21603:21609   */\n      0x00\n        /* \"#utility.yul\":21640:21641   */\n      0x02\n        /* \"#utility.yul\":21634:21638   */\n      dup3\n        /* \"#utility.yul\":21630:21642   */\n      div\n        /* \"#utility.yul\":21620:21642   */\n      swap1\n      pop\n        /* \"#utility.yul\":21687:21688   */\n      0x01\n        /* \"#utility.yul\":21681:21685   */\n      dup3\n        /* \"#utility.yul\":21677:21689   */\n      and\n        /* \"#utility.yul\":21708:21726   */\n      dup1\n        /* \"#utility.yul\":21698:21779   */\n      tag_516\n      jumpi\n        /* \"#utility.yul\":21764:21768   */\n      0x7f\n        /* \"#utility.yul\":21756:21762   */\n      dup3\n        /* \"#utility.yul\":21752:21769   */\n      and\n        /* \"#utility.yul\":21742:21769   */\n      swap2\n      pop\n        /* \"#utility.yul\":21698:21779   */\n    tag_516:\n        /* \"#utility.yul\":21826:21828   */\n      0x20\n        /* \"#utility.yul\":21818:21824   */\n      dup3\n        /* \"#utility.yul\":21815:21829   */\n      lt\n        /* \"#utility.yul\":21795:21813   */\n      dup2\n        /* \"#utility.yul\":21792:21830   */\n      eq\n        /* \"#utility.yul\":21789:21873   */\n      iszero\n      tag_517\n      jumpi\n        /* \"#utility.yul\":21845:21863   */\n      tag_518\n      tag_519\n      jump\t// in\n    tag_518:\n        /* \"#utility.yul\":21789:21873   */\n    tag_517:\n        /* \"#utility.yul\":21610:21879   */\n      pop\n        /* \"#utility.yul\":21559:21879   */\n      swap2\n      swap1\n      pop\n      jump\t// out\n        /* \"#utility.yul\":21885:22166   */\n    tag_480:\n        /* \"#utility.yul\":21968:21995   */\n      tag_521\n        /* \"#utility.yul\":21990:21994   */\n      dup3\n        /* \"#utility.yul\":21968:21995   */\n      tag_373\n      jump\t// in\n    tag_521:\n        /* \"#utility.yul\":21960:21966   */\n      dup2\n        /* \"#utility.yul\":21956:21996   */\n      add\n        /* \"#utility.yul\":22098:22104   */\n      dup2\n        /* \"#utility.yul\":22086:22096   */\n      dup2\n        /* \"#utility.yul\":22083:22105   */\n      lt\n        /* \"#utility.yul\":22062:22080   */\n      0xffffffffffffffff\n        /* \"#utility.yul\":22050:22060   */\n      dup3\n        /* \"#utility.yul\":22047:22081   */\n      gt\n        /* \"#utility.yul\":22044:22106   */\n      or\n        /* \"#utility.yul\":22041:22129   */\n      iszero\n      tag_522\n      jumpi\n        /* \"#utility.yul\":22109:22127   */\n      tag_523\n      tag_485\n      jump\t// in\n    tag_523:\n        /* \"#utility.yul\":22041:22129   */\n    tag_522:\n        /* \"#utility.yul\":22149:22159   */\n      dup1\n        /* \"#utility.yul\":22145:22147   */\n      0x40\n        /* \"#utility.yul\":22138:22160   */\n      mstore\n        /* \"#utility.yul\":21928:22166   */\n      pop\n        /* \"#utility.yul\":21885:22166   */\n      pop\n      pop\n      jump\t// out\n        /* \"#utility.yul\":22172:22352   */\n    tag_500:\n        /* \"#utility.yul\":22220:22297   */\n      0x4e487b7100000000000000000000000000000000000000000000000000000000\n        /* \"#utility.yul\":22217:22218   */\n      0x00\n        /* \"#utility.yul\":22210:22298   */\n      mstore\n        /* \"#utility.yul\":22317:22321   */\n      0x11\n        /* \"#utility.yul\":22314:22315   */\n      0x04\n        /* \"#utility.yul\":22307:22322   */\n      mstore\n        /* \"#utility.yul\":22341:22345   */\n      0x24\n        /* \"#utility.yul\":22338:22339   */\n      0x00\n        /* \"#utility.yul\":22331:22346   */\n      revert\n        /* \"#utility.yul\":22358:22538   */\n    tag_519:\n        /* \"#utility.yul\":22406:22483   */\n      0x4e487b7100000000000000000000000000000000000000000000000000000000\n        /* \"#utility.yul\":22403:22404   */\n      0x00\n        /* \"#utility.yul\":22396:22484   */\n      mstore\n        /* \"#utility.yul\":22503:22507   */\n      0x22\n        /* \"#utility.yul\":22500:22501   */\n      0x04\n        /* \"#utility.yul\":22493:22508   */\n      mstore\n        /* \"#utility.yul\":22527:22531   */\n      0x24\n        /* \"#utility.yul\":22524:22525   */\n      0x00\n        /* \"#utility.yul\":22517:22532   */\n      revert\n        /* \"#utility.yul\":22544:22724   */\n    tag_485:\n        /* \"#utility.yul\":22592:22669   */\n      0x4e487b7100000000000000000000000000000000000000000000000000000000\n        /* \"#utility.yul\":22589:22590   */\n      0x00\n        /* \"#utility.yul\":22582:22670   */\n      mstore\n        /* \"#utility.yul\":22689:22693   */\n      0x41\n        /* \"#utility.yul\":22686:22687   */\n      0x04\n        /* \"#utility.yul\":22679:22694   */\n      mstore\n        /* \"#utility.yul\":22713:22717   */\n      0x24\n        /* \"#utility.yul\":22710:22711   */\n      0x00\n        /* \"#utility.yul\":22703:22718   */\n      revert\n        /* \"#utility.yul\":22730:22847   */\n    tag_290:\n        /* \"#utility.yul\":22839:22840   */\n      0x00\n        /* \"#utility.yul\":22836:22837   */\n      dup1\n        /* \"#utility.yul\":22829:22841   */\n      revert\n        /* \"#utility.yul\":22853:22970   */\n    tag_260:\n        /* \"#utility.yul\":22962:22963   */\n      0x00\n        /* \"#utility.yul\":22959:22960   */\n      dup1\n        /* \"#utility.yul\":22952:22964   */\n      revert\n        /* \"#utility.yul\":22976:23093   */\n    tag_325:\n        /* \"#utility.yul\":23085:23086   */\n      0x00\n        /* \"#utility.yul\":23082:23083   */\n      dup1\n        /* \"#utility.yul\":23075:23087   */\n      revert\n        /* \"#utility.yul\":23099:23216   */\n    tag_304:\n        /* \"#utility.yul\":23208:23209   */\n      0x00\n        /* \"#utility.yul\":23205:23206   */\n      dup1\n        /* \"#utility.yul\":23198:23210   */\n      revert\n        /* \"#utility.yul\":23222:23324   */\n    tag_373:\n        /* \"#utility.yul\":23263:23269   */\n      0x00\n        /* \"#utility.yul\":23314:23316   */\n      0x1f\n        /* \"#utility.yul\":23310:23317   */\n      not\n        /* \"#utility.yul\":23305:23307   */\n      0x1f\n        /* \"#utility.yul\":23298:23303   */\n      dup4\n        /* \"#utility.yul\":23294:23308   */\n      add\n        /* \"#utility.yul\":23290:23318   */\n      and\n        /* \"#utility.yul\":23280:23318   */\n      swap1\n      pop\n        /* \"#utility.yul\":23222:23324   */\n      swap2\n      swap1\n      pop\n      jump\t// out\n        /* \"#utility.yul\":23330:23562   */\n    tag_386:\n        /* \"#utility.yul\":23470:23504   */\n      0x4552433732313a2063616c6c6572206973206e6f7420746f6b656e206f776e65\n        /* \"#utility.yul\":23466:23467   */\n      0x00\n        /* \"#utility.yul\":23458:23464   */\n      dup3\n        /* \"#utility.yul\":23454:23468   */\n      add\n        /* \"#utility.yul\":23447:23505   */\n      mstore\n        /* \"#utility.yul\":23539:23554   */\n      0x72206f7220617070726f76656400000000000000000000000000000000000000\n        /* \"#utility.yul\":23534:23536   */\n      0x20\n        /* \"#utility.yul\":23526:23532   */\n      dup3\n        /* \"#utility.yul\":23522:23537   */\n      add\n        /* \"#utility.yul\":23515:23555   */\n      mstore\n        /* \"#utility.yul\":23330:23562   */\n      pop\n      jump\t// out\n        /* \"#utility.yul\":23568:23805   */\n    tag_391:\n        /* \"#utility.yul\":23708:23742   */\n      0x4552433732313a207472616e7366657220746f206e6f6e204552433732315265\n        /* \"#utility.yul\":23704:23705   */\n      0x00\n        /* \"#utility.yul\":23696:23702   */\n      dup3\n        /* \"#utility.yul\":23692:23706   */\n      add\n        /* \"#utility.yul\":23685:23743   */\n      mstore\n        /* \"#utility.yul\":23777:23797   */\n      0x63656976657220696d706c656d656e7465720000000000000000000000000000\n        /* \"#utility.yul\":23772:23774   */\n      0x20\n        /* \"#utility.yul\":23764:23770   */\n      dup3\n        /* \"#utility.yul\":23760:23775   */\n      add\n        /* \"#utility.yul\":23753:23798   */\n      mstore\n        /* \"#utility.yul\":23568:23805   */\n      pop\n      jump\t// out\n        /* \"#utility.yul\":23811:24035   */\n    tag_396:\n        /* \"#utility.yul\":23951:23985   */\n      0x4552433732313a207472616e736665722066726f6d20696e636f727265637420\n        /* \"#utility.yul\":23947:23948   */\n      0x00\n        /* \"#utility.yul\":23939:23945   */\n      dup3\n        /* \"#utility.yul\":23935:23949   */\n      add\n        /* \"#utility.yul\":23928:23986   */\n      mstore\n        /* \"#utility.yul\":24020:24027   */\n      0x6f776e6572000000000000000000000000000000000000000000000000000000\n        /* \"#utility.yul\":24015:24017   */\n      0x20\n        /* \"#utility.yul\":24007:24013   */\n      dup3\n        /* \"#utility.yul\":24003:24018   */\n      add\n        /* \"#utility.yul\":23996:24028   */\n      mstore\n        /* \"#utility.yul\":23811:24035   */\n      pop\n      jump\t// out\n        /* \"#utility.yul\":24041:24219   */\n    tag_401:\n        /* \"#utility.yul\":24181:24211   */\n      0x4552433732313a20746f6b656e20616c7265616479206d696e74656400000000\n        /* \"#utility.yul\":24177:24178   */\n      0x00\n        /* \"#utility.yul\":24169:24175   */\n      dup3\n        /* \"#utility.yul\":24165:24179   */\n      add\n        /* \"#utility.yul\":24158:24212   */\n      mstore\n        /* \"#utility.yul\":24041:24219   */\n      pop\n      jump\t// out\n        /* \"#utility.yul\":24225:24448   */\n    tag_406:\n        /* \"#utility.yul\":24365:24399   */\n      0x4552433732313a207472616e7366657220746f20746865207a65726f20616464\n        /* \"#utility.yul\":24361:24362   */\n      0x00\n        /* \"#utility.yul\":24353:24359   */\n      dup3\n        /* \"#utility.yul\":24349:24363   */\n      add\n        /* \"#utility.yul\":24342:24400   */\n      mstore\n        /* \"#utility.yul\":24434:24440   */\n      0x7265737300000000000000000000000000000000000000000000000000000000\n        /* \"#utility.yul\":24429:24431   */\n      0x20\n        /* \"#utility.yul\":24421:24427   */\n      dup3\n        /* \"#utility.yul\":24417:24432   */\n      add\n        /* \"#utility.yul\":24410:24441   */\n      mstore\n        /* \"#utility.yul\":24225:24448   */\n      pop\n      jump\t// out\n        /* \"#utility.yul\":24454:24629   */\n    tag_411:\n        /* \"#utility.yul\":24594:24621   */\n      0x4552433732313a20617070726f766520746f2063616c6c657200000000000000\n        /* \"#utility.yul\":24590:24591   */\n      0x00\n        /* \"#utility.yul\":24582:24588   */\n      dup3\n        /* \"#utility.yul\":24578:24592   */\n      add\n        /* \"#utility.yul\":24571:24622   */\n      mstore\n        /* \"#utility.yul\":24454:24629   */\n      pop\n      jump\t// out\n        /* \"#utility.yul\":24635:24863   */\n    tag_416:\n        /* \"#utility.yul\":24775:24809   */\n      0x4552433732313a2061646472657373207a65726f206973206e6f742061207661\n        /* \"#utility.yul\":24771:24772   */\n      0x00\n        /* \"#utility.yul\":24763:24769   */\n      dup3\n        /* \"#utility.yul\":24759:24773   */\n      add\n        /* \"#utility.yul\":24752:24810   */\n      mstore\n        /* \"#utility.yul\":24844:24855   */\n      0x6c6964206f776e65720000000000000000000000000000000000000000000000\n        /* \"#utility.yul\":24839:24841   */\n      0x20\n        /* \"#utility.yul\":24831:24837   */\n      dup3\n        /* \"#utility.yul\":24827:24842   */\n      add\n        /* \"#utility.yul\":24820:24856   */\n      mstore\n        /* \"#utility.yul\":24635:24863   */\n      pop\n      jump\t// out\n        /* \"#utility.yul\":24869:25051   */\n    tag_421:\n        /* \"#utility.yul\":25009:25043   */\n      0x4552433732313a206d696e7420746f20746865207a65726f2061646472657373\n        /* \"#utility.yul\":25005:25006   */\n      0x00\n        /* \"#utility.yul\":24997:25003   */\n      dup3\n        /* \"#utility.yul\":24993:25007   */\n      add\n        /* \"#utility.yul\":24986:25044   */\n      mstore\n        /* \"#utility.yul\":24869:25051   */\n      pop\n      jump\t// out\n        /* \"#utility.yul\":25057:25231   */\n    tag_426:\n        /* \"#utility.yul\":25197:25223   */\n      0x4552433732313a20696e76616c696420746f6b656e2049440000000000000000\n        /* \"#utility.yul\":25193:25194   */\n      0x00\n        /* \"#utility.yul\":25185:25191   */\n      dup3\n        /* \"#utility.yul\":25181:25195   */\n      add\n        /* \"#utility.yul\":25174:25224   */\n      mstore\n        /* \"#utility.yul\":25057:25231   */\n      pop\n      jump\t// out\n        /* \"#utility.yul\":25237:25457   */\n    tag_431:\n        /* \"#utility.yul\":25377:25411   */\n      0x4552433732313a20617070726f76616c20746f2063757272656e74206f776e65\n        /* \"#utility.yul\":25373:25374   */\n      0x00\n        /* \"#utility.yul\":25365:25371   */\n      dup3\n        /* \"#utility.yul\":25361:25375   */\n      add\n        /* \"#utility.yul\":25354:25412   */\n      mstore\n        /* \"#utility.yul\":25446:25449   */\n      0x7200000000000000000000000000000000000000000000000000000000000000\n        /* \"#utility.yul\":25441:25443   */\n      0x20\n        /* \"#utility.yul\":25433:25439   */\n      dup3\n        /* \"#utility.yul\":25429:25444   */\n      add\n        /* \"#utility.yul\":25422:25450   */\n      mstore\n        /* \"#utility.yul\":25237:25457   */\n      pop\n      jump\t// out\n        /* \"#utility.yul\":25463:25711   */\n    tag_436:\n        /* \"#utility.yul\":25603:25637   */\n      0x4552433732313a20617070726f76652063616c6c6572206973206e6f7420746f\n        /* \"#utility.yul\":25599:25600   */\n      0x00\n        /* \"#utility.yul\":25591:25597   */\n      dup3\n        /* \"#utility.yul\":25587:25601   */\n      add\n        /* \"#utility.yul\":25580:25638   */\n      mstore\n        /* \"#utility.yul\":25672:25703   */\n      0x6b656e206f776e6572206f7220617070726f76656420666f7220616c6c000000\n        /* \"#utility.yul\":25667:25669   */\n      0x20\n        /* \"#utility.yul\":25659:25665   */\n      dup3\n        /* \"#utility.yul\":25655:25670   */\n      add\n        /* \"#utility.yul\":25648:25704   */\n      mstore\n        /* \"#utility.yul\":25463:25711   */\n      pop\n      jump\t// out\n        /* \"#utility.yul\":25717:25839   */\n    tag_274:\n        /* \"#utility.yul\":25790:25814   */\n      tag_544\n        /* \"#utility.yul\":25808:25813   */\n      dup2\n        /* \"#utility.yul\":25790:25814   */\n      tag_359\n      jump\t// in\n    tag_544:\n        /* \"#utility.yul\":25783:25788   */\n      dup2\n        /* \"#utility.yul\":25780:25815   */\n      eq\n        /* \"#utility.yul\":25770:25833   */\n      tag_545\n      jumpi\n        /* \"#utility.yul\":25829:25830   */\n      0x00\n        /* \"#utility.yul\":25826:25827   */\n      dup1\n        /* \"#utility.yul\":25819:25831   */\n      revert\n        /* \"#utility.yul\":25770:25833   */\n    tag_545:\n        /* \"#utility.yul\":25717:25839   */\n      pop\n      jump\t// out\n        /* \"#utility.yul\":25845:25961   */\n    tag_278:\n        /* \"#utility.yul\":25915:25936   */\n      tag_547\n        /* \"#utility.yul\":25930:25935   */\n      dup2\n        /* \"#utility.yul\":25915:25936   */\n      tag_363\n      jump\t// in\n    tag_547:\n        /* \"#utility.yul\":25908:25913   */\n      dup2\n        /* \"#utility.yul\":25905:25937   */\n      eq\n        /* \"#utility.yul\":25895:25955   */\n      tag_548\n      jumpi\n        /* \"#utility.yul\":25951:25952   */\n      0x00\n        /* \"#utility.yul\":25948:25949   */\n      dup1\n        /* \"#utility.yul\":25941:25953   */\n      revert\n        /* \"#utility.yul\":25895:25955   */\n    tag_548:\n        /* \"#utility.yul\":25845:25961   */\n      pop\n      jump\t// out\n        /* \"#utility.yul\":25967:26087   */\n    tag_282:\n        /* \"#utility.yul\":26039:26062   */\n      tag_550\n        /* \"#utility.yul\":26056:26061   */\n      dup2\n        /* \"#utility.yul\":26039:26062   */\n      tag_505\n      jump\t// in\n    tag_550:\n        /* \"#utility.yul\":26032:26037   */\n      dup2\n        /* \"#utility.yul\":26029:26063   */\n      eq\n        /* \"#utility.yul\":26019:26081   */\n      tag_551\n      jumpi\n        /* \"#utility.yul\":26077:26078   */\n      0x00\n        /* \"#utility.yul\":26074:26075   */\n      dup1\n        /* \"#utility.yul\":26067:26079   */\n      revert\n        /* \"#utility.yul\":26019:26081   */\n    tag_551:\n        /* \"#utility.yul\":25967:26087   */\n      pop\n      jump\t// out\n        /* \"#utility.yul\":26093:26215   */\n    tag_300:\n        /* \"#utility.yul\":26166:26190   */\n      tag_553\n        /* \"#utility.yul\":26184:26189   */\n      dup2\n        /* \"#utility.yul\":26166:26190   */\n      tag_440\n      jump\t// in\n    tag_553:\n        /* \"#utility.yul\":26159:26164   */\n      dup2\n        /* \"#utility.yul\":26156:26191   */\n      eq\n        /* \"#utility.yul\":26146:26209   */\n      tag_554\n      jumpi\n        /* \"#utility.yul\":26205:26206   */\n      0x00\n        /* \"#utility.yul\":26202:26203   */\n      dup1\n        /* \"#utility.yul\":26195:26207   */\n      revert\n        /* \"#utility.yul\":26146:26209   */\n    tag_554:\n        /* \"#utility.yul\":26093:26215   */\n      pop\n      jump\t// out\n\n    auxdata: 0xa2646970667358221220d3d38f2b30406ce5ff07571414873c6ce250dd66fa7b9d6be0db62f02479e22164736f6c63430008070033\n}\n",
				"bytecode": {
					"linkReferences": {},
					"object": "60806040523480156200001157600080fd5b506040518060400160405280600b81526020017f556e69712e6f6e2d4e46540000000000000000000000000000000000000000008152506040518060400160405280600481526020017f554e465400000000000000000000000000000000000000000000000000000000815250816000908051906020019062000096929190620000c0565b508060019080519060200190620000af929190620000c0565b5050506000600681905550620001d5565b828054620000ce9062000170565b90600052602060002090601f016020900481019282620000f257600085556200013e565b82601f106200010d57805160ff19168380011785556200013e565b828001600101855582156200013e579182015b828111156200013d57825182559160200191906001019062000120565b5b5090506200014d919062000151565b5090565b5b808211156200016c57600081600090555060010162000152565b5090565b600060028204905060018216806200018957607f821691505b60208210811415620001a0576200019f620001a6565b5b50919050565b7f4e487b7100000000000000000000000000000000000000000000000000000000600052602260045260246000fd5b6123c480620001e56000396000f3fe608060405234801561001057600080fd5b50600436106100f55760003560e01c806370a0823111610097578063a22cb46511610066578063a22cb46514610298578063b88d4fde146102b4578063c87b56dd146102d0578063e985e9c514610300576100f5565b806370a08231146101fc57806395d89b411461022c5780639fa6a6e31461024a578063a15ab08d14610268576100f5565b8063095ea7b3116100d3578063095ea7b31461017857806323b872dd1461019457806342842e0e146101b05780636352211e146101cc576100f5565b806301ffc9a7146100fa57806306fdde031461012a578063081812fc14610148575b600080fd5b610114600480360381019061010f91906118bf565b610330565b6040516101219190611bcd565b60405180910390f35b610132610412565b60405161013f9190611be8565b60405180910390f35b610162600480360381019061015d9190611919565b6104a4565b60405161016f9190611b66565b60405180910390f35b610192600480360381019061018d919061187f565b6104ea565b005b6101ae60048036038101906101a9919061170d565b610602565b005b6101ca60048036038101906101c5919061170d565b610662565b005b6101e660048036038101906101e19190611919565b610682565b6040516101f39190611b66565b60405180910390f35b610216600480360381019061021191906116a0565b610709565b6040516102239190611d6a565b60405180910390f35b6102346107c1565b6040516102419190611be8565b60405180910390f35b610252610853565b60405161025f9190611d6a565b60405180910390f35b610282600480360381019061027d9190611823565b61085d565b60405161028f9190611d6a565b60405180910390f35b6102b260048036038101906102ad91906117e3565b610890565b005b6102ce60048036038101906102c99190611760565b6108a6565b005b6102ea60048036038101906102e59190611919565b610908565b6040516102f79190611be8565b60405180910390f35b61031a600480360381019061031591906116cd565b6109ad565b6040516103279190611bcd565b60405180910390f35b60007f80ac58cd000000000000000000000000000000000000000000000000000000007bffffffffffffffffffffffffffffffffffffffffffffffffffffffff1916827bffffffffffffffffffffffffffffffffffffffffffffffffffffffff191614806103fb57507f5b5e139f000000000000000000000000000000000000000000000000000000007bffffffffffffffffffffffffffffffffffffffffffffffffffffffff1916827bffffffffffffffffffffffffffffffffffffffffffffffffffffffff1916145b8061040b575061040a82610a41565b5b9050919050565b60606000805461042190611f50565b80601f016020809104026020016040519081016040528092919081815260200182805461044d90611f50565b801561049a5780601f1061046f5761010080835404028352916020019161049a565b820191906000526020600020905b81548152906001019060200180831161047d57829003601f168201915b5050505050905090565b60006104af82610aab565b6004600083815260200190815260200160002060009054906101000a900473ffffffffffffffffffffffffffffffffffffffff169050919050565b60006104f582610682565b90508073ffffffffffffffffffffffffffffffffffffffff168373ffffffffffffffffffffffffffffffffffffffff161415610566576040517f08c379a000000000000000000000000000000000000000000000000000000000815260040161055d90611d2a565b60405180910390fd5b8073ffffffffffffffffffffffffffffffffffffffff16610585610af6565b73ffffffffffffffffffffffffffffffffffffffff1614806105b457506105b3816105ae610af6565b6109ad565b5b6105f3576040517f08c379a00000000000000000000000000000000000000000000000000000000081526004016105ea90611d4a565b60405180910390fd5b6105fd8383610afe565b505050565b61061361060d610af6565b82610bb7565b610652576040517f08c379a000000000000000000000000000000000000000000000000000000000815260040161064990611c0a565b60405180910390fd5b61065d838383610c4c565b505050565b61067d838383604051806020016040528060008152506108a6565b505050565b60008061068e83610f42565b9050600073ffffffffffffffffffffffffffffffffffffffff168173ffffffffffffffffffffffffffffffffffffffff161415610700576040517f08c379a00000000000000000000000000000000000000000000000000000000081526004016106f790611d0a565b60405180910390fd5b80915050919050565b60008073ffffffffffffffffffffffffffffffffffffffff168273ffffffffffffffffffffffffffffffffffffffff16141561077a576040517f08c379a000000000000000000000000000000000000000000000000000000000815260040161077190611cca565b60405180910390fd5b600360008373ffffffffffffffffffffffffffffffffffffffff1673ffffffffffffffffffffffffffffffffffffffff168152602001908152602001600020549050919050565b6060600180546107d090611f50565b80601f01602080910402602001604051908101604052809291908181526020018280546107fc90611f50565b80156108495780601f1061081e57610100808354040283529160200191610849565b820191906000526020600020905b81548152906001019060200180831161082c57829003601f168201915b5050505050905090565b6000600654905090565b600080600161086a610853565b6108749190611e44565b90508060068190555061088984600654610f7f565b5092915050565b6108a261089b610af6565b8383611199565b5050565b6108b76108b1610af6565b83610bb7565b6108f6576040517f08c379a00000000000000000000000000000000000000000000000000000000081526004016108ed90611c0a565b60405180910390fd5b61090284848484611306565b50505050565b606060076000838152602001908152602001600020805461092890611f50565b80601f016020809104026020016040519081016040528092919081815260200182805461095490611f50565b80156109a15780601f10610976576101008083540402835291602001916109a1565b820191906000526020600020905b81548152906001019060200180831161098457829003601f168201915b50505050509050919050565b6000600560008473ffffffffffffffffffffffffffffffffffffffff1673ffffffffffffffffffffffffffffffffffffffff16815260200190815260200160002060008373ffffffffffffffffffffffffffffffffffffffff1673ffffffffffffffffffffffffffffffffffffffff16815260200190815260200160002060009054906101000a900460ff16905092915050565b60007f01ffc9a7000000000000000000000000000000000000000000000000000000007bffffffffffffffffffffffffffffffffffffffffffffffffffffffff1916827bffffffffffffffffffffffffffffffffffffffffffffffffffffffff1916149050919050565b610ab481611362565b610af3576040517f08c379a0000000000000000000000000000000000000000000000000000000008152600401610aea90611d0a565b60405180910390fd5b50565b600033905090565b816004600083815260200190815260200160002060006101000a81548173ffffffffffffffffffffffffffffffffffffffff021916908373ffffffffffffffffffffffffffffffffffffffff160217905550808273ffffffffffffffffffffffffffffffffffffffff16610b7183610682565b73ffffffffffffffffffffffffffffffffffffffff167f8c5be1e5ebec7d5bd14f71427d1e84f3dd0314c0f7b2291e5b200ac8c7c3b92560405160405180910390a45050565b600080610bc383610682565b90508073ffffffffffffffffffffffffffffffffffffffff168473ffffffffffffffffffffffffffffffffffffffff161480610c055750610c0481856109ad565b5b80610c4357508373ffffffffffffffffffffffffffffffffffffffff16610c2b846104a4565b73ffffffffffffffffffffffffffffffffffffffff16145b91505092915050565b8273ffffffffffffffffffffffffffffffffffffffff16610c6c82610682565b73ffffffffffffffffffffffffffffffffffffffff1614610cc2576040517f08c379a0000000000000000000000000000000000000000000000000000000008152600401610cb990611c4a565b60405180910390fd5b600073ffffffffffffffffffffffffffffffffffffffff168273ffffffffffffffffffffffffffffffffffffffff161415610d32576040517f08c379a0000000000000000000000000000000000000000000000000000000008152600401610d2990611c8a565b60405180910390fd5b610d3d8383836113a3565b8273ffffffffffffffffffffffffffffffffffffffff16610d5d82610682565b73ffffffffffffffffffffffffffffffffffffffff1614610db3576040517f08c379a0000000000000000000000000000000000000000000000000000000008152600401610daa90611c4a565b60405180910390fd5b6004600082815260200190815260200160002060006101000a81549073ffffffffffffffffffffffffffffffffffffffff02191690556001600360008573ffffffffffffffffffffffffffffffffffffffff1673ffffffffffffffffffffffffffffffffffffffff168152602001908152602001600020600082825403925050819055506001600360008473ffffffffffffffffffffffffffffffffffffffff1673ffffffffffffffffffffffffffffffffffffffff16815260200190815260200160002060008282540192505081905550816002600083815260200190815260200160002060006101000a81548173ffffffffffffffffffffffffffffffffffffffff021916908373ffffffffffffffffffffffffffffffffffffffff160217905550808273ffffffffffffffffffffffffffffffffffffffff168473ffffffffffffffffffffffffffffffffffffffff167fddf252ad1be2c89b69c2b068fc378daa952ba7f163c4a11628f55a4df523b3ef60405160405180910390a4610f3d8383836113a8565b505050565b60006002600083815260200190815260200160002060009054906101000a900473ffffffffffffffffffffffffffffffffffffffff169050919050565b600073ffffffffffffffffffffffffffffffffffffffff168273ffffffffffffffffffffffffffffffffffffffff161415610fef576040517f08c379a0000000000000000000000000000000000000000000000000000000008152600401610fe690611cea565b60405180910390fd5b610ff881611362565b15611038576040517f08c379a000000000000000000000000000000000000000000000000000000000815260040161102f90611c6a565b60405180910390fd5b611044600083836113a3565b61104d81611362565b1561108d576040517f08c379a000000000000000000000000000000000000000000000000000000000815260040161108490611c6a565b60405180910390fd5b6001600360008473ffffffffffffffffffffffffffffffffffffffff1673ffffffffffffffffffffffffffffffffffffffff16815260200190815260200160002060008282540192505081905550816002600083815260200190815260200160002060006101000a81548173ffffffffffffffffffffffffffffffffffffffff021916908373ffffffffffffffffffffffffffffffffffffffff160217905550808273ffffffffffffffffffffffffffffffffffffffff16600073ffffffffffffffffffffffffffffffffffffffff167fddf252ad1be2c89b69c2b068fc378daa952ba7f163c4a11628f55a4df523b3ef60405160405180910390a4611195600083836113a8565b5050565b8173ffffffffffffffffffffffffffffffffffffffff168373ffffffffffffffffffffffffffffffffffffffff161415611208576040517f08c379a00000000000000000000000000000000000000000000000000000000081526004016111ff90611caa565b60405180910390fd5b80600560008573ffffffffffffffffffffffffffffffffffffffff1673ffffffffffffffffffffffffffffffffffffffff16815260200190815260200160002060008473ffffffffffffffffffffffffffffffffffffffff1673ffffffffffffffffffffffffffffffffffffffff16815260200190815260200160002060006101000a81548160ff0219169083151502179055508173ffffffffffffffffffffffffffffffffffffffff168373ffffffffffffffffffffffffffffffffffffffff167f17307eab39ab6107e8899845ad3d59bd9653f200f220920489ca2b5937696c31836040516112f99190611bcd565b60405180910390a3505050565b611311848484610c4c565b61131d848484846113ad565b61135c576040517f08c379a000000000000000000000000000000000000000000000000000000000815260040161135390611c2a565b60405180910390fd5b50505050565b60008073ffffffffffffffffffffffffffffffffffffffff1661138483610f42565b73ffffffffffffffffffffffffffffffffffffffff1614159050919050565b505050565b505050565b60006113ce8473ffffffffffffffffffffffffffffffffffffffff16611544565b15611537578373ffffffffffffffffffffffffffffffffffffffff1663150b7a026113f7610af6565b8786866040518563ffffffff1660e01b81526004016114199493929190611b81565b602060405180830381600087803b15801561143357600080fd5b505af192505050801561146457506040513d601f19601f8201168201806040525081019061146191906118ec565b60015b6114e7573d8060008114611494576040519150601f19603f3d011682016040523d82523d6000602084013e611499565b606091505b506000815114156114df576040517f08c379a00000000000000000000000000000000000000000000000000000000081526004016114d690611c2a565b60405180910390fd5b805181602001fd5b63150b7a0260e01b7bffffffffffffffffffffffffffffffffffffffffffffffffffffffff1916817bffffffffffffffffffffffffffffffffffffffffffffffffffffffff19161491505061153c565b600190505b949350505050565b600080823b905060008111915050919050565b600061156a61156584611daa565b611d85565b90508281526020810184848401111561158657611585612045565b5b611591848285611f0e565b509392505050565b60006115ac6115a784611ddb565b611d85565b9050828152602081018484840111156115c8576115c7612045565b5b6115d3848285611f0e565b509392505050565b6000813590506115ea81612332565b92915050565b6000813590506115ff81612349565b92915050565b60008135905061161481612360565b92915050565b60008151905061162981612360565b92915050565b600082601f83011261164457611643612040565b5b8135611654848260208601611557565b91505092915050565b600082601f83011261167257611671612040565b5b8135611682848260208601611599565b91505092915050565b60008135905061169a81612377565b92915050565b6000602082840312156116b6576116b561204f565b5b60006116c4848285016115db565b91505092915050565b600080604083850312156116e4576116e361204f565b5b60006116f2858286016115db565b9250506020611703858286016115db565b9150509250929050565b6000806000606084860312156117265761172561204f565b5b6000611734868287016115db565b9350506020611745868287016115db565b92505060406117568682870161168b565b9150509250925092565b6000806000806080858703121561177a5761177961204f565b5b6000611788878288016115db565b9450506020611799878288016115db565b93505060406117aa8782880161168b565b925050606085013567ffffffffffffffff8111156117cb576117ca61204a565b5b6117d78782880161162f565b91505092959194509250565b600080604083850312156117fa576117f961204f565b5b6000611808858286016115db565b9250506020611819858286016115f0565b9150509250929050565b6000806040838503121561183a5761183961204f565b5b6000611848858286016115db565b925050602083013567ffffffffffffffff8111156118695761186861204a565b5b6118758582860161165d565b9150509250929050565b600080604083850312156118965761189561204f565b5b60006118a4858286016115db565b92505060206118b58582860161168b565b9150509250929050565b6000602082840312156118d5576118d461204f565b5b60006118e384828501611605565b91505092915050565b6000602082840312156119025761190161204f565b5b60006119108482850161161a565b91505092915050565b60006020828403121561192f5761192e61204f565b5b600061193d8482850161168b565b91505092915050565b61194f81611e9a565b82525050565b61195e81611eac565b82525050565b600061196f82611e0c565b6119798185611e22565b9350611989818560208601611f1d565b61199281612054565b840191505092915050565b60006119a882611e17565b6119b28185611e33565b93506119c2818560208601611f1d565b6119cb81612054565b840191505092915050565b60006119e3602d83611e33565b91506119ee82612065565b604082019050919050565b6000611a06603283611e33565b9150611a11826120b4565b604082019050919050565b6000611a29602583611e33565b9150611a3482612103565b604082019050919050565b6000611a4c601c83611e33565b9150611a5782612152565b602082019050919050565b6000611a6f602483611e33565b9150611a7a8261217b565b604082019050919050565b6000611a92601983611e33565b9150611a9d826121ca565b602082019050919050565b6000611ab5602983611e33565b9150611ac0826121f3565b604082019050919050565b6000611ad8602083611e33565b9150611ae382612242565b602082019050919050565b6000611afb601883611e33565b9150611b068261226b565b602082019050919050565b6000611b1e602183611e33565b9150611b2982612294565b604082019050919050565b6000611b41603d83611e33565b9150611b4c826122e3565b604082019050919050565b611b6081611f04565b82525050565b6000602082019050611b7b6000830184611946565b92915050565b6000608082019050611b966000830187611946565b611ba36020830186611946565b611bb06040830185611b57565b8181036060830152611bc28184611964565b905095945050505050565b6000602082019050611be26000830184611955565b92915050565b60006020820190508181036000830152611c02818461199d565b905092915050565b60006020820190508181036000830152611c23816119d6565b9050919050565b60006020820190508181036000830152611c43816119f9565b9050919050565b60006020820190508181036000830152611c6381611a1c565b9050919050565b60006020820190508181036000830152611c8381611a3f565b9050919050565b60006020820190508181036000830152611ca381611a62565b9050919050565b60006020820190508181036000830152611cc381611a85565b9050919050565b60006020820190508181036000830152611ce381611aa8565b9050919050565b60006020820190508181036000830152611d0381611acb565b9050919050565b60006020820190508181036000830152611d2381611aee565b9050919050565b60006020820190508181036000830152611d4381611b11565b9050919050565b60006020820190508181036000830152611d6381611b34565b9050919050565b6000602082019050611d7f6000830184611b57565b92915050565b6000611d8f611da0565b9050611d9b8282611f82565b919050565b6000604051905090565b600067ffffffffffffffff821115611dc557611dc4612011565b5b611dce82612054565b9050602081019050919050565b600067ffffffffffffffff821115611df657611df5612011565b5b611dff82612054565b9050602081019050919050565b600081519050919050565b600081519050919050565b600082825260208201905092915050565b600082825260208201905092915050565b6000611e4f82611f04565b9150611e5a83611f04565b9250827fffffffffffffffffffffffffffffffffffffffffffffffffffffffffffffffff03821115611e8f57611e8e611fb3565b5b828201905092915050565b6000611ea582611ee4565b9050919050565b60008115159050919050565b60007fffffffff0000000000000000000000000000000000000000000000000000000082169050919050565b600073ffffffffffffffffffffffffffffffffffffffff82169050919050565b6000819050919050565b82818337600083830152505050565b60005b83811015611f3b578082015181840152602081019050611f20565b83811115611f4a576000848401525b50505050565b60006002820490506001821680611f6857607f821691505b60208210811415611f7c57611f7b611fe2565b5b50919050565b611f8b82612054565b810181811067ffffffffffffffff82111715611faa57611fa9612011565b5b80604052505050565b7f4e487b7100000000000000000000000000000000000000000000000000000000600052601160045260246000fd5b7f4e487b7100000000000000000000000000000000000000000000000000000000600052602260045260246000fd5b7f4e487b7100000000000000000000000000000000000000000000000000000000600052604160045260246000fd5b600080fd5b600080fd5b600080fd5b600080fd5b6000601f19601f8301169050919050565b7f4552433732313a2063616c6c6572206973206e6f7420746f6b656e206f776e6560008201527f72206f7220617070726f76656400000000000000000000000000000000000000602082015250565b7f4552433732313a207472616e7366657220746f206e6f6e20455243373231526560008201527f63656976657220696d706c656d656e7465720000000000000000000000000000602082015250565b7f4552433732313a207472616e736665722066726f6d20696e636f72726563742060008201527f6f776e6572000000000000000000000000000000000000000000000000000000602082015250565b7f4552433732313a20746f6b656e20616c7265616479206d696e74656400000000600082015250565b7f4552433732313a207472616e7366657220746f20746865207a65726f2061646460008201527f7265737300000000000000000000000000000000000000000000000000000000602082015250565b7f4552433732313a20617070726f766520746f2063616c6c657200000000000000600082015250565b7f4552433732313a2061646472657373207a65726f206973206e6f74206120766160008201527f6c6964206f776e65720000000000000000000000000000000000000000000000602082015250565b7f4552433732313a206d696e7420746f20746865207a65726f2061646472657373600082015250565b7f4552433732313a20696e76616c696420746f6b656e2049440000000000000000600082015250565b7f4552433732313a20617070726f76616c20746f2063757272656e74206f776e6560008201527f7200000000000000000000000000000000000000000000000000000000000000602082015250565b7f4552433732313a20617070726f76652063616c6c6572206973206e6f7420746f60008201527f6b656e206f776e6572206f7220617070726f76656420666f7220616c6c000000602082015250565b61233b81611e9a565b811461234657600080fd5b50565b61235281611eac565b811461235d57600080fd5b50565b61236981611eb8565b811461237457600080fd5b50565b61238081611f04565b811461238b57600080fd5b5056fea2646970667358221220d3d38f2b30406ce5ff07571414873c6ce250dd66fa7b9d6be0db62f02479e22164736f6c63430008070033",
					"opcodes": "PUSH1 0x80 PUSH1 0x40 MSTORE CALLVALUE DUP1 ISZERO PUSH3 0x11 JUMPI PUSH1 0x0 DUP1 REVERT JUMPDEST POP PUSH1 0x40 MLOAD DUP1 PUSH1 0x40 ADD PUSH1 0x40 MSTORE DUP1 PUSH1 0xB DUP2 MSTORE PUSH1 0x20 ADD PUSH32 0x556E69712E6F6E2D4E4654000000000000000000000000000000000000000000 DUP2 MSTORE POP PUSH1 0x40 MLOAD DUP1 PUSH1 0x40 ADD PUSH1 0x40 MSTORE DUP1 PUSH1 0x4 DUP2 MSTORE PUSH1 0x20 ADD PUSH32 0x554E465400000000000000000000000000000000000000000000000000000000 DUP2 MSTORE POP DUP2 PUSH1 0x0 SWAP1 DUP1 MLOAD SWAP1 PUSH1 0x20 ADD SWAP1 PUSH3 0x96 SWAP3 SWAP2 SWAP1 PUSH3 0xC0 JUMP JUMPDEST POP DUP1 PUSH1 0x1 SWAP1 DUP1 MLOAD SWAP1 PUSH1 0x20 ADD SWAP1 PUSH3 0xAF SWAP3 SWAP2 SWAP1 PUSH3 0xC0 JUMP JUMPDEST POP POP POP PUSH1 0x0 PUSH1 0x6 DUP2 SWAP1 SSTORE POP PUSH3 0x1D5 JUMP JUMPDEST DUP3 DUP1 SLOAD PUSH3 0xCE SWAP1 PUSH3 0x170 JUMP JUMPDEST SWAP1 PUSH1 0x0 MSTORE PUSH1 0x20 PUSH1 0x0 KECCAK256 SWAP1 PUSH1 0x1F ADD PUSH1 0x20 SWAP1 DIV DUP2 ADD SWAP3 DUP3 PUSH3 0xF2 JUMPI PUSH1 0x0 DUP6 SSTORE PUSH3 0x13E JUMP JUMPDEST DUP3 PUSH1 0x1F LT PUSH3 0x10D JUMPI DUP1 MLOAD PUSH1 0xFF NOT AND DUP4 DUP1 ADD OR DUP6 SSTORE PUSH3 0x13E JUMP JUMPDEST DUP3 DUP1 ADD PUSH1 0x1 ADD DUP6 SSTORE DUP3 ISZERO PUSH3 0x13E JUMPI SWAP2 DUP3 ADD JUMPDEST DUP3 DUP2 GT ISZERO PUSH3 0x13D JUMPI DUP3 MLOAD DUP3 SSTORE SWAP2 PUSH1 0x20 ADD SWAP2 SWAP1 PUSH1 0x1 ADD SWAP1 PUSH3 0x120 JUMP JUMPDEST JUMPDEST POP SWAP1 POP PUSH3 0x14D SWAP2 SWAP1 PUSH3 0x151 JUMP JUMPDEST POP SWAP1 JUMP JUMPDEST JUMPDEST DUP1 DUP3 GT ISZERO PUSH3 0x16C JUMPI PUSH1 0x0 DUP2 PUSH1 0x0 SWAP1 SSTORE POP PUSH1 0x1 ADD PUSH3 0x152 JUMP JUMPDEST POP SWAP1 JUMP JUMPDEST PUSH1 0x0 PUSH1 0x2 DUP3 DIV SWAP1 POP PUSH1 0x1 DUP3 AND DUP1 PUSH3 0x189 JUMPI PUSH1 0x7F DUP3 AND SWAP2 POP JUMPDEST PUSH1 0x20 DUP3 LT DUP2 EQ ISZERO PUSH3 0x1A0 JUMPI PUSH3 0x19F PUSH3 0x1A6 JUMP JUMPDEST JUMPDEST POP SWAP2 SWAP1 POP JUMP JUMPDEST PUSH32 0x4E487B7100000000000000000000000000000000000000000000000000000000 PUSH1 0x0 MSTORE PUSH1 0x22 PUSH1 0x4 MSTORE PUSH1 0x24 PUSH1 0x0 REVERT JUMPDEST PUSH2 0x23C4 DUP1 PUSH3 0x1E5 PUSH1 0x0 CODECOPY PUSH1 0x0 RETURN INVALID PUSH1 0x80 PUSH1 0x40 MSTORE CALLVALUE DUP1 ISZERO PUSH2 0x10 JUMPI PUSH1 0x0 DUP1 REVERT JUMPDEST POP PUSH1 0x4 CALLDATASIZE LT PUSH2 0xF5 JUMPI PUSH1 0x0 CALLDATALOAD PUSH1 0xE0 SHR DUP1 PUSH4 0x70A08231 GT PUSH2 0x97 JUMPI DUP1 PUSH4 0xA22CB465 GT PUSH2 0x66 JUMPI DUP1 PUSH4 0xA22CB465 EQ PUSH2 0x298 JUMPI DUP1 PUSH4 0xB88D4FDE EQ PUSH2 0x2B4 JUMPI DUP1 PUSH4 0xC87B56DD EQ PUSH2 0x2D0 JUMPI DUP1 PUSH4 0xE985E9C5 EQ PUSH2 0x300 JUMPI PUSH2 0xF5 JUMP JUMPDEST DUP1 PUSH4 0x70A08231 EQ PUSH2 0x1FC JUMPI DUP1 PUSH4 0x95D89B41 EQ PUSH2 0x22C JUMPI DUP1 PUSH4 0x9FA6A6E3 EQ PUSH2 0x24A JUMPI DUP1 PUSH4 0xA15AB08D EQ PUSH2 0x268 JUMPI PUSH2 0xF5 JUMP JUMPDEST DUP1 PUSH4 0x95EA7B3 GT PUSH2 0xD3 JUMPI DUP1 PUSH4 0x95EA7B3 EQ PUSH2 0x178 JUMPI DUP1 PUSH4 0x23B872DD EQ PUSH2 0x194 JUMPI DUP1 PUSH4 0x42842E0E EQ PUSH2 0x1B0 JUMPI DUP1 PUSH4 0x6352211E EQ PUSH2 0x1CC JUMPI PUSH2 0xF5 JUMP JUMPDEST DUP1 PUSH4 0x1FFC9A7 EQ PUSH2 0xFA JUMPI DUP1 PUSH4 0x6FDDE03 EQ PUSH2 0x12A JUMPI DUP1 PUSH4 0x81812FC EQ PUSH2 0x148 JUMPI JUMPDEST PUSH1 0x0 DUP1 REVERT JUMPDEST PUSH2 0x114 PUSH1 0x4 DUP1 CALLDATASIZE SUB DUP2 ADD SWAP1 PUSH2 0x10F SWAP2 SWAP1 PUSH2 0x18BF JUMP JUMPDEST PUSH2 0x330 JUMP JUMPDEST PUSH1 0x40 MLOAD PUSH2 0x121 SWAP2 SWAP1 PUSH2 0x1BCD JUMP JUMPDEST PUSH1 0x40 MLOAD DUP1 SWAP2 SUB SWAP1 RETURN JUMPDEST PUSH2 0x132 PUSH2 0x412 JUMP JUMPDEST PUSH1 0x40 MLOAD PUSH2 0x13F SWAP2 SWAP1 PUSH2 0x1BE8 JUMP JUMPDEST PUSH1 0x40 MLOAD DUP1 SWAP2 SUB SWAP1 RETURN JUMPDEST PUSH2 0x162 PUSH1 0x4 DUP1 CALLDATASIZE SUB DUP2 ADD SWAP1 PUSH2 0x15D SWAP2 SWAP1 PUSH2 0x1919 JUMP JUMPDEST PUSH2 0x4A4 JUMP JUMPDEST PUSH1 0x40 MLOAD PUSH2 0x16F SWAP2 SWAP1 PUSH2 0x1B66 JUMP JUMPDEST PUSH1 0x40 MLOAD DUP1 SWAP2 SUB SWAP1 RETURN JUMPDEST PUSH2 0x192 PUSH1 0x4 DUP1 CALLDATASIZE SUB DUP2 ADD SWAP1 PUSH2 0x18D SWAP2 SWAP1 PUSH2 0x187F JUMP JUMPDEST PUSH2 0x4EA JUMP JUMPDEST STOP JUMPDEST PUSH2 0x1AE PUSH1 0x4 DUP1 CALLDATASIZE SUB DUP2 ADD SWAP1 PUSH2 0x1A9 SWAP2 SWAP1 PUSH2 0x170D JUMP JUMPDEST PUSH2 0x602 JUMP JUMPDEST STOP JUMPDEST PUSH2 0x1CA PUSH1 0x4 DUP1 CALLDATASIZE SUB DUP2 ADD SWAP1 PUSH2 0x1C5 SWAP2 SWAP1 PUSH2 0x170D JUMP JUMPDEST PUSH2 0x662 JUMP JUMPDEST STOP JUMPDEST PUSH2 0x1E6 PUSH1 0x4 DUP1 CALLDATASIZE SUB DUP2 ADD SWAP1 PUSH2 0x1E1 SWAP2 SWAP1 PUSH2 0x1919 JUMP JUMPDEST PUSH2 0x682 JUMP JUMPDEST PUSH1 0x40 MLOAD PUSH2 0x1F3 SWAP2 SWAP1 PUSH2 0x1B66 JUMP JUMPDEST PUSH1 0x40 MLOAD DUP1 SWAP2 SUB SWAP1 RETURN JUMPDEST PUSH2 0x216 PUSH1 0x4 DUP1 CALLDATASIZE SUB DUP2 ADD SWAP1 PUSH2 0x211 SWAP2 SWAP1 PUSH2 0x16A0 JUMP JUMPDEST PUSH2 0x709 JUMP JUMPDEST PUSH1 0x40 MLOAD PUSH2 0x223 SWAP2 SWAP1 PUSH2 0x1D6A JUMP JUMPDEST PUSH1 0x40 MLOAD DUP1 SWAP2 SUB SWAP1 RETURN JUMPDEST PUSH2 0x234 PUSH2 0x7C1 JUMP JUMPDEST PUSH1 0x40 MLOAD PUSH2 0x241 SWAP2 SWAP1 PUSH2 0x1BE8 JUMP JUMPDEST PUSH1 0x40 MLOAD DUP1 SWAP2 SUB SWAP1 RETURN JUMPDEST PUSH2 0x252 PUSH2 0x853 JUMP JUMPDEST PUSH1 0x40 MLOAD PUSH2 0x25F SWAP2 SWAP1 PUSH2 0x1D6A JUMP JUMPDEST PUSH1 0x40 MLOAD DUP1 SWAP2 SUB SWAP1 RETURN JUMPDEST PUSH2 0x282 PUSH1 0x4 DUP1 CALLDATASIZE SUB DUP2 ADD SWAP1 PUSH2 0x27D SWAP2 SWAP1 PUSH2 0x1823 JUMP JUMPDEST PUSH2 0x85D JUMP JUMPDEST PUSH1 0x40 MLOAD PUSH2 0x28F SWAP2 SWAP1 PUSH2 0x1D6A JUMP JUMPDEST PUSH1 0x40 MLOAD DUP1 SWAP2 SUB SWAP1 RETURN JUMPDEST PUSH2 0x2B2 PUSH1 0x4 DUP1 CALLDATASIZE SUB DUP2 ADD SWAP1 PUSH2 0x2AD SWAP2 SWAP1 PUSH2 0x17E3 JUMP JUMPDEST PUSH2 0x890 JUMP JUMPDEST STOP JUMPDEST PUSH2 0x2CE PUSH1 0x4 DUP1 CALLDATASIZE SUB DUP2 ADD SWAP1 PUSH2 0x2C9 SWAP2 SWAP1 PUSH2 0x1760 JUMP JUMPDEST PUSH2 0x8A6 JUMP JUMPDEST STOP JUMPDEST PUSH2 0x2EA PUSH1 0x4 DUP1 CALLDATASIZE SUB DUP2 ADD SWAP1 PUSH2 0x2E5 SWAP2 SWAP1 PUSH2 0x1919 JUMP JUMPDEST PUSH2 0x908 JUMP JUMPDEST PUSH1 0x40 MLOAD PUSH2 0x2F7 SWAP2 SWAP1 PUSH2 0x1BE8 JUMP JUMPDEST PUSH1 0x40 MLOAD DUP1 SWAP2 SUB SWAP1 RETURN JUMPDEST PUSH2 0x31A PUSH1 0x4 DUP1 CALLDATASIZE SUB DUP2 ADD SWAP1 PUSH2 0x315 SWAP2 SWAP1 PUSH2 0x16CD JUMP JUMPDEST PUSH2 0x9AD JUMP JUMPDEST PUSH1 0x40 MLOAD PUSH2 0x327 SWAP2 SWAP1 PUSH2 0x1BCD JUMP JUMPDEST PUSH1 0x40 MLOAD DUP1 SWAP2 SUB SWAP1 RETURN JUMPDEST PUSH1 0x0 PUSH32 0x80AC58CD00000000000000000000000000000000000000000000000000000000 PUSH28 0xFFFFFFFFFFFFFFFFFFFFFFFFFFFFFFFFFFFFFFFFFFFFFFFFFFFFFFFF NOT AND DUP3 PUSH28 0xFFFFFFFFFFFFFFFFFFFFFFFFFFFFFFFFFFFFFFFFFFFFFFFFFFFFFFFF NOT AND EQ DUP1 PUSH2 0x3FB JUMPI POP PUSH32 0x5B5E139F00000000000000000000000000000000000000000000000000000000 PUSH28 0xFFFFFFFFFFFFFFFFFFFFFFFFFFFFFFFFFFFFFFFFFFFFFFFFFFFFFFFF NOT AND DUP3 PUSH28 0xFFFFFFFFFFFFFFFFFFFFFFFFFFFFFFFFFFFFFFFFFFFFFFFFFFFFFFFF NOT AND EQ JUMPDEST DUP1 PUSH2 0x40B JUMPI POP PUSH2 0x40A DUP3 PUSH2 0xA41 JUMP JUMPDEST JUMPDEST SWAP1 POP SWAP2 SWAP1 POP JUMP JUMPDEST PUSH1 0x60 PUSH1 0x0 DUP1 SLOAD PUSH2 0x421 SWAP1 PUSH2 0x1F50 JUMP JUMPDEST DUP1 PUSH1 0x1F ADD PUSH1 0x20 DUP1 SWAP2 DIV MUL PUSH1 0x20 ADD PUSH1 0x40 MLOAD SWAP1 DUP2 ADD PUSH1 0x40 MSTORE DUP1 SWAP3 SWAP2 SWAP1 DUP2 DUP2 MSTORE PUSH1 0x20 ADD DUP3 DUP1 SLOAD PUSH2 0x44D SWAP1 PUSH2 0x1F50 JUMP JUMPDEST DUP1 ISZERO PUSH2 0x49A JUMPI DUP1 PUSH1 0x1F LT PUSH2 0x46F JUMPI PUSH2 0x100 DUP1 DUP4 SLOAD DIV MUL DUP4 MSTORE SWAP2 PUSH1 0x20 ADD SWAP2 PUSH2 0x49A JUMP JUMPDEST DUP3 ADD SWAP2 SWAP1 PUSH1 0x0 MSTORE PUSH1 0x20 PUSH1 0x0 KECCAK256 SWAP1 JUMPDEST DUP2 SLOAD DUP2 MSTORE SWAP1 PUSH1 0x1 ADD SWAP1 PUSH1 0x20 ADD DUP1 DUP4 GT PUSH2 0x47D JUMPI DUP3 SWAP1 SUB PUSH1 0x1F AND DUP3 ADD SWAP2 JUMPDEST POP POP POP POP POP SWAP1 POP SWAP1 JUMP JUMPDEST PUSH1 0x0 PUSH2 0x4AF DUP3 PUSH2 0xAAB JUMP JUMPDEST PUSH1 0x4 PUSH1 0x0 DUP4 DUP2 MSTORE PUSH1 0x20 ADD SWAP1 DUP2 MSTORE PUSH1 0x20 ADD PUSH1 0x0 KECCAK256 PUSH1 0x0 SWAP1 SLOAD SWAP1 PUSH2 0x100 EXP SWAP1 DIV PUSH20 0xFFFFFFFFFFFFFFFFFFFFFFFFFFFFFFFFFFFFFFFF AND SWAP1 POP SWAP2 SWAP1 POP JUMP JUMPDEST PUSH1 0x0 PUSH2 0x4F5 DUP3 PUSH2 0x682 JUMP JUMPDEST SWAP1 POP DUP1 PUSH20 0xFFFFFFFFFFFFFFFFFFFFFFFFFFFFFFFFFFFFFFFF AND DUP4 PUSH20 0xFFFFFFFFFFFFFFFFFFFFFFFFFFFFFFFFFFFFFFFF AND EQ ISZERO PUSH2 0x566 JUMPI PUSH1 0x40 MLOAD PUSH32 0x8C379A000000000000000000000000000000000000000000000000000000000 DUP2 MSTORE PUSH1 0x4 ADD PUSH2 0x55D SWAP1 PUSH2 0x1D2A JUMP JUMPDEST PUSH1 0x40 MLOAD DUP1 SWAP2 SUB SWAP1 REVERT JUMPDEST DUP1 PUSH20 0xFFFFFFFFFFFFFFFFFFFFFFFFFFFFFFFFFFFFFFFF AND PUSH2 0x585 PUSH2 0xAF6 JUMP JUMPDEST PUSH20 0xFFFFFFFFFFFFFFFFFFFFFFFFFFFFFFFFFFFFFFFF AND EQ DUP1 PUSH2 0x5B4 JUMPI POP PUSH2 0x5B3 DUP2 PUSH2 0x5AE PUSH2 0xAF6 JUMP JUMPDEST PUSH2 0x9AD JUMP JUMPDEST JUMPDEST PUSH2 0x5F3 JUMPI PUSH1 0x40 MLOAD PUSH32 0x8C379A000000000000000000000000000000000000000000000000000000000 DUP2 MSTORE PUSH1 0x4 ADD PUSH2 0x5EA SWAP1 PUSH2 0x1D4A JUMP JUMPDEST PUSH1 0x40 MLOAD DUP1 SWAP2 SUB SWAP1 REVERT JUMPDEST PUSH2 0x5FD DUP4 DUP4 PUSH2 0xAFE JUMP JUMPDEST POP POP POP JUMP JUMPDEST PUSH2 0x613 PUSH2 0x60D PUSH2 0xAF6 JUMP JUMPDEST DUP3 PUSH2 0xBB7 JUMP JUMPDEST PUSH2 0x652 JUMPI PUSH1 0x40 MLOAD PUSH32 0x8C379A000000000000000000000000000000000000000000000000000000000 DUP2 MSTORE PUSH1 0x4 ADD PUSH2 0x649 SWAP1 PUSH2 0x1C0A JUMP JUMPDEST PUSH1 0x40 MLOAD DUP1 SWAP2 SUB SWAP1 REVERT JUMPDEST PUSH2 0x65D DUP4 DUP4 DUP4 PUSH2 0xC4C JUMP JUMPDEST POP POP POP JUMP JUMPDEST PUSH2 0x67D DUP4 DUP4 DUP4 PUSH1 0x40 MLOAD DUP1 PUSH1 0x20 ADD PUSH1 0x40 MSTORE DUP1 PUSH1 0x0 DUP2 MSTORE POP PUSH2 0x8A6 JUMP JUMPDEST POP POP POP JUMP JUMPDEST PUSH1 0x0 DUP1 PUSH2 0x68E DUP4 PUSH2 0xF42 JUMP JUMPDEST SWAP1 POP PUSH1 0x0 PUSH20 0xFFFFFFFFFFFFFFFFFFFFFFFFFFFFFFFFFFFFFFFF AND DUP2 PUSH20 0xFFFFFFFFFFFFFFFFFFFFFFFFFFFFFFFFFFFFFFFF AND EQ ISZERO PUSH2 0x700 JUMPI PUSH1 0x40 MLOAD PUSH32 0x8C379A000000000000000000000000000000000000000000000000000000000 DUP2 MSTORE PUSH1 0x4 ADD PUSH2 0x6F7 SWAP1 PUSH2 0x1D0A JUMP JUMPDEST PUSH1 0x40 MLOAD DUP1 SWAP2 SUB SWAP1 REVERT JUMPDEST DUP1 SWAP2 POP POP SWAP2 SWAP1 POP JUMP JUMPDEST PUSH1 0x0 DUP1 PUSH20 0xFFFFFFFFFFFFFFFFFFFFFFFFFFFFFFFFFFFFFFFF AND DUP3 PUSH20 0xFFFFFFFFFFFFFFFFFFFFFFFFFFFFFFFFFFFFFFFF AND EQ ISZERO PUSH2 0x77A JUMPI PUSH1 0x40 MLOAD PUSH32 0x8C379A000000000000000000000000000000000000000000000000000000000 DUP2 MSTORE PUSH1 0x4 ADD PUSH2 0x771 SWAP1 PUSH2 0x1CCA JUMP JUMPDEST PUSH1 0x40 MLOAD DUP1 SWAP2 SUB SWAP1 REVERT JUMPDEST PUSH1 0x3 PUSH1 0x0 DUP4 PUSH20 0xFFFFFFFFFFFFFFFFFFFFFFFFFFFFFFFFFFFFFFFF AND PUSH20 0xFFFFFFFFFFFFFFFFFFFFFFFFFFFFFFFFFFFFFFFF AND DUP2 MSTORE PUSH1 0x20 ADD SWAP1 DUP2 MSTORE PUSH1 0x20 ADD PUSH1 0x0 KECCAK256 SLOAD SWAP1 POP SWAP2 SWAP1 POP JUMP JUMPDEST PUSH1 0x60 PUSH1 0x1 DUP1 SLOAD PUSH2 0x7D0 SWAP1 PUSH2 0x1F50 JUMP JUMPDEST DUP1 PUSH1 0x1F ADD PUSH1 0x20 DUP1 SWAP2 DIV MUL PUSH1 0x20 ADD PUSH1 0x40 MLOAD SWAP1 DUP2 ADD PUSH1 0x40 MSTORE DUP1 SWAP3 SWAP2 SWAP1 DUP2 DUP2 MSTORE PUSH1 0x20 ADD DUP3 DUP1 SLOAD PUSH2 0x7FC SWAP1 PUSH2 0x1F50 JUMP JUMPDEST DUP1 ISZERO PUSH2 0x849 JUMPI DUP1 PUSH1 0x1F LT PUSH2 0x81E JUMPI PUSH2 0x100 DUP1 DUP4 SLOAD DIV MUL DUP4 MSTORE SWAP2 PUSH1 0x20 ADD SWAP2 PUSH2 0x849 JUMP JUMPDEST DUP3 ADD SWAP2 SWAP1 PUSH1 0x0 MSTORE PUSH1 0x20 PUSH1 0x0 KECCAK256 SWAP1 JUMPDEST DUP2 SLOAD DUP2 MSTORE SWAP1 PUSH1 0x1 ADD SWAP1 PUSH1 0x20 ADD DUP1 DUP4 GT PUSH2 0x82C JUMPI DUP3 SWAP1 SUB PUSH1 0x1F AND DUP3 ADD SWAP2 JUMPDEST POP POP POP POP POP SWAP1 POP SWAP1 JUMP JUMPDEST PUSH1 0x0 PUSH1 0x6 SLOAD SWAP1 POP SWAP1 JUMP JUMPDEST PUSH1 0x0 DUP1 PUSH1 0x1 PUSH2 0x86A PUSH2 0x853 JUMP JUMPDEST PUSH2 0x874 SWAP2 SWAP1 PUSH2 0x1E44 JUMP JUMPDEST SWAP1 POP DUP1 PUSH1 0x6 DUP2 SWAP1 SSTORE POP PUSH2 0x889 DUP5 PUSH1 0x6 SLOAD PUSH2 0xF7F JUMP JUMPDEST POP SWAP3 SWAP2 POP POP JUMP JUMPDEST PUSH2 0x8A2 PUSH2 0x89B PUSH2 0xAF6 JUMP JUMPDEST DUP4 DUP4 PUSH2 0x1199 JUMP JUMPDEST POP POP JUMP JUMPDEST PUSH2 0x8B7 PUSH2 0x8B1 PUSH2 0xAF6 JUMP JUMPDEST DUP4 PUSH2 0xBB7 JUMP JUMPDEST PUSH2 0x8F6 JUMPI PUSH1 0x40 MLOAD PUSH32 0x8C379A000000000000000000000000000000000000000000000000000000000 DUP2 MSTORE PUSH1 0x4 ADD PUSH2 0x8ED SWAP1 PUSH2 0x1C0A JUMP JUMPDEST PUSH1 0x40 MLOAD DUP1 SWAP2 SUB SWAP1 REVERT JUMPDEST PUSH2 0x902 DUP5 DUP5 DUP5 DUP5 PUSH2 0x1306 JUMP JUMPDEST POP POP POP POP JUMP JUMPDEST PUSH1 0x60 PUSH1 0x7 PUSH1 0x0 DUP4 DUP2 MSTORE PUSH1 0x20 ADD SWAP1 DUP2 MSTORE PUSH1 0x20 ADD PUSH1 0x0 KECCAK256 DUP1 SLOAD PUSH2 0x928 SWAP1 PUSH2 0x1F50 JUMP JUMPDEST DUP1 PUSH1 0x1F ADD PUSH1 0x20 DUP1 SWAP2 DIV MUL PUSH1 0x20 ADD PUSH1 0x40 MLOAD SWAP1 DUP2 ADD PUSH1 0x40 MSTORE DUP1 SWAP3 SWAP2 SWAP1 DUP2 DUP2 MSTORE PUSH1 0x20 ADD DUP3 DUP1 SLOAD PUSH2 0x954 SWAP1 PUSH2 0x1F50 JUMP JUMPDEST DUP1 ISZERO PUSH2 0x9A1 JUMPI DUP1 PUSH1 0x1F LT PUSH2 0x976 JUMPI PUSH2 0x100 DUP1 DUP4 SLOAD DIV MUL DUP4 MSTORE SWAP2 PUSH1 0x20 ADD SWAP2 PUSH2 0x9A1 JUMP JUMPDEST DUP3 ADD SWAP2 SWAP1 PUSH1 0x0 MSTORE PUSH1 0x20 PUSH1 0x0 KECCAK256 SWAP1 JUMPDEST DUP2 SLOAD DUP2 MSTORE SWAP1 PUSH1 0x1 ADD SWAP1 PUSH1 0x20 ADD DUP1 DUP4 GT PUSH2 0x984 JUMPI DUP3 SWAP1 SUB PUSH1 0x1F AND DUP3 ADD SWAP2 JUMPDEST POP POP POP POP POP SWAP1 POP SWAP2 SWAP1 POP JUMP JUMPDEST PUSH1 0x0 PUSH1 0x5 PUSH1 0x0 DUP5 PUSH20 0xFFFFFFFFFFFFFFFFFFFFFFFFFFFFFFFFFFFFFFFF AND PUSH20 0xFFFFFFFFFFFFFFFFFFFFFFFFFFFFFFFFFFFFFFFF AND DUP2 MSTORE PUSH1 0x20 ADD SWAP1 DUP2 MSTORE PUSH1 0x20 ADD PUSH1 0x0 KECCAK256 PUSH1 0x0 DUP4 PUSH20 0xFFFFFFFFFFFFFFFFFFFFFFFFFFFFFFFFFFFFFFFF AND PUSH20 0xFFFFFFFFFFFFFFFFFFFFFFFFFFFFFFFFFFFFFFFF AND DUP2 MSTORE PUSH1 0x20 ADD SWAP1 DUP2 MSTORE PUSH1 0x20 ADD PUSH1 0x0 KECCAK256 PUSH1 0x0 SWAP1 SLOAD SWAP1 PUSH2 0x100 EXP SWAP1 DIV PUSH1 0xFF AND SWAP1 POP SWAP3 SWAP2 POP POP JUMP JUMPDEST PUSH1 0x0 PUSH32 0x1FFC9A700000000000000000000000000000000000000000000000000000000 PUSH28 0xFFFFFFFFFFFFFFFFFFFFFFFFFFFFFFFFFFFFFFFFFFFFFFFFFFFFFFFF NOT AND DUP3 PUSH28 0xFFFFFFFFFFFFFFFFFFFFFFFFFFFFFFFFFFFFFFFFFFFFFFFFFFFFFFFF NOT AND EQ SWAP1 POP SWAP2 SWAP1 POP JUMP JUMPDEST PUSH2 0xAB4 DUP2 PUSH2 0x1362 JUMP JUMPDEST PUSH2 0xAF3 JUMPI PUSH1 0x40 MLOAD PUSH32 0x8C379A000000000000000000000000000000000000000000000000000000000 DUP2 MSTORE PUSH1 0x4 ADD PUSH2 0xAEA SWAP1 PUSH2 0x1D0A JUMP JUMPDEST PUSH1 0x40 MLOAD DUP1 SWAP2 SUB SWAP1 REVERT JUMPDEST POP JUMP JUMPDEST PUSH1 0x0 CALLER SWAP1 POP SWAP1 JUMP JUMPDEST DUP2 PUSH1 0x4 PUSH1 0x0 DUP4 DUP2 MSTORE PUSH1 0x20 ADD SWAP1 DUP2 MSTORE PUSH1 0x20 ADD PUSH1 0x0 KECCAK256 PUSH1 0x0 PUSH2 0x100 EXP DUP2 SLOAD DUP2 PUSH20 0xFFFFFFFFFFFFFFFFFFFFFFFFFFFFFFFFFFFFFFFF MUL NOT AND SWAP1 DUP4 PUSH20 0xFFFFFFFFFFFFFFFFFFFFFFFFFFFFFFFFFFFFFFFF AND MUL OR SWAP1 SSTORE POP DUP1 DUP3 PUSH20 0xFFFFFFFFFFFFFFFFFFFFFFFFFFFFFFFFFFFFFFFF AND PUSH2 0xB71 DUP4 PUSH2 0x682 JUMP JUMPDEST PUSH20 0xFFFFFFFFFFFFFFFFFFFFFFFFFFFFFFFFFFFFFFFF AND PUSH32 0x8C5BE1E5EBEC7D5BD14F71427D1E84F3DD0314C0F7B2291E5B200AC8C7C3B925 PUSH1 0x40 MLOAD PUSH1 0x40 MLOAD DUP1 SWAP2 SUB SWAP1 LOG4 POP POP JUMP JUMPDEST PUSH1 0x0 DUP1 PUSH2 0xBC3 DUP4 PUSH2 0x682 JUMP JUMPDEST SWAP1 POP DUP1 PUSH20 0xFFFFFFFFFFFFFFFFFFFFFFFFFFFFFFFFFFFFFFFF AND DUP5 PUSH20 0xFFFFFFFFFFFFFFFFFFFFFFFFFFFFFFFFFFFFFFFF AND EQ DUP1 PUSH2 0xC05 JUMPI POP PUSH2 0xC04 DUP2 DUP6 PUSH2 0x9AD JUMP JUMPDEST JUMPDEST DUP1 PUSH2 0xC43 JUMPI POP DUP4 PUSH20 0xFFFFFFFFFFFFFFFFFFFFFFFFFFFFFFFFFFFFFFFF AND PUSH2 0xC2B DUP5 PUSH2 0x4A4 JUMP JUMPDEST PUSH20 0xFFFFFFFFFFFFFFFFFFFFFFFFFFFFFFFFFFFFFFFF AND EQ JUMPDEST SWAP2 POP POP SWAP3 SWAP2 POP POP JUMP JUMPDEST DUP3 PUSH20 0xFFFFFFFFFFFFFFFFFFFFFFFFFFFFFFFFFFFFFFFF AND PUSH2 0xC6C DUP3 PUSH2 0x682 JUMP JUMPDEST PUSH20 0xFFFFFFFFFFFFFFFFFFFFFFFFFFFFFFFFFFFFFFFF AND EQ PUSH2 0xCC2 JUMPI PUSH1 0x40 MLOAD PUSH32 0x8C379A000000000000000000000000000000000000000000000000000000000 DUP2 MSTORE PUSH1 0x4 ADD PUSH2 0xCB9 SWAP1 PUSH2 0x1C4A JUMP JUMPDEST PUSH1 0x40 MLOAD DUP1 SWAP2 SUB SWAP1 REVERT JUMPDEST PUSH1 0x0 PUSH20 0xFFFFFFFFFFFFFFFFFFFFFFFFFFFFFFFFFFFFFFFF AND DUP3 PUSH20 0xFFFFFFFFFFFFFFFFFFFFFFFFFFFFFFFFFFFFFFFF AND EQ ISZERO PUSH2 0xD32 JUMPI PUSH1 0x40 MLOAD PUSH32 0x8C379A000000000000000000000000000000000000000000000000000000000 DUP2 MSTORE PUSH1 0x4 ADD PUSH2 0xD29 SWAP1 PUSH2 0x1C8A JUMP JUMPDEST PUSH1 0x40 MLOAD DUP1 SWAP2 SUB SWAP1 REVERT JUMPDEST PUSH2 0xD3D DUP4 DUP4 DUP4 PUSH2 0x13A3 JUMP JUMPDEST DUP3 PUSH20 0xFFFFFFFFFFFFFFFFFFFFFFFFFFFFFFFFFFFFFFFF AND PUSH2 0xD5D DUP3 PUSH2 0x682 JUMP JUMPDEST PUSH20 0xFFFFFFFFFFFFFFFFFFFFFFFFFFFFFFFFFFFFFFFF AND EQ PUSH2 0xDB3 JUMPI PUSH1 0x40 MLOAD PUSH32 0x8C379A000000000000000000000000000000000000000000000000000000000 DUP2 MSTORE PUSH1 0x4 ADD PUSH2 0xDAA SWAP1 PUSH2 0x1C4A JUMP JUMPDEST PUSH1 0x40 MLOAD DUP1 SWAP2 SUB SWAP1 REVERT JUMPDEST PUSH1 0x4 PUSH1 0x0 DUP3 DUP2 MSTORE PUSH1 0x20 ADD SWAP1 DUP2 MSTORE PUSH1 0x20 ADD PUSH1 0x0 KECCAK256 PUSH1 0x0 PUSH2 0x100 EXP DUP2 SLOAD SWAP1 PUSH20 0xFFFFFFFFFFFFFFFFFFFFFFFFFFFFFFFFFFFFFFFF MUL NOT AND SWAP1 SSTORE PUSH1 0x1 PUSH1 0x3 PUSH1 0x0 DUP6 PUSH20 0xFFFFFFFFFFFFFFFFFFFFFFFFFFFFFFFFFFFFFFFF AND PUSH20 0xFFFFFFFFFFFFFFFFFFFFFFFFFFFFFFFFFFFFFFFF AND DUP2 MSTORE PUSH1 0x20 ADD SWAP1 DUP2 MSTORE PUSH1 0x20 ADD PUSH1 0x0 KECCAK256 PUSH1 0x0 DUP3 DUP3 SLOAD SUB SWAP3 POP POP DUP2 SWAP1 SSTORE POP PUSH1 0x1 PUSH1 0x3 PUSH1 0x0 DUP5 PUSH20 0xFFFFFFFFFFFFFFFFFFFFFFFFFFFFFFFFFFFFFFFF AND PUSH20 0xFFFFFFFFFFFFFFFFFFFFFFFFFFFFFFFFFFFFFFFF AND DUP2 MSTORE PUSH1 0x20 ADD SWAP1 DUP2 MSTORE PUSH1 0x20 ADD PUSH1 0x0 KECCAK256 PUSH1 0x0 DUP3 DUP3 SLOAD ADD SWAP3 POP POP DUP2 SWAP1 SSTORE POP DUP2 PUSH1 0x2 PUSH1 0x0 DUP4 DUP2 MSTORE PUSH1 0x20 ADD SWAP1 DUP2 MSTORE PUSH1 0x20 ADD PUSH1 0x0 KECCAK256 PUSH1 0x0 PUSH2 0x100 EXP DUP2 SLOAD DUP2 PUSH20 0xFFFFFFFFFFFFFFFFFFFFFFFFFFFFFFFFFFFFFFFF MUL NOT AND SWAP1 DUP4 PUSH20 0xFFFFFFFFFFFFFFFFFFFFFFFFFFFFFFFFFFFFFFFF AND MUL OR SWAP1 SSTORE POP DUP1 DUP3 PUSH20 0xFFFFFFFFFFFFFFFFFFFFFFFFFFFFFFFFFFFFFFFF AND DUP5 PUSH20 0xFFFFFFFFFFFFFFFFFFFFFFFFFFFFFFFFFFFFFFFF AND PUSH32 0xDDF252AD1BE2C89B69C2B068FC378DAA952BA7F163C4A11628F55A4DF523B3EF PUSH1 0x40 MLOAD PUSH1 0x40 MLOAD DUP1 SWAP2 SUB SWAP1 LOG4 PUSH2 0xF3D DUP4 DUP4 DUP4 PUSH2 0x13A8 JUMP JUMPDEST POP POP POP JUMP JUMPDEST PUSH1 0x0 PUSH1 0x2 PUSH1 0x0 DUP4 DUP2 MSTORE PUSH1 0x20 ADD SWAP1 DUP2 MSTORE PUSH1 0x20 ADD PUSH1 0x0 KECCAK256 PUSH1 0x0 SWAP1 SLOAD SWAP1 PUSH2 0x100 EXP SWAP1 DIV PUSH20 0xFFFFFFFFFFFFFFFFFFFFFFFFFFFFFFFFFFFFFFFF AND SWAP1 POP SWAP2 SWAP1 POP JUMP JUMPDEST PUSH1 0x0 PUSH20 0xFFFFFFFFFFFFFFFFFFFFFFFFFFFFFFFFFFFFFFFF AND DUP3 PUSH20 0xFFFFFFFFFFFFFFFFFFFFFFFFFFFFFFFFFFFFFFFF AND EQ ISZERO PUSH2 0xFEF JUMPI PUSH1 0x40 MLOAD PUSH32 0x8C379A000000000000000000000000000000000000000000000000000000000 DUP2 MSTORE PUSH1 0x4 ADD PUSH2 0xFE6 SWAP1 PUSH2 0x1CEA JUMP JUMPDEST PUSH1 0x40 MLOAD DUP1 SWAP2 SUB SWAP1 REVERT JUMPDEST PUSH2 0xFF8 DUP2 PUSH2 0x1362 JUMP JUMPDEST ISZERO PUSH2 0x1038 JUMPI PUSH1 0x40 MLOAD PUSH32 0x8C379A000000000000000000000000000000000000000000000000000000000 DUP2 MSTORE PUSH1 0x4 ADD PUSH2 0x102F SWAP1 PUSH2 0x1C6A JUMP JUMPDEST PUSH1 0x40 MLOAD DUP1 SWAP2 SUB SWAP1 REVERT JUMPDEST PUSH2 0x1044 PUSH1 0x0 DUP4 DUP4 PUSH2 0x13A3 JUMP JUMPDEST PUSH2 0x104D DUP2 PUSH2 0x1362 JUMP JUMPDEST ISZERO PUSH2 0x108D JUMPI PUSH1 0x40 MLOAD PUSH32 0x8C379A000000000000000000000000000000000000000000000000000000000 DUP2 MSTORE PUSH1 0x4 ADD PUSH2 0x1084 SWAP1 PUSH2 0x1C6A JUMP JUMPDEST PUSH1 0x40 MLOAD DUP1 SWAP2 SUB SWAP1 REVERT JUMPDEST PUSH1 0x1 PUSH1 0x3 PUSH1 0x0 DUP5 PUSH20 0xFFFFFFFFFFFFFFFFFFFFFFFFFFFFFFFFFFFFFFFF AND PUSH20 0xFFFFFFFFFFFFFFFFFFFFFFFFFFFFFFFFFFFFFFFF AND DUP2 MSTORE PUSH1 0x20 ADD SWAP1 DUP2 MSTORE PUSH1 0x20 ADD PUSH1 0x0 KECCAK256 PUSH1 0x0 DUP3 DUP3 SLOAD ADD SWAP3 POP POP DUP2 SWAP1 SSTORE POP DUP2 PUSH1 0x2 PUSH1 0x0 DUP4 DUP2 MSTORE PUSH1 0x20 ADD SWAP1 DUP2 MSTORE PUSH1 0x20 ADD PUSH1 0x0 KECCAK256 PUSH1 0x0 PUSH2 0x100 EXP DUP2 SLOAD DUP2 PUSH20 0xFFFFFFFFFFFFFFFFFFFFFFFFFFFFFFFFFFFFFFFF MUL NOT AND SWAP1 DUP4 PUSH20 0xFFFFFFFFFFFFFFFFFFFFFFFFFFFFFFFFFFFFFFFF AND MUL OR SWAP1 SSTORE POP DUP1 DUP3 PUSH20 0xFFFFFFFFFFFFFFFFFFFFFFFFFFFFFFFFFFFFFFFF AND PUSH1 0x0 PUSH20 0xFFFFFFFFFFFFFFFFFFFFFFFFFFFFFFFFFFFFFFFF AND PUSH32 0xDDF252AD1BE2C89B69C2B068FC378DAA952BA7F163C4A11628F55A4DF523B3EF PUSH1 0x40 MLOAD PUSH1 0x40 MLOAD DUP1 SWAP2 SUB SWAP1 LOG4 PUSH2 0x1195 PUSH1 0x0 DUP4 DUP4 PUSH2 0x13A8 JUMP JUMPDEST POP POP JUMP JUMPDEST DUP2 PUSH20 0xFFFFFFFFFFFFFFFFFFFFFFFFFFFFFFFFFFFFFFFF AND DUP4 PUSH20 0xFFFFFFFFFFFFFFFFFFFFFFFFFFFFFFFFFFFFFFFF AND EQ ISZERO PUSH2 0x1208 JUMPI PUSH1 0x40 MLOAD PUSH32 0x8C379A000000000000000000000000000000000000000000000000000000000 DUP2 MSTORE PUSH1 0x4 ADD PUSH2 0x11FF SWAP1 PUSH2 0x1CAA JUMP JUMPDEST PUSH1 0x40 MLOAD DUP1 SWAP2 SUB SWAP1 REVERT JUMPDEST DUP1 PUSH1 0x5 PUSH1 0x0 DUP6 PUSH20 0xFFFFFFFFFFFFFFFFFFFFFFFFFFFFFFFFFFFFFFFF AND PUSH20 0xFFFFFFFFFFFFFFFFFFFFFFFFFFFFFFFFFFFFFFFF AND DUP2 MSTORE PUSH1 0x20 ADD SWAP1 DUP2 MSTORE PUSH1 0x20 ADD PUSH1 0x0 KECCAK256 PUSH1 0x0 DUP5 PUSH20 0xFFFFFFFFFFFFFFFFFFFFFFFFFFFFFFFFFFFFFFFF AND PUSH20 0xFFFFFFFFFFFFFFFFFFFFFFFFFFFFFFFFFFFFFFFF AND DUP2 MSTORE PUSH1 0x20 ADD SWAP1 DUP2 MSTORE PUSH1 0x20 ADD PUSH1 0x0 KECCAK256 PUSH1 0x0 PUSH2 0x100 EXP DUP2 SLOAD DUP2 PUSH1 0xFF MUL NOT AND SWAP1 DUP4 ISZERO ISZERO MUL OR SWAP1 SSTORE POP DUP2 PUSH20 0xFFFFFFFFFFFFFFFFFFFFFFFFFFFFFFFFFFFFFFFF AND DUP4 PUSH20 0xFFFFFFFFFFFFFFFFFFFFFFFFFFFFFFFFFFFFFFFF AND PUSH32 0x17307EAB39AB6107E8899845AD3D59BD9653F200F220920489CA2B5937696C31 DUP4 PUSH1 0x40 MLOAD PUSH2 0x12F9 SWAP2 SWAP1 PUSH2 0x1BCD JUMP JUMPDEST PUSH1 0x40 MLOAD DUP1 SWAP2 SUB SWAP1 LOG3 POP POP POP JUMP JUMPDEST PUSH2 0x1311 DUP5 DUP5 DUP5 PUSH2 0xC4C JUMP JUMPDEST PUSH2 0x131D DUP5 DUP5 DUP5 DUP5 PUSH2 0x13AD JUMP JUMPDEST PUSH2 0x135C JUMPI PUSH1 0x40 MLOAD PUSH32 0x8C379A000000000000000000000000000000000000000000000000000000000 DUP2 MSTORE PUSH1 0x4 ADD PUSH2 0x1353 SWAP1 PUSH2 0x1C2A JUMP JUMPDEST PUSH1 0x40 MLOAD DUP1 SWAP2 SUB SWAP1 REVERT JUMPDEST POP POP POP POP JUMP JUMPDEST PUSH1 0x0 DUP1 PUSH20 0xFFFFFFFFFFFFFFFFFFFFFFFFFFFFFFFFFFFFFFFF AND PUSH2 0x1384 DUP4 PUSH2 0xF42 JUMP JUMPDEST PUSH20 0xFFFFFFFFFFFFFFFFFFFFFFFFFFFFFFFFFFFFFFFF AND EQ ISZERO SWAP1 POP SWAP2 SWAP1 POP JUMP JUMPDEST POP POP POP JUMP JUMPDEST POP POP POP JUMP JUMPDEST PUSH1 0x0 PUSH2 0x13CE DUP5 PUSH20 0xFFFFFFFFFFFFFFFFFFFFFFFFFFFFFFFFFFFFFFFF AND PUSH2 0x1544 JUMP JUMPDEST ISZERO PUSH2 0x1537 JUMPI DUP4 PUSH20 0xFFFFFFFFFFFFFFFFFFFFFFFFFFFFFFFFFFFFFFFF AND PUSH4 0x150B7A02 PUSH2 0x13F7 PUSH2 0xAF6 JUMP JUMPDEST DUP8 DUP7 DUP7 PUSH1 0x40 MLOAD DUP6 PUSH4 0xFFFFFFFF AND PUSH1 0xE0 SHL DUP2 MSTORE PUSH1 0x4 ADD PUSH2 0x1419 SWAP5 SWAP4 SWAP3 SWAP2 SWAP1 PUSH2 0x1B81 JUMP JUMPDEST PUSH1 0x20 PUSH1 0x40 MLOAD DUP1 DUP4 SUB DUP2 PUSH1 0x0 DUP8 DUP1 EXTCODESIZE ISZERO DUP1 ISZERO PUSH2 0x1433 JUMPI PUSH1 0x0 DUP1 REVERT JUMPDEST POP GAS CALL SWAP3 POP POP POP DUP1 ISZERO PUSH2 0x1464 JUMPI POP PUSH1 0x40 MLOAD RETURNDATASIZE PUSH1 0x1F NOT PUSH1 0x1F DUP3 ADD AND DUP3 ADD DUP1 PUSH1 0x40 MSTORE POP DUP2 ADD SWAP1 PUSH2 0x1461 SWAP2 SWAP1 PUSH2 0x18EC JUMP JUMPDEST PUSH1 0x1 JUMPDEST PUSH2 0x14E7 JUMPI RETURNDATASIZE DUP1 PUSH1 0x0 DUP2 EQ PUSH2 0x1494 JUMPI PUSH1 0x40 MLOAD SWAP2 POP PUSH1 0x1F NOT PUSH1 0x3F RETURNDATASIZE ADD AND DUP3 ADD PUSH1 0x40 MSTORE RETURNDATASIZE DUP3 MSTORE RETURNDATASIZE PUSH1 0x0 PUSH1 0x20 DUP5 ADD RETURNDATACOPY PUSH2 0x1499 JUMP JUMPDEST PUSH1 0x60 SWAP2 POP JUMPDEST POP PUSH1 0x0 DUP2 MLOAD EQ ISZERO PUSH2 0x14DF JUMPI PUSH1 0x40 MLOAD PUSH32 0x8C379A000000000000000000000000000000000000000000000000000000000 DUP2 MSTORE PUSH1 0x4 ADD PUSH2 0x14D6 SWAP1 PUSH2 0x1C2A JUMP JUMPDEST PUSH1 0x40 MLOAD DUP1 SWAP2 SUB SWAP1 REVERT JUMPDEST DUP1 MLOAD DUP2 PUSH1 0x20 ADD REVERT JUMPDEST PUSH4 0x150B7A02 PUSH1 0xE0 SHL PUSH28 0xFFFFFFFFFFFFFFFFFFFFFFFFFFFFFFFFFFFFFFFFFFFFFFFFFFFFFFFF NOT AND DUP2 PUSH28 0xFFFFFFFFFFFFFFFFFFFFFFFFFFFFFFFFFFFFFFFFFFFFFFFFFFFFFFFF NOT AND EQ SWAP2 POP POP PUSH2 0x153C JUMP JUMPDEST PUSH1 0x1 SWAP1 POP JUMPDEST SWAP5 SWAP4 POP POP POP POP JUMP JUMPDEST PUSH1 0x0 DUP1 DUP3 EXTCODESIZE SWAP1 POP PUSH1 0x0 DUP2 GT SWAP2 POP POP SWAP2 SWAP1 POP JUMP JUMPDEST PUSH1 0x0 PUSH2 0x156A PUSH2 0x1565 DUP5 PUSH2 0x1DAA JUMP JUMPDEST PUSH2 0x1D85 JUMP JUMPDEST SWAP1 POP DUP3 DUP2 MSTORE PUSH1 0x20 DUP2 ADD DUP5 DUP5 DUP5 ADD GT ISZERO PUSH2 0x1586 JUMPI PUSH2 0x1585 PUSH2 0x2045 JUMP JUMPDEST JUMPDEST PUSH2 0x1591 DUP5 DUP3 DUP6 PUSH2 0x1F0E JUMP JUMPDEST POP SWAP4 SWAP3 POP POP POP JUMP JUMPDEST PUSH1 0x0 PUSH2 0x15AC PUSH2 0x15A7 DUP5 PUSH2 0x1DDB JUMP JUMPDEST PUSH2 0x1D85 JUMP JUMPDEST SWAP1 POP DUP3 DUP2 MSTORE PUSH1 0x20 DUP2 ADD DUP5 DUP5 DUP5 ADD GT ISZERO PUSH2 0x15C8 JUMPI PUSH2 0x15C7 PUSH2 0x2045 JUMP JUMPDEST JUMPDEST PUSH2 0x15D3 DUP5 DUP3 DUP6 PUSH2 0x1F0E JUMP JUMPDEST POP SWAP4 SWAP3 POP POP POP JUMP JUMPDEST PUSH1 0x0 DUP2 CALLDATALOAD SWAP1 POP PUSH2 0x15EA DUP2 PUSH2 0x2332 JUMP JUMPDEST SWAP3 SWAP2 POP POP JUMP JUMPDEST PUSH1 0x0 DUP2 CALLDATALOAD SWAP1 POP PUSH2 0x15FF DUP2 PUSH2 0x2349 JUMP JUMPDEST SWAP3 SWAP2 POP POP JUMP JUMPDEST PUSH1 0x0 DUP2 CALLDATALOAD SWAP1 POP PUSH2 0x1614 DUP2 PUSH2 0x2360 JUMP JUMPDEST SWAP3 SWAP2 POP POP JUMP JUMPDEST PUSH1 0x0 DUP2 MLOAD SWAP1 POP PUSH2 0x1629 DUP2 PUSH2 0x2360 JUMP JUMPDEST SWAP3 SWAP2 POP POP JUMP JUMPDEST PUSH1 0x0 DUP3 PUSH1 0x1F DUP4 ADD SLT PUSH2 0x1644 JUMPI PUSH2 0x1643 PUSH2 0x2040 JUMP JUMPDEST JUMPDEST DUP2 CALLDATALOAD PUSH2 0x1654 DUP5 DUP3 PUSH1 0x20 DUP7 ADD PUSH2 0x1557 JUMP JUMPDEST SWAP2 POP POP SWAP3 SWAP2 POP POP JUMP JUMPDEST PUSH1 0x0 DUP3 PUSH1 0x1F DUP4 ADD SLT PUSH2 0x1672 JUMPI PUSH2 0x1671 PUSH2 0x2040 JUMP JUMPDEST JUMPDEST DUP2 CALLDATALOAD PUSH2 0x1682 DUP5 DUP3 PUSH1 0x20 DUP7 ADD PUSH2 0x1599 JUMP JUMPDEST SWAP2 POP POP SWAP3 SWAP2 POP POP JUMP JUMPDEST PUSH1 0x0 DUP2 CALLDATALOAD SWAP1 POP PUSH2 0x169A DUP2 PUSH2 0x2377 JUMP JUMPDEST SWAP3 SWAP2 POP POP JUMP JUMPDEST PUSH1 0x0 PUSH1 0x20 DUP3 DUP5 SUB SLT ISZERO PUSH2 0x16B6 JUMPI PUSH2 0x16B5 PUSH2 0x204F JUMP JUMPDEST JUMPDEST PUSH1 0x0 PUSH2 0x16C4 DUP5 DUP3 DUP6 ADD PUSH2 0x15DB JUMP JUMPDEST SWAP2 POP POP SWAP3 SWAP2 POP POP JUMP JUMPDEST PUSH1 0x0 DUP1 PUSH1 0x40 DUP4 DUP6 SUB SLT ISZERO PUSH2 0x16E4 JUMPI PUSH2 0x16E3 PUSH2 0x204F JUMP JUMPDEST JUMPDEST PUSH1 0x0 PUSH2 0x16F2 DUP6 DUP3 DUP7 ADD PUSH2 0x15DB JUMP JUMPDEST SWAP3 POP POP PUSH1 0x20 PUSH2 0x1703 DUP6 DUP3 DUP7 ADD PUSH2 0x15DB JUMP JUMPDEST SWAP2 POP POP SWAP3 POP SWAP3 SWAP1 POP JUMP JUMPDEST PUSH1 0x0 DUP1 PUSH1 0x0 PUSH1 0x60 DUP5 DUP7 SUB SLT ISZERO PUSH2 0x1726 JUMPI PUSH2 0x1725 PUSH2 0x204F JUMP JUMPDEST JUMPDEST PUSH1 0x0 PUSH2 0x1734 DUP7 DUP3 DUP8 ADD PUSH2 0x15DB JUMP JUMPDEST SWAP4 POP POP PUSH1 0x20 PUSH2 0x1745 DUP7 DUP3 DUP8 ADD PUSH2 0x15DB JUMP JUMPDEST SWAP3 POP POP PUSH1 0x40 PUSH2 0x1756 DUP7 DUP3 DUP8 ADD PUSH2 0x168B JUMP JUMPDEST SWAP2 POP POP SWAP3 POP SWAP3 POP SWAP3 JUMP JUMPDEST PUSH1 0x0 DUP1 PUSH1 0x0 DUP1 PUSH1 0x80 DUP6 DUP8 SUB SLT ISZERO PUSH2 0x177A JUMPI PUSH2 0x1779 PUSH2 0x204F JUMP JUMPDEST JUMPDEST PUSH1 0x0 PUSH2 0x1788 DUP8 DUP3 DUP9 ADD PUSH2 0x15DB JUMP JUMPDEST SWAP5 POP POP PUSH1 0x20 PUSH2 0x1799 DUP8 DUP3 DUP9 ADD PUSH2 0x15DB JUMP JUMPDEST SWAP4 POP POP PUSH1 0x40 PUSH2 0x17AA DUP8 DUP3 DUP9 ADD PUSH2 0x168B JUMP JUMPDEST SWAP3 POP POP PUSH1 0x60 DUP6 ADD CALLDATALOAD PUSH8 0xFFFFFFFFFFFFFFFF DUP2 GT ISZERO PUSH2 0x17CB JUMPI PUSH2 0x17CA PUSH2 0x204A JUMP JUMPDEST JUMPDEST PUSH2 0x17D7 DUP8 DUP3 DUP9 ADD PUSH2 0x162F JUMP JUMPDEST SWAP2 POP POP SWAP3 SWAP6 SWAP2 SWAP5 POP SWAP3 POP JUMP JUMPDEST PUSH1 0x0 DUP1 PUSH1 0x40 DUP4 DUP6 SUB SLT ISZERO PUSH2 0x17FA JUMPI PUSH2 0x17F9 PUSH2 0x204F JUMP JUMPDEST JUMPDEST PUSH1 0x0 PUSH2 0x1808 DUP6 DUP3 DUP7 ADD PUSH2 0x15DB JUMP JUMPDEST SWAP3 POP POP PUSH1 0x20 PUSH2 0x1819 DUP6 DUP3 DUP7 ADD PUSH2 0x15F0 JUMP JUMPDEST SWAP2 POP POP SWAP3 POP SWAP3 SWAP1 POP JUMP JUMPDEST PUSH1 0x0 DUP1 PUSH1 0x40 DUP4 DUP6 SUB SLT ISZERO PUSH2 0x183A JUMPI PUSH2 0x1839 PUSH2 0x204F JUMP JUMPDEST JUMPDEST PUSH1 0x0 PUSH2 0x1848 DUP6 DUP3 DUP7 ADD PUSH2 0x15DB JUMP JUMPDEST SWAP3 POP POP PUSH1 0x20 DUP4 ADD CALLDATALOAD PUSH8 0xFFFFFFFFFFFFFFFF DUP2 GT ISZERO PUSH2 0x1869 JUMPI PUSH2 0x1868 PUSH2 0x204A JUMP JUMPDEST JUMPDEST PUSH2 0x1875 DUP6 DUP3 DUP7 ADD PUSH2 0x165D JUMP JUMPDEST SWAP2 POP POP SWAP3 POP SWAP3 SWAP1 POP JUMP JUMPDEST PUSH1 0x0 DUP1 PUSH1 0x40 DUP4 DUP6 SUB SLT ISZERO PUSH2 0x1896 JUMPI PUSH2 0x1895 PUSH2 0x204F JUMP JUMPDEST JUMPDEST PUSH1 0x0 PUSH2 0x18A4 DUP6 DUP3 DUP7 ADD PUSH2 0x15DB JUMP JUMPDEST SWAP3 POP POP PUSH1 0x20 PUSH2 0x18B5 DUP6 DUP3 DUP7 ADD PUSH2 0x168B JUMP JUMPDEST SWAP2 POP POP SWAP3 POP SWAP3 SWAP1 POP JUMP JUMPDEST PUSH1 0x0 PUSH1 0x20 DUP3 DUP5 SUB SLT ISZERO PUSH2 0x18D5 JUMPI PUSH2 0x18D4 PUSH2 0x204F JUMP JUMPDEST JUMPDEST PUSH1 0x0 PUSH2 0x18E3 DUP5 DUP3 DUP6 ADD PUSH2 0x1605 JUMP JUMPDEST SWAP2 POP POP SWAP3 SWAP2 POP POP JUMP JUMPDEST PUSH1 0x0 PUSH1 0x20 DUP3 DUP5 SUB SLT ISZERO PUSH2 0x1902 JUMPI PUSH2 0x1901 PUSH2 0x204F JUMP JUMPDEST JUMPDEST PUSH1 0x0 PUSH2 0x1910 DUP5 DUP3 DUP6 ADD PUSH2 0x161A JUMP JUMPDEST SWAP2 POP POP SWAP3 SWAP2 POP POP JUMP JUMPDEST PUSH1 0x0 PUSH1 0x20 DUP3 DUP5 SUB SLT ISZERO PUSH2 0x192F JUMPI PUSH2 0x192E PUSH2 0x204F JUMP JUMPDEST JUMPDEST PUSH1 0x0 PUSH2 0x193D DUP5 DUP3 DUP6 ADD PUSH2 0x168B JUMP JUMPDEST SWAP2 POP POP SWAP3 SWAP2 POP POP JUMP JUMPDEST PUSH2 0x194F DUP2 PUSH2 0x1E9A JUMP JUMPDEST DUP3 MSTORE POP POP JUMP JUMPDEST PUSH2 0x195E DUP2 PUSH2 0x1EAC JUMP JUMPDEST DUP3 MSTORE POP POP JUMP JUMPDEST PUSH1 0x0 PUSH2 0x196F DUP3 PUSH2 0x1E0C JUMP JUMPDEST PUSH2 0x1979 DUP2 DUP6 PUSH2 0x1E22 JUMP JUMPDEST SWAP4 POP PUSH2 0x1989 DUP2 DUP6 PUSH1 0x20 DUP7 ADD PUSH2 0x1F1D JUMP JUMPDEST PUSH2 0x1992 DUP2 PUSH2 0x2054 JUMP JUMPDEST DUP5 ADD SWAP2 POP POP SWAP3 SWAP2 POP POP JUMP JUMPDEST PUSH1 0x0 PUSH2 0x19A8 DUP3 PUSH2 0x1E17 JUMP JUMPDEST PUSH2 0x19B2 DUP2 DUP6 PUSH2 0x1E33 JUMP JUMPDEST SWAP4 POP PUSH2 0x19C2 DUP2 DUP6 PUSH1 0x20 DUP7 ADD PUSH2 0x1F1D JUMP JUMPDEST PUSH2 0x19CB DUP2 PUSH2 0x2054 JUMP JUMPDEST DUP5 ADD SWAP2 POP POP SWAP3 SWAP2 POP POP JUMP JUMPDEST PUSH1 0x0 PUSH2 0x19E3 PUSH1 0x2D DUP4 PUSH2 0x1E33 JUMP JUMPDEST SWAP2 POP PUSH2 0x19EE DUP3 PUSH2 0x2065 JUMP JUMPDEST PUSH1 0x40 DUP3 ADD SWAP1 POP SWAP2 SWAP1 POP JUMP JUMPDEST PUSH1 0x0 PUSH2 0x1A06 PUSH1 0x32 DUP4 PUSH2 0x1E33 JUMP JUMPDEST SWAP2 POP PUSH2 0x1A11 DUP3 PUSH2 0x20B4 JUMP JUMPDEST PUSH1 0x40 DUP3 ADD SWAP1 POP SWAP2 SWAP1 POP JUMP JUMPDEST PUSH1 0x0 PUSH2 0x1A29 PUSH1 0x25 DUP4 PUSH2 0x1E33 JUMP JUMPDEST SWAP2 POP PUSH2 0x1A34 DUP3 PUSH2 0x2103 JUMP JUMPDEST PUSH1 0x40 DUP3 ADD SWAP1 POP SWAP2 SWAP1 POP JUMP JUMPDEST PUSH1 0x0 PUSH2 0x1A4C PUSH1 0x1C DUP4 PUSH2 0x1E33 JUMP JUMPDEST SWAP2 POP PUSH2 0x1A57 DUP3 PUSH2 0x2152 JUMP JUMPDEST PUSH1 0x20 DUP3 ADD SWAP1 POP SWAP2 SWAP1 POP JUMP JUMPDEST PUSH1 0x0 PUSH2 0x1A6F PUSH1 0x24 DUP4 PUSH2 0x1E33 JUMP JUMPDEST SWAP2 POP PUSH2 0x1A7A DUP3 PUSH2 0x217B JUMP JUMPDEST PUSH1 0x40 DUP3 ADD SWAP1 POP SWAP2 SWAP1 POP JUMP JUMPDEST PUSH1 0x0 PUSH2 0x1A92 PUSH1 0x19 DUP4 PUSH2 0x1E33 JUMP JUMPDEST SWAP2 POP PUSH2 0x1A9D DUP3 PUSH2 0x21CA JUMP JUMPDEST PUSH1 0x20 DUP3 ADD SWAP1 POP SWAP2 SWAP1 POP JUMP JUMPDEST PUSH1 0x0 PUSH2 0x1AB5 PUSH1 0x29 DUP4 PUSH2 0x1E33 JUMP JUMPDEST SWAP2 POP PUSH2 0x1AC0 DUP3 PUSH2 0x21F3 JUMP JUMPDEST PUSH1 0x40 DUP3 ADD SWAP1 POP SWAP2 SWAP1 POP JUMP JUMPDEST PUSH1 0x0 PUSH2 0x1AD8 PUSH1 0x20 DUP4 PUSH2 0x1E33 JUMP JUMPDEST SWAP2 POP PUSH2 0x1AE3 DUP3 PUSH2 0x2242 JUMP JUMPDEST PUSH1 0x20 DUP3 ADD SWAP1 POP SWAP2 SWAP1 POP JUMP JUMPDEST PUSH1 0x0 PUSH2 0x1AFB PUSH1 0x18 DUP4 PUSH2 0x1E33 JUMP JUMPDEST SWAP2 POP PUSH2 0x1B06 DUP3 PUSH2 0x226B JUMP JUMPDEST PUSH1 0x20 DUP3 ADD SWAP1 POP SWAP2 SWAP1 POP JUMP JUMPDEST PUSH1 0x0 PUSH2 0x1B1E PUSH1 0x21 DUP4 PUSH2 0x1E33 JUMP JUMPDEST SWAP2 POP PUSH2 0x1B29 DUP3 PUSH2 0x2294 JUMP JUMPDEST PUSH1 0x40 DUP3 ADD SWAP1 POP SWAP2 SWAP1 POP JUMP JUMPDEST PUSH1 0x0 PUSH2 0x1B41 PUSH1 0x3D DUP4 PUSH2 0x1E33 JUMP JUMPDEST SWAP2 POP PUSH2 0x1B4C DUP3 PUSH2 0x22E3 JUMP JUMPDEST PUSH1 0x40 DUP3 ADD SWAP1 POP SWAP2 SWAP1 POP JUMP JUMPDEST PUSH2 0x1B60 DUP2 PUSH2 0x1F04 JUMP JUMPDEST DUP3 MSTORE POP POP JUMP JUMPDEST PUSH1 0x0 PUSH1 0x20 DUP3 ADD SWAP1 POP PUSH2 0x1B7B PUSH1 0x0 DUP4 ADD DUP5 PUSH2 0x1946 JUMP JUMPDEST SWAP3 SWAP2 POP POP JUMP JUMPDEST PUSH1 0x0 PUSH1 0x80 DUP3 ADD SWAP1 POP PUSH2 0x1B96 PUSH1 0x0 DUP4 ADD DUP8 PUSH2 0x1946 JUMP JUMPDEST PUSH2 0x1BA3 PUSH1 0x20 DUP4 ADD DUP7 PUSH2 0x1946 JUMP JUMPDEST PUSH2 0x1BB0 PUSH1 0x40 DUP4 ADD DUP6 PUSH2 0x1B57 JUMP JUMPDEST DUP2 DUP2 SUB PUSH1 0x60 DUP4 ADD MSTORE PUSH2 0x1BC2 DUP2 DUP5 PUSH2 0x1964 JUMP JUMPDEST SWAP1 POP SWAP6 SWAP5 POP POP POP POP POP JUMP JUMPDEST PUSH1 0x0 PUSH1 0x20 DUP3 ADD SWAP1 POP PUSH2 0x1BE2 PUSH1 0x0 DUP4 ADD DUP5 PUSH2 0x1955 JUMP JUMPDEST SWAP3 SWAP2 POP POP JUMP JUMPDEST PUSH1 0x0 PUSH1 0x20 DUP3 ADD SWAP1 POP DUP2 DUP2 SUB PUSH1 0x0 DUP4 ADD MSTORE PUSH2 0x1C02 DUP2 DUP5 PUSH2 0x199D JUMP JUMPDEST SWAP1 POP SWAP3 SWAP2 POP POP JUMP JUMPDEST PUSH1 0x0 PUSH1 0x20 DUP3 ADD SWAP1 POP DUP2 DUP2 SUB PUSH1 0x0 DUP4 ADD MSTORE PUSH2 0x1C23 DUP2 PUSH2 0x19D6 JUMP JUMPDEST SWAP1 POP SWAP2 SWAP1 POP JUMP JUMPDEST PUSH1 0x0 PUSH1 0x20 DUP3 ADD SWAP1 POP DUP2 DUP2 SUB PUSH1 0x0 DUP4 ADD MSTORE PUSH2 0x1C43 DUP2 PUSH2 0x19F9 JUMP JUMPDEST SWAP1 POP SWAP2 SWAP1 POP JUMP JUMPDEST PUSH1 0x0 PUSH1 0x20 DUP3 ADD SWAP1 POP DUP2 DUP2 SUB PUSH1 0x0 DUP4 ADD MSTORE PUSH2 0x1C63 DUP2 PUSH2 0x1A1C JUMP JUMPDEST SWAP1 POP SWAP2 SWAP1 POP JUMP JUMPDEST PUSH1 0x0 PUSH1 0x20 DUP3 ADD SWAP1 POP DUP2 DUP2 SUB PUSH1 0x0 DUP4 ADD MSTORE PUSH2 0x1C83 DUP2 PUSH2 0x1A3F JUMP JUMPDEST SWAP1 POP SWAP2 SWAP1 POP JUMP JUMPDEST PUSH1 0x0 PUSH1 0x20 DUP3 ADD SWAP1 POP DUP2 DUP2 SUB PUSH1 0x0 DUP4 ADD MSTORE PUSH2 0x1CA3 DUP2 PUSH2 0x1A62 JUMP JUMPDEST SWAP1 POP SWAP2 SWAP1 POP JUMP JUMPDEST PUSH1 0x0 PUSH1 0x20 DUP3 ADD SWAP1 POP DUP2 DUP2 SUB PUSH1 0x0 DUP4 ADD MSTORE PUSH2 0x1CC3 DUP2 PUSH2 0x1A85 JUMP JUMPDEST SWAP1 POP SWAP2 SWAP1 POP JUMP JUMPDEST PUSH1 0x0 PUSH1 0x20 DUP3 ADD SWAP1 POP DUP2 DUP2 SUB PUSH1 0x0 DUP4 ADD MSTORE PUSH2 0x1CE3 DUP2 PUSH2 0x1AA8 JUMP JUMPDEST SWAP1 POP SWAP2 SWAP1 POP JUMP JUMPDEST PUSH1 0x0 PUSH1 0x20 DUP3 ADD SWAP1 POP DUP2 DUP2 SUB PUSH1 0x0 DUP4 ADD MSTORE PUSH2 0x1D03 DUP2 PUSH2 0x1ACB JUMP JUMPDEST SWAP1 POP SWAP2 SWAP1 POP JUMP JUMPDEST PUSH1 0x0 PUSH1 0x20 DUP3 ADD SWAP1 POP DUP2 DUP2 SUB PUSH1 0x0 DUP4 ADD MSTORE PUSH2 0x1D23 DUP2 PUSH2 0x1AEE JUMP JUMPDEST SWAP1 POP SWAP2 SWAP1 POP JUMP JUMPDEST PUSH1 0x0 PUSH1 0x20 DUP3 ADD SWAP1 POP DUP2 DUP2 SUB PUSH1 0x0 DUP4 ADD MSTORE PUSH2 0x1D43 DUP2 PUSH2 0x1B11 JUMP JUMPDEST SWAP1 POP SWAP2 SWAP1 POP JUMP JUMPDEST PUSH1 0x0 PUSH1 0x20 DUP3 ADD SWAP1 POP DUP2 DUP2 SUB PUSH1 0x0 DUP4 ADD MSTORE PUSH2 0x1D63 DUP2 PUSH2 0x1B34 JUMP JUMPDEST SWAP1 POP SWAP2 SWAP1 POP JUMP JUMPDEST PUSH1 0x0 PUSH1 0x20 DUP3 ADD SWAP1 POP PUSH2 0x1D7F PUSH1 0x0 DUP4 ADD DUP5 PUSH2 0x1B57 JUMP JUMPDEST SWAP3 SWAP2 POP POP JUMP JUMPDEST PUSH1 0x0 PUSH2 0x1D8F PUSH2 0x1DA0 JUMP JUMPDEST SWAP1 POP PUSH2 0x1D9B DUP3 DUP3 PUSH2 0x1F82 JUMP JUMPDEST SWAP2 SWAP1 POP JUMP JUMPDEST PUSH1 0x0 PUSH1 0x40 MLOAD SWAP1 POP SWAP1 JUMP JUMPDEST PUSH1 0x0 PUSH8 0xFFFFFFFFFFFFFFFF DUP3 GT ISZERO PUSH2 0x1DC5 JUMPI PUSH2 0x1DC4 PUSH2 0x2011 JUMP JUMPDEST JUMPDEST PUSH2 0x1DCE DUP3 PUSH2 0x2054 JUMP JUMPDEST SWAP1 POP PUSH1 0x20 DUP2 ADD SWAP1 POP SWAP2 SWAP1 POP JUMP JUMPDEST PUSH1 0x0 PUSH8 0xFFFFFFFFFFFFFFFF DUP3 GT ISZERO PUSH2 0x1DF6 JUMPI PUSH2 0x1DF5 PUSH2 0x2011 JUMP JUMPDEST JUMPDEST PUSH2 0x1DFF DUP3 PUSH2 0x2054 JUMP JUMPDEST SWAP1 POP PUSH1 0x20 DUP2 ADD SWAP1 POP SWAP2 SWAP1 POP JUMP JUMPDEST PUSH1 0x0 DUP2 MLOAD SWAP1 POP SWAP2 SWAP1 POP JUMP JUMPDEST PUSH1 0x0 DUP2 MLOAD SWAP1 POP SWAP2 SWAP1 POP JUMP JUMPDEST PUSH1 0x0 DUP3 DUP3 MSTORE PUSH1 0x20 DUP3 ADD SWAP1 POP SWAP3 SWAP2 POP POP JUMP JUMPDEST PUSH1 0x0 DUP3 DUP3 MSTORE PUSH1 0x20 DUP3 ADD SWAP1 POP SWAP3 SWAP2 POP POP JUMP JUMPDEST PUSH1 0x0 PUSH2 0x1E4F DUP3 PUSH2 0x1F04 JUMP JUMPDEST SWAP2 POP PUSH2 0x1E5A DUP4 PUSH2 0x1F04 JUMP JUMPDEST SWAP3 POP DUP3 PUSH32 0xFFFFFFFFFFFFFFFFFFFFFFFFFFFFFFFFFFFFFFFFFFFFFFFFFFFFFFFFFFFFFFFF SUB DUP3 GT ISZERO PUSH2 0x1E8F JUMPI PUSH2 0x1E8E PUSH2 0x1FB3 JUMP JUMPDEST JUMPDEST DUP3 DUP3 ADD SWAP1 POP SWAP3 SWAP2 POP POP JUMP JUMPDEST PUSH1 0x0 PUSH2 0x1EA5 DUP3 PUSH2 0x1EE4 JUMP JUMPDEST SWAP1 POP SWAP2 SWAP1 POP JUMP JUMPDEST PUSH1 0x0 DUP2 ISZERO ISZERO SWAP1 POP SWAP2 SWAP1 POP JUMP JUMPDEST PUSH1 0x0 PUSH32 0xFFFFFFFF00000000000000000000000000000000000000000000000000000000 DUP3 AND SWAP1 POP SWAP2 SWAP1 POP JUMP JUMPDEST PUSH1 0x0 PUSH20 0xFFFFFFFFFFFFFFFFFFFFFFFFFFFFFFFFFFFFFFFF DUP3 AND SWAP1 POP SWAP2 SWAP1 POP JUMP JUMPDEST PUSH1 0x0 DUP2 SWAP1 POP SWAP2 SWAP1 POP JUMP JUMPDEST DUP3 DUP2 DUP4 CALLDATACOPY PUSH1 0x0 DUP4 DUP4 ADD MSTORE POP POP POP JUMP JUMPDEST PUSH1 0x0 JUMPDEST DUP4 DUP2 LT ISZERO PUSH2 0x1F3B JUMPI DUP1 DUP3 ADD MLOAD DUP2 DUP5 ADD MSTORE PUSH1 0x20 DUP2 ADD SWAP1 POP PUSH2 0x1F20 JUMP JUMPDEST DUP4 DUP2 GT ISZERO PUSH2 0x1F4A JUMPI PUSH1 0x0 DUP5 DUP5 ADD MSTORE JUMPDEST POP POP POP POP JUMP JUMPDEST PUSH1 0x0 PUSH1 0x2 DUP3 DIV SWAP1 POP PUSH1 0x1 DUP3 AND DUP1 PUSH2 0x1F68 JUMPI PUSH1 0x7F DUP3 AND SWAP2 POP JUMPDEST PUSH1 0x20 DUP3 LT DUP2 EQ ISZERO PUSH2 0x1F7C JUMPI PUSH2 0x1F7B PUSH2 0x1FE2 JUMP JUMPDEST JUMPDEST POP SWAP2 SWAP1 POP JUMP JUMPDEST PUSH2 0x1F8B DUP3 PUSH2 0x2054 JUMP JUMPDEST DUP2 ADD DUP2 DUP2 LT PUSH8 0xFFFFFFFFFFFFFFFF DUP3 GT OR ISZERO PUSH2 0x1FAA JUMPI PUSH2 0x1FA9 PUSH2 0x2011 JUMP JUMPDEST JUMPDEST DUP1 PUSH1 0x40 MSTORE POP POP POP JUMP JUMPDEST PUSH32 0x4E487B7100000000000000000000000000000000000000000000000000000000 PUSH1 0x0 MSTORE PUSH1 0x11 PUSH1 0x4 MSTORE PUSH1 0x24 PUSH1 0x0 REVERT JUMPDEST PUSH32 0x4E487B7100000000000000000000000000000000000000000000000000000000 PUSH1 0x0 MSTORE PUSH1 0x22 PUSH1 0x4 MSTORE PUSH1 0x24 PUSH1 0x0 REVERT JUMPDEST PUSH32 0x4E487B7100000000000000000000000000000000000000000000000000000000 PUSH1 0x0 MSTORE PUSH1 0x41 PUSH1 0x4 MSTORE PUSH1 0x24 PUSH1 0x0 REVERT JUMPDEST PUSH1 0x0 DUP1 REVERT JUMPDEST PUSH1 0x0 DUP1 REVERT JUMPDEST PUSH1 0x0 DUP1 REVERT JUMPDEST PUSH1 0x0 DUP1 REVERT JUMPDEST PUSH1 0x0 PUSH1 0x1F NOT PUSH1 0x1F DUP4 ADD AND SWAP1 POP SWAP2 SWAP1 POP JUMP JUMPDEST PUSH32 0x4552433732313A2063616C6C6572206973206E6F7420746F6B656E206F776E65 PUSH1 0x0 DUP3 ADD MSTORE PUSH32 0x72206F7220617070726F76656400000000000000000000000000000000000000 PUSH1 0x20 DUP3 ADD MSTORE POP JUMP JUMPDEST PUSH32 0x4552433732313A207472616E7366657220746F206E6F6E204552433732315265 PUSH1 0x0 DUP3 ADD MSTORE PUSH32 0x63656976657220696D706C656D656E7465720000000000000000000000000000 PUSH1 0x20 DUP3 ADD MSTORE POP JUMP JUMPDEST PUSH32 0x4552433732313A207472616E736665722066726F6D20696E636F727265637420 PUSH1 0x0 DUP3 ADD MSTORE PUSH32 0x6F776E6572000000000000000000000000000000000000000000000000000000 PUSH1 0x20 DUP3 ADD MSTORE POP JUMP JUMPDEST PUSH32 0x4552433732313A20746F6B656E20616C7265616479206D696E74656400000000 PUSH1 0x0 DUP3 ADD MSTORE POP JUMP JUMPDEST PUSH32 0x4552433732313A207472616E7366657220746F20746865207A65726F20616464 PUSH1 0x0 DUP3 ADD MSTORE PUSH32 0x7265737300000000000000000000000000000000000000000000000000000000 PUSH1 0x20 DUP3 ADD MSTORE POP JUMP JUMPDEST PUSH32 0x4552433732313A20617070726F766520746F2063616C6C657200000000000000 PUSH1 0x0 DUP3 ADD MSTORE POP JUMP JUMPDEST PUSH32 0x4552433732313A2061646472657373207A65726F206973206E6F742061207661 PUSH1 0x0 DUP3 ADD MSTORE PUSH32 0x6C6964206F776E65720000000000000000000000000000000000000000000000 PUSH1 0x20 DUP3 ADD MSTORE POP JUMP JUMPDEST PUSH32 0x4552433732313A206D696E7420746F20746865207A65726F2061646472657373 PUSH1 0x0 DUP3 ADD MSTORE POP JUMP JUMPDEST PUSH32 0x4552433732313A20696E76616C696420746F6B656E2049440000000000000000 PUSH1 0x0 DUP3 ADD MSTORE POP JUMP JUMPDEST PUSH32 0x4552433732313A20617070726F76616C20746F2063757272656E74206F776E65 PUSH1 0x0 DUP3 ADD MSTORE PUSH32 0x7200000000000000000000000000000000000000000000000000000000000000 PUSH1 0x20 DUP3 ADD MSTORE POP JUMP JUMPDEST PUSH32 0x4552433732313A20617070726F76652063616C6C6572206973206E6F7420746F PUSH1 0x0 DUP3 ADD MSTORE PUSH32 0x6B656E206F776E6572206F7220617070726F76656420666F7220616C6C000000 PUSH1 0x20 DUP3 ADD MSTORE POP JUMP JUMPDEST PUSH2 0x233B DUP2 PUSH2 0x1E9A JUMP JUMPDEST DUP2 EQ PUSH2 0x2346 JUMPI PUSH1 0x0 DUP1 REVERT JUMPDEST POP JUMP JUMPDEST PUSH2 0x2352 DUP2 PUSH2 0x1EAC JUMP JUMPDEST DUP2 EQ PUSH2 0x235D JUMPI PUSH1 0x0 DUP1 REVERT JUMPDEST POP JUMP JUMPDEST PUSH2 0x2369 DUP2 PUSH2 0x1EB8 JUMP JUMPDEST DUP2 EQ PUSH2 0x2374 JUMPI PUSH1 0x0 DUP1 REVERT JUMPDEST POP JUMP JUMPDEST PUSH2 0x2380 DUP2 PUSH2 0x1F04 JUMP JUMPDEST DUP2 EQ PUSH2 0x238B JUMPI PUSH1 0x0 DUP1 REVERT JUMPDEST POP JUMP INVALID LOG2 PUSH5 0x6970667358 0x22 SLT KECCAK256 0xD3 0xD3 DUP16 0x2B ADDRESS BLOCKHASH PUSH13 0xE5FF07571414873C6CE250DD66 STATICCALL PUSH28 0x9D6BE0DB62F02479E22164736F6C6343000807003300000000000000 "
				},
				"gasEstimates": {
					"creation": {
						"codeDepositCost": "1831200",
						"executionCost": "infinite",
						"totalCost": "infinite"
					},
					"external": {
						"approve(address,uint256)": "infinite",
						"balanceOf(address)": "2902",
						"create(address,string)": "infinite",
						"current()": "2504",
						"getApproved(uint256)": "5300",
						"isApprovedForAll(address,address)": "infinite",
						"name()": "infinite",
						"ownerOf(uint256)": "3091",
						"safeTransferFrom(address,address,uint256)": "infinite",
						"safeTransferFrom(address,address,uint256,bytes)": "infinite",
						"setApprovalForAll(address,bool)": "infinite",
						"supportsInterface(bytes4)": "797",
						"symbol()": "infinite",
						"tokenURI(uint256)": "infinite",
						"transferFrom(address,address,uint256)": "infinite"
					}
				},
				"methodIdentifiers": {
					"approve(address,uint256)": "095ea7b3",
					"balanceOf(address)": "70a08231",
					"create(address,string)": "a15ab08d",
					"current()": "9fa6a6e3",
					"getApproved(uint256)": "081812fc",
					"isApprovedForAll(address,address)": "e985e9c5",
					"name()": "06fdde03",
					"ownerOf(uint256)": "6352211e",
					"safeTransferFrom(address,address,uint256)": "42842e0e",
					"safeTransferFrom(address,address,uint256,bytes)": "b88d4fde",
					"setApprovalForAll(address,bool)": "a22cb465",
					"supportsInterface(bytes4)": "01ffc9a7",
					"symbol()": "95d89b41",
					"tokenURI(uint256)": "c87b56dd",
					"transferFrom(address,address,uint256)": "23b872dd"
				}
			},
			"storageLayout": {
				"storage": [
					{
						"astId": 103,
						"contract": "contracts/SsafyNFT.sol:SsafyNFT",
						"label": "_name",
						"offset": 0,
						"slot": "0",
						"type": "t_string_storage"
					},
					{
						"astId": 105,
						"contract": "contracts/SsafyNFT.sol:SsafyNFT",
						"label": "_symbol",
						"offset": 0,
						"slot": "1",
						"type": "t_string_storage"
					},
					{
						"astId": 109,
						"contract": "contracts/SsafyNFT.sol:SsafyNFT",
						"label": "_owners",
						"offset": 0,
						"slot": "2",
						"type": "t_mapping(t_uint256,t_address)"
					},
					{
						"astId": 113,
						"contract": "contracts/SsafyNFT.sol:SsafyNFT",
						"label": "_balances",
						"offset": 0,
						"slot": "3",
						"type": "t_mapping(t_address,t_uint256)"
					},
					{
						"astId": 117,
						"contract": "contracts/SsafyNFT.sol:SsafyNFT",
						"label": "_tokenApprovals",
						"offset": 0,
						"slot": "4",
						"type": "t_mapping(t_uint256,t_address)"
					},
					{
						"astId": 123,
						"contract": "contracts/SsafyNFT.sol:SsafyNFT",
						"label": "_operatorApprovals",
						"offset": 0,
						"slot": "5",
						"type": "t_mapping(t_address,t_mapping(t_address,t_bool))"
					},
					{
						"astId": 7,
						"contract": "contracts/SsafyNFT.sol:SsafyNFT",
						"label": "_tokenIds",
						"offset": 0,
						"slot": "6",
						"type": "t_uint256"
					},
					{
						"astId": 11,
						"contract": "contracts/SsafyNFT.sol:SsafyNFT",
						"label": "tokenURIs",
						"offset": 0,
						"slot": "7",
						"type": "t_mapping(t_uint256,t_string_storage)"
					}
				],
				"types": {
					"t_address": {
						"encoding": "inplace",
						"label": "address",
						"numberOfBytes": "20"
					},
					"t_bool": {
						"encoding": "inplace",
						"label": "bool",
						"numberOfBytes": "1"
					},
					"t_mapping(t_address,t_bool)": {
						"encoding": "mapping",
						"key": "t_address",
						"label": "mapping(address => bool)",
						"numberOfBytes": "32",
						"value": "t_bool"
					},
					"t_mapping(t_address,t_mapping(t_address,t_bool))": {
						"encoding": "mapping",
						"key": "t_address",
						"label": "mapping(address => mapping(address => bool))",
						"numberOfBytes": "32",
						"value": "t_mapping(t_address,t_bool)"
					},
					"t_mapping(t_address,t_uint256)": {
						"encoding": "mapping",
						"key": "t_address",
						"label": "mapping(address => uint256)",
						"numberOfBytes": "32",
						"value": "t_uint256"
					},
					"t_mapping(t_uint256,t_address)": {
						"encoding": "mapping",
						"key": "t_uint256",
						"label": "mapping(uint256 => address)",
						"numberOfBytes": "32",
						"value": "t_address"
					},
					"t_mapping(t_uint256,t_string_storage)": {
						"encoding": "mapping",
						"key": "t_uint256",
						"label": "mapping(uint256 => string)",
						"numberOfBytes": "32",
						"value": "t_string_storage"
					},
					"t_string_storage": {
						"encoding": "bytes",
						"label": "string",
						"numberOfBytes": "32"
					},
					"t_uint256": {
						"encoding": "inplace",
						"label": "uint256",
						"numberOfBytes": "32"
					}
				}
			},
			"userdoc": {
				"kind": "user",
				"methods": {},
				"notice": "PJT Ⅰ - 과제 2) NFT Creator 구현 상태 변수나 함수의 시그니처는 구현에 따라 변경할 수 있습니다.",
				"version": 1
			}
		}
	}
}