{
  "contractName": "SaleFactory",
  "abi": [
    {
      "inputs": [
        {
          "internalType": "address",
          "name": "_mintUniqonTokenAddress",
          "type": "address"
        }
      ],
      "stateMutability": "nonpayable",
      "type": "constructor"
    },
    {
      "inputs": [],
      "name": "mintUniqonTokenAddress",
      "outputs": [
        {
          "internalType": "contract MintUniqonToken",
          "name": "",
          "type": "address"
        }
      ],
      "stateMutability": "view",
      "type": "function"
    },
    {
      "inputs": [
        {
          "internalType": "uint256",
          "name": "",
          "type": "uint256"
        }
      ],
      "name": "onSaleUniqonToken",
      "outputs": [
        {
          "internalType": "uint256",
          "name": "",
          "type": "uint256"
        }
      ],
      "stateMutability": "view",
      "type": "function"
    },
    {
      "inputs": [
        {
          "internalType": "uint256",
          "name": "",
          "type": "uint256"
        }
      ],
      "name": "uniqonTokenPrices",
      "outputs": [
        {
          "internalType": "uint256",
          "name": "",
          "type": "uint256"
        }
      ],
      "stateMutability": "view",
      "type": "function"
    },
    {
      "inputs": [
        {
          "internalType": "uint256",
          "name": "_uniqonTokenId",
          "type": "uint256"
        },
        {
          "internalType": "uint256",
          "name": "_price",
          "type": "uint256"
        }
      ],
      "name": "setForSaleUniqonToken",
      "outputs": [],
      "stateMutability": "nonpayable",
      "type": "function"
    },
    {
      "inputs": [
        {
          "internalType": "uint256",
          "name": "_uniqonTokenId",
          "type": "uint256"
        }
      ],
      "name": "purchaseUniqonToken",
      "outputs": [],
      "stateMutability": "payable",
      "type": "function"
    },
    {
      "inputs": [
        {
          "internalType": "uint256",
          "name": "_uniqonTokenId",
          "type": "uint256"
        }
      ],
      "name": "getTokenPrice",
      "outputs": [
        {
          "internalType": "uint256",
          "name": "",
          "type": "uint256"
        }
      ],
      "stateMutability": "view",
      "type": "function"
    },
    {
      "inputs": [],
      "name": "getOnSaleUniqonToken",
      "outputs": [
        {
          "internalType": "uint256[]",
          "name": "",
          "type": "uint256[]"
        }
      ],
      "stateMutability": "view",
      "type": "function"
    }
  ],
  "bytecode": "0x60806040523480156200001157600080fd5b5060405162001222380380620012228339818101604052810190620000379190620000e8565b806000806101000a81548173ffffffffffffffffffffffffffffffffffffffff021916908373ffffffffffffffffffffffffffffffffffffffff160217905550506200011a565b600080fd5b600073ffffffffffffffffffffffffffffffffffffffff82169050919050565b6000620000b08262000083565b9050919050565b620000c281620000a3565b8114620000ce57600080fd5b50565b600081519050620000e281620000b7565b92915050565b6000602082840312156200010157620001006200007e565b5b60006200011184828501620000d1565b91505092915050565b6110f8806200012a6000396000f3fe6080604052600436106100705760003560e01c806390ae1b411161004e57806390ae1b411461011a578063c457fb3714610145578063d2a6c2a314610182578063d49cf7f01461019e57610070565b80631d3402af14610075578063624a6db7146100b257806375c7c9a7146100dd575b600080fd5b34801561008157600080fd5b5061009c60048036038101906100979190610917565b6101c7565b6040516100a99190610953565b60405180910390f35b3480156100be57600080fd5b506100c76101df565b6040516100d491906109ed565b60405180910390f35b3480156100e957600080fd5b5061010460048036038101906100ff9190610917565b610203565b6040516101119190610953565b60405180910390f35b34801561012657600080fd5b5061012f610227565b60405161013c9190610ac6565b60405180910390f35b34801561015157600080fd5b5061016c60048036038101906101679190610917565b61027f565b6040516101799190610953565b60405180910390f35b61019c60048036038101906101979190610917565b61029c565b005b3480156101aa57600080fd5b506101c560048036038101906101c09190610ae8565b610615565b005b60016020528060005260406000206000915090505481565b60008054906101000a900473ffffffffffffffffffffffffffffffffffffffff1681565b6002818154811061021357600080fd5b906000526020600020016000915090505481565b6060600280548060200260200160405190810160405280929190818152602001828054801561027557602002820191906000526020600020905b815481526020019060010190808311610261575b5050505050905090565b600060016000838152602001908152602001600020549050919050565b60006001600083815260200190815260200160002054905060008060009054906101000a900473ffffffffffffffffffffffffffffffffffffffff1673ffffffffffffffffffffffffffffffffffffffff16636352211e846040518263ffffffff1660e01b81526004016103109190610953565b602060405180830381865afa15801561032d573d6000803e3d6000fd5b505050506040513d601f19601f820116820180604052508101906103519190610b66565b905060008211610396576040517f08c379a000000000000000000000000000000000000000000000000000000000815260040161038d90610bf0565b60405180910390fd5b348211156103d9576040517f08c379a00000000000000000000000000000000000000000000000000000000081526004016103d090610c5c565b60405180910390fd5b3373ffffffffffffffffffffffffffffffffffffffff168173ffffffffffffffffffffffffffffffffffffffff161415610448576040517f08c379a000000000000000000000000000000000000000000000000000000000815260040161043f90610cc8565b60405180910390fd5b8073ffffffffffffffffffffffffffffffffffffffff166108fc349081150290604051600060405180830381858888f1935050505015801561048e573d6000803e3d6000fd5b5060008054906101000a900473ffffffffffffffffffffffffffffffffffffffff1673ffffffffffffffffffffffffffffffffffffffff166342842e0e8233866040518463ffffffff1660e01b81526004016104ec93929190610cf7565b600060405180830381600087803b15801561050657600080fd5b505af115801561051a573d6000803e3d6000fd5b505050506000600160008581526020019081526020016000208190555060005b60028054905081101561060f576000600160006002848154811061056157610560610d2e565b5b906000526020600020015481526020019081526020016000205414156105fc57600260016002805490506105959190610d8c565b815481106105a6576105a5610d2e565b5b9060005260206000200154600282815481106105c5576105c4610d2e565b5b906000526020600020018190555060028054806105e5576105e4610dc0565b5b600190038181906000526020600020016000905590555b808061060790610def565b91505061053a565b50505050565b60008060009054906101000a900473ffffffffffffffffffffffffffffffffffffffff1673ffffffffffffffffffffffffffffffffffffffff16636352211e846040518263ffffffff1660e01b81526004016106719190610953565b602060405180830381865afa15801561068e573d6000803e3d6000fd5b505050506040513d601f19601f820116820180604052508101906106b29190610b66565b90503373ffffffffffffffffffffffffffffffffffffffff168173ffffffffffffffffffffffffffffffffffffffff1614610722576040517f08c379a000000000000000000000000000000000000000000000000000000000815260040161071990610e84565b60405180910390fd5b60008211610765576040517f08c379a000000000000000000000000000000000000000000000000000000000815260040161075c90610ef0565b60405180910390fd5b60006001600085815260200190815260200160002054146107bb576040517f08c379a00000000000000000000000000000000000000000000000000000000081526004016107b290610f82565b60405180910390fd5b60008054906101000a900473ffffffffffffffffffffffffffffffffffffffff1673ffffffffffffffffffffffffffffffffffffffff1663e985e9c582306040518363ffffffff1660e01b8152600401610816929190610fa2565b602060405180830381865afa158015610833573d6000803e3d6000fd5b505050506040513d601f19601f820116820180604052508101906108579190611003565b610896576040517f08c379a000000000000000000000000000000000000000000000000000000000815260040161088d906110a2565b60405180910390fd5b8160016000858152602001908152602001600020819055506002839080600181540180825580915050600190039060005260206000200160009091909190915055505050565b600080fd5b6000819050919050565b6108f4816108e1565b81146108ff57600080fd5b50565b600081359050610911816108eb565b92915050565b60006020828403121561092d5761092c6108dc565b5b600061093b84828501610902565b91505092915050565b61094d816108e1565b82525050565b60006020820190506109686000830184610944565b92915050565b600073ffffffffffffffffffffffffffffffffffffffff82169050919050565b6000819050919050565b60006109b36109ae6109a98461096e565b61098e565b61096e565b9050919050565b60006109c582610998565b9050919050565b60006109d7826109ba565b9050919050565b6109e7816109cc565b82525050565b6000602082019050610a0260008301846109de565b92915050565b600081519050919050565b600082825260208201905092915050565b6000819050602082019050919050565b610a3d816108e1565b82525050565b6000610a4f8383610a34565b60208301905092915050565b6000602082019050919050565b6000610a7382610a08565b610a7d8185610a13565b9350610a8883610a24565b8060005b83811015610ab9578151610aa08882610a43565b9750610aab83610a5b565b925050600181019050610a8c565b5085935050505092915050565b60006020820190508181036000830152610ae08184610a68565b905092915050565b60008060408385031215610aff57610afe6108dc565b5b6000610b0d85828601610902565b9250506020610b1e85828601610902565b9150509250929050565b6000610b338261096e565b9050919050565b610b4381610b28565b8114610b4e57600080fd5b50565b600081519050610b6081610b3a565b92915050565b600060208284031215610b7c57610b7b6108dc565b5b6000610b8a84828501610b51565b91505092915050565b600082825260208201905092915050565b7f5468697320756e69716f6e20746f6b656e206e6f742073616c652e0000000000600082015250565b6000610bda601b83610b93565b9150610be582610ba4565b602082019050919050565b60006020820190508181036000830152610c0981610bcd565b9050919050565b7f43616c6c65722073656e74206c6f776572207468616e2070726963652e000000600082015250565b6000610c46601d83610b93565b9150610c5182610c10565b602082019050919050565b60006020820190508181036000830152610c7581610c39565b9050919050565b7f43616c6c657220697320756e69716f6e20746f6b656e206f776e65722e000000600082015250565b6000610cb2601d83610b93565b9150610cbd82610c7c565b602082019050919050565b60006020820190508181036000830152610ce181610ca5565b9050919050565b610cf181610b28565b82525050565b6000606082019050610d0c6000830186610ce8565b610d196020830185610ce8565b610d266040830184610944565b949350505050565b7f4e487b7100000000000000000000000000000000000000000000000000000000600052603260045260246000fd5b7f4e487b7100000000000000000000000000000000000000000000000000000000600052601160045260246000fd5b6000610d97826108e1565b9150610da2836108e1565b925082821015610db557610db4610d5d565b5b828203905092915050565b7f4e487b7100000000000000000000000000000000000000000000000000000000600052603160045260246000fd5b6000610dfa826108e1565b91507fffffffffffffffffffffffffffffffffffffffffffffffffffffffffffffffff821415610e2d57610e2c610d5d565b5b600182019050919050565b7f43616c6c6572206973206e6f7420756e69716f6e546f6b656e206f776e65722e600082015250565b6000610e6e602083610b93565b9150610e7982610e38565b602082019050919050565b60006020820190508181036000830152610e9d81610e61565b9050919050565b7f5072696365206973207a65726f206973206c6f7765722e000000000000000000600082015250565b6000610eda601783610b93565b9150610ee582610ea4565b602082019050919050565b60006020820190508181036000830152610f0981610ecd565b9050919050565b7f5468697320756e69716f6e20746f6b656e20697320616c7265616479206f6e2060008201527f73616c652e000000000000000000000000000000000000000000000000000000602082015250565b6000610f6c602583610b93565b9150610f7782610f10565b604082019050919050565b60006020820190508181036000830152610f9b81610f5f565b9050919050565b6000604082019050610fb76000830185610ce8565b610fc46020830184610ce8565b9392505050565b60008115159050919050565b610fe081610fcb565b8114610feb57600080fd5b50565b600081519050610ffd81610fd7565b92915050565b600060208284031215611019576110186108dc565b5b600061102784828501610fee565b91505092915050565b7f556e69716f6e20746f6b656e206f776e657220646964206e6f7420617070726f60008201527f766520746f6b656e2e0000000000000000000000000000000000000000000000602082015250565b600061108c602983610b93565b915061109782611030565b604082019050919050565b600060208201905081810360008301526110bb8161107f565b905091905056fea2646970667358221220cb93549349d4fb86e72c6459444c9599b6d143151625485f01f71413555f2bf964736f6c634300080a0033",
  "immutableReferences": {},
  "source": "// SPDX-License-Identifier: MIT\r\n\r\npragma solidity ^0.8.0;\r\n\r\nimport \"./MintUniqonToken.sol\";\r\n\r\ncontract SaleFactory {\r\n    MintUniqonToken public mintUniqonTokenAddress;\r\n\r\n    constructor(address _mintUniqonTokenAddress) {\r\n        mintUniqonTokenAddress = MintUniqonToken(_mintUniqonTokenAddress);\r\n    }\r\n\r\n    mapping(uint256 => uint256) public uniqonTokenPrices;\r\n\r\n    uint256[] public onSaleUniqonToken;\r\n\r\n    function setForSaleUniqonToken(uint256 _uniqonTokenId, uint256 _price)\r\n        public\r\n    {\r\n        address uniqonTokenOwner = mintUniqonTokenAddress.ownerOf(\r\n            _uniqonTokenId\r\n        );\r\n\r\n        require(\r\n            uniqonTokenOwner == msg.sender,\r\n            \"Caller is not uniqonToken owner.\"\r\n        );\r\n        require(_price > 0, \"Price is zero is lower.\");\r\n        require(\r\n            uniqonTokenPrices[_uniqonTokenId] == 0,\r\n            \"This uniqon token is already on sale.\"\r\n        );\r\n        require(\r\n            mintUniqonTokenAddress.isApprovedForAll(uniqonTokenOwner, address(this)),\r\n            \"Uniqon token owner did not approve token.\"\r\n        );\r\n\r\n        //  prices \r\n        uniqonTokenPrices[_uniqonTokenId] = _price;\r\n\r\n        //      \r\n        onSaleUniqonToken.push(_uniqonTokenId);\r\n    }\r\n\r\n    function purchaseUniqonToken(uint256 _uniqonTokenId) public payable {\r\n        uint256 price = uniqonTokenPrices[_uniqonTokenId];\r\n        address uniqonTokenOwner = mintUniqonTokenAddress.ownerOf(_uniqonTokenId);\r\n\r\n        require(price > 0, \"This uniqon token not sale.\");\r\n        require(price <= msg.value, \"Caller sent lower than price.\");\r\n        require(\r\n            uniqonTokenOwner != msg.sender,\r\n            \"Caller is uniqon token owner.\"\r\n        );\r\n\r\n        payable(uniqonTokenOwner).transfer(msg.value);\r\n        mintUniqonTokenAddress.safeTransferFrom(\r\n            uniqonTokenOwner,\r\n            msg.sender,\r\n            _uniqonTokenId\r\n        );\r\n\r\n        uniqonTokenPrices[_uniqonTokenId] = 0;\r\n\r\n        for (uint256 i = 0; i < onSaleUniqonToken.length; i++) {\r\n            if (uniqonTokenPrices[onSaleUniqonToken[i]] == 0) {\r\n                onSaleUniqonToken[i] = onSaleUniqonToken[\r\n                    onSaleUniqonToken.length - 1\r\n                ];\r\n                onSaleUniqonToken.pop();\r\n            }\r\n        }\r\n    }\r\n\r\n    function getTokenPrice(uint256 _uniqonTokenId)\r\n        public\r\n        view\r\n        returns (uint256)\r\n    {\r\n        return uniqonTokenPrices[_uniqonTokenId];\r\n    }\r\n\r\n    function getOnSaleUniqonToken() public view returns (uint256[] memory) {\r\n        return onSaleUniqonToken;\r\n    }\r\n}",
  "sourcePath": "C:\\SSAFY\\S07P22A507\\smart-contracts\\contracts\\SaleFactory.sol",
  "compiler": {
    "name": "solc",
    "version": "0.8.10+commit.fc410830.Emscripten.clang"
  },
  "schemaVersion": "3.4.9",
  "updatedAt": "2022-09-28T07:28:48.432Z",
  "devdoc": {
    "kind": "dev",
    "methods": {},
    "version": 1
  },
  "userdoc": {
    "kind": "user",
    "methods": {},
    "version": 1
  }
}