{
  "contractName": "SsafyNFT",
  "abi": [
    {
      "inputs": [],
      "stateMutability": "nonpayable",
      "type": "constructor"
    },
    {
      "anonymous": false,
      "inputs": [
        {
          "indexed": true,
          "internalType": "address",
          "name": "owner",
          "type": "address"
        },
        {
          "indexed": true,
          "internalType": "address",
          "name": "approved",
          "type": "address"
        },
        {
          "indexed": true,
          "internalType": "uint256",
          "name": "tokenId",
          "type": "uint256"
        }
      ],
      "name": "Approval",
      "type": "event"
    },
    {
      "anonymous": false,
      "inputs": [
        {
          "indexed": true,
          "internalType": "address",
          "name": "owner",
          "type": "address"
        },
        {
          "indexed": true,
          "internalType": "address",
          "name": "operator",
          "type": "address"
        },
        {
          "indexed": false,
          "internalType": "bool",
          "name": "approved",
          "type": "bool"
        }
      ],
      "name": "ApprovalForAll",
      "type": "event"
    },
    {
      "anonymous": false,
      "inputs": [
        {
          "indexed": true,
          "internalType": "address",
          "name": "from",
          "type": "address"
        },
        {
          "indexed": true,
          "internalType": "address",
          "name": "to",
          "type": "address"
        },
        {
          "indexed": true,
          "internalType": "uint256",
          "name": "tokenId",
          "type": "uint256"
        }
      ],
      "name": "Transfer",
      "type": "event"
    },
    {
      "anonymous": false,
      "inputs": [
        {
          "indexed": true,
          "internalType": "uint256",
          "name": "_tokenId",
          "type": "uint256"
        },
        {
          "indexed": true,
          "internalType": "address",
          "name": "_owner",
          "type": "address"
        }
      ],
      "name": "createNFT",
      "type": "event"
    },
    {
      "inputs": [
        {
          "internalType": "address",
          "name": "to",
          "type": "address"
        },
        {
          "internalType": "uint256",
          "name": "tokenId",
          "type": "uint256"
        }
      ],
      "name": "approve",
      "outputs": [],
      "stateMutability": "nonpayable",
      "type": "function"
    },
    {
      "inputs": [
        {
          "internalType": "address",
          "name": "owner",
          "type": "address"
        }
      ],
      "name": "balanceOf",
      "outputs": [
        {
          "internalType": "uint256",
          "name": "",
          "type": "uint256"
        }
      ],
      "stateMutability": "view",
      "type": "function",
      "constant": true
    },
    {
      "inputs": [
        {
          "internalType": "uint256",
          "name": "tokenId",
          "type": "uint256"
        }
      ],
      "name": "getApproved",
      "outputs": [
        {
          "internalType": "address",
          "name": "",
          "type": "address"
        }
      ],
      "stateMutability": "view",
      "type": "function",
      "constant": true
    },
    {
      "inputs": [
        {
          "internalType": "address",
          "name": "owner",
          "type": "address"
        },
        {
          "internalType": "address",
          "name": "operator",
          "type": "address"
        }
      ],
      "name": "isApprovedForAll",
      "outputs": [
        {
          "internalType": "bool",
          "name": "",
          "type": "bool"
        }
      ],
      "stateMutability": "view",
      "type": "function",
      "constant": true
    },
    {
      "inputs": [],
      "name": "name",
      "outputs": [
        {
          "internalType": "string",
          "name": "",
          "type": "string"
        }
      ],
      "stateMutability": "view",
      "type": "function",
      "constant": true
    },
    {
      "inputs": [
        {
          "internalType": "uint256",
          "name": "tokenId",
          "type": "uint256"
        }
      ],
      "name": "ownerOf",
      "outputs": [
        {
          "internalType": "address",
          "name": "",
          "type": "address"
        }
      ],
      "stateMutability": "view",
      "type": "function",
      "constant": true
    },
    {
      "inputs": [
        {
          "internalType": "address",
          "name": "from",
          "type": "address"
        },
        {
          "internalType": "address",
          "name": "to",
          "type": "address"
        },
        {
          "internalType": "uint256",
          "name": "tokenId",
          "type": "uint256"
        }
      ],
      "name": "safeTransferFrom",
      "outputs": [],
      "stateMutability": "nonpayable",
      "type": "function"
    },
    {
      "inputs": [
        {
          "internalType": "address",
          "name": "from",
          "type": "address"
        },
        {
          "internalType": "address",
          "name": "to",
          "type": "address"
        },
        {
          "internalType": "uint256",
          "name": "tokenId",
          "type": "uint256"
        },
        {
          "internalType": "bytes",
          "name": "data",
          "type": "bytes"
        }
      ],
      "name": "safeTransferFrom",
      "outputs": [],
      "stateMutability": "nonpayable",
      "type": "function"
    },
    {
      "inputs": [
        {
          "internalType": "address",
          "name": "operator",
          "type": "address"
        },
        {
          "internalType": "bool",
          "name": "approved",
          "type": "bool"
        }
      ],
      "name": "setApprovalForAll",
      "outputs": [],
      "stateMutability": "nonpayable",
      "type": "function"
    },
    {
      "inputs": [
        {
          "internalType": "bytes4",
          "name": "interfaceId",
          "type": "bytes4"
        }
      ],
      "name": "supportsInterface",
      "outputs": [
        {
          "internalType": "bool",
          "name": "",
          "type": "bool"
        }
      ],
      "stateMutability": "view",
      "type": "function",
      "constant": true
    },
    {
      "inputs": [],
      "name": "symbol",
      "outputs": [
        {
          "internalType": "string",
          "name": "",
          "type": "string"
        }
      ],
      "stateMutability": "view",
      "type": "function",
      "constant": true
    },
    {
      "inputs": [
        {
          "internalType": "address",
          "name": "from",
          "type": "address"
        },
        {
          "internalType": "address",
          "name": "to",
          "type": "address"
        },
        {
          "internalType": "uint256",
          "name": "tokenId",
          "type": "uint256"
        }
      ],
      "name": "transferFrom",
      "outputs": [],
      "stateMutability": "nonpayable",
      "type": "function"
    },
    {
      "inputs": [],
      "name": "current",
      "outputs": [
        {
          "internalType": "uint256",
          "name": "",
          "type": "uint256"
        }
      ],
      "stateMutability": "view",
      "type": "function",
      "constant": true
    },
    {
      "inputs": [
        {
          "internalType": "uint256",
          "name": "tokenId",
          "type": "uint256"
        }
      ],
      "name": "tokenURI",
      "outputs": [
        {
          "internalType": "string",
          "name": "",
          "type": "string"
        }
      ],
      "stateMutability": "view",
      "type": "function",
      "constant": true
    },
    {
      "inputs": [
        {
          "internalType": "address",
          "name": "to",
          "type": "address"
        },
        {
          "internalType": "string",
          "name": "_tokenURI",
          "type": "string"
        }
      ],
      "name": "create",
      "outputs": [
        {
          "internalType": "uint256",
          "name": "",
          "type": "uint256"
        }
      ],
      "stateMutability": "nonpayable",
      "type": "function"
    }
  ],
  "bytecode": "0x60806040523480156200001157600080fd5b506040518060400160405280600b81526020017f556e69712e6f6e2d4e46540000000000000000000000000000000000000000008152506040518060400160405280600481526020017f554e465400000000000000000000000000000000000000000000000000000000815250816000908051906020019062000096929190620000c0565b508060019080519060200190620000af929190620000c0565b5050506000600681905550620001d5565b828054620000ce906200019f565b90600052602060002090601f016020900481019282620000f257600085556200013e565b82601f106200010d57805160ff19168380011785556200013e565b828001600101855582156200013e579182015b828111156200013d57825182559160200191906001019062000120565b5b5090506200014d919062000151565b5090565b5b808211156200016c57600081600090555060010162000152565b5090565b7f4e487b7100000000000000000000000000000000000000000000000000000000600052602260045260246000fd5b60006002820490506001821680620001b857607f821691505b60208210811415620001cf57620001ce62000170565b5b50919050565b6123b080620001e56000396000f3fe608060405234801561001057600080fd5b50600436106100f55760003560e01c806370a0823111610097578063a22cb46511610066578063a22cb46514610298578063b88d4fde146102b4578063c87b56dd146102d0578063e985e9c514610300576100f5565b806370a08231146101fc57806395d89b411461022c5780639fa6a6e31461024a578063a15ab08d14610268576100f5565b8063095ea7b3116100d3578063095ea7b31461017857806323b872dd1461019457806342842e0e146101b05780636352211e146101cc576100f5565b806301ffc9a7146100fa57806306fdde031461012a578063081812fc14610148575b600080fd5b610114600480360381019061010f91906115af565b610330565b60405161012191906115f7565b60405180910390f35b610132610412565b60405161013f91906116ab565b60405180910390f35b610162600480360381019061015d9190611703565b6104a4565b60405161016f9190611771565b60405180910390f35b610192600480360381019061018d91906117b8565b6104ea565b005b6101ae60048036038101906101a991906117f8565b610602565b005b6101ca60048036038101906101c591906117f8565b610662565b005b6101e660048036038101906101e19190611703565b610682565b6040516101f39190611771565b60405180910390f35b6102166004803603810190610211919061184b565b610709565b6040516102239190611887565b60405180910390f35b6102346107c1565b60405161024191906116ab565b60405180910390f35b610252610853565b60405161025f9190611887565b60405180910390f35b610282600480360381019061027d91906119d7565b61085d565b60405161028f9190611887565b60405180910390f35b6102b260048036038101906102ad9190611a5f565b61088b565b005b6102ce60048036038101906102c99190611b40565b6108a1565b005b6102ea60048036038101906102e59190611703565b610903565b6040516102f791906116ab565b60405180910390f35b61031a60048036038101906103159190611bc3565b6109a8565b60405161032791906115f7565b60405180910390f35b60007f80ac58cd000000000000000000000000000000000000000000000000000000007bffffffffffffffffffffffffffffffffffffffffffffffffffffffff1916827bffffffffffffffffffffffffffffffffffffffffffffffffffffffff191614806103fb57507f5b5e139f000000000000000000000000000000000000000000000000000000007bffffffffffffffffffffffffffffffffffffffffffffffffffffffff1916827bffffffffffffffffffffffffffffffffffffffffffffffffffffffff1916145b8061040b575061040a82610a3c565b5b9050919050565b60606000805461042190611c32565b80601f016020809104026020016040519081016040528092919081815260200182805461044d90611c32565b801561049a5780601f1061046f5761010080835404028352916020019161049a565b820191906000526020600020905b81548152906001019060200180831161047d57829003601f168201915b5050505050905090565b60006104af82610aa6565b6004600083815260200190815260200160002060009054906101000a900473ffffffffffffffffffffffffffffffffffffffff169050919050565b60006104f582610682565b90508073ffffffffffffffffffffffffffffffffffffffff168373ffffffffffffffffffffffffffffffffffffffff161415610566576040517f08c379a000000000000000000000000000000000000000000000000000000000815260040161055d90611cd6565b60405180910390fd5b8073ffffffffffffffffffffffffffffffffffffffff16610585610af1565b73ffffffffffffffffffffffffffffffffffffffff1614806105b457506105b3816105ae610af1565b6109a8565b5b6105f3576040517f08c379a00000000000000000000000000000000000000000000000000000000081526004016105ea90611d68565b60405180910390fd5b6105fd8383610af9565b505050565b61061361060d610af1565b82610bb2565b610652576040517f08c379a000000000000000000000000000000000000000000000000000000000815260040161064990611dfa565b60405180910390fd5b61065d838383610c47565b505050565b61067d838383604051806020016040528060008152506108a1565b505050565b60008061068e83610f3d565b9050600073ffffffffffffffffffffffffffffffffffffffff168173ffffffffffffffffffffffffffffffffffffffff161415610700576040517f08c379a00000000000000000000000000000000000000000000000000000000081526004016106f790611e66565b60405180910390fd5b80915050919050565b60008073ffffffffffffffffffffffffffffffffffffffff168273ffffffffffffffffffffffffffffffffffffffff16141561077a576040517f08c379a000000000000000000000000000000000000000000000000000000000815260040161077190611ef8565b60405180910390fd5b600360008373ffffffffffffffffffffffffffffffffffffffff1673ffffffffffffffffffffffffffffffffffffffff168152602001908152602001600020549050919050565b6060600180546107d090611c32565b80601f01602080910402602001604051908101604052809291908181526020018280546107fc90611c32565b80156108495780601f1061081e57610100808354040283529160200191610849565b820191906000526020600020905b81548152906001019060200180831161082c57829003601f168201915b5050505050905090565b6000600654905090565b60006001600660008282546108729190611f47565b9250508190555061088583600654610f7a565b92915050565b61089d610896610af1565b8383611194565b5050565b6108b26108ac610af1565b83610bb2565b6108f1576040517f08c379a00000000000000000000000000000000000000000000000000000000081526004016108e890611dfa565b60405180910390fd5b6108fd84848484611301565b50505050565b606060076000838152602001908152602001600020805461092390611c32565b80601f016020809104026020016040519081016040528092919081815260200182805461094f90611c32565b801561099c5780601f106109715761010080835404028352916020019161099c565b820191906000526020600020905b81548152906001019060200180831161097f57829003601f168201915b50505050509050919050565b6000600560008473ffffffffffffffffffffffffffffffffffffffff1673ffffffffffffffffffffffffffffffffffffffff16815260200190815260200160002060008373ffffffffffffffffffffffffffffffffffffffff1673ffffffffffffffffffffffffffffffffffffffff16815260200190815260200160002060009054906101000a900460ff16905092915050565b60007f01ffc9a7000000000000000000000000000000000000000000000000000000007bffffffffffffffffffffffffffffffffffffffffffffffffffffffff1916827bffffffffffffffffffffffffffffffffffffffffffffffffffffffff1916149050919050565b610aaf8161135d565b610aee576040517f08c379a0000000000000000000000000000000000000000000000000000000008152600401610ae590611e66565b60405180910390fd5b50565b600033905090565b816004600083815260200190815260200160002060006101000a81548173ffffffffffffffffffffffffffffffffffffffff021916908373ffffffffffffffffffffffffffffffffffffffff160217905550808273ffffffffffffffffffffffffffffffffffffffff16610b6c83610682565b73ffffffffffffffffffffffffffffffffffffffff167f8c5be1e5ebec7d5bd14f71427d1e84f3dd0314c0f7b2291e5b200ac8c7c3b92560405160405180910390a45050565b600080610bbe83610682565b90508073ffffffffffffffffffffffffffffffffffffffff168473ffffffffffffffffffffffffffffffffffffffff161480610c005750610bff81856109a8565b5b80610c3e57508373ffffffffffffffffffffffffffffffffffffffff16610c26846104a4565b73ffffffffffffffffffffffffffffffffffffffff16145b91505092915050565b8273ffffffffffffffffffffffffffffffffffffffff16610c6782610682565b73ffffffffffffffffffffffffffffffffffffffff1614610cbd576040517f08c379a0000000000000000000000000000000000000000000000000000000008152600401610cb49061200f565b60405180910390fd5b600073ffffffffffffffffffffffffffffffffffffffff168273ffffffffffffffffffffffffffffffffffffffff161415610d2d576040517f08c379a0000000000000000000000000000000000000000000000000000000008152600401610d24906120a1565b60405180910390fd5b610d3883838361139e565b8273ffffffffffffffffffffffffffffffffffffffff16610d5882610682565b73ffffffffffffffffffffffffffffffffffffffff1614610dae576040517f08c379a0000000000000000000000000000000000000000000000000000000008152600401610da59061200f565b60405180910390fd5b6004600082815260200190815260200160002060006101000a81549073ffffffffffffffffffffffffffffffffffffffff02191690556001600360008573ffffffffffffffffffffffffffffffffffffffff1673ffffffffffffffffffffffffffffffffffffffff168152602001908152602001600020600082825403925050819055506001600360008473ffffffffffffffffffffffffffffffffffffffff1673ffffffffffffffffffffffffffffffffffffffff16815260200190815260200160002060008282540192505081905550816002600083815260200190815260200160002060006101000a81548173ffffffffffffffffffffffffffffffffffffffff021916908373ffffffffffffffffffffffffffffffffffffffff160217905550808273ffffffffffffffffffffffffffffffffffffffff168473ffffffffffffffffffffffffffffffffffffffff167fddf252ad1be2c89b69c2b068fc378daa952ba7f163c4a11628f55a4df523b3ef60405160405180910390a4610f388383836113a3565b505050565b60006002600083815260200190815260200160002060009054906101000a900473ffffffffffffffffffffffffffffffffffffffff169050919050565b600073ffffffffffffffffffffffffffffffffffffffff168273ffffffffffffffffffffffffffffffffffffffff161415610fea576040517f08c379a0000000000000000000000000000000000000000000000000000000008152600401610fe19061210d565b60405180910390fd5b610ff38161135d565b15611033576040517f08c379a000000000000000000000000000000000000000000000000000000000815260040161102a90612179565b60405180910390fd5b61103f6000838361139e565b6110488161135d565b15611088576040517f08c379a000000000000000000000000000000000000000000000000000000000815260040161107f90612179565b60405180910390fd5b6001600360008473ffffffffffffffffffffffffffffffffffffffff1673ffffffffffffffffffffffffffffffffffffffff16815260200190815260200160002060008282540192505081905550816002600083815260200190815260200160002060006101000a81548173ffffffffffffffffffffffffffffffffffffffff021916908373ffffffffffffffffffffffffffffffffffffffff160217905550808273ffffffffffffffffffffffffffffffffffffffff16600073ffffffffffffffffffffffffffffffffffffffff167fddf252ad1be2c89b69c2b068fc378daa952ba7f163c4a11628f55a4df523b3ef60405160405180910390a4611190600083836113a3565b5050565b8173ffffffffffffffffffffffffffffffffffffffff168373ffffffffffffffffffffffffffffffffffffffff161415611203576040517f08c379a00000000000000000000000000000000000000000000000000000000081526004016111fa906121e5565b60405180910390fd5b80600560008573ffffffffffffffffffffffffffffffffffffffff1673ffffffffffffffffffffffffffffffffffffffff16815260200190815260200160002060008473ffffffffffffffffffffffffffffffffffffffff1673ffffffffffffffffffffffffffffffffffffffff16815260200190815260200160002060006101000a81548160ff0219169083151502179055508173ffffffffffffffffffffffffffffffffffffffff168373ffffffffffffffffffffffffffffffffffffffff167f17307eab39ab6107e8899845ad3d59bd9653f200f220920489ca2b5937696c31836040516112f491906115f7565b60405180910390a3505050565b61130c848484610c47565b611318848484846113a8565b611357576040517f08c379a000000000000000000000000000000000000000000000000000000000815260040161134e90612277565b60405180910390fd5b50505050565b60008073ffffffffffffffffffffffffffffffffffffffff1661137f83610f3d565b73ffffffffffffffffffffffffffffffffffffffff1614159050919050565b505050565b505050565b60006113c98473ffffffffffffffffffffffffffffffffffffffff16611530565b15611523578373ffffffffffffffffffffffffffffffffffffffff1663150b7a026113f2610af1565b8786866040518563ffffffff1660e01b815260040161141494939291906122ec565b6020604051808303816000875af192505050801561145057506040513d601f19601f8201168201806040525081019061144d919061234d565b60015b6114d3573d8060008114611480576040519150601f19603f3d011682016040523d82523d6000602084013e611485565b606091505b506000815114156114cb576040517f08c379a00000000000000000000000000000000000000000000000000000000081526004016114c290612277565b60405180910390fd5b805181602001fd5b63150b7a0260e01b7bffffffffffffffffffffffffffffffffffffffffffffffffffffffff1916817bffffffffffffffffffffffffffffffffffffffffffffffffffffffff191614915050611528565b600190505b949350505050565b600080823b905060008111915050919050565b6000604051905090565b600080fd5b600080fd5b60007fffffffff0000000000000000000000000000000000000000000000000000000082169050919050565b61158c81611557565b811461159757600080fd5b50565b6000813590506115a981611583565b92915050565b6000602082840312156115c5576115c461154d565b5b60006115d38482850161159a565b91505092915050565b60008115159050919050565b6115f1816115dc565b82525050565b600060208201905061160c60008301846115e8565b92915050565b600081519050919050565b600082825260208201905092915050565b60005b8381101561164c578082015181840152602081019050611631565b8381111561165b576000848401525b50505050565b6000601f19601f8301169050919050565b600061167d82611612565b611687818561161d565b935061169781856020860161162e565b6116a081611661565b840191505092915050565b600060208201905081810360008301526116c58184611672565b905092915050565b6000819050919050565b6116e0816116cd565b81146116eb57600080fd5b50565b6000813590506116fd816116d7565b92915050565b6000602082840312156117195761171861154d565b5b6000611727848285016116ee565b91505092915050565b600073ffffffffffffffffffffffffffffffffffffffff82169050919050565b600061175b82611730565b9050919050565b61176b81611750565b82525050565b60006020820190506117866000830184611762565b92915050565b61179581611750565b81146117a057600080fd5b50565b6000813590506117b28161178c565b92915050565b600080604083850312156117cf576117ce61154d565b5b60006117dd858286016117a3565b92505060206117ee858286016116ee565b9150509250929050565b6000806000606084860312156118115761181061154d565b5b600061181f868287016117a3565b9350506020611830868287016117a3565b9250506040611841868287016116ee565b9150509250925092565b6000602082840312156118615761186061154d565b5b600061186f848285016117a3565b91505092915050565b611881816116cd565b82525050565b600060208201905061189c6000830184611878565b92915050565b600080fd5b600080fd5b7f4e487b7100000000000000000000000000000000000000000000000000000000600052604160045260246000fd5b6118e482611661565b810181811067ffffffffffffffff82111715611903576119026118ac565b5b80604052505050565b6000611916611543565b905061192282826118db565b919050565b600067ffffffffffffffff821115611942576119416118ac565b5b61194b82611661565b9050602081019050919050565b82818337600083830152505050565b600061197a61197584611927565b61190c565b905082815260208101848484011115611996576119956118a7565b5b6119a1848285611958565b509392505050565b600082601f8301126119be576119bd6118a2565b5b81356119ce848260208601611967565b91505092915050565b600080604083850312156119ee576119ed61154d565b5b60006119fc858286016117a3565b925050602083013567ffffffffffffffff811115611a1d57611a1c611552565b5b611a29858286016119a9565b9150509250929050565b611a3c816115dc565b8114611a4757600080fd5b50565b600081359050611a5981611a33565b92915050565b60008060408385031215611a7657611a7561154d565b5b6000611a84858286016117a3565b9250506020611a9585828601611a4a565b9150509250929050565b600067ffffffffffffffff821115611aba57611ab96118ac565b5b611ac382611661565b9050602081019050919050565b6000611ae3611ade84611a9f565b61190c565b905082815260208101848484011115611aff57611afe6118a7565b5b611b0a848285611958565b509392505050565b600082601f830112611b2757611b266118a2565b5b8135611b37848260208601611ad0565b91505092915050565b60008060008060808587031215611b5a57611b5961154d565b5b6000611b68878288016117a3565b9450506020611b79878288016117a3565b9350506040611b8a878288016116ee565b925050606085013567ffffffffffffffff811115611bab57611baa611552565b5b611bb787828801611b12565b91505092959194509250565b60008060408385031215611bda57611bd961154d565b5b6000611be8858286016117a3565b9250506020611bf9858286016117a3565b9150509250929050565b7f4e487b7100000000000000000000000000000000000000000000000000000000600052602260045260246000fd5b60006002820490506001821680611c4a57607f821691505b60208210811415611c5e57611c5d611c03565b5b50919050565b7f4552433732313a20617070726f76616c20746f2063757272656e74206f776e6560008201527f7200000000000000000000000000000000000000000000000000000000000000602082015250565b6000611cc060218361161d565b9150611ccb82611c64565b604082019050919050565b60006020820190508181036000830152611cef81611cb3565b9050919050565b7f4552433732313a20617070726f76652063616c6c6572206973206e6f7420746f60008201527f6b656e206f776e6572206f7220617070726f76656420666f7220616c6c000000602082015250565b6000611d52603d8361161d565b9150611d5d82611cf6565b604082019050919050565b60006020820190508181036000830152611d8181611d45565b9050919050565b7f4552433732313a2063616c6c6572206973206e6f7420746f6b656e206f776e6560008201527f72206f7220617070726f76656400000000000000000000000000000000000000602082015250565b6000611de4602d8361161d565b9150611def82611d88565b604082019050919050565b60006020820190508181036000830152611e1381611dd7565b9050919050565b7f4552433732313a20696e76616c696420746f6b656e2049440000000000000000600082015250565b6000611e5060188361161d565b9150611e5b82611e1a565b602082019050919050565b60006020820190508181036000830152611e7f81611e43565b9050919050565b7f4552433732313a2061646472657373207a65726f206973206e6f74206120766160008201527f6c6964206f776e65720000000000000000000000000000000000000000000000602082015250565b6000611ee260298361161d565b9150611eed82611e86565b604082019050919050565b60006020820190508181036000830152611f1181611ed5565b9050919050565b7f4e487b7100000000000000000000000000000000000000000000000000000000600052601160045260246000fd5b6000611f52826116cd565b9150611f5d836116cd565b9250827fffffffffffffffffffffffffffffffffffffffffffffffffffffffffffffffff03821115611f9257611f91611f18565b5b828201905092915050565b7f4552433732313a207472616e736665722066726f6d20696e636f72726563742060008201527f6f776e6572000000000000000000000000000000000000000000000000000000602082015250565b6000611ff960258361161d565b915061200482611f9d565b604082019050919050565b6000602082019050818103600083015261202881611fec565b9050919050565b7f4552433732313a207472616e7366657220746f20746865207a65726f2061646460008201527f7265737300000000000000000000000000000000000000000000000000000000602082015250565b600061208b60248361161d565b91506120968261202f565b604082019050919050565b600060208201905081810360008301526120ba8161207e565b9050919050565b7f4552433732313a206d696e7420746f20746865207a65726f2061646472657373600082015250565b60006120f760208361161d565b9150612102826120c1565b602082019050919050565b60006020820190508181036000830152612126816120ea565b9050919050565b7f4552433732313a20746f6b656e20616c7265616479206d696e74656400000000600082015250565b6000612163601c8361161d565b915061216e8261212d565b602082019050919050565b6000602082019050818103600083015261219281612156565b9050919050565b7f4552433732313a20617070726f766520746f2063616c6c657200000000000000600082015250565b60006121cf60198361161d565b91506121da82612199565b602082019050919050565b600060208201905081810360008301526121fe816121c2565b9050919050565b7f4552433732313a207472616e7366657220746f206e6f6e20455243373231526560008201527f63656976657220696d706c656d656e7465720000000000000000000000000000602082015250565b600061226160328361161d565b915061226c82612205565b604082019050919050565b6000602082019050818103600083015261229081612254565b9050919050565b600081519050919050565b600082825260208201905092915050565b60006122be82612297565b6122c881856122a2565b93506122d881856020860161162e565b6122e181611661565b840191505092915050565b60006080820190506123016000830187611762565b61230e6020830186611762565b61231b6040830185611878565b818103606083015261232d81846122b3565b905095945050505050565b60008151905061234781611583565b92915050565b6000602082840312156123635761236261154d565b5b600061237184828501612338565b9150509291505056fea26469706673582212208ca61f417ca8b6479c0c78c61cbd84f4a87f47dd68da6af2a542b0e8a00f3a1764736f6c634300080a0033",
  "immutableReferences": {},
  "source": "// SPDX-License-Identifier: MIT\r\npragma solidity ^0.8.4;\r\n\r\nimport \"./token/ERC721/ERC721.sol\";\r\n\r\n/**\r\n * PJT  -  2) NFT Creator \r\n *         .\r\n */\r\ncontract SsafyNFT is ERC721{\r\n\r\n    uint256 private _tokenIds;\r\n    mapping(uint256 => string) tokenURIs;\r\n\r\n    event createNFT(uint256 indexed _tokenId, address indexed _owner);\r\n\r\n    constructor() ERC721(\"Uniq.on-NFT\", \"UNFT\") {\r\n        _tokenIds = 0;\r\n        // tokenURIs[0] = \"123123\";\r\n    }\r\n\r\n    function current() public view returns (uint256) {\r\n        return _tokenIds;\r\n    }\r\n\r\n    function tokenURI(uint256 tokenId) public view override returns (string memory) {\r\n        return tokenURIs[tokenId];\r\n    }\r\n\r\n    function create(address to, string memory _tokenURI) public returns (uint256) {\r\n        // uint256 tokenId = current() + 1;\r\n        // tokenURIs[tokenId] = _tokenURI;\r\n        // _tokenIds = tokenId;\r\n        _tokenIds += 1;\r\n        _mint(to, _tokenIds);\r\n        // emit createNFT(_tokenIds+1, to); // block  + print \r\n        // return _tokenIds+1;\r\n    }\r\n}",
  "sourcePath": "C:\\SSAFY\\blockchain-nft-skeleton\\smart-contracts\\contracts\\SsafyNFT.sol",
  "compiler": {
    "name": "solc",
    "version": "0.8.10+commit.fc410830.Emscripten.clang"
  },
  "schemaVersion": "3.4.9",
  "updatedAt": "2022-09-22T03:57:47.004Z",
  "networkType": "ethereum",
  "devdoc": {
    "kind": "dev",
    "methods": {
      "approve(address,uint256)": {
        "details": "See {IERC721-approve}."
      },
      "balanceOf(address)": {
        "details": "See {IERC721-balanceOf}."
      },
      "getApproved(uint256)": {
        "details": "See {IERC721-getApproved}."
      },
      "isApprovedForAll(address,address)": {
        "details": "See {IERC721-isApprovedForAll}."
      },
      "name()": {
        "details": "See {IERC721Metadata-name}."
      },
      "ownerOf(uint256)": {
        "details": "See {IERC721-ownerOf}."
      },
      "safeTransferFrom(address,address,uint256)": {
        "details": "See {IERC721-safeTransferFrom}."
      },
      "safeTransferFrom(address,address,uint256,bytes)": {
        "details": "See {IERC721-safeTransferFrom}."
      },
      "setApprovalForAll(address,bool)": {
        "details": "See {IERC721-setApprovalForAll}."
      },
      "supportsInterface(bytes4)": {
        "details": "See {IERC165-supportsInterface}."
      },
      "symbol()": {
        "details": "See {IERC721Metadata-symbol}."
      },
      "tokenURI(uint256)": {
        "details": "See {IERC721Metadata-tokenURI}."
      },
      "transferFrom(address,address,uint256)": {
        "details": "See {IERC721-transferFrom}."
      }
    },
    "version": 1
  },
  "userdoc": {
    "kind": "user",
    "methods": {},
    "notice": "PJT  -  2) NFT Creator          .",
    "version": 1
  }
}